:020000040800F2
:1000000000000120A5D0040841D10408F5C701086B
:1000100045C6010841D1040841D104080000000090
:1000200000000000000000000000000041D10408B2
:1000300041D104080000000041D104087D8C010872
:1000400041D1040841D1040841D1040841D1040838
:1000500041D1040841D10408A1870108A9870108FA
:10006000B1870108B9870108C1870108D5A6000832
:10007000E9A60008FDA6000811A7000825A70008AA
:1000800039A700084DA7000841D1040841D1040850
:1000900041D1040841D1040841D10408C9870108AD
:1000A000A1C300088DC20008B1C300087DC20008CA
:1000B000B5C20008C5C20008D5C20008B1A2000838
:1000C000A5A20008E5A20008D9A2000841D10408B1
:1000D00041D10408C98B0108D58B0108E18B0108C7
:1000E000D187010841D1040841D10408C1C30008E7
:1000F00079C3000841D1040869C3000861A700085A
:1001000041D1040841D10408E5C2000841D10408E6
:10011000ED8B0108F98B0108F5C20008095A0408A3
:1001200075A7000889A700089DA70008B1A70008C7
:10013000C5A700080000000000000000000000004B
:100140000000000000000000000000008D4F0408C7
:10015000D9A70008EDA7000801A80008058C010830
:1001600019A300080DA3000841D1040841D10408D7
:1001700041D1040841D10408000000000000000043
:1001800041D1040841D1040841D1040841D10408F7
:1001900041D1040841D104080000000041D1040805
:1001A00000000000000000000000000041D1040831
:1001B00041D1040841D10408000000000000000003
:1001C000000000000000000000000000000000002F
:1001D00000000000000000000000000041D1040801
:0801E000B0CB04000100000097
:1001E800FA010100040000009032012010320120C1
:1001F8000000000035E300080C3201200530010042
:1002080008000000342D01201832012000000000F1
:10021800B023060814320120130201000400000074
:10022800842A01202432012000000000B823060897
:10023800203201200A9001002400000094190120B6
:100248002C3201200000000031B4020828320120BD
:100258001F02080010000000D023012054320120A2
:10026800000000003DE300085032012006100100A4
:1002780026000000701B01206832012000000000E9
:10028800E9E100086432012021020100F0000000C9
:10029800C0680120346A012000000000B56D030821
:1002A800306A01202C00040010000000B068012012
:1002B800286B01200000000021B10208246B0120F6
:1002C80025201E002C010000846701203C6B0120C2
:1002D8000000000000000000386B01202B00120015
:1002E800240000003C6701206C6C01200000000025
:1002F8003DB10208686C01201620010006000000CC
:100308000C590120946C012000000000BC23060851
:10031800906C012027000100040000000059012012
:10032800A06C012000000000C22306089C6C01207C
:100338000C5004008000000010520120A86C01201D
:100348000000000089530208A46C01200311010079
:100358000A000000AC5701202C6D012000000000AD
:1003680081B30308286D01202920140078000000BB
:10037800985601203C6D012000000000000000009C
:10038800386D0120012001000C0000008C5601206E
:10039800B86D012000000000C6230608B46D0120D6
:1003A80023200100100000007C560120C86D0120A8
:1003B800000000001DB40208C46D01200B300100CC
:1003C8001A0000002C560120DC6D012000000000FE
:1003D800D2230608D86D01200E50040058020000F0
:1003E80090520120FC6D012000000000D1AE0208EF
:1003F800F86D01201E10010009000000AC55012015
:100408005870012000000000EC23060854700120F9
:100418000D1001007000000038550120687001209F
:100428000000000041DE010864700120160215007A
:100438003F000000F0690120DC700120000000008E
:1004480085E30008D8700120220201001C01000089
:10045800B85701202071012000000000C9F50008EC
:100468001C710120184001003800000000550120CF
:10047800407201200000000089E800083C72012059
:100488001A0201003C000000B06901207C720120C2
:100498000000000029E80008787201202802040002
:1004A80004000000C0720120BC720120000000009E
:1004B8005DE20008B8720120270204000400000071
:1004C800CC720120C87201200000000051E200082F
:1004D800C47201201B02010010000000E472012018
:1004E800D4720120000000003DE20008D072012013
:1004F8000400080080000000145A0120F87201204E
:100508000000000000000000F47201201C0202003C
:100518001C000000605601207C73012000000000D0
:10052800D1E7000878730120283001001600000088
:10053800485601209C7301200000000035CD0208B8
:10054800987301200812040014000000AC5A01201E
:10055800B87301200000000069E20008B4730120AC
:10056800031201003D000000485B0120D073012008
:1005780000000000F6230608CC73012001020100E8
:100588000A000000505E01201474012000000000E1
:1005980025E30008107401200C020100040000008B
:1005A800C05A0120247401200000000015E300084F
:1005B80020740120FD1701009A000000605E0120F0
:1005C8002C740120000000001DAF030828740120CE
:1005D800131001000400000024560120CC740120EF
:1005E8000000000034240608C8740120020201003B
:1005F800030000004C5E0120D474012000000000BC
:1006080000000000D0740120F5C101007400000052
:1006180038570120DC740120000000001FB80308CF
:10062800D8740120F62101000C0000002C5701208D
:100638005475012000000000382406085075012078
:1006480012120100040000004876012064750120A0
:100658000000000044240608607501201102010012
:10066800080000004C7601206C7501200000000095
:100678004824060868750120F831010006000000CA
:10068800E854012078750120000000005024060875
:1006980074750120020001000C000000105B0120AD
:1006A8008475012000000000000000008075012012
:1006B800FE0101001400000010570120947501206C
:1006C8000000000089E3000890750120061204006C
:1006D80018000000F85A0120AC7501200000000045
:1006E80051E70008A8750120F70101000600000085
:1006F80024570120C8750120000000005624060870
:10070800C47501201A0001000E000000945A01204F
:10071800D4750120000000005C240608D075012073
:100728001400010005000000F8540120E8750120BC
:10073800000000006A240608E4750120FD0101009C
:1007480024000000EE590120F4750120000000008B
:10075800A35E0108F07501201D02020006000000DA
:10076800E85901201C76012000000000000000006C
:1007780018760120F90101000400000054760120D8
:1007880028760120000000005D5E01082476012023
:100798001230010010000000305101203076012095
:1007A80000000000702406082C7601203740010064
:1007B80028000000D08001203081012000000000C6
:1007C800802406082C8101201B2001000C00000059
:1007D800B87F01205C81012000000000114B030854
:1007E800588101201010010002000000E87D01205E
:1007F8006C81012000000000A824060868810120FF
:100808000E02010002000000F8800120748101201E
:1008180000000000AA240608708101202F20010092
:10082800220000007C8101205C760120000000008D
:10083800AC240608788101200101010004000000B1
:10084800A0860120008801200000000000000000B0
:10085800FC87012000010100040000009C860120A3
:100868000888012000000000D02406080488012020
:100878000201010003000000988601201088012071
:1008880000000000795302080C88012029020100A9
:10089800400000003C87012018880120000000006B
:1008A800D424060814880120205201000800000002
:1008B800A48501205C88012000000000142506089A
:1008C800588801202A120100080000009C85012098
:1008D80068880120000000001C25060864880120A3
:1008E800190001000500000094850120748801208A
:1008F8000000000024250608708801201F50010010
:1009080024000000388401208088012000000000B5
:100918002C2506087C8801203840010006000000CC
:10092800C4810120A8880120000000005025060885
:10093800A48801202332010014000000408E012009
:10094800B08F01200000000058250608AC8F012058
:100958000502010004000000F48E0120C88F012068
:10096800000000006C250608C48F01202C0201003D
:1009780004000000648F0120F08F012000000000B7
:1009880070250608EC8F01202D02010001000000EF
:10099800D0880120F88F012000000000000000002E
:1009A800F48F0120001201000A000000649A01205F
:1009B800909F012000000000000000008C9F012093
:08280000082800080040000850
:10800000084A0346D0F8E4005268D3F8F010121A78
:1080100000209142B8BFC3F8F020012283F81C2150
:10802000704700BF001000E030B5FAB18E464FEA4D
:10803000014C034600F1C005002419680C3353F8C5
:10804000042C43F8084C41EA0C0142EA0E02AB4210
:1080500043F80C1C43F8042CEFD1D0F8C03043EAAD
:108060000E03C0E93144C0F8C03030BD4FEA014EC4
:108070008C46DEE7836930B45C69996822680968D8
:1080800022F0010222601C8ACA6822EA0402CA6045
:10809000027D00681F2A06D9203A082144689140D1
:1080A000214216D0FEE70821046891402142F9D10F
:1080B000202101FA02F28260204A12783AB11A7F36
:1080C000012A0BD1D3F804210132C3F8042130BCBA
:1080D0007047202101FA02F2C260EDE7D3F80021D7
:1080E0000132C3F80021EFF31181502282F312888C
:1080F0005868C9B29D6C0268DC6C22EA0502224312
:10810000026081F311885A699968D3E90D400968C2
:1081100014605061D3E90F40546090605C6CB3F818
:10812000B400D4600124C8621068204310601A8A29
:108130001C77CB68134330BCCB607047E001002054
:1081400070B50E4E7368002B16DD06F1080400258D
:1081500003E073682034AB420EDD237F0135002B32
:10816000F7D0E06800220028F3D0217D203410F001
:1081700083FB7368AB42F0DC012070BDE00100209E
:10818000704700BF024B03EB401090F8250070478A
:10819000E00100204368426D30B49A61EFF3118230
:1081A000502383F312884168D2B2856C0B68046D4A
:1081B00023EA050323430B6082F311884369816836
:1081C0001A68096822F00102D0E908541A60826A2C
:1081D0001D605C615A60D0E90B429C60DA6000234C
:1081E000B0F86C2030BCCA6203777047084A034677
:1081F000D0F8E4005268D3F8F010121A00208A4236
:10820000C8BFC3F8F020012283F81C21704700BFCB
:10821000001000E04FF40063838170474FF4006367
:1082200083817047B0F90000084B4143994208DB55
:10823000B1F5000F07DA0029B8BFFF31081200B20C
:1082400070470348FBE747F6FF70F8E701FF7FFF41
:108250000080FFFF704700BF0346012200205A77CD
:10826000704700BF08B5D0E90B2183690B448361D7
:108270000AB108469047002008BD00BF436A024685
:108280001B681B6A5B685B7813F0010008BF5077BE
:10829000704700BFC2628161704700BF704700BF76
:1082A00004307047094B1A79196802440844D2B265
:1082B00018601A711A79120603D51A7982F08002B1
:1082C0001A71034B01221A70704700BF4818012031
:1082D000000001202DE9F84F144FBD68ED0A1FD0B2
:1082E0000026DFF84CA007F10C09B046AC19F9687C
:1082F000102352466410D1F828B04846C7F8388099
:10830000E102D8470F280BDD094B03F1100253F8A7
:10831000041B013107D19342F9D12546B542E5DC72
:10832000E802BDE8F88F661CF8E700BF4818012096
:1083300000000020154B196C5A6C8A1A322A12D888
:108340009A6D8A4200D37047DA6CDAB11068323124
:10835000928810B44469996522425DF8044B18BFB5
:1083600012048261704793F84820D96C02F0010230
:1083700019B1086889881AB9816100229A65704725
:108380000904F9E732319965704700BF48180120A8
:10839000074A92F84830D26C03F001031AB1116811
:1083A000928813B98A61002070471204FAE700BF6F
:1083B00048180120044B4FF4007C00209B6EA2F86B
:1083C00000C00B60704700BF4818012000207047B4
:1083D000012070470120704700207047134BD0F8F0
:1083E000D8105B68D0F8E02010B50446581A8242D5
:1083F00000DC22B9D4F8E4200A44C4F8DC2094F864
:10840000D020C4F8D830012A05D0D4F8D4300133B4
:10841000C4F8D43010BD04F1E801201D0FF032FC87
:10842000D4F8D4300133C4F8D43010BD001000E0CB
:1084300010B5104B04465868D4F8E410D4F8D8307E
:1084400094F8D0200B44C4F8D800012AC4F8DC30DA
:1084500005D0D4F8D4300133C4F8D43010BD04F1C1
:10846000E801201D0FF00EFCD4F8D4300133C4F81D
:10847000D43010BD001000E070B586698AB00546A2
:1084800096F8DC30012B23D0023B012B2BD8D6F8F9
:108490009C308C22154CEC461A700FCCACE80F00C7
:1084A000D6F89C300093D6F8A03001930FCCACE8FE
:1084B0000F0094E80300AB698CE8030003F110009F
:1084C00069460FF0DFFBAB691A69136A002BFCD118
:1084D000D6F8A030B3F90220EA81B3F904202A8249
:1084E000B3F906306B8201200AB070BD88E9040838
:1084F000CB070AD490F82830012B08D0C368B3F119
:10850000807F03D9012303777047704770471B4A68
:10851000D2E9261310B5B1EB930F8CB04FEA93025A
:10852000446A4FF0020306D252085B0091429BB2AC
:1085300001D2FF2BF8D9C268A380B2F1807F1BD98A
:108540000122002301A94FF0B70C027720460492C4
:108550008DF814208DF828208DF804C00B93CDE9F8
:10856000021302A9CDE90633CDE908330FF08AFBE7
:108570002268136A002BFCD10CB010BD48180120F2
:1085800030B590F828208BB000230446012A08D08B
:10859000427F62B103F0010282F0010062770BB00A
:1085A00030BD456A2A68117B01BB637F13B9012086
:1085B0000BB030BD10490220002301220290081F99
:1085C0008DF80C208DF820200993CDE90010694624
:1085D0002846CDE90433CDE906330FF053FB2A6872
:1085E000136A002BFCD1054B5B7CD3E7126A002A8F
:1085F000DBD01846D3E700BF1400002000000020A5
:1086000030B590F828108BB00446427F01292DD058
:1086100000230ABB01200BB030BD1B6A3BBB002A04
:10862000F8D016490220002301220290081F8DF87D
:108630000C208DF820200993CDE9001069462846CA
:10864000CDE90433CDE906330FF01CFB2A68136A29
:10865000002BFCD10A4B5B7C03F001031A466377C5
:10866000002BD7D094F828100129F7D1656A2B6820
:10867000197B0029D1D1002ACCD0D2E714000020E8
:1086800000000020244A002330B5044695B0101D98
:10869000224D0693019002200B9310931393119394
:1086A0000290207F009200280495CDE90E334FF010
:1086B00001038DF80C3007938DF820308DF834309D
:1086C0008DF8483002F10803A2F10802059314BFA7
:1086D000052304230A920C93114B0993636A1A68C9
:1086E000136A002BFCD1A0B10E480A0E00F11A0348
:1086F00042760A0A9970080C69465A701870606AC6
:108700000FF0C0FA636A1A68136A002BFCD115B027
:1087100030BD054BEDE700BF200000207D82000842
:1087200059820008000000201900002010B594B004
:10873000044650220749684645F0FEFE6946606AD5
:108740000FF0A0FA636A1A68136A002BFCD114B008
:1087500010BD00BFB0E90408F8B50546406A0068DE
:10876000046A002CFCD1287F002839D0A86905278D
:10877000254E4FEA106C254C2E3606F801CC676367
:10878000B0704FEA104C000A012B86F800C07070E0
:108790004FF000000E6826641668A6642E63A0657C
:1087A00024D0022B1BD15368012220651E44496846
:1087B000E365174B84F84C0061652E6384F86020F4
:1087C0006366144B697F03F11402686A002914BFC1
:1087D000194611460FF056FAEB6A73B1286BF8BDD3
:1087E00004200A4C0C4E6063A869C9E7084A84F863
:1087F0004C306065E0652265E3E76B6A1A68136ACE
:10880000002BFCD1EAE700BF00000020000001209F
:1088100065820008040001202D00002000B583B00F
:108820008161019201A9049A00930123C2626A4600
:10883000FFF792FF03B05DF804FB00BF70B51D4663
:10884000436A94B006461B681C6A002CFCD13A4B64
:1088500002204FF0010C0694029003F13C008DF8C9
:108860000CC0009003F1400001903448049003F1E3
:1088700034000590307F00284BD00B920A0E36331F
:108880008DF8204003F8012C05220C958DF834C09A
:108890008DF848C013940792CDE90944CDE90E4400
:1088A000CDE910440A0C9970254C090A1A705970C8
:1088B000706AD4E92632B3EB920F4FEA92014FF07F
:1088C000020206D2490852008B4292B201D2FF2A1C
:1088D000F8D9737F8280D3B905A90FF0D3F9706AF4
:1088E00003681A6A002AFCD10222D4E92734B4EBC7
:1088F000930F4FEA930106D2490852008C4292B27C
:1089000001D2FF2AF8D98280284614B070BD69468A
:10891000E3E70B92042235338DF820000C958DF897
:1089200034C08DF848C013900792CDE90900CDE915
:108930000E00CDE91000B5E7000000207D820008A0
:10894000481801208369F0B593F8DC208BB0054608
:10895000012A27D0023A012A2FD893F84C21EC465D
:10896000D3F89C1062F07F03154C0B708669D6F823
:10897000A0305F1C0FCCACE80F00D6F89C30CDE9DE
:1089800000370FCCACE80F0094E803008CE803003C
:10899000694606F110000FF075F9AB6919690A6AAA
:1089A000002AFCD1D3F8A0305A8852BAEA819A88BA
:1089B00052BA2A82DB885BBA6B8201200BB0F0BD11
:1089C00000EA0408F0B590F8DC308BB00446D0F82B
:1089D000A060012B4BD015D8D0F89C304FF0FF325F
:1089E00005211A605A609A60DA60D0F8E030C0F869
:1089F000F010B3F57A7F54D8032380F8DC300120DF
:108A00000BB0F0BD023B012BF9D890F84D31EC468C
:108A1000D0F89C2063F07F03384D1370D0F8A0305D
:108A20005F1C0FCDACE80F00D4F89C30CDE90037C7
:108A30000FCDACE80F0095E803008CE80300694611
:108A400004F110000FF01EF92269136A002BFCD10B
:108A5000738801205BBAA4F8D030B3885BBAA4F85D
:108A6000D230F3885BBAA4F8D4300BB0F0BD90F8E4
:108A70004C2190F84D319B1A5B100133DBB236F874
:108A8000132006EB430653BAA0F8D03073885BBAC4
:108A9000A0F8D230B3885BBAA0F8D43001200BB074
:108AA000F0BD03691A7B2AB35B691BB390F8983059
:108AB00003B390F84C310122D0F89C0063F07F039F
:108AC000C4F8A4400E49037094F84D3194F84C0159
:108AD00084F800211B1A84F8DC20D4F8A020073386
:108AE000C4F804110132D4F89C10C4E93E23C4F840
:108AF000F41084E7022384F8DC3080E700EA0408FD
:108B000001800008836910B5074C04EB8303D3F898
:108B1000C4003BF0C7FA0021B4F8E40040F0B6FD11
:108B2000002384F8E63010BD4818012080699C308D
:108B30003BF0B8BA2DE9F0412E4F07EB401898F8FA
:108B400024300BB9BDE8F08100EB80030E46002114
:108B5000044607EB4313450193F80A2183F80A11F1
:108B600088F80A2045F0C0FE98BB3D4422482E817B
:108B700000EB441045F0D8FE3B782A6A9BB1E968C7
:108B80000124D2F8AC308C4003F1C001420010F453
:108B9000004F90B202D15A6822435A600C33994276
:108BA000F4D1BDE8F081E9680124D2F8AC3001F1DC
:108BB000100203F1C0019440420010F4004F90B243
:108BC00002D15A6822435A600C339942F4D1BDE86D
:108BD000F0810A4B93F8482102EB420203EBC203F7
:108BE000234493F8F560002EBFD0012388F80A30A3
:108BF000BBE700BFE0010020E80100204818012089
:108C000010B5044645F020F80146204689B2BDE87B
:108C100010408FE72DE9F04145F0B2FE98B31D4EAC
:108C2000D6F80856002D12DD0024377806F21460BD
:108C3000A046013417B1037F012B1FD04269AC421B
:108C400000F58670136843F001031360F1D110F052
:108C500067F8D6F81046C6F80C06002C0CDD0E4B53
:108C600003EBC4041968083333F8042CC868A34222
:108C700042EA0002CA60F5D1BDE8F08180F8FC80CC
:108C8000FFF788FADAE73FF079FE0028C7D1BDE8A0
:108C9000F08100BFE0010020240C00200269C368BD
:108CA0002DE9F04712EA03092AD005460E464FF097
:108CB00000474FF00008B9FA89F327FA03F21B3B8B
:108CC000D24309EA02092A61042B16D8DFE803F02F
:108CD000352C231A0300B36A002B37D003F1FF3A77
:108CE000C6F828801FFA8AFA746A34B123682046CD
:108CF000514698476468002CF8D1B9F1000FDAD1D9
:108D0000BDE8F0877068696B036889B29847B9F16C
:108D1000000FD0D1F4E7B068A96B036889B2984717
:108D2000B9F1000FC7D1EBE7F068E96B036889B2CE
:108D30009847B9F1000FBED1E2E73069296C0368AA
:108D400089B29847B9F1000FB5D1D9E7E96A1FFA9E
:108D500081FAC9E72DE9F04F4D4C83B02378F3B980
:108D6000D4F80836002B16DD00264A4831464769FC
:108D7000D0F8AC303D6803F1C00225F001053D603C
:108D800059600C339342FBD10136D4F8083600F514
:108D90008670B342EBDC012003B0BDE8F08F3E4BA0
:108DA000DFF80091D3F840B00FF0BAFF59F8CC2C9F
:108DB000D4F80C161432401AB0EB420F64DBA9F160
:108DC000C80704F108060025DFF8DCA0019718E0C9
:108DD000B0F5606F48D0019B98814FF6FF712F4B23
:108DE0005A46411A4FF05C0018BF012100FB0530C4
:108DF0000EF016FD019B013520361433082D01932A
:108E00002ED06368AB422BDDB3694FF6FF78244F59
:108E1000D3F814C07268D3E93D015FFA8CF32CF0EB
:108E2000FF0C103BA7FB03731B091AF803309C448B
:108E3000DCF804309BB2C91A45F096FD4FF6FE737C
:108E40009842D7D059F8C03C404503F1010349F896
:108E5000C03CBDD159F8C43C013349F8C43CBCE71F
:108E6000012289F83E207BE70B4A92F8483103EB58
:108E7000430302EBC3032B4493F8F5300D2BAAD127
:108E80008023019A9377A8E7002003B0BDE8F08F14
:108E9000E0010020F40700204818012018130020EA
:108EA000ABAAAAAAD812002070650508836810B57D
:108EB000044682B01BB19A88196812048A610120A5
:108EC00013F07CF8A36813B11A689B8893610A2099
:108ED00013F074F8236800201B6AADF804005BB936
:108EE0002046022301AA80210FF056F89DF8053094
:108EF000242B14BF00200F2002B010BDF0B590F855
:108F00001E318DB00546032B55D090F8DC30D0F8DB
:108F1000A060012B00F0938016D8D0F89C3000227E
:108F200005211A605A609A609A81D0F8E030C0F842
:108F3000F010B3F57A7F00F292800323012480F8C9
:108F4000DC3020460DB0F0BD023B012B2FD8D0F80D
:108F50009C309222554F0DF1080C1A70D0F8A040A9
:108F60000FCFACE80F000FCFACE80F0097E803007D
:108F7000D5F89C308CE8030002A905F11000CDE97A
:108F800002340EF07FFE2A69136A002BFCD1B6F979
:108F900002300124A5F8D0302046B6F90430A5F8F7
:108FA000D230B6F90630A5F8D4300DB0F0BD0124AA
:108FB00020460DB0F0BD3E4900230122103001F1E2
:108FC0000C040B938DF814208DF828200190CDE926
:108FD0000633CDE908330A23CDE9021402A904932C
:108FE0000EF050FE2A690198146A002CFCD1314918
:108FF000B1F85220052A19DDB1F85430B1F95640C4
:10900000B1F9586014F5004F08BFB3F5004F4F6D2C
:1090100014BF0123002316F5004418BF01241C438C
:1090200003D0C5F8D070A5F8D460063A002ABFD0A6
:10903000B0227E210EF058FE20460DB0F0BDB6F9EC
:1090400008201C46A0F8D020B6F90A30A0F8D2308B
:10905000B6F90C30A0F8D43020460DB0F0BD03694D
:109060001A7BF2B15B69E3B190F89840CCB1D0F8CB
:109070009C1001230E228C20C5F8A45008700E49C4
:10908000C5F8FC2085F80031D5F89C2085F8DC3047
:10909000D5F8A030C5F80411C5F8F420C5F8F830AB
:1090A00086E70223012485F8DC3081E788E904089B
:1090B0004400002000000020ED810008F0B500F120
:1090C000100591B0B6227E21064690F81E71284602
:1090D0000EF00AFE642012F071FFB3691BB11A682A
:1090E0009B881B049361012012F068FFB36913B1E0
:1090F0001A689B8893610A2012F060FF00227C218D
:1091000028460EF0F1FD012012F058FF00225921EF
:1091100028460EF0E9FD012012F050FF0023012245
:109120005E218DF810302846059307930F938DF834
:10913000031001A98DF824208DF83820CDE90232E2
:10914000CDE90A33CDE90C330DF103030193924BC2
:1091500006934FF4A47308930EF094FD33691C6AD0
:10916000002CFCD10A2012F029FF012228465921A7
:109170000EF0BAFD012012F021FF032F00F08280D3
:109180009B2240212846854C0EF0AEFD012012F0B6
:1091900015FF0322412128460EF0A6FD012012F002
:1091A0000DFF94F84D31013BDBB2022B5FD9CD228C
:1091B000422128460EF098FD012012F0FFFE082201
:1091C000432128460EF090FD012012F0F7FE042204
:1091D000582128460EF088FD012012F0EFFE0A22E9
:1091E000532128460EF080FD012012F0E7FE0222F6
:1091F0007C2128460EF078FD012012F0DFFE284683
:109200000E227D210EF070FD012012F0D7FE96F89F
:109210002101C8B10FF008FB0546002800F0B58019
:1092200026233146C3805E4B41F80C3F40F0BAF92B
:10923000AB884FF00042B3FA83F332FA03F303D062
:1092400058490A6813430B60D4F89C3056499A0871
:10925000B1EB930F4FF0020306D252085B008A4233
:109260009BB201D9FF2BF8D9B38211B0F0BD4F4AA0
:109270004221134493F86822120162F0320202F094
:10928000FD0296E72246482128460EF02DFD0120DA
:1092900012F094FE8022492128460EF025FD01207F
:1092A00012F08CFE2246452128460EF01DFD0120BD
:1092B00012F084FE0622462128460EF015FD0120FC
:1092C00012F07CFE2246472128460EF00DFD0120BB
:1092D00012F074FE40219B2228460EF005FD01206D
:1092E00012F06CFE2D4C3A46412128460EF0FCFC53
:1092F000012012F063FE94F84D31013BDBB2022BEA
:1093000040D82A4A4221134493F86822120162F09D
:10931000320202F0FD0228460EF0E6FC012012F0B7
:109320004DFE0822432128460EF0DEFC012012F0FB
:1093300045FE0222582128460EF0D6FC012012F0EC
:109340003DFE0A22532128460EF0CEFC012012F0E9
:1093500035FE02227C2128460EF0C6FC012012F0C8
:109360002DFE0E227D2128460EF0BEFC012012F0BB
:1093700025FE2846B0227E210EF0B6FC012012F018
:109380001DFE44E7CD224221C5E73146044B41F89A
:109390000C3F40F007F957E7A8EA040848180120F5
:1093A00031840008003C01408096980088E9040858
:1093B00044F23B3373B5044600F11005A0F84C317C
:1093C00090F82101C0B10FF02FFA064608B126230C
:1093D000C38021464B4B304641F80C3F40F0E2F849
:1093E00056B1B388B3FA83F24FF00043D34003D0B1
:1093F00045490A6813430B6003226B2128460EF08F
:1094000073FC0F2012F0DEFB10226A2128460EF0BA
:109410006BFC0F2012F0D6FB00226C2128460EF0C8
:1094200063FC0F2012F0CEFB94F82021192128466E
:109430000EF05AFC0F2012F0C5FB18221B21284603
:109440000EF052FC0F2012F0BDFB18221C21284602
:109450000EF04AFC0F2012F0B5FB102237212846EF
:109460000EF042FC0F2012F0ADFB012238212846FD
:109470000EF03AFC0F2012F0A5FB94F8DB30052B20
:109480003BD894F81E31032B37D194F8233103F0E5
:10949000FB03022B0CBF002207221A2128460EF0E4
:1094A00023FC012012F08EFB18480EF013FA06235D
:1094B000A0826A4694F84D1128460EF093FD70B1D3
:1094C000BDF800305BBAA4F8D030BDF802305BBA0A
:1094D000A4F8D230BDF804305BBAA4F8D43094F9C3
:1094E000D23001330BD194F9D030013307D10620AB
:1094F00002B0BDE8704012F081BE0022CDE702B09C
:1095000070BD00BFDD830008003C0140002D31012B
:1095100038B5802204466B210EF0E6FB642012F081
:109520004DFDF52120460EF0E9FF0546012012F021
:1095300049FB682D1BD18C2120460EF0DFFF182837
:109540000DD8142834BF00250325204607226821A2
:109550000EF0CAFB642012F031FD284638BDA0F1A0
:109560005403DBB2072B34BF03250025EDE70025AC
:10957000F3E710B5124C94F87C304BB10C30062355
:10958000104A282142F024FC002084F87C0010BD01
:109590000D4A0120B2F97031002BB8BF03339B1084
:1095A0000B80B2F97231002BB8BF03339B104B8094
:1095B000B2F97431002BB8BF03339B108B80E4E702
:1095C00000000120B81901204818012010B50E4CE8
:1095D00094F87D304BB10C3006230C4A032142F045
:1095E000F7FB002084F87D0010BD094B0120B3F883
:1095F000762152BA0A80B3F8782152BA8A80B3F839
:109600007A315BBA4B80EDE700000120BE190120E2
:109610004818012010B5174C0C3094F87C31012B00
:109620000CD0022B17D0012304F27D12062142F048
:10963000CFFB0123002084F87C3110BD94F87D31EC
:1096400013F00403F6D0062304F5BF72002142F0A4
:10965000BFFB0223EEE7B4F87E3101200B80B4F8A3
:1096600080314B80B4F882318B80002384F87C31C8
:10967000E3E700BF4818012010B500F10C04C068F2
:1096800042F092FB0022212120460EF055FBFC22E5
:10969000202120460EF050FB4022242120460EF0CF
:1096A0004BFB0C22232120460EF046FB00222221F8
:1096B00020460EF041FB642012F080FC012010BD1A
:1096C0002DE9FF41C36804460E461B78013B012B80
:1096D00004D90025284604B0BDE8F08100F10C074C
:1096E00001230DF10702022138460EF07BFC002811
:1096F000EFD09DF80730DB07EBD5072302AA032143
:1097000038460EF06FFC9DF80E8005460028E0D02C
:1097100011220A2138460EF00FFB18F0080FD8D19D
:10972000B4F9F61002A8FEF77DFD30800DF10A00B5
:10973000B4F9F810FEF776FD708003A8B4F9FA10BA
:10974000FEF770FDB080C5E737B500F10C040546A3
:10975000C06842F029FB00220A2120460EF0ECFAF4
:109760000F220A2120460EF0E7FA01AA0323102156
:1097700020460EF037FC9DF8043000220A21803389
:109780002046A5F8F6309DF805308033A5F8F8306E
:109790009DF806308033A5F8FA300EF0CDFA0DF1C1
:1097A00003020123022120460EF01CFC01230DF1CF
:1097B0000302092120460EF015FC11220A21204641
:1097C0000EF0BAFA012003B030BD37B500F10C0439
:1097D0000546C06842F0E8FA00220A2120460EF051
:1097E000ABFA142012F0EAFB0F220A2120460EF0F9
:1097F000A3FA0A2012F0E2FB01AA0323102120465B
:109800000EF0F0FB0A2012F0D9FB9DF80430002284
:109810000A2180332046A5F8F6309DF805308033C4
:10982000A5F8F8309DF806308033A5F8FA300EF030
:1098300083FA0A2012F0C2FB0DF103020123022178
:1098400020460EF0CFFB01230DF103020921204633
:109850000EF0C8FB11220A2120460EF06DFA0120FD
:1098600003B030BD37B500F10C050446702200216D
:1098700028460EF061FA2022012128460EF05CFAFB
:109880000022022128460EF057FA642012F096FBBF
:1098900094F8F40088B10EF0C7FF08B12823C38004
:1098A0002146074B019041F8083F3FF07BFE0198AD
:1098B0000EF066FF01980EF063FF012003B030BD8B
:1098C0005582000810B500F10C04C06842F06CFA33
:1098D00001220B2120460EF02FFA20B11D22092172
:1098E00020460EF029FA00F0010010BD2DE9F341E9
:1098F0006F4C02460D460C3094F88431013B032B2B
:1099000003D8DFE803F00C1D24BA0123694A0221C1
:1099100042F05EFA0123002084F8843106E094F8D6
:109920008531DA0705D4002084F8840102B0BDE84F
:10993000F0810623604A032142F04AFA0223EAE753
:1099400001235C4A092142F043FA0323E3E7D36889
:109950001978012910D0022905D11B6A1BB91122DF
:109960000A210EF0C1F994F8850110F00C00DAD14B
:10997000042384F88431D9E7112084F88C0193F909
:109980000400431CEFD00328EDDC602303FB0043FD
:10999000D3F8A451002DE6D093F8E561202EE2D152
:1099A000AD6915F40045DED193F8E461012EDAD0FB
:1099B00092F810802122D4F810C383F8E5214022C8
:1099C00083F8E41183F8E6213C4AC3F8E851C3F870
:1099D000C8213B4AA3F8CE11C3F8D021394AC3F8B5
:1099E000D821B3F8CE2192B2FF2A20D8B3F8CE21E5
:1099F0004FF0007792B260234FEA4808584341463F
:109A000019232618A6F8CC210A22CDF800C0DFF8C9
:109A1000C8C060443FF0B6F968B1002386F8E4316D
:109A2000B4F8143301339BB2A4F814339BE7FF223C
:109A30004FF08077DFE7D6F8A42196F8CC11536871
:109A400023F07F7323F4583323F47F7323F003034D
:109A500043EA080343EA01431B493B435360D6F8FA
:109A6000D83186F8E4018B4203D018498B4218BFE5
:109A7000F22513681D43156075E7B2F9F6100E481C
:109A8000FEF7D0FB404228801148B2F9F810FEF7EB
:109A9000C9FB404268800F48B2F9FA10FEF7C2FBDA
:109AA0000023404284F88431A88001203EE700BFB3
:109AB00048180120CD190120CE190120D419012008
:109AC0000000FFFF1D1C0408911D0408092604085E
:109AD000D0190120D2190120EC1901202DE9F843F9
:109AE000DDF820800F4616460021202204461D4640
:109AF00044F096FDB8F1000F0CD0D8F80030B8F85B
:109B00000A20E3811B0C2382D8F804306282E382AE
:109B10001B0C2383384642F02BFCF30619D4431E5A
:109B2000B8B107EB000C01E0013B12D31CF801EDCA
:109B3000BEF12E0FF8D1C01A03F10109421EB9443B
:109B4000032AA8BF0322082BA8BF082390461A4661
:109B500006E008280246B9464FF00008A8BF0822D0
:109B60004FF02033394620462360636044F0E4FC24
:109B700004F108031748424649462081A07218465E
:109B800044F0DAFC04F1FF3C0346E21D1CF8011F1F
:109B9000A1F1610E2039BEF1190F98BF8CF80010A9
:109BA0006245F3D1184604F10B0110F8013BA3F113
:109BB0006102203B192A98BF00F8013C8842F4D189
:109BC000182365832D0CE6722373099BA582E3613C
:109BD000BDE8F883202020002DE9F04FDFF88C94B9
:109BE00087B0D9F84000C9F84400002B00F0DA80B3
:109BF0001344154601F1200601F5FE77DFF870A445
:109C000003931FE0002D63D0D9F87420AA4200F01E
:109C1000CD80D9F87020AA4200F00281D9E91E2136
:109C2000AA424CD8A94200F2CF81691A18463EF0E8
:109C30003FFD0135039B06F5007607F500779D4251
:109C400000F0B080D9F88040A6F12003AC42D9D80A
:109C50002C1BD9F89080E208D8F8301004F00704E3
:109C600002328A4203D3D8F838108A420DD94146CD
:109C70001046059304923EF0EBFC8046DDE9042398
:109C8000002800F0C181C9F8900098F8041000295C
:109C900040F03F81D8F828B0BBF1000F00F0AD8153
:109CA0001846D8F830304FF40071D21AD8F80C307A
:109CB00004EBC20203EB42224346D847B9E7A9426C
:109CC000B3D918464FF40072002144F0A9FCB0E764
:109CD0004FF400722946184644F0A2FC8022034645
:109CE000D94886F89E210C2286F8A221D9F8701056
:109CF000D9F868208142C3F8C611C3F8CA2100F31D
:109D00006881D24B013AD24C83FB0103C81784FB14
:109D100001C40B44C0EB6313C0EB2430CD4C84FB77
:109D200003C4C3EB831C86F8A1018010A1EB0C01D6
:109D30001C4420F03F000131014386F8A011D917DF
:109D4000C1EBE4110B4486F89F31BF4B9A4200F3FC
:109D50004C81BE4BBE4883FB0213D11780FB0240EF
:109D60001344C1EB6313C1EB2031BA4880FB0340BD
:109D7000C3EB831486F8A5118910121B184421F037
:109D80003F0101320A4386F8A421DA17C2EBE01042
:109D9000034486F8A331552386F8DE31AA2386F8DA
:109DA000DF3146E7002007B0BDE8F08F4FF0FF320B
:109DB0000024A6F11C00049383F8EC21214683F8CB
:109DC000ED2183F8EE2183F8EF2152221A705A70A8
:109DD00061229A7083F8E7214122DA7083F8E62144
:109DE000722283F8E42183F8E521D9F88820C3F8AA
:109DF000E8214FF4F07244F013FC049B5522C6F89E
:109E0000D041C6F8D441C6F8D84183F8FE216FF09E
:109E1000550283F8FC4183F8FD4183F8FF2108E7F0
:109E20008D4C00214FF40072184644F0F9FB0346B4
:109E30004FF0000C022203CC46F8191CEB2146F827
:109E40001D0C082006F8201C582106F81F1C902124
:109E500006F81E1CF8211A7383F80BC006F8130CC1
:109E60009A7383F80FC006F8102C06F80B1C83F8C1
:109E70002C20D9F87010D9F8682083F819C0521A2C
:109E800083F81BC083F81DC01A6283F81EC083F8D4
:109E90001FC083F82DC083F82EC083F82FC0D9E9E6
:109EA0001E12521A80215A623F221A764FF0FF3258
:109EB0009A763E221A77012283F8302083F831C047
:109EC00086F820102921654B86F82210942186F807
:109ED000260086F823100E21614A86F824100D21F1
:109EE00086F82510552186F8DE11AA2186F8DF11A3
:109EF00003CBC6F82B101988C6F827009B78A6F864
:109F00002F1086F8313003CAC6F83200C6F8361072
:109F10008FE64FF400721846002144F081FBD8F818
:109F200040200346002C76D1002A00F0A380D8F808
:109F3000303011224B49CDE90044FFF7CFFDD8F86E
:109F400040301A6C002A00F0A1801B6BCDE9004460
:109F50001122454930464FF4E07BFFF7BFFD06F183
:109F60002003D8F84480B8F1000F3FF462AE03F14B
:109F700020049B44049523464446984610E05CF830
:109F80001C1B0025236BCDE900C5FFF7A7FDABEB3C
:109F90000803A46C08F12008002C18BF1F2B51D90E
:109FA0002379A44604F11C0E1122A8F12000002BF5
:109FB000E5D162792569236B42F021022168CDE960
:109FC00000E5FFF78BFDE2E7A91A18463EF070FBAB
:109FD0002FE6FF23013A86F89F3186F8A13186F8F3
:109FE000A031194B9A427FF7B4AEFF2386F8A33114
:109FF00086F8A53186F8A431CDE6594618464FF4C7
:10A00000007244F00DFB14E6A6F1240343F804AFFC
:10A010009F42FBD10DE6002AD8F844800CBF0122F4
:10A020000222C2EB0414B8F1000F3FF402AE424624
:10A03000013C926C002C01DD002AF9D190464FF4CE
:10A04000007B90E7049DF4E5FF03FB00832008827A
:10A050009755454181808080BC640508C864050827
:10A06000D4640508B4640508B864050848180120DC
:10A07000DEADBEEF23460822D9F86C104FF4F07B1A
:10A08000CDE90044FFF72AFD33466AE72346CDE9D0
:10A0900000445DE7BFF34F8F0549064BCA6802F4E1
:10A0A000E0621343CB60BFF34F8F00BFFDE700BFFB
:10A0B00000ED00E00400FA05014B53F82000704762
:10A0C000502800402DE9F041CB781BB900263046DE
:10A0D000BDE8F08100F110070C4605468978384646
:10A0E0000DF018FC06460028F0D0E0780EF09CFB3E
:10A0F000A86123780133DBB210B1C37122238371CD
:10A100000D210EF0FFFBA8690DF0FEFB104A136C49
:10A11000632BFCD90F480DF0DDFBDFF840800E4BC0
:10A12000A88202E058F8043B53B1384698470346EA
:10A130000028F7D0286985F8D83041F035FEC6E709
:10A14000E0781E460EF070FB0EF0FCFBBFE700BF90
:10A150004818012040420F0011950008F8EB040850
:10A1600030B490F8443000F10801474A012BC2F89E
:10A1700018136ED083684549DC68454D24F46004AB
:10A18000AB42DC60DC6844F46004DC609C6B24F46B
:10A1900040149C639C6B44F480149C639C6B24F47B
:10A1A000F8449C639C6B44F488449C639C6824F44E
:10A1B00070249C609C689C609C6824F440149C60A3
:10A1C0009C689C605C6824F480645C605C6824F437
:10A1D00080545C605C6901EA040159615969596104
:10A1E00045D0DC68294924F0E064DC60DC6844F098
:10A1F000E064DC609C6B24F440149C639C6B44F42E
:10A2000080149C639C6B24F478249C639C6B44F4C2
:10A2100010249C639C6824F470249C609C689C605F
:10A220009C6824F440149C609C689C605C6824F4E6
:10A2300080645C605C6824F480545C609C692140AC
:10A24000134C9961A3429969996116D0002380F853
:10A2500044301048104B848DC18D408D091B93FBF9
:10A26000F1F3C2E9C704C2F8243330BC70470B4C89
:10A27000616841F400016160B3E708494B6843F449
:10A2800000034B60E2E700BF4818012000F0FFFF29
:10A2900000200140007AF01F8038010000230140B7
:10A2A000704700BF01483AF0E1BD00BFEC19012042
:10A2B000084810B4D0F8A431D0F8D84199691A6888
:10A2C0002CB1234600F5D2705DF8044B18475DF8B9
:10A2D000044B70474818012001483AF0C7BD00BF41
:10A2E0004C1A0120084810B4D0F80432D0F8384293
:10A2F00099691A682CB1234600F501705DF8044B8A
:10A3000018475DF8044B70474818012001483AF09F
:10A31000ADBD00BFAC1A0120084810B4D0F86432BB
:10A32000D0F8984299691A682CB1234600F5197043
:10A330005DF8044B18475DF8044B7047481801203E
:10A340002DE9F84FD54F6023044603FB0073D3F883
:10A350009051002D00F0A081D3F898611EB1B3791F
:10A36000002B40F09981602303FB0473D3F89C9188
:10A37000B9F1000F04D099F80630002B40F08C8121
:10A38000631CDBB216B11522F371B271B9F1000F83
:10A3900004D0162289F8073089F80620287C4FF06F
:10A3A00009083EF013FE30460DF0AEFA48460DF0B7
:10A3B000ABFA112130460EF0A5FA112148460EF0F5
:10A3C000A1FA4FF0330A02E00A2011F0FBFB26B19C
:10A3D0003368B2881B691A4202D1BAF1010AF3D17B
:10A3E00030460DF08BFA052011F0ECFB30460DF0F5
:10A3F0008BFA052011F0E6FBB8F10108E1D13046F7
:10A400004FF0600B0DF07AFA052011F0DBFB4846A7
:10A410000DF074FA0BFB04FB052011F0D3FB304662
:10A420000DF072FA07EB0B0A052011F0CBFB484642
:10A430000DF06AFA9AF8A03130460422002B984EAB
:10A4400014BF3E211E210EF03DFA9AF8A0315E4461
:10A450004846002B4FF00402C14614BF3E211E2186
:10A460000EF030FA4C224146304644F0D9F8DAF882
:10A4700090319FED8C7AB0EE084A5B68F7EE003AB7
:10A48000BAF8A2B1CAF8A431874B9FED885A9A68EE
:10A49000874BC2F38222134493F87822D7F89C307A
:10A4A000D34007EE903AF8EE677AC7EE275A07EEE8
:10A4B00090BA9FED807AF8EEE77AC7EE274ADFED93
:10A4C0007E7AB0EE007AE5EE877AA5EE875A25EE21
:10A4D000844A37EE856A74EEE72ABBF5C87F40F2FE
:10A4E000145309F1010ED7BF1946322364234FF4E8
:10A4F0009670C8BF782007EE90EAD4BF4FF4167C60
:10A500004FF4827C0344B8EEE77AC8BF4FF4FA7187
:10A5100007EE903A27EE257A01EB0C03F8EEE76A96
:10A5200086EE873A73EE636AFCEEE67A17EE902ABF
:10A5300007EE90CAB8EEE73A07EE903AF8EEE77AFF
:10A5400023EE243AC3EE276A36EEC53A72EEE66A87
:10A55000C3EE077A77EEE37AFCEEE77A17EE901A0D
:10A56000C6EE877A77EEE37AFCEEE77A17EE903A5A
:10A5700003F1020C0CEB010AF0EE466A07EE90AA1A
:10A58000F8EE677AE7EE276AF4EEE64AF1EE10FAA3
:10A5900000F398805FFA82FCBCF10F0F00F2948008
:10A5A000323807EE900AF8EEE77A77EEC47AC7EE13
:10A5B000876AFCEEE67A17EE90CA5FFA8CF00F28F5
:10A5C00000F2828088B2FF287ED898B2FF287BD81C
:10A5D00040EA097310054FEA0C4200F07F6002F474
:10A5E0007F0203431343354A02EA012143EA01088B
:10A5F0006020012300FB047400273046C4F8A881C2
:10A60000C4E96B73C4E96D77C4E970773FF060FD0E
:10A6100094F8E531202BD9B21AD194F8E431012B0A
:10A6200016D0242384F8E531D4F8A4311A6822F036
:10A6300001021A601A6822F480521A601A681A60BD
:10A640001A6842F001021A6084F8E51184F8E47196
:10A65000002195F912003EF075FF95F91230AA7CA1
:10A66000002B07DB02F01F0101225B098A4014491D
:10A6700041F82320002195F911003EF063FF95F980
:10A6800011306A7C002B07DB02F01F0101225B09FD
:10A690008A400B4941F82320BDE8F88F4818012073
:10A6A000EC190120286B6E4E003802400000164362
:10A6B00088E90408002474490000704200FFFF008C
:10A6C00000E100E0013155E7BEF10F0F90D0F146F7
:10A6D00003E700BF0348D0F890300BB18030184733
:10A6E000704700BF000001200348D0F8B4300BB120
:10A6F000A4301847704700BF000001200348D0F87D
:10A70000D8300BB1C8301847704700BF0000012097
:10A710000348D0F8FC300BB1EC301847704700BF4D
:10A72000000001200348D0F8203113B100F58870F3
:10A7300018477047000001200348D0F8443113B196
:10A7400000F59A7018477047000001200348D0F8C0
:10A75000683113B100F5AC70184770470000012054
:10A760000348D0F88C3113B100F5BE70184770471C
:10A77000000001200348D0F8B03113B100F5D070CB
:10A7800018477047000001200348D0F8D43113B1B6
:10A7900000F5E27018477047000001200348D0F828
:10A7A000F83113B100F5F47018477047000001202C
:10A7B0000348D0F81C3213B100F5037018477047F6
:10A7C000000001200348D0F8403213B100F50C70AE
:10A7D00018477047000001200348D0F8643213B1D5
:10A7E00000F5157018477047000001200348D0F8A5
:10A7F000883213B100F51E70184770470000012021
:10A800000348D0F8AC3213B100F5277018477047F1
:10A81000000001200138074B074A00EBC00003EBA2
:10A820008000D0F8800090420CBF952096203EF02A
:10A83000CDBB00BF000001200060024001382DE9BF
:10A84000E84100EBC000134D1E46134B05EB80059D
:10A8500090460F46D5F8800098420CBF9520962070
:10A860003EF0B4FB95F995004FEA9811C5F8907049
:10A87000C5F898603EF066FE95F99530002B07DB31
:10A8800003F01F0001225B090449824041F82320A4
:10A89000BDE8E881000001200060024000E100E026
:10A8A000AB4B2DE9F04F97B093F83A83A94B0025B5
:10A8B000A94F0093A94BA3F5F96ADFF8B892DFF826
:10A8C000B8B24E46B30AA3F58013522B55D8534461
:10A8D00093F880320D2B50D8B8F1010FFC5640F0A0
:10A8E0001D81012C3FD14FF000094946204611F04F
:10A8F0002DFD11F0B3FD90F800C0BCF1000F18BFA2
:10A90000BCF1540F14BF4FF0010C4FF0000C40F09D
:10A91000018109F104091FFA89F9B9F1100FE4D195
:10A92000002D00F0B9808B4A00210DE0534493F8CC
:10A9300080320D2B0FD8FB56A3420FD0013102F508
:10A940008672A94280F2A480906803689B0AA3F5EE
:10A950008013522BEAD90023A342EFD143799BF80D
:10A9600005009842EAD17D4B5B4513D05BF8206F20
:10A97000B30AA3F58013522BA9D9B8F1010FF2D075
:10A9800001230024B8F1020FADD1002BABD0734BE3
:10A990005B45EBD1009B013503F58673042D0093D5
:10A9A0008BD16F4B4FF00108DFF8D0B1009303F566
:10A9B0007C73ABF1080A059308F1FF33DAF8042041
:10A9C0009A4262DDDBF80C60002E00F0DE83316815
:10A9D000B78801F13F41B7FA87F701F57E01C7F16A
:10A9E0001F07890ADAF80856002D40F3CB80594B2F
:10A9F000002405E0013403F58673AC4200F0C0800A
:10AA00001A688A42F6D14FF48673524ACBF8047022
:10AA100003FB04245FFA88F3CBF8184016B1F371F6
:10AA20000323B3717A000321012301FA02F0A16C20
:10AA300003FA02F20143A164216D0A4322659AF8E8
:10AA40000020002A6FD0626DBB401A43626516B1C8
:10AA50003268B188916199B20122D4F8AC00FDF757
:10AA6000E3FA204608F10108FDF794FB0123009A60
:10AA7000B8F1090F8BF81C300BF1200B0BF8033CDD
:10AA8000537402F11803009396D117B0BDE8F08F0C
:10AA9000BCF1000F7FF467AF58460DF035FE9BF810
:10AAA0000540C3B2022B00F27883431C2D4A5BB2EF
:10AAB00003EB430398002C4B03F5727104E09942B9
:10AAC00000F06B8353F82C2FB242F8D11A79A242CE
:10AAD000F5D11A58002AF2D094460023234A51682F
:10AAE0000133614513D0102B02F12402F7D14FF04E
:10AAF000FF3303EBC3031E4A02EB830393F89C303E
:10AB0000002B7FF430AF009BC3F808B042E7DBB204
:10AB1000013BEEE7002D7FF406AF24E7B4F1080314
:10AB200018BF01232EE707F110029340626D134313
:10AB300063651EB1B38832681B0493610121002252
:10AB4000D4F8AC00B94089B2FDF76EFA89E700BFCE
:10AB500048180120F40700206065050850F104083A
:10AB600038160020000001405CEC04088000012041
:10AB7000000001200004014050F00408E80100201A
:10AB8000032C6BDC4FF4867303FB05A3D3F81C0680
:10AB9000002800F0F082C3F814160131CAB283F81D
:10ABA0001D270292542283F81C276B1C0268CAF8E6
:10ABB0000836447901920DF0A7FDA94B864693F81B
:10ABC0004F3303939BF810300493C3B2022B00F26F
:10ABD000E48200F1010CA349A34800234FFA8CFC46
:10ABE000019A0CEB4C0C4FEA8C0C05E00133172B4F
:10ABF00000F0D38251F82C0F8242F7D10879A0429D
:10AC0000F4D151F80C000028F0D02C210EEB4E0EA0
:10AC1000DFF8889201FB03F394494C4603EB8E0363
:10AC20000B44D3F8E4124FF4867303FB05A3C3F877
:10AC30002C160021C3F82806636898421DD0013104
:10AC400024341029F8D18A4B93F8782052B902990C
:10AC5000542283F8791083F8782003E00323804A94
:10AC600082F84E33834B84488449854AC3E9D11026
:10AC7000C3F8502317B0BDE8F08F4B1C7C49DBB202
:10AC8000013B03EBC30301EB830393F89C10069194
:10AC90000029E7D1029983F89D104FF4867101FBDA
:10ACA00005F08C210446542083F89C002046A31014
:10ACB000744C0190504404FB03F33468C0F80C1743
:10ACC000C0F8184603FB01F1059C03EB430304EBBA
:10ACD000410103EB0313C0F808176B4901EB830331
:10ACE000C0F8C0363323C0F8C436684B01981C182E
:10ACF0005B4BD3F89C10039B062B00F03782072B8D
:10AD0000DFF89CC1624B634814BF4FF0710C1846CA
:10AD1000614B04BF63464FF01C0CB1FBF3F3B1FB76
:10AD2000F0F1013B104601399AB24FF4867303FBF0
:10AD300005A3A3F8C816A3F880260293019B2266F8
:10AD4000002203F15801514BA4F8582062661944BF
:10AD5000E265484A42F8CCCC40F098FC029BD3F81C
:10AD60001C2610680292036843F080030360537945
:10AD70000C2B08D8DFE803F06C0707076407070708
:10AD80005B07070752004FF4867303FB05A3D3F854
:10AD900020164FF0600C026800234FF0020ECDF831
:10ADA00038C04FF4807C22F001021093CDF850C0DF
:10ADB0004FF0010C1393CDF83CC04FF00A0C1593E3
:10ADC000CDE911CE02600EAA40F01EFB4FF4867250
:10ADD000029B02FB05A2D2F820161A680023012963
:10ADE00000F08C81042900F08981102900F0C881CD
:10ADF000402900F08381B1F5807F53D0B1F5806F99
:10AE000050D0B1F5805F00F0C481B1F5803F4FF0C4
:10AE10003C030CBF08214FF4006145E04FF48673FA
:10AE20004FF4805103FB05A3C3F82016B1E74FF49C
:10AE300086734FF4807103FB05A3C3F82016A8E7BF
:10AE40004FF48673102103FB05A3C3F82016A0E777
:10AE50004FF48673012103FB05A3C3F8201698E77E
:10AE6000481801205CEC04080000014088E904084F
:10AE700000000120D81200207D5E0108795E0108E3
:10AE8000855E01086B4CA407F8160020F40700202B
:10AE90001055220044950800D0DD060080000120F6
:10AEA00040771B000821042302F1180050F803C06A
:10AEB00041EA0C01C150029B1879002840F027811B
:10AEC0004FF48672002302FB05A2D2F81C06D2F8CA
:10AED00028160068026842F001020260D9F80420D6
:10AEE0000133914200F00F81102B09F12409F5D1B3
:10AEF0004FF0FF33AC4A03EBC30302EB8303D3F8F9
:10AF00008000AA4B98420CBF952096203EF05EF838
:10AF10004FF4867303FB05A3D3F81C2653790C2B3F
:10AF200000F2EE80A24901EB4303B3F8F0C74FF4FF
:10AF3000867310689F4903FB05A3A3F824C600236A
:10AF400006E0904200F01F810133042B00F02881BD
:10AF500051F83320002AF4D1DAF810260132CAF869
:10AF600010260AEBC302DB00C2F8440A1944069813
:10AF700023469022B1F804E0DFF850924CEA0E0C20
:10AF8000A1F804C08C49FFF759FC60694FF486733F
:10AF90004FF4804C03FB05A5036843F010030360E6
:10AFA000036843F0140303600023C4E91F33C4E9BA
:10AFB0002833C4F8A8300423D5F82C26C4F89C30D4
:10AFC0004FF48063C4F894204FF44032C4F88430C6
:10AFD000C4F898204022A267D5F8C426C4F890206F
:10AFE000C2B2D5F8181620F0FF00103A18312167C8
:10AFF000A9FB0231019B4FF480520909C4F8882053
:10B0000003F170026D4B1A44D5F8C036C4F88CC0F9
:10B0100063673FF0ABF8D5F82806019B4FF4003189
:10B02000D0F800E04FF4006C03F1B802634BC4F8B1
:10B0300020E0D0F814E01A440023C4F824E0D0F84B
:10B0400004E0C4F828E0D0F808E0C4F82CE0D0F818
:10B050000CE0C4F8C830C4F830E0C4F8F030C4E9FB
:10B060003033C4E93A33D5F82C3601930423C4F8BD
:10B07000E4304FF48063C4F8CC30019BC4E937312D
:10B08000D5F80C37C4F8D830C3B220F0FF00103B1D
:10B09000A9FB0331D5F81836C4F8D0C0103309091C
:10B0A000C4F8B830D5F8083701934FF48043C4F89A
:10B0B000D430019BC4F8BC303FF058F8D5F82826AE
:10B0C0005FFA88F3116861635169A1635168E163B4
:10B0D00091682164D1686164116841F010011160C8
:10B0E000116841F014011160049ACBF804708BF8D8
:10B0F0001020CBF80C60CBF8184090E40821D3E680
:10B100004FF0000C13E7DBB20693013BF2E603922B
:10B110000DF08AFB039A20B30268254B02F13F42EF
:10B12000079002F57E0203EB9222029B92F8E80759
:10B130001A7A03923DF04AFF079B039A99880D9271
:10B14000002218680C92089108A90393CDE90A22FD
:10B15000022209923FF054FF5422039BDA80029BA3
:10B160001A68536C43F400435364A9E614484FF043
:10B17000380C144BD1E50223134A82F84E3371E5A3
:10B180004FF4006190E6DB00F0E64FF0FF37394600
:10B1900028E44FF40061042386E600235B68FFDEA9
:10B1A00000239B88FFDE00BF0000012000600240FA
:10B1B00088E90408240C002075800008F4070020AA
:10B1C000882A1100A0BB0D0048180120ABAAAAAA2A
:10B1D0002DE9F041834DC0EB001605EBC606D6F80D
:10B1E0005033002B00F0BC800446070196F8C003E2
:10B1F0003DF0ECFE96F8C033012203F01F015B091D
:10B20000013B8A40032B0AD8DFE813F0E00004007A
:10B21000E600DA0074494B6A23EA02024A623B1BE9
:10B2200004F1010805EBC3035FFA88F893F85403AF
:10B230000DF0FAFA18B1122380F8078083713B1BD6
:10B2400005EBC30393F855030DF0EEFA064618B16B
:10B25000132380F8078083713B1B05EBC30393F82E
:10B2600056030DF0E1FA18B1142380F807808371BA
:10B270003C1B2E21304605EBC40494F858230DF0F6
:10B2800021FB94F856030DF0CFFA94F859230E21C0
:10B290000DF018FB94F854030DF0C6FA94F85723F8
:10B2A0002E210DF00FFBD4F8503350491A688B4211
:10B2B00022F040021A6055D04D4A934269D002F5FF
:10B2C0008062934258D1484A116A41F400411162A8
:10B2D000116A21F4004111625A6842F480525A60A6
:10B2E0001A68520634D443491E68D1F8D442D1F8C2
:10B2F000E002D1E9B025B0F5005F42EA0502D1F8DD
:10B30000CC5242EA0502D1F8D05242EA0502D1F805
:10B31000D85242EA040242EA0502D1F8DC5242EA7B
:10B320000502354D42EA000205EA060542EA050239
:10B330001A60D1F8C8225D6842EA14422F4C04EA30
:10B34000050442EA04025A6002D1B1F8E4221A610B
:10B35000DA6922F40062DA611A6842F040021A6087
:10B36000BDE8F081204A516A41F480515162516A2E
:10B3700021F480515162AFE7214A934213D11A4A16
:10B38000516A41F400515162516A21F400515162F5
:10B39000A2E7154A116A41F480411162116A21F451
:10B3A0008041116298E7174A934295D10E4A516A3B
:10B3B00041F480115162516A21F4801151628BE78E
:10B3C00009490B6923EA02020A6128E706494B6929
:10B3D00023EA02024A6122E703490B6A23EA0202D6
:10B3E0000A621CE748180120003802400030014082
:10B3F00000380040000001204000FFFFFBF0FFFF8D
:10B40000003401400050014030B404690023416819
:10B410004025E46882690C31546244699560536048
:10B4200093631160C2E90333C2E90533C2E907330C
:10B43000C2E90A33C2E90C3384B1C269E06893639C
:10B4400050621160C2E90133C2E90333C2E9053336
:10B45000C2E90733C2E90A33C2E90C3330BC704792
:10B46000114A037A0168D35C10B4CC58CA1824F08E
:10B470000104CC501368DB07FCD4037D1F2B09D9D2
:10B48000203B20225DF8044B02FA03F343F018033B
:10B49000CB60704720225DF8044B02FA03F343F0BF
:10B4A00018038B60704700BF70650508F0B506682B
:10B4B000356A00295CD12F68AC68D6F818E0002FF7
:10B4C0005FD0364B3B40B3F1005F61D007F01F0106
:10B4D00004F11F0327F01F02194421F01F01BFF3DD
:10B4E0004F8F00290BDD114402F12003DFF8B0C0BB
:10B4F0008B42CCF868221A4603F12003F8D1BFF33F
:10B500004F8FBFF36F8F03684FF48062CEF80470E3
:10B51000CEF814205B69CEF8204043B36868F66922
:10B52000002837D01D4B0340B3F1005F1AD000F064
:10B530001F0220F01F011F32224422F01F02BFF31E
:10B540004F8F002A0ADD0A4401F12003144D9A426C
:10B55000C5F87012194603F12003F8D1BFF34F8FDD
:10B56000BFF36F8F4FF48063706073613462F0BD1E
:10B57000EC69002CFBD06F691435D6F818E0002F69
:10B580009FD1084A3346CEF81470CEF80420C1E7A4
:10B590003346B9E7044B70617360E7E70000FFFFD3
:10B5A00000ED00E05C00002060000020F8B50768B6
:10B5B0000646D7E90454002C50D0A0612B7D1F2BE8
:10B5C00039D82022286802FA03F343F01803836075
:10B5D000237D1F2B3AD92022203B02FA03F3226855
:10B5E00043F01803D3606368002269680A601A6038
:10B5F0001A6842F010021A60BA69297A3EF0B6FD64
:10B60000FA69217A20683EF0B1FD2A7A2A492F682A
:10B6100033688D5C5A687B59206843F001037B5185
:10B62000237AC95C435843F001034350536843F005
:10B6300003035360F8BD203B2022286802FA03F37D
:10B6400043F01803C360237D1F2BC4D8202202FAC5
:10B6500003F3226843F018039360C4E72A7D6B6804
:10B660001F2AA8611FD82021286801FA02F242F09F
:10B67000180282600021BA691960196841F010014E
:10B680001960297A3EF072FD2A7A0B4933682868DE
:10B69000895C5A68435843F001034350536843F0B0
:10B6A00002035360F8BD203A2021286801FA02F213
:10B6B00042F01802C260DDE770650508014B43F8EF
:10B6C0002010704750280040F0B5A24CA5B0E368A8
:10B6D000022B00F03A82A048A04AA149121A42F077
:10B6E0002BFFA048A04AA149121A42F025FFA368E7
:10B6F000012B00F2C28003EB43039D4A9D4D02EBF8
:10B70000430032F8132041888388C5E9BA21C5F87F
:10B71000F032994C994E9A4BB2FBF1F2994901FBE8
:10B7200002F20021C6F89C20D4F8882042F470026E
:10B73000C4F888201A6842F001021A609960924A9F
:10B740001868024091481A60C0F30807904A5A608E
:10B750001A6822F480221A60D96007B1FEE78D4989
:10B76000A0604FF6FF000A688B4B42F400720A603B
:10B77000E26802401343E3603DF068FFBFF34F8F80
:10B78000BFF36F8FC4F85072BFF34F8FBFF36F8F4B
:10B79000636943F400336361BFF34F8FBFF36F8F6F
:10B7A000C4F88470BFF34F8FD4F8803043F6E07C48
:10B7B000C3F3C90EC3F34E33580100EA0C017346BC
:10B7C00041EA8372013B5F1CC4F86022F8D1203843
:10B7D00010F1200FF1D1BFF34F8F636943F4803331
:10B7E0006361BFF34F8FBFF36F8F6A49644B0A6881
:10B7F00042F480720A60196C684A41F08051196401
:10B80000196C01F0805102910299116841F4404194
:10B8100011601268D5F8E80202F44042D5F8EC4213
:10B82000D5F8F0120192019A9A6802F00C02042AEB
:10B8300000F08D809A6802F00C02082A00F08380E4
:10B840004F4A136843F480331360D6F8107304E052
:10B85000D6F81033DB1B642B74D813689B03F7D521
:10B86000474A936803F00C03082B6BD0136823F04E
:10B8700080731360D6F8107308E03E4DD5E9BA2105
:10B8800047E7D6F81033DB1B022B5BD813689B010C
:10B89000F7D40B06640843EA8013611E43EA0143B0
:10B8A0003F491943364B5160116841F08071116076
:10B8B000D6F8101304E0D6F81023521A022A41D801
:10B8C0001A689201F7D5196C344A41F08051196415
:10B8D0001B6C03F080530393039B136843F4803382
:10B8E0001360D6F8101306E0D6F810335B1AB3F5E0
:10B8F0007A7F00F2CB805368DF03F5D513682749C0
:10B9000043F400331360D6F8102306E0D6F8103362
:10B910009B1AB3F57A7F00F2B9804B689C03F5D58A
:10B920004FF400124FF0006304A804924FF4C07269
:10B9300021930723CDE9082303230A9338F0E8FE77
:10B9400080B3FEE7FEE75B685A027FF579AF0C4BE8
:10B950001B6885E7502800400000000018370000F1
:10B9600098EC050800000020E0010020B83D060822
:10B9700094F104080000012000ED00E048180120C7
:10B980000038024040420F00FFFFF6FE00000008B2
:10B9900010300024003C02400003FA050070004013
:10B9A000080040206C4A136803F00F03062B0AD8E6
:10B9B000136823F00F0343F007031360136803F0C9
:10B9C0000F03072B63D1654B9A6842F4E0529A60EB
:10B9D0009A6842F460429A609A6822F0F0029A6093
:10B9E0001A68900153D59A6841F2883122F0030217
:10B9F00042F002029A60D6F8100304E0D6F8102351
:10BA0000121A8A4243D89A6802F00C02082AF5D129
:10BA1000514A136819070AD5136823F00F0343F03E
:10BA200007031360136803F00F03072B2FD14B4C50
:10BA30004B4FA36823F4E05343F4A053A360A368DF
:10BA400023F4604343F40043A36038F01BFCA36875
:10BA5000C3F303133B4493F81838D840C6F89C004E
:10BA60003DF0F4FD002304A8CDE91333CDE91533EF
:10BA7000CDE91733CDE91933CDE91B33CDE91D33BA
:10BA8000384B049338F044FE10B1FEE7FEE7FEE7C2
:10BA900002234FF0007204A8CDE90633D823CDE984
:10BAA000042301230B9338F033FE00B1FEE7D4F8F2
:10BAB0008C3023F08073C4F88C30D4F88C3043F091
:10BAC0008073C4F88C30A36803F00C03042B36D0C9
:10BAD000082B18D0244BC6F89C30204AD5E9BA313F
:10BAE000B3FBF1F39168D6F89C20C1F303110F4426
:10BAF00097F81818CA401D4901FB03F3C6F89C20AB
:10BB0000934220D0FEE76368626813F4800F636895
:10BB100002F03F0218BF1649C3F3881308BF124949
:10BB2000B1FBF2F202FB03F30C4A5268C2F301428A
:10BB300001325200B3FBF2F3C6F89C30CDE70C4B58
:10BB4000C6F89C30C9E725B0F0BD00210320FFF7FF
:10BB5000B5FDFEF79FFA00BF003C024000380240EE
:10BB600088E90408C0FF03000024F40040420F00ED
:10BB700000127A001D4B1E48196C1E4A41F080517C
:10BB800030B4196482B0196CFF2401F08051019126
:10BB90000199016841F480710160CA20196C41F477
:10BBA00080611964196C01F4806100915321009D3A
:10BBB0005462506251625B6FDB000DD40E4B00216A
:10BBC0000E4A43F8041B9342FBD10D4B0D4AC3F8B8
:10BBD000502802B030BC7047094A0A4BD2F85028AE
:10BBE0009A42EBD102B030BC704700BF003802402F
:10BBF0000070004000280040542800406C2800409D
:10BC00000020004031666542800AA0F5801052286D
:10BC100008D8054B184490F880320D2B02D8034AFF
:10BC2000D05670470020704788E904086065050811
:10BC3000F0B50446D0F89400434B83B0A16804F1FA
:10BC4000640204F118070E68C1B220F0FF000192EF
:10BC50001039A3FB013109093EF0D2FA616D0023CE
:10BC6000019A012984F8583018D0042916D01029D7
:10BC700055D0402912D0B1F5807F53D0B1F5806FF7
:10BC800050D0B1F5805F55D0B1F5803F4FF03C0307
:10BC90000CBF6FF0080C6FF4006C01E06FF0080C43
:10BCA00006F118053046E95801EA0C01E950616DCA
:10BCB0003FF0AAFB636D012B16D0042B14D0102B80
:10BCC0000FD0402B10D0B3F5807F2FD0B3F5806F0D
:10BCD0002CD0B3F5805F31D0B3F5803F06F1540529
:10BCE00002D04FF4006100E008212B683A46D4F8F6
:10BCF00094000B4340212B602162C1B2124B20F013
:10BD0000FF001039A3FB013109093EF02FFAD4F8E6
:10BD10009420136843F01003136003B0F0BD6FF478
:10BD2000006CBDE76FF0080C0423B9E706F11C05B1
:10BD30000821DAE76FF4006C0423B1E706F11C0573
:10BD40004FF40061D1E700BFABAAAAAA934B2DE93B
:10BD5000F04F1C782DED028B85B034B901242046BC
:10BD600005B0BDEC028BBDE8F08F8D4B8D4F1B6C89
:10BD700008EE103A0CF0D4FF97F8DC3B0190002B52
:10BD800000F00681854B07F1400AA7F1C8040026A0
:10BD900003F5847B5D46CDF80CB0D7F82833019AC3
:10BDA000D31A03D4EA6D9A4200F3D5807B4A06EB9E
:10BDB000860302EB431393F8603103F0FF02009215
:10BDC000002B00F08E80D5F89410AB6876481A6886
:10BDD000CBB221F0FF01103BA0FB030373481B090A
:10BDE000C35C19444B68A9891FFA83FED368CEF15E
:10BDF000160E23EA0103BEF1070FD36071D957F87D
:10BE0000C03C00220121013390468B4647F8C03CDC
:10BE1000D5F89C309C4602935CF8049B48461DE094
:10BE2000DCF80090B8F1140FA9EB000348461EDCC3
:10BE300013F1080948BF03F117094FEA291308EB6A
:10BE4000291803F1FF39013102FA03F30CF1040C54
:10BE50000BFA09F28E4542EA030208D38E45DFD879
:10BE6000C8F11503DCF800004FF01508E9E7B8F158
:10BE7000150F67D14E49C2F38423C2F3441001EB7E
:10BE8000830301EB8000D3F82838D0F828081B0280
:10BE900043EA001302F01F00C2F3C43201EB80003A
:10BEA00001EB8202D0F82818D2F828280B4343EA85
:10BEB000023383EA132282EA121202F00F020F2ADF
:10BEC00040D1C3F30F134FF6FF7293423AD0B3F54C
:10BED000606F47D0A381009918EE102A50460BF0EE
:10BEE0009FFC28460136FFF7A3FE97F8DC3B0AF1DA
:10BEF0005C0A1434B34205F1A0053FF74EAF0121AF
:10BF00000022DDF80CB087F83E10C7F82823002B7C
:10BF10003FF424AF03EB83030BEB43139BF8102098
:10BF20000BF1A00B5BF84C0C12F0020F5BF8982C95
:10BF300011680A6A14BF42EA800202435B450A6242
:10BF4000ECD10BE757F8C43C013347F8C43CC6B109
:10BF500000230093BFE70024204605B0BDEC028B10
:10BF6000BDE8F08F0E4991F8482102EB420201EB47
:10BF7000C202324492F8F5200D2AABD18023A37778
:10BF8000A9E7029958220B4842F0D6FA0096A2E798
:10BF90000122C7F8283387F83E20E0E6E0010020C0
:10BFA00048180120D8120020ABAAAAAA706505087B
:10BFB00088E90408BC120020830AA3F58013522BE1
:10BFC00045D8F0B50446624885B0034493F8800232
:10BFD0000D283AD85F4D860105EB8013D3F83075F4
:10BFE000A74232D00139C3F8304589B2C3F83C15B5
:10BFF000D5F89C10B1FBF2F2013AC3F8342505F5EF
:10C00000A66202EB80100022C3F84025C3F8382551
:10C01000C3F8442535F084FA4F4B9C4218D0B4F154
:10C02000804F15D0A3F57C439C4272D003F580630A
:10C030009C426ED0494A03F57C439C4218BF94420F
:10C0400046D003F570539C4242D005B0F0BD704716
:10C0500000234FF48051AA19CDE9001392F86C1512
:10C060000129CDE90233F0D00221D2F830050124B4
:10C0700082F86D153A4987683940816082F86D45CC
:10C0800082F86C350023AA19CDE90033029392F8A7
:10C090006C35012BD9D0D2F8303502212E4882F8E8
:10C0A0006D1583425A6899684ED000F580608342CE
:10C0B0004AD022F0700221F08001354401205A60FC
:10C0C0009960002385F86D0585F86C3505B0F0BDE5
:10C0D00000214FF48053CDE90031AB1993F86C2562
:10C0E000012ACDE90211B0D0D3F83005022283F83D
:10C0F0006D251B4A87683A4082601A4A83F86C159E
:10C100000121944283F86D15BCD0144B9C429CD104
:10C11000B8E700224FF48051AB19CDE9001293F833
:10C120006C150129CDE902228FD00221D3F8300508
:10C13000012483F86D150A4987683940816083F8C6
:10C140006D4583F86C259DE722F47002B1E700BFCE
:10C1500088E904084818012000000140000C004054
:10C160008800FEFF0004014003689B0AA3F58013CA
:10C17000522B58D8F0B53D4C234493F880320D2B08
:10C1800050D84479A608002952D003EB8300384DDB
:10C190004FF0020CA40803EB40000CFA04F4304406
:10C1A00005EB8316D6F8306505EB800CF768CCF804
:10C1B000F4183C43CCF80429F4609C01EFF3118C93
:10C1C000502282F312882C2203FB02F2A818D0F826
:10C1D000F01849B30A1DC0F8141926492C20264E20
:10C1E00003FB00F006EB000E1430014451F8040B81
:10C1F00018B1106051F8042C04328E45F6D100219C
:10C200005FFA8CFC11608CF311882C222C4402FB09
:10C210000353D4F83025D3F8143913B3D36843F05B
:10C220000103D360F0BD7047243212490A44D5E7B8
:10C2300003EB83000E4D344603EB4000304405EB26
:10C240008316D6F830750226A640FC6824EA060458
:10C25000FC6005EB8004C4F8F418C4F804299C01C0
:10C26000ACE7D36823F00103D360F0BD88E904088C
:10C2700048180120382101205C2101200149024891
:10C28000FCF70CBD382101200000014010B5064C20
:10C29000064804F50F61FCF701FD04F67C21044813
:10C2A000BDE81040FCF7FABC48180120000001402E
:10C2B0000044014002494FF08040FCF7EFBC00BF52
:10C2C0006421012001490248FCF7E8BC90210120CB
:10C2D0000004004001490248FCF7E0BCBC210120F9
:10C2E0000008004001490248FCF7D8BCE8210120C1
:10C2F000000C00402DE9F843194E3569F3681D40E4
:10C3000010D04FF00047DFF85C80B5FA85F227FACD
:10C3100002F31F2A6FEA030305EA0305336103D022
:10C32000002DF2D1BDE8F883D8F8F439A3B103F1B8
:10C33000FF3900231FFA89F9C8F8F439D8F8F04911
:10C34000002CEDD023682046494698476468002CAD
:10C35000F8D1002DD9D1E5E7F16A1FFA81F9EDE7AF
:10C36000001000404818012001490248FCF796BC23
:10C370006C2201200004014010B5064C064804F66A
:10C380002421FCF78BFC04F530610448BDE8104023
:10C39000FCF784BC4818012000040140001C004048
:10C3A00001490248FCF77ABC982201200040014074
:10C3B00001490248FCF772BCF0220120004801400C
:10C3C00001490248FCF76ABC1C2301200018004008
:10C3D0002DE9F04F4FF4257295B00021804842F0CE
:10C3E0001FF9804B804F4FF080415A6C07F12004B9
:10C3F000B94642F0010207F51E65A246DFF8F48156
:10C400005A645A6C794E02F001020092009A1A6C3A
:10C4100042F001021A641A6C02F001020192019AC0
:10C420001A6C42F002021A641A6C02F002020292C2
:10C43000029A1A6C42F004021A641A6C02F00402A6
:10C440000392039A1A6C42F008021A641A6C02F002
:10C4500008020492049A1A6C42F010021A641A6CD0
:10C4600002F010020592059A1A6C42F020021A643A
:10C470001A6C02F020020692069A5A6C42F00202EE
:10C480005A645A6C02F002020792079A5A6C42F4FC
:10C4900080325A645A6C02F480320892089A5A6CBC
:10C4A00042F400325A645A6C02F400320992099A3A
:10C4B0005A6C42F480225A645A6C02F480220A9226
:10C4C0000A9A1A6C42F040021A641A6C02F0400296
:10C4D0000B920B9A1A6C42F080021A641A6C02F0EA
:10C4E00080020C920C9A1A6C42F480721A641B6CD3
:10C4F00003F480730D930D9B4246002301E056F830
:10C5000033208A420CD001330E2BF8D10AF1200AD5
:10C5100000203CF05BFD55450DD05AF8201CEBE7A0
:10C52000334A0AF1200A02EBC30393F874013CF08A
:10C530004DFD5545F1D107F51C67DFF8BCB0DFF8BC
:10C54000BCA009F120094F4526D099F80630002BF0
:10C55000F7D099F804000CF067F906460028F0D0EF
:10C56000036809F1200919F8188C53440BEB932345
:10C5700093F8E8073CF02AFDB288306800230E9259
:10C5800002220EA9CDF84C80CDE90F23CDE911335D
:10C590003EF036FD4F45D8D14FF08041154F134E38
:10C5A0003A46002301E056F833208A420BD001338B
:10C5B0000E2BF8D1203400203CF008FDAC420CD00A
:10C5C00054F8201CECE70A4A203402EBC30393F82A
:10C5D00074013CF0FBFCAC42F2D115B0BDE8F08F29
:10C5E000382101200038024030F20408F0FB040832
:10C5F00080FA04080000014088E904080000FEBF3A
:10C6000008B572B6FDF746FD30B5032083B0FDF7DF
:10C6100053FD01284BD0324C0025324A0523C4F883
:10C620009850C4F89C50C4F8A020C4F89430BFF3CC
:10C630004F8FBFF36F8F4FF6FF01E2682A4B0A401E
:10C6400013432A4AE360536F37F01CFE284B2949F5
:10C65000A3FB0023D4F8FC209B0C42F08072C4F8AA
:10C66000FC20C1F8843BD1F89C302349234AA1FB2C
:10C67000031323499B09C2F8B01F5560013B1168A1
:10C68000B3F1807F41F00101116008D24FF0E02248
:10C69000F0215361072384F82310956113614FF053
:10C6A000E022136943F00403136103B030BD02219B
:10C6B0000320FFF703F80D4B12485A6C124942F45D
:10C6C00080425A645B6C03F480430193019A0268D0
:10C6D0000B68026083F308884B689847FEE700BF49
:10C6E00000ED00E01B0000060005FA0500380240DE
:10C6F00083DE1B4348180120D34D6210001000E078
:10C7000055CEACC5003801400000F01FD0F8201114
:10C71000242200232DE9F041C0F8942104460A6840
:10C72000806804F5907522F001020A600B604B608E
:10C730008B6094F805C0C4F89C314FEA8C22C4F891
:10C74000943184F8903102F48052C4F89831C4F8DE
:10C750003831C4F828214FEA0C32C4F8403102F4D1
:10C760000052C4F834312379C4F82C214FEA0C224A
:10C77000C4F8240113F0010002F48062C4F83021EF
:10C7800002D00422C4F8342113F0020305D0D4F8F7
:10C79000342142F00802C4F834211CF0010F0DD0FE
:10C7A00048B1D4F8442142F00202C4F844214FF4C5
:10C7B0008032C4F84C21002B40F0FF80A64B03F1DF
:10C7C000200053F8042F944200F0BD809842F8D125
:10C7D0001CF0080F40F0CD80D4F89431002B00F00D
:10C7E000128124232846C4F894310B6823F00103F6
:10C7F0000B6037F07BFD012815D0D4F84431002BB5
:10C8000040F01481D4F8203128465A6822F490422E
:10C810005A609A6822F02A029A601A6842F001026D
:10C820001A603EF0C1FB2379DA0761D5D4F8FC2009
:10C83000002A00F0D5800023D4F8041104F13C064E
:10C84000E263A3644FF480623046E264C4E91013EB
:10C85000C4E91433C4E91833C4E91A334FF48033FC
:10C86000E3654FF48073A3653EF094FF304637F0E4
:10C8700033FBD4F89881C4F88C61B8F1200F656758
:10C8800031D1E368626999B26AB3B1FA81F77F097D
:10C8900049B394F89001012825D030460126C4F808
:10C8A0009C710B4684F890612226A4F87811C4F894
:10C8B00098616A4ED4F82011A667694E2431C4F8F5
:10C8C0007421E667674EC4F88C70C4F8886037F04E
:10C8D000A1FB002800F0AE80102384F89071C4F80A
:10C8E0009C31C4F89481E26B23795268C4F8142116
:10C8F0009B0773D5D4F80021002A69D00023D4F80F
:10C90000081104F19C06C4F89C20C4F8A830402209
:10C91000C4F8B8303046C4E92C33C4E93033C4E934
:10C9200032334FF48033C4F8BC304FF48063C4E931
:10C930002812C4F8AC303EF02DFF304637F0CCFA68
:10C94000002863D0FEE7002C3FF442AF94F8B831E2
:10C95000002B3FF43DAFD4F844311CF0080F43F0F6
:10C960000803C4F844314FF40043C4F854313FF491
:10C9700033AFD4F89431002B51D024232846C4F887
:10C9800094310B6823F001030B6037F0AFFC0128F2
:10C990003FF449AFD4F84431002B43D1D4F82031CF
:10C9A00028465A6822F490425A609A6822F022027D
:10C9B0009A609A6842F008022EE7D4F8443143F0B6
:10C9C0000103C4F844314FF40033C4F84831F5E6AC
:10C9D000D4F8A021136843F080031360BDE8F08110
:10C9E000D4F8A021116841F480711160916841F080
:10C9F00001019160116841F020011160116841F05E
:10CA00001001116074E784F89031EAE6D4F89C30A4
:10CA1000C4F88861C4F8D4505860BDE8F08184F847
:10CA20009031AAE7284637F01BFEB7E7284637F0D3
:10CA300017FEE7E6D4F8203184F890011A6842F432
:10CA400080721A609A6842F001029A609A6842F015
:10CA500040029A6047E700BFBC1E0020C1170408CF
:10CA6000F1170408F5170408F8B5EFF31185502302
:10CA700083F31288D0F800311B6813F0010303D050
:10CA8000EDB285F31188F8BDD0F894210446D0F8B2
:10CA900098110A4302F02102212AF1D0D0E90901BC
:10CAA000884253D043D822691846531A9BB2D4F80F
:10CAB00094710022A062202F84F8A421E0D1A26901
:10CAC0005118DDD0B3FA83F67609002BD8D094F84C
:10CAD0009021012AD4D00122D4F88801A4F872311F
:10CAE00084F890212122C4F89C61C4F86C11A4F848
:10CAF0007031C4F89421E8B1DFF858C0D4F820218F
:10CB0000C0F83CC0DFF850C028320665C0F840C00D
:10CB1000DFF848C0C0F84CC037F07CFA50B11023A1
:10CB200084F89061C4F89C31C4F89471A8E7431A62
:10CB30009BB2BCE7D4F8203100224021196284F86E
:10CB400090219A6842F080029A6099E7012384F864
:10CB5000A43195E799170408BD170408F5170408D0
:10CB6000F8B5D0F820310446DA69910615D5586A2F
:10CB7000E36AC0B2002B00F0D580216B9847D4F84F
:10CB800020311A6822F480721A609A6822F0010239
:10CB90009A609A6942F008029A61DA69D20701D56F
:10CBA00001221A62DA69970701D502221A62DA694C
:10CBB000560701D504221A62DA69150701D5082241
:10CBC0001A62D4F8002152B3D96949060AD4DA6945
:10CBD000D20606D5626B12B19047D4F820311022EC
:10CBE0001A62F8BDD96904F590701E680F079D6838
:10CBF0002DD18F0602D5B50600F1C8800F0602D5EB
:10CC0000350600F1B380480602D5710600F1A38015
:10CC100012B12046FFF728FFD4F82031D7E7D969B1
:10CC20000806D1D5D4F894112129CDD0D4E9090131
:10CC3000814200F0A480A069405C0131C0B29862DA
:10CC40002069B1FBF0F500FB1511A162BCE705F00E
:10CC5000010506F4907C5CEA0507CFD0CF0709D523
:10CC6000F70507D501271F62D4F89C7147F001072B
:10CC7000C4F89C718F0761D44F0708D53DB10427D4
:10CC80001F62D4F89C7147F00207C4F89C710F072B
:10CC90000CD506F0200C5CEA050507D008251D62BE
:10CCA000D4F89C5145F00805C4F89C51D4F89C5127
:10CCB000002DADD08D0607D5B10605D5D4F880215D
:10CCC00012B19047D4F82031D4F89C119A6801F041
:10CCD000080102F04002114368D01A6820200021A8
:10CCE00022F490721A609A6822F001029A60C4F8E5
:10CCF00098019A68C4F88011520610D59A68D4F841
:10CD00008C0122F040029A6048B190F835302A4AEE
:10CD1000022B02653FD08023436534F09BFDD4F89D
:10CD2000002175E7E3696269D054E369E268013381
:10CD3000B3FBF2F102FB1133E36120E7002DA6D033
:10CD400002271F62D4F89C7147F00407C4F89C7155
:10CD50004F079CD593E71968202021F04001196006
:10CD60000023C4F89401C4F8843151E7D4F8843125
:10CD7000002B3FF44DAF9847D4F8002148E7A4F8C2
:10CD80007221196821F0800119601DE7D4F8803103
:10CD9000002BF0D13CE70168052380F835300B68A3
:10CDA000D4F8002123F001030B6031E7D4F800210F
:10CDB000C4F89C112CE700BF551804082DE9F04F6A
:10CDC000AB4C89B004EB8004D4F8E84B002C68D05D
:10CDD000D4F8A8511F46DFF8B0B290466B680646FB
:10CDE000DFF8A892C4F8A0316B6BA16063612B6B74
:10CDF000A3616B8FE3600BF5F07323602B8F2361CE
:10CE00002A7809EB420393F9880B53000193C3B2CC
:10CE1000012B40F2B080D4F8003183B19549002055
:10CE20009C464B68013024319C4500F0318110282C
:10CE3000F7D1914B93F87810002900F07B81D4F85A
:10CE4000FC00002840F0EC806B68C4F8203195F8B5
:10CE50002800002840F0FC8094F8AE010BF0E4FCC0
:10CE600017F0080B814694F8ACA11ED0002841D0E1
:10CE700017F0510F4FF00B0306F1010614BF0A2102
:10CE80001A2117F0410F8371C67114BF402320236C
:10CE900094F8AF2119430BF0EFFCD4F8FC30002BD1
:10CEA00052D0204609B0BDE8F08F18F0020F21D013
:10CEB00000B302687149724B114403EB912393F85C
:10CEC000E8070B2389F80630731C89F8073094F8BB
:10CED000AF713CF07BF8B9F8043002A9D9F8000032
:10CEE000029302230797CDF818B00393CDE904BB52
:10CEF0003EF086F850460BF097FC07460028CCD051
:10CF000018F0010FC9D001680C235C4A0136837107
:10CF10000A445B4BC67103EB922394F8AD6193F81E
:10CF2000E8073CF053F8BB883868022202930023DC
:10CF300002A90796CDE90323CDE905333EF060F859
:10CF4000D4F8FC30002BACD195F82C1095F92A00C0
:10CF500089093CF0F7FA95F92A3095F82A20002B38
:10CF60009FDB02F01F0201215B09464801FA02F231
:10CF700040F8232095E708234FF00C0A0BF5047CBA
:10CF80001AFB003A0023E64619460131172962D000
:10CF90001EF81C3F042BF8D19EF801309342F4D1C7
:10CFA0005EF80A30002BF0D08E460199C4F80031AB
:10CFB0008944CEEBCE0199F989EB890000EB400959
:10CFC000BEF1FF3F01EB89015944D1F81C12C4F8AE
:10CFD00008113FF423AF0021013117293FF41DAFA1
:10CFE0001CF81CEFBEF1050FF6D19CF801E0964548
:10CFF000F2D15CF80AE0BEF1000FEDD0C1EBC10147
:10D00000C4F8FCE000EB4000890001EB80008344A1
:10D01000DBF81C12C4F80411002B7FF4FFAE70463D
:10D02000144A002351680133243288425FD0102B08
:10D03000F8D1114B93F87820002A7FF405AF2A78B5
:10D04000013283F879200C2283F878206B68FCE6A3
:10D050003BF0BCFF00E7019B9944D4F8003199F9FB
:10D06000891B0131B7D1002B7FF4D8AEE7E600BFB2
:10D07000D812002080000120000001200000FEBF27
:10D0800088E9040800E100E080FA0408481801205B
:10D090005FFA80F92B4B013209F1FF31D2B201EB7B
:10D0A000C10103EB810393F89C1000297FF4C7AE04
:10D0B00083F89D202448D3F8802082420CBF95201D
:10D0C00096200B2283F89C203BF080FF23464846A5
:10D0D00095F82B201D49FDF7B1FB6B68D4F8FC00D7
:10D0E0002833C4F8183100283FF4AEAE98E7DBB21D
:10D0F000144A013B03EBC30302EB83032A7893F842
