:020000040800F2
:10000000F0FF01201DC004085960040855CC010808
:1000100095C0040895C0040895C0040800000000BD
:100020000000000000000000000000005D60040807
:1000300061600408000000006560040815AF010855
:1000400095C0040895C0040895C0040895C004082C
:1000500095C0040895C00408CD8F0108D58F01080C
:10006000DD8F0108E58F0108ED8F010801CD000843
:1000700011CD000821CD000831CD000845CD000884
:1000800059CD00086DCD000895C00408000000009F
:10009000000000000000000000000000F58F0108D3
:1000A0009DC8010835C80108ADC8010825C8010868
:1000B0005DC801086DC801087DC801081DC200089F
:1000C000E5C6000825C20008E9C6000895C0040876
:1000D00095C004088DAE010899AE0108000000002B
:1000E000FD8F010895C00408B57A040800000000DF
:1000F00000000000000000000000000081CD0008AA
:100100000000000095C004088DC8010895C00408CF
:1001100000000000000000000000000000000000DF
:1001200095CD0008A9CD0008BDCD0008D1CD0008AF
:10013000E5CD000800000000000000000000000005
:1001400000000000000000000000000069600408DA
:10015000F9CD00080DCE000821CE0008A5AE01089B
:100160002DC20008EDC600080000000000000000DD
:10017000000000000000000000000000000000007F
:100180000000000095C0040800000000000000000E
:0801900095C0040895C00408A5
:0801980070BB0400010000002F
:1001A0002700010004000000445100209058002066
:1001B0000000000014BD05088C5800200C500400FD
:1001C00080000000C8430020985800200000000074
:1001D0009167020894580020031101000A000000F2
:1001E000C04F00201C590020000000005D190408C9
:1001F000185900202920140078000000604D0020CC
:100200002C590020000000000000000028590020A8
:10021000012001000C000000544D0020A8590020CE
:100220000000000018BD0508A4590020232001008B
:10023000100000000C4D0020B85900200000000004
:100240008D2D0308B45900200B3001001A00000066
:10025000BC4C0020CC5900200000000024BD050843
:10026000C85900200E5004005802000048440020E5
:10027000EC590020000000007D270308E859002009
:100280001E10010009000000A84C0020485C00205E
:10029000000000003EBD0508445C00200D10010078
:1002A0004C000000584C0020585C0020000000006A
:1002B000C9000208545C0020160215003F0000002F
:1002C000E85C0020A85C002000000000D189000844
:1002D000A45C00201F020800100000003C5D00200C
:1002E0002C5D002000000000AD890008285D002082
:1002F000220201001C010000CC4F0020505D0020B4
:10030000000000003DF300084C5D00201840010093
:10031000380000001C4D0020705E0020000000002E
:100320008DBE00086C5E00201A0201003C00000037
:10033000E85E0020AC5E0020000000002DBE00083A
:10034000A85E002028020400040000002C5F0020AA
:10035000285F002000000000DD880008245F0020E6
:100360002702040004000000385F0020345F0020F2
:1003700000000000D1880008305F00201B0201004F
:1003800010000000505F0020405F002000000000CF
:10039000BD8800083C5F00200400080080000000C9
:1003A00060530020645F0020000000000000000097
:1003B000605F00201C0202001C000000F04C0020C6
:1003C000E85F00200000000039930008E45F00208F
:1003D0002830010016000000D84C002008600020E2
:1003E00000000000CD3D0308046000200812030057
:1003F0000F000000F05300202460002000000000E7
:10040000E988000820600020031201003D00000080
:100410008C540020386000200000000048BD050812
:1004200034600020010201000A00000094570020FF
:100430007C600020000000009D890008786000209A
:100440000C02010004000000005400208C60002019
:10045000000000008D89000888600020FD17010061
:100460009A000000A45700209460002000000000C3
:10047000F1AC03089060002013100100040000009C
:10048000B44C0020346100200000000088BD050845
:10049000306100200202010003000000905700209C
:1004A0003C610020000000000000000038610020D6
:1004B000F5C10100740000004C4F00204461002091
:1004C0000000000005B7030840610020F62101008C
:1004D0000C000000F44D0020BC6100200000000072
:1004E0008CBD0508B8610020121201000400000054
:1004F000FC750020CC6100200000000098BD0508BC
:10050000C8610020110201000800000000760020F0
:10051000D4610020000000009CBD0508D0610020CF
:10052000F831010006000000304C0020E06100209E
:1005300000000000A4BD0508DC61002002000100ED
:100540000C0000004C540020EC6100200000000072
:1005500000000000E8610020FE010100140000001E
:10056000D84D0020FC61002000000000D589000863
:10057000F861002006120300120000003854002029
:100580001462002000000000C192000810620020E8
:10059000F701010006000000EC4D00202C62002055
:1005A00000000000AABD0508286200201A00010012
:1005B0000E000000E0530020386200200000000020
:1005C000B0BD0508346200201400010005000000E1
:1005D000504C00204C62002000000000BEBD050809
:1005E00048620020FD01010024000000D2520020DA
:1005F0005862002000000000CB7401085462002003
:100600001D02020006000000CC5200208062002083
:1006100000000000000000007C620020F9010100E1
:1006200004000000087600208C620020000000001A
:10063000857401088862002012300100100000005B
:10064000384C00209462002000000000C4BD050862
:10065000906200200A90010024000000382700204A
:100660002873002000000000A12D0308247300203F
:100670000610010026000000C8270020507300204B
:1006800000000000698800084C7300202F20010042
:1006900022000000B0850020388300200000000008
:1006A000D4BD0508AC8500200E0201000200000048
:1006B00048770020D885002000000000F6BD05081E
:1006C000D485002021020100F0000000887F002076
:1006D0005C83002000000000FDB00308DC850020E2
:1006E0002C000400100000002882002078850020E3
:1006F000000000007D280308E085002025201E0062
:100700002C0100005C7E00204C84002000000000D2
:1007100000000000E48500202B00120024000000EF
:10072000A076002088850020000000008D280308A6
:10073000E88500201F50010024000000888A002066
:10074000BC96002000000000F8BD0508B896002007
:1007500038400100060000003C860020E49600209E
:10076000000000001CBE0508E09600203740010094
:1007700028000000CC8B0020F09600200000000034
:1007800022BE0508EC9600201B2001000C00000092
:10079000549500201C9700200000000065A6030867
:1007A0001897002016200100060000006495002024
:1007B0002C970020000000004ABE05082897002062
:1007C00010100100020000009093002038970020D4
:1007D0000000000050BE05083497002019000100F9
:1007E00005000000709500204097002000000000E8
:1007F00052BE05083C9700202D02010001000000B8
:10080000789F0020849F002000000000000000006E
:10081000809F002029020100400000006097002016
:100820008C9F00200000000058BE0508889F002013
:1008300001010100040000001C990020D09F00204D
:100840000000000000000000CC9F0020000101001B
:100850000400000018990020D89F0020000000002C
:1008600098BE0508D49F002002010100030000008B
:1008700014990020E09F002000000000816702081A
:10088000DC9F00202052010008000000D4980020C6
:10089000E89F0020000000009CBE0508E49F0020A7
:1008A0002A12010008000000CC980020F49F0020CC
:1008B00000000000A4BE0508F09F00201302010004
:1008C00004000000C498002000A0002000000000E8
:1008D000ACBE0508FC9F002023320100140000007C
:1008E0008CB10020E0BF002000000000B0BE050871
:1008F000DCBF0020050201000400000020B200203F
:10090000F8BF002000000000C4BE0508F4BF0020AE
:100910002C0201000400000018B2002020C00020BA
:1009200000000000C8BE05081CC000200012010025
:100930000A00000050D9002078E1002000000000EB
:100940000000000074E10020090201000100000025
:1009500064FF002080FF002000000000CCBE0508DE
:040960007CFF0020F8
:10096400A4000000000000000000000000000401DA
:100974000000020001000002100000000700010155
:10098400FF00000000600240106002400000000010
:100994000000000000000000000B00000000000048
:1009A40000000000000000000060024028600240D7
:1009B400010000000000000000000000060C000020
:1009C4000000000000000000000000000060024081
:1009D400406002400200000000000000000000002F
:1009E400100D0000000000000000000000000000E6
:1009F4000060024058600240030000000000000054
:100A040000000000160E00000000000000000000BE
:100A1400000000000060024070600240040000001A
:100A24000000000000000000200F00000000000093
:100A340000000000000000000060024088600240E6
:100A44000500000000000000000000002610000067
:100A540000000000000000000000000000600240F0
:100A6400A06002400600000000000000000000003A
:100A74003011000000000000000000000000000031
:100A840000600240B860024007000000000000005F
:100A940000000000362F00000000000000000000ED
:100AA40000000000006402401064024000000000E6
:100AB40000000000000000000038000000000000FA
:100AC40000000000000000000064024028640240AE
:100AD40001000000000000000000000006390000D2
:100AE400000000000000000000000000006402405C
:100AF400406402400200000000000000000000000A
:100B0400103A000000000000000000000000000097
:100B1400006402405864024003000000000000002A
:100B240000000000163B0000000000000000000070
:100B340000000000006402407064024004000000F1
:100B44000000000000000000203C00000000000045
:100B540000000000000000000064024088640240BD
:100B64000500000000000000000000002644000012
:100B740000000000000000000000000000640240CB
:100B8400A064024006000000000000000000000015
:100B940030450000000000000000000000000000DC
:100BA40000640240B8640240070000000000000036
:100BB40000000000364600000000000000000000B5
:100BC40000000000FF00E001FF080000F401000045
:100BD4000000000000000000000000000100000010
:100BE4000000000000000000000000000000000001
:100BF4000100000000000000FFFFFFFF0101FF00F3
:100C0400F0E1040824E2040858E20408FFFFFFFFAF
:100C1400FFFF0000FFFFFFFF0001010100000000D3
:100C2400C06C050800000802050303000000000072
:100C3400CC6C050801000802050403000000000054
:100C4400D86C05080000080205030300000000003A
:100C5400E06C050801000802050403000000000020
:100C6400D86105080200FE01011003000000000025
:100C7400205E0508030014020003000000000000C9
:100C8400E86C050804001F020200080000000000D0
:100C9400F06C050805001F020201080000000000B6
:100CA400010100007D0000007EFF7EFFE2FFE2FF05
:100CB4000000803F00000000000000000000000071
:100CC4000000803F00000000000000000000000061
:100CD4000000803F00000000000000000000000051
:100CE4007C6D0508E8700508000000006500020836
:100CF400A0860100040000007C6D0508F89F05082B
:100D04000000000059760108E80300000400000018
:100D1400EC5A05080000000000000000B1A602081B
:100D24007D000000FF000000DC5E050800000000FC
:100D34000000000015B102087D000000FF00000063
:100D4400D8AA05080000000000000000DDF7020832
:100D54007D000000FF0000007C7105080000000019
:100D640000000000857B0108E80300000300000088
:100D7400C0600508000000000000000001ED02084A
:100D84001027000003000000E46C050800000000C8
:100D9400212A030845D401085F76000005000000FD
:100DA4006873050800000000000000001D7B0108B6
:100DB400102700000200000000A005080000000049
:100DC400000000002D760108E80300000500000083
:100DD4000CA005080000000000000000C56F020818
:100DE400204E0000030000001CA0050800000000C5
:100DF400000000009DDE0208204E000003000000F9
:100E04002CA0050800000000000000007DCD0108B2
:100E1400400D030003000000606E050800000000A0
:100E240000000000C5D101081027000002000000E6
:100E3400107105080000000000000000F9C6030856
:100E440010270000030000003CA00508000000007B
:100E540000000000CDB201081027000003000000CC
:100E640048A0050800000000000000005D7D0108A6
:100E7400A0860100020000002C5D050800000000AF
:100E8400000000005D760108102700000200000049
:100E9400707305080000000000000000599F01085D
:100EA400A00F00000200000050A005080000000090
:100EB4000000000095F8030810270000020000005D
:100EC400686E0508000000001FAD0308310804081F
:100ED4008545010002000000EC5C050800000000EC
:100EE4000000000059170408102700000200000049
:100EF400FC7005080000000000000000C58E030817
:100F040050C30000020000005CA0050800000000BF
:100F140000000000CD290408400D0300010000007A
:100F240064A00508000000000000000045EC030870
:100F340050C300000300000070A00508000000007A
:100F4400000000009DA9020840420F0001000000BB
:100F54007CA005080000000000000000A1000208B9
:100F640050C300000100000088A005080000000034
:100F740000000000E54704081027000002000000FC
:100F8400FFFFFFFFFFFFFFFF6D01020800000000ED
:100F94000000000000000000410102080000000001
:100FA400000000000000000079410408211E04082C
:100FB4005D40040800000000511E0408AD4104080F
:100FC400F5360408CD3604080000000000000000D7
:100FD400451E0408CD400408E11D04084D3E0408E4
:100FE40000000000B11D040815350408B5350408D7
:100FF400A53604080000000000000000D51D040808
:10100400A51E0408A91E0408AD1E0408B91E040880
:10101400BD1E0408B11E0408B51E0408751E04088C
:10102400991E0408D1200408BD200408E520040802
:10103400F92004080D210408FFFFFFFF0100000050
:10104400000000000CC000200800000000000000A8
:10105400FCBF00200800000089D101080000000046
:1010640000000000000000000000FA430000FA4302
:101074000000803F000000000000000000000000AD
:10108400000000000000000000000000000000005C
:1010940000000000000000000000803F01F11F3F3D
:1010A40064C8002072C8002000FF00000000000097
:1010B4000000000075380308000000000000000074
:1010C400CC20050801000000000000000000000022
:1010D400000000004025050800000000000000009A
:1010E40000000000F82505080000000000000000D2
:1010F40000000000A4250508000000000000000016
:101104000152030863C4002001010000F1530308E5
:101114000000000000000000C438050801000000C1
:10112400FA00000001000000010000002D202D2D18
:10113400202D2D2D2D202D2D2D0000000000000030
:1011440000000000000000000000000189580308AE
:101154000000000000000000A4240508F128040891
:101164000000000000000000182405088FA00308F8
:101174000000000000000000D023050824C2002065
:1011840088136F170100000026C2002088136F1710
:101194000000000028C2002088136F17010000001F
:1011A4002AC2002088136F170000000025380308A6
:1011B4000000000000000000382105089BC4002046
:1011C400010000008C2105082DC200200100000050
:1011D40098210508D4C2002002000000A0210508BF
:1011E4004D3803080000000000000000AC21050891
:1011F40000000000000000000000000000220508BC
:10120400000000000000000000000000702205083B
:1012140022C2002002000000B8220508A0C4002059
:10122400E0150C1700000000C012000036C80020B2
:10123400000000000000000034C80020000000008E
:101244000000000032C80020000000000000000080
:1012540030C8002000000000000000002EC800205C
:1012640000000000000000002CC800200000000066
:1012740000000000600A00200000000000000000E0
:101284002CC2002003000000A82205080000000072
:101294000000000000000000C42205083AC8002035
:1012A400E0150C17000000003CC8002002000000FC
:1012B400B82205082D202D2D202D2D2D2D202D2D4E
:1012C4002D2D0000000000000000000000000000C0
:1012D400000000000000000000000000000000000A
:1012E400FC2205083EC800209CFF2C0100000000E1
:1012F4009EC40020E0150C17000000009CC40020D0
:1013040002000000B82205082D202D2D202D2D2DA2
:101314002D202D2D2D2D00000000000000000000C8
:1013240000000000000000000000000000000000B9
:101334000000000034230508CBC000200AFF010090
:10134400CAC0002000FF0100C9C0002000FF010046
:10135400C8C0002000FF0100C7C0002000FF01003A
:10136400C6C0002000FF0100C5C0002000FF01002E
:10137400C4C0002000FF0100A92F0308ED2F0308BB
:101384000000000040260508E4C0002005320100EA
:10139400E2C00020E803D00701000000E0C0002004
:1013A400E803D00701000000DEC00020E803D007F6
:1013B40001000000DCC00020030F0100DAC000209F
:1013C4001900F40101000000D8C000200500F40158
:1013D40001000000D6C00020003C0100D4C0002061
:1013E4000000B80B01000000D2C0002002FF010081
:1013F400D0C000203200C40901000000CFC000208A
:1014040000640100CEC0002002000000C4F1040802
:10141400CCC000201400E803010000001AC1002021
:1014240000C8010019C100200050010018C10020AB
:10143400005A010016C100200200000038EE040822
:1014440060A6050868A605086AC300200100C4094F
:101454000000000068C300200100C409000000006F
:1014640066C300200100C4090000000064C300201A
:101474000100C4090000000060C300200100C40989
:101484000000000062C300200100C4090000000045
:101494005EC300200100C409000000005CC30020FA
:1014A4000100C4090000000003C2002000C80100BC
:1014B40002C2002000C8010000C200200000FFFF9B
:1014C4000A000000FEC100200100C8000100000065
:1014D400FCC100203200307532000000FAC1002047
:1014E400E2FF140005000000F8C100207EFF140094
:1014F40005000000F6C1002005002C0105000000D5
:10150400F4C10020055A050009C2002000FF0100B3
:1015140007C2002002000000780C002005C2002051
:1015240003000000DC26050808C2002000FF0100BB
:1015340006C2002002000000780C002004C2002033
:1015440003000000DC260508E4C20020FF7F010040
:10155400E0C2002000000000FFFFFFFF01000000C8
:10156400DCC2002000000000FFFFFFFF01000000BC
:10157400D8C2002000000000FFFFFFFF01000000B0
:10158400313003089D30030800000000EC260508F4
:10159400BCC00020EE02CA0801000000BAC000204E
:1015A40000C8010064000000B9C0002002C80100A6
:1015B40064000000B8C000200200000064EF0408CA
:1015C40020C200200000803E050000001EC2002052
:1015D40080C1803E050000001CC200200083007D05
:1015E400050000001AC2002080C1803E05000000F2
:1015F40018C2002000FF010016C200206400F4019C
:101604000100000014C200206400F4010100000085
:1016140012C200206400F4010100000010C2002086
:1016240004000000B0F104080FC200200200000012
:10163400A4F1040853C100200D000000ECED0408DF
:1016440050C10020006401004EC100203200102768
:101654000A0000004DC100200D000000ECED04085C
:101664004CC100200D000000ECED04084BC100202B
:101674000200000024EE040849C100200300000019
:10168400F827050848C1002003000000F8270508D2
:101694003CC10020000A01003AC100200000E80318
:1016A4000100000038C100200000E8030100000030
:1016B40036C10020000A010034C100200000E80304
:1016C4000100000032C100200000E8030100000016
:1016D4002AC10020C800E8030100000030C1002036
:1016E4001400FA00010000002EC100200100E803EC
:1016F400010000002CC100200005010028C10020C9
:1017040002000000E8EE040826C100200000F401F5
:101714000100000024C100200000F40101000000C9
:1017240022C100200000F4010100000020C10020BB
:101734000000F401010000001EC100200000E803C5
:10174400010000001CC100200000E80301000000AB
:1017540015C10020006401000A00000014C100202B
:10176400006401000A00000003C1002019640100A4
:1017740002C1002002000000DCEE0408F7C00020D3
:1017840000640100F6C0002000640100FEC00020D7
:10179400006401000A000000FDC000200064010094
:1017A4000A000000FCC00020006401000A000000E0
:1017B40001C1002000FF01000A00000000C1002058
:1017C40000FF01000A000000FFC0002000FF01002C
:1017D4000A000000FBC0002001FF01000A00000015
:1017E400FAC0002001FF01000A000000F9C0002037
:1017F40001FF01000A00000046C100200000F401BE
:101804000100000044C100200000E80301000000C2
:1018140042C100200000E8030100000040C1002094
:101824000000E803010000003EC100200000E803BE
:10183400010000003CC50020E803D0070A000000B6
:101844003BC50020006401000A0000003AC50020E6
:101854000096010031C5002000C8010030C50020F9
:10186400006401002FC50020006401002EC5002083
:10187400006401002DC50020006401002CC5002077
:10188400FF0801002BC5002001640100C1310308D9
:1018940005320308000000000828050834C50020AC
:1018A4000132010033C5002001000000B0EE04083D
:1018B40032C5002004000000B8EE04082AC5002048
:1018C4000096010029C500200064010028C50020FD
:1018D40000FA01006400000027C500200A5A010034
:1018E40026C5002000C8010025C5002000C801004D
:1018F40024C5002000C8010037C5002000320100C3
:1019040039C500200014010038C50020005F010023
:1019140036C5002004000000B8ED040835C50020D9
:10192400006401000A000000F1C000200AC805009C
:101934000A000000F0C000200100000040F204088A
:10194400F3C000200AC805000A000000F2C000200D
:101954000100000040F20408E8C0002000C80500AF
:101964000A000000EFC0002000C805000A000000C3
:10197400E9C0002000C805000A000000EAC00020F9
:1019840000C805000A000000EDC0002000C80500E2
:101994000A000000EEC0002000C805000A00000094
:1019A400ECC0002000C805000A000000EBC00020C5
:1019B40000C805000A000000E7C000200200000083
:1019C40088ED040822C500200000D00701000000B3
:1019D4001CC5002000C801001BC5002000C8010070
:1019E4001AC5002000C8010020C500200000D0074F
:1019F4000100000019C5002000C8010018C500201E
:101A040000C8010017C5002000C801001EC5002041
:101A14000000D0070100000016C5002000C8010026
:101A240015C5002000C8010014C5002000C801002D
:101A340044B2050800000000000010C8002050B2A5
:101A440005080708000000006012002058B20508CD
:101A54000708000000005812002060B205080708BB
:101A6400000000005012002068B2050808080000B9
:101A740000004412002070B20508070800000000AE
:101A84003C12002078B20508070800000000341258
:101A9400002080B205080708000000002C12002076
:101AA40088B205080808000000002012002090B247
:101AB40005080710000000001812002098B205085D
:101AC40007100000000010120020A0B20508071043
:101AD4000000000008120020A8B205080810000049
:101AE4000000FC11002018A40508010000000000FB
:101AF40000000000000000001000000000000000D2
:101B040000000000E9340308F934030871480308AD
:101B14007828050859C10020005A010058C1002046
:101B240000C8010056C10020E803D00701000000EE
:101B3400000000000000000031810308142905089A
:101B44000EC200200300000078ED04080DC200203E
:101B5400000301000CC20020000301008D350308BE
:101B6400E1350308000000005C2905083536030848
:101B74007536030800000000042A050875350308BB
:101B84004155030800000000842A05080AC2002009
:101B9400010301002D390308553903080000000032
:101BA400F82D0508052F03082D2F03080000000059
:101BB400782E0508F53603085537030800000000A1
:101BC400E82E050899340308D19D0308000000009D
:101BD400A02F0508013403080000000000000000E5
:101BE40048300508C13203082D3303080000000003
:101BF400AC300508493203088532030800000000B0
:101C04006431050875A2030891310308000000003F
:101C1400F031050861C400200300000000C8002062
:101C240091330308CD33030800000000EC320508AB
:101C3400B9A20308116E0308000000005C33050814
:101C440009310308CD52030800000000F4340508EC
:101C540019A20308D16D03080000000068120020D7
:101C640062C4002003000000BCC70020153503082F
:101C7400453503080000000000360508D15103086B
:101C8400000000000000000064360508BD360308AB
:101C94005D5503080000000000370508000000003F
:101CA40000000000000000009C3705088DA1030817
:101CB40099520308000000000C380508000001FFD9
:101CC400FFFFFFFF0000803FFF01010101AA55074C
:101CD4000100001401000000FF000000090243009D
:101CE400020100C0320904000001020201000524BF
:101CF4000010010524010001042402020524060049
:101D040001070582030800FF09040100020A00001C
:101D140000070501024000000705810240000000A1
:101D240009026400030100C0320904000001030039
:101D3400000009211101000122360007058303096F
:101D4400000A080B01020202010009040100010259
:101D540002010005240010010524010002042402EC
:101D6400020524060102070582030800FF09040294
:101D740000020A0000000705010240000007058177
:101D84000240000012010002EF02014083045632B7
:101D940000020102030100001201000202020040DD
:101DA40083044057000201020301000004030904F4
:101DB4000101AA55050100000800000005010905FC
:101DC400A101A1000501093009310932093309359E
:101DD4000934093609371581257F7508950881026C
:101DE40005091901290815002501950875018102C5
:101DF400C0C0000009022200010100E03209040011
:101E0400000103010200092111010001223600072B
:101E140005830309000AAA550902000000AA550314
:101E2400009F000001000000AA550B010000AA5504
:101E340005010000FF00000000000000010203048F
:101E44000102030406070809613C0408013D040873
:101E54003D370408811D04087D400408651D0408FD
:101E64004D1D0408911D0408A11D04080000000074
:101E740000000000B0160020000000000000000078
:101E8400000000000000000000000000000000004E
:101E9400000000000000000000000000000000003E
:101EA400000000000000000000000000000000002E
:101EB400000000000000000000000000000000001E
:101EC400000000000000000000000000000000000E
:081ED400000000000000000006
:08280000082800080040000850
:1080000082B01E4B002201920193019B1C4A043353
:108010000193019B1968936803F00C03042B06D0AD
:10802000082B08D0174B184A1A6002B07047154B3E
:10803000196002B070475368506813F4800F00F065
:108040003F00536812D1C3F388130F49B1FBF0F11D
:1080500001FB03F30A4A0B495268C2F301420132A1
:108060005200B3FBF2F30B6002B07047C3F3881306
:10807000B1FBF0F101FB03F3ECE700BF5028004037
:1080800000380240101700200024F400074BD0F8FD
:10809000E4105B68D0F8F0205B1A9A42B8BFC0F8D1
:1080A000F030012380F81C3100207047001000E000
:1080B000B84B00EB800103EBC10170B54A68526810
:1080C000B2F814E01EF0010F4FEA800C6ED15FFA97
:1080D0008EF4A60742D5BFF35F8F91F82040012CA4
:1080E000E5B200F0D180118BBFF35F8F0CEB000184
:1080F00003EBC10191F82040022C00F0E7800CEB6B
:10810000000103EBC10191F82040032C07D191F845
:10811000221021B193F87D10002940F0E78091886A
:1081200089B241F48061918093F97C100CEB000ED0
:1081300003EBCE0E9EF820E00EF1010E8E450CD121
:10814000002183F87D1093F87E10002940F0B7805D
:10815000604403EBC00300225A7770BD65075DD40D
:1081600014F0400400F0CB80148A93F97C508E6A9E
:10817000E4B274555FFA85FE0EF1010464B291F821
:10818000206083F87C40E51CAE42214600F025814A
:108190000CEB000503EBC50595F82050AC42C5D1AA
:1081A0000EF1020149B283F87C10BFE7B2F800E09B
:1081B0002EF4006E4FEA0E4E4FEA1E4EA2F800E07B
:1081C0001488A4B244F48064148091F822400025FD
:1081D00083F87C50002C48D093F87D40002C41D08F
:1081E000012183F87D100CEB000103EBC10191F834
:1081F0002010022904D1118889B241F40061118054
:108200000CEB000103EBC101897F41F001011182F8
:10821000604403EBC00393F8203070BD91F8224016
:10822000012583F87E50002C70D093F87D40002CFF
:1082300071D10CEB000103EBC10191F82110002971
:1082400000F0AA80118889B241F40071118093F87E
:108250007C1001314CB283F87C401188CE05FCD4EF
:10826000214663E7C97FFF29BAD00CEB000103EB7D
:10827000C1018C7F04F0FE041482CA7FFF2AC7D09C
:10828000FF2283F87C20C3E791F8221000293FF4F5
:108290002AAF93F87D1000293FF425AF118821F40F
:1082A00080610904090C1180BFF35F8F118B118865
:1082B00083F87E5089B241F4007111802FE79188D4
:1082C00021F440710904090C918041E791F82210D2
:1082D00000293FF414AF93F87D1000293FF40FAF4D
:1082E000118821F480610904090C1180918821F41E
:1082F00080610904090C918093F97C1016E71FFA3C
:108300008EF52D062DD493F97C100FE793F87D1090
:1083100000298ED096E791F82040022C148846D987
:1083200024F480642404240C1480158A8E6A93F942
:108330007C40EDB235558E6A118889B241F40071E6
:108340001180E4B2158A611C49B2EDB2755491886E
:10835000023489B264B241F4806183F87C40918038
:108360007BE793F97C506E1C3ED04C6A665D1682AA
:108370006C1C91F8205064B2A54283F87C402146E1
:108380007FF4D4AE948824F480642404240C948074
:10839000CCE600BF10170020118893F97C4089B209
:1083A00041F480711180012183F87D1055E7A4B25A
:1083B00044F400741480158A8E6A93F97C40EDB2FF
:1083C0003555E4B28E6A158A611C49B20334EDB2A8
:1083D00064B2755483F87C403FE7958825F4806546
:1083E0002D042D0C9580D3E683F87C40CC7F14823D
:1083F00091F8224024B991F8201000297FF408AFA9
:10840000918821F480610904090C918000E700BF84
:1084100030B5EAB18E464FEA014C034600F1C00583
:10842000002419689A6841EA0C0142EA0E029A6037
:10843000C3E900140C33AB42F3D1D0F8C030C0F81C
:10844000C44043EA0E03C0F8C030C0F8C84030BD95
:108450004FEA014E8C46E0E7836930B41C699968A5
:108460002268096822F0010222608A899C8992B2FE
:1084700022EA04028A81027D00681F2A06D9446824
:10848000203A08219140214217D0FEE704680821D4
:1084900091402142F9D1202101FA02F28260234A5F
:1084A00092F87F203AB11A7E012A0BD1D3F8F82036
:1084B0000132C3F8F82030BC7047202101FA02F2E3
:1084C000C260ECE7D3F8F4200132C3F8F420EFF3F4
:1084D0001181502282F3128858685C6C026822EA8B
:1084E00004029C6C2243C9B2026081F31188D3E973
:1084F0000C401A6999681D6C096814605061D3E9D1
:108500000E40546090600024B3F8A800D5604C621F
:10851000C86210680124204310601C768A899B89F8
:1085200013439BB230BC8B81704700BF10170020F3
:10853000704700BF024B03EB401090F89D0070475E
:10854000101700204368B0F8502010B41A83EFF3DE
:108550001182502383F312884168446C0B6823EA2C
:108560000403C46C2343D2B20B6082F31188D0E9B8
:1085700007418268036912681C605961D0E90941AA
:108580005C60C46A9960B0F86010DC600023D1625E
:108590005DF8044B03767047037D1F2B30B54FF019
:1085A0002002046816D9A3F120056168AA400A4296
:1085B0000FD00C4A002182F8801141680A681F2BF5
:1085C00022F001020A604FF0200206D9203B9A40B7
:1085D000E26030BD21689A40E9E702FA03F3A36044
:1085E000F7E700BF10170020F0B4037D85691F2B4B
:1085F00063D90168A3F120024E68202494402642EA
:1086000049D010239340CC60CB604B68D340DE0749
:1086100067D4EFF31183502282F312882A6C116819
:10862000C9072FD4516889B271B9D5E90964A64246
:1086300025D0AF692744D76058D9341BA4B2546001
:10864000AE62002185F86410116841F00101DBB2CF
:10865000116083F31188037D1F2B19D80268194616
:10866000106808238B40184200D0936010680423E0
:1086700003FA01F1014200D09160F0BC7047012281
:1086800085F86420DBB283F31188037D1F2BE5D9C5
:108690000168A3F120024C6808209040044200D0F9
:1086A000C8604C68042000FA02F22242E5D0203B68
:1086B00000FA03F3F0BCCB60704702682024166810
:1086C0009C4026421946CBD010219940946091607D
:1086D0001168D940CC079CD5012101FA03F39360BE
:1086E00097E7012303FA02F2CA6092E72E69341B6E
:1086F000A4B25460A962A4E74FF400638381704779
:10870000074BD0F8E4105B68D0F8F0205B1A934276
:10871000C8BFC0F8F030012380F81C31002070473A
:10872000001000E04FF40063838170474FF4006352
:108730008381704710B5074C94F884310BB9002041
:1087400010BD12F08BFDD4F88831C01AD0F5FA5064
:10875000F6D5F4E71017002070B505460C46FFF774
:10876000E9FF2B685D6808B113F074F9064B00222D
:1087700083F884212846224693F88531BDE870406D
:1087800049210FF017BF00BF10170020B0F90000FB
:10879000084B4143994208DBB1F5000F07DA002985
:1087A000B8BFFF31081200B270470348FBE747F635
:1087B000FF70F8E701FF7FFF0080FFFF704708B5FB
:1087C000F5210FF0BFFF702818D008D8422817D025
:1087D000472817D0122814BF0020082008BDAC2855
:1087E00012D006D800F0FD00712814BF002006202A
:1087F000F4E7AF2814BF00200920EFE70520EDE7DC
:108800000C20EBE70D20E9E70720E7E7084B10B560
:10881000D3F88C3118440C46007E11F01FFA18B1C1
:10882000036882880CB11A8310BD5A83FCE700BF2D
:10883000101700200B4B10B5D3F88C3103440446BD
:10884000187E11F00BFA58B12E228271621CC2718F
:10885000012110F0D7FB20460021BDE81040D5E7EC
:1088600010BD00BF101700204FF4F07202804FF4CB
:10887000FA6240F22E4C0921028440F226220023A3
:10888000A0F81EC081704FF47A7C0E2182830222F0
:10889000A0F822C0437140F2012C8360C36080F8CD
:1088A0002410427440F2034140F2056243820723E0
:1088B000A0F814C0C182028383767047002306218A
:1088C0004FF47A72C0E9012301700373704700BF4F
:1088D0000023037043708370C370704700230370DC
:1088E00043708370C3707047154BFF22F0B54FF093
:1088F000000C4FF0FF3EC27002710272427242736E
:10890000827303F10C07764665466446624602EBC5
:10891000820281189F4284544D7081F802C0CE704B
:1089200081F804E00BD093F90620DC791D7A93F8E6
:1089300009C093F90A6093F90BE00633E7E7F0BD4D
:10894000CCD504088388C3F30B039342A8BF134616
:1089500070B51A461D460C460646806844F080FDF8
:1089600062199442B569074B08D0074814F8011BF7
:1089700000FB03F3A24283EA0103F7D12B6001203D
:1089800070BD00BFC59D1C81930100010023012221
:10899000027043708370C370704700BF00230222CF
:1089A000037043708370C370027170470023411CD1
:1089B000FF2200F8132001F813200133082BF8D10F
:1089C000027042708270C2708272C272704700BFC1
:1089D000704700BF00234FF6FF72012101724381EF
:1089E0008381C38102828274704700BF2DE9F04702
:1089F000089F3C460E4614F8011B002B054614BF89
:108A00004FF030094FF0200941B3002A2CDD2346F6
:108A100000E0B2B113F8010B9046013A0028F8D1FA
:108A2000A8F102086AB1C24649462846B0475346F3
:108A3000002B0AF1FF3AF7DC397828EAE8720132B4
:108A400049B1D71B2846B047E01914F8011B00298B
:108A5000F8D1BDE8F0871046BDE8F087002A02F1A2
:108A6000FF38E0DC0846F4E70022EAE703685A1C16
:108A700002601970704700BF0A44914219D000B5D6
:108A800001F1FF3C02F1FF3E41F221011CF8012FF0
:108A9000082380EA022010F4004F81EA40020ABF56
:108AA000400090B280B2013BF5D1E645EED15DF8D1
:108AB00004FB7047884210B54FF001043ED301FB20
:108AC00004F4B0FBF4FC8C45F9D2CCB122BB08E035
:108AD000A14203F801EBB4FBF1F211D8B0FBF2FCB8
:108AE0001446BCF1090F0CF1570E0CF1300204FBD7
:108AF0001C00EDDCA14203F8012BB4FBF1F2EDD92F
:108B000000221A7010BDA14203F801EBB4FBF1F290
:108B1000F6D8B0FBF2FC1446BCF1090F0CF1370E8D
:108B20000CF1300204FB1C00EDDCA14203F8012B28
:108B3000B4FBF1F2EDD900221A7010BD8446002A70
:108B4000EAD1CEE7002870B503DA2D2301F8013B06
:108B50004042092886464FF0010307DD03EB8303FB
:108B60005B00B0FBF3F2092AF8D8EBB1104CBEFB66
:108B7000F3FCA4FB0320C008BCF1090F0CF1300684
:108B80000CF15705024607D8092B01F8016B03FBCE
:108B90001CEE09D90346EAE7092B01F8015B03FB48
:108BA0001CEE01D91346E2E700230B7070BD00BF35
:108BB000CDCCCCCC024BD3F8900103681B6818478E
:108BC00010170020704700BFD0ED007AD0ED016A89
:108BD00030EE677AE6EE877AB0EE670AC0ED007A8B
:108BE000704700BFD0ED017AD0ED026A30EE677AAF
:108BF00090ED000AE6EE877A37EEC07AC0ED017A92
:108C0000A6EE870A80ED000A704700BF90ED017A5A
:108C1000D0ED036AD0ED027A30EE470AA6EE807AF4
:108C200090ED000A80ED017A37EE676AE6EE867A0B
:108C300037EEC07AC0ED027AA6EE870A80ED000A10
:108C4000704700BFD0ED056AD0ED017A90ED007A53
:108C500090ED066AD0ED025A90ED035A80ED050AB8
:108C600066EEA77AC0ED066AE7EE007A90ED077A25
:108C7000E5EE867A90ED086AD0ED045A80ED087A28
:108C8000E5EE477AE5EEC67AB0EE670AC0ED077A00
:108C9000704700BFD0ED057A90ED006A90ED067A3E
:108CA000D0ED035AE6EE007A90ED016AF0EE406AEC
:108CB000A6EE267AB0EE670AD0ED047A90ED026A4D
:108CC00067EEC07AA5EEC07AE6EE267A80ED057AE8
:108CD000C0ED067A7047F8B5164D6B78BE2B26D1DD
:108CE000022229464FF6FF70FFF7C6FE124FAC1C5A
:108CF00022884AB1A618BE4219D2052A17D92146A0
:108D0000FFF7BAFE3446F3E721460222FFF7B4FE2E
:108D10000222A118FFF7B0FE0634084B641BA3F82B
:108D2000944141F60F53C31A58425841F8BD0020F0
:108D3000FCE700BF0040000800800008101700207A
:108D4000164BD0F8E0105A6810B50446D0F8D80099
:108D500071B1131A99420BDC94F8D030C4F8D820C2
:108D6000012B10D0D4F8D4300133C4F8D43010BD66
:108D7000D4F8E430C4F8D8200344C4F8DC3094F8C4
:108D8000D030012BEED104F1E801201D0FF0E0FB03
:108D9000D4F8D4300133C4F8D43010BD001000E052
:108DA00010B504460E49D0F8D83094F8D020D0F849
:108DB000E40049680344012AC4E9361305D0D4F815
:108DC000D4300133C4F8D43010BD04F1E801201DC3
:108DD0000FF0BEFBD4F8D4300133C4F8D43010BD4A
:108DE000001000E070B5866996F8DC30012B8AB07F
:108DF000054623D0023B012B2BD8D6F89C30164CCD
:108E00008C221A700FCCEC46ACE80F00D6F89C30E0
:108E10000093D6F8A03001930FCCACE80F0094E893
:108E20000300AB698CE8030003F1100069460FF002
:108E30008FFBAB691A69136A002BFCD1D6F8A030FE
:108E4000B3F90220EA81B3F904202A82B3F906308B
:108E50006B8201200AB070BDE0D50408F0B504466D
:108E600090F8210183B008B903B0F0BD10F0F6FE10
:108E70000546002857D083882C4AB3FA83F326216D
:108E8000202BC180E260C3F11F02EDD0284E294B98
:108E9000134406EB82020C34C2F8984193F83C70FC
:108EA00010F082F80021284610F0ACF8A988286854
:108EB000B1FA81F100F13F40C1F11F0100F57E00E0
:108EC000C9B2C0F387203CF09FFFAA884FF000434F
:108ED000B2FA82F2D3403E444FF4006200936846F7
:108EE00001238DF80630ADF8042040F071FF96F8AC
:108EF000D831F02B0DD8AB884FF00042B3FA83F392
:108F000032FA03F3B0D00C490A6813430B6003B084
:108F1000F0BD0A4AF023D05D86F8D8310022032143
:108F200040F08AFFE7E7014BE3609DE7418D0008D1
:108F300010170020CCD50408003C0140583F05081C
:108F4000F0B5836993F8DC20012A8BB0054627D061
:108F5000023A012A2FD893F84C21D3F89C10174CD1
:108F600062F07F030B708669D6F8A0305F1C0FCCCF
:108F7000EC46ACE80F00D6F89C30CDE900370FCCBA
:108F8000ACE80F0094E803008CE80300694606F1A2
:108F900010000FF0DDFAAB6919690A6A002AFCD1EA
:108FA000D3F8A0305A8852BAEA819A8852BA2A82F3
:108FB000DB885BBA6B8201200BB0F0BD18D60408C9
:108FC000F0B590F8DC30D0F8A060012B8BB00446EF
:108FD0004BD015D8D0F89C304FF0FF321A605A6051
:108FE0009A60DA60D0F8E0300522B3F57A7FC0F8F5
:108FF000F02054D8032380F8DC3001200BB0F0BD02
:10900000023B012BF9D890F84D31D0F89C203A4D15
:1090100063F07F031370D0F8A0305F1C0FCDEC46D7
:10902000ACE80F00D4F89C30CDE900370FCDACE8A8
:109030000F0095E803008CE80300694604F1100076
:109040000FF086FA2269136A002BFCD173885BBA91
:10905000A4F8D030B3885BBAA4F8D230F3880120EA
:109060005BBAA4F8D4300BB0F0BD90F84C2190F866
:109070004D319B1A5B100133DBB206EB430236F82D
:1090800013305BBAA0F8D03053885BBAA0F8D23066
:1090900093885BBAA0F8D43001200BB0F0BD03690F
:1090A0001A7B2AB35B691BB390F8983003B390F82E
:1090B0004C31D0F89C20C4F8A40063F07F031370F7
:1090C00090F84C1190F84D31D0F8A0200B48C4F81E
:1090D00004015B1A07330121C4F8FC30D4F89C303A
:1090E00084F800110A44C4E93D3284F8DC1084E7B6
:1090F000022384F8DC3080E718D604088D8000084D
:10910000F0B590F81E31032B8DB0054658D090F87D
:10911000DC30D0F8A060012B00F08E8015D8D0F89C
:109120009C3000221A605A609A609A81D0F8E03030
:109130000522B3F57A7FC0F8F02036D80323012446
:1091400080F8DC3020460DB0F0BD023B012B33D857
:10915000D0F89C30554F92221A700FCF02AC0FC43A
:109160000FCF0FC497E80300D5F89C3084E80300C4
:10917000029302A9D5F8A030039305F110000FF077
:10918000E7F92A69136A002BFCD1B6F90230A5F879
:10919000D030B6F90430A5F8D230B6F90630A5F8CB
:1091A000D430012420460DB0F0BD03691A7B002A9B
:1091B0005AD1022385F8DC30012420460DB0F0BDE1
:1091C0003B4902913B4903910A21002301221030BF
:1091D000049102A98DF814208DF828200190CDE982
:1091E0000633CDE908330B930FF0B2F92A690198E1
:1091F000136A002BFCD13049B1F8E221052A19DDB0
:10920000B1F9E441D1F8E461B1F9E671B1F9E811DD
:1092100014F5004F20D0C5F8D060A5F8D410012473
:10922000063A002AC9D0B0227E210FF039FA204632
:109230000DB0F0BD1C46F4E7B6F90820A0F8D02028
:10924000B6F90A20A0F8D220B6F90C20A0F8D42054
:109250001C4620460DB0F0BD17F5004FDBD111F5CF
:10926000004FD8D11C46DBE75B69002BA1D090F8FA
:109270009840002C9DD0D0F89C30C5F8A4008C22DA
:109280001A70D0F8A020C0F8F8200E2201230B4954
:10929000C0F8FC20D0F89C20C0F80411C0F8F420DD
:1092A00080F8003180F8DC3087E700BFE0D50408A3
:1092B00098010020F01800201017002001870008F6
:1092C000114B002130B50160818003F10C054FF492
:1092D00048748E460A4602EB420200EB420C00F84C
:1092E00012E08CF80110DA788CF80220AB42ACF86E
:1092F000044007D093F9062093F807E0197A5C89B7
:109300000633E8E730BD00BF40D6040801394B0002
:1093100003F00802930001F00301A3EB9203C1EBF9
:109320000111C3EB0313C1EB011100229B00890063
:1093300002608180438070472DE9F041044688B087
:10934000002502A801212570ADF80850ADF80A509B
:10935000ADF80C50FFF7DAFF03C804AE0490ADF887
:10936000141096E80300ADF81C10BDF81C300690F0
:109370004FF0020801214FF48077A060A381A17310
:10938000684684F801806580E780ADF80050ADF84C
:109390000250ADF80450FFF7B9FF84F80F80258222
:1093A000A78203C80490ADF8141096E80300ADF846
:1093B0001C10BDF81C30C4F81600638308B0BDE86B
:1093C000F08100BFF8B5724C04EB0016D6F8EC3112
:1093D000002B00F08A800546070196F8F40140F062
:1093E000ABF896F8F431590903F01F0203294FF046
:1093F000010303FA02F300F08E8004297BD00229D6
:1094000074D0E319013593F8F00110F027FCEDB2A8
:10941000064610B112238371C571E31993F8F10167
:1094200010F01CFC10B11323C5718371E31993F87C
:10943000F20110F013FC10B11423C57183713C4488
:109440004A2194F8F32130460EF0FCFD94F8F10126
:1094500010F004FC94F8F3212A210EF0F3FD94F8A7
:10946000F20110F0FBFB94F8F3210A210EF0EAFD63
:10947000D4F8EC21474B9A4252D0474B9A423FD006
:10948000464B9A4257D0464B9A425FD0454B9A4240
:1094900067D0454B9A426FD044499088CC898B89DC
:1094A000CD8A23430C8A23434C8A20F003002343B4
:1094B0008C8A0004000C23430C8B90802B43108873
:1094C00023434C8B898B00F44150234303439BB2CD
:1094D0001380938B23F400631B041B0C9383118272
:1094E00013889BB243F040031380F8BD304A516AA1
:1094F0000B43536285E72E4A11690B43136180E7E2
:1095000003F50033196A41F480411962196A21F4A4
:1095100080411962C0E7264A116A0B43136270E763
:1095200003F58433596A41F480515962596A21F430
:1095300080515962B0E703F5FE33196A41F40041E6
:109540001962196A21F400411962A5E703F5823313
:10955000596A41F400515962596A21F40051596223
:109560009AE703F56843596A41F480115962596AD0
:1095700021F4801159628FE703F56443596A41F47D
:1095800000115962596A21F40011596284E700BF41
:10959000101700200030014000380040003C00401F
:1095A0000034014000500140005401409801002067
:1095B0000038024030B5012085B03CF015FC794AF6
:1095C000936823F003039360936813F00C0FFBD1AF
:1095D00013687449002855D143F00103136041F228
:1095E00088330A6895076ED4013BFAD16E4C6F4DF3
:1095F0006C4B6F4AEA606F4A596FAA60596B6E48AC
:1096000021F080015963596F41F080715967196BDE
:1096100041F4CE0119635A6B5A631A6C02431A64FF
:10962000596C664A0A435A6468463CF073FA009BD8
:109630006349644AA1FB03139B0CC4F83432D5F888
:10964000FC3043F08073C5F8FC3000215E4BC2F85B
:10965000B03F5160136843F00103136023685B4A15
:10966000A2FB03239B09013BB3F1807F08D24FF09B
:10967000E022F0205361072385F8230091611361F4
:1096800005B030BD43F4803313600A68940341F29F
:10969000883304D4013BA9D00A689403FAD5424C1C
:1096A0004B4A4C4BB0FBF3F3B0FBF2F0B3EB400F83
:1096B00018BF18464FF48002B3FBF0F3C4F8302211
:1096C000C4E9870307E0384C08220223C4E9872352
:1096D0000021C4F8301202203CF086FB02280FD88B
:1096E0003D4BD4F8201203EBC0008588C288438824
:1096F000C4F82852B3FBF1F3C4F82C22C4F8243286
:10970000284B36491A6C42F080521A640A6842F4B7
:1097100040420A609A689A609A689A609A6842F42D
:1097200080529A60D4F81C12D4F83022D4F8240263
:109730000A4342EA8012D4F82C0242EA0062D4F8CA
:1097400028024008013842EA00425A601A6842F092
:1097500080721A601A689201FCD5214A40F20270A8
:109760001060986820F003009860986840F002004C
:10977000A2F580629860936803F00C03082BFAD17D
:10978000D4F820521748D823B3FBF5F341EA8311EC
:1097900041F000510123C2F884108366FEF730FCCB
:1097A00025E700BF003802401017002000ED00E060
:1097B0000005FA0500000020FFC9FE36335F0700F0
:1097C00083DE1B43001000E055CEACC5D34D6210C4
:1097D00080841E0040420F0054D6040800700040F0
:1097E000003C0240000047422DE9F04FB44C94F891
:1097F0007FA083B0BAF1000F1ED1D4F89436002BAD
:1098000016DD0026AF4831460769D0F8A0303D6824
:1098100025F0010503F1C0023D6059600C339A4206
:10982000FBD1D4F894360136B34200F58070EBDCFE
:10983000012003B0BDE8F08FD4F83832984611F01B
:109840000DFDD4F83C32D4F840221433801AB0EB2A
:10985000430FC0F22A8104F51177DFF874B2CDF816
:1098600004A004F18006C2460025B846D4F890361C
:10987000AB4240F3C180B16973680A6998005368CC
:10988000D1F8EC201FFA83FCA2EB0C0CD1F8E830E5
:1098900000F108500CF1806700EB4310393F00EBFA
:1098A00087170246974240F29F80116802F5807345
:1098B000002900F0EB80116C002900F0EA80D2F85A
:1098C0008010002900F0E880D2F8C0101A46002964
:1098D000E8D19F4240F28880191AACEBA1114529CA
:1098E00028BF4521002703EB81119E4638464FF0E3
:1098F00001090DE01A6C002A40F08280D3F8802024
:10990000002A40F0A780D3F8C02003F580732AB95D
:10991000994205D91A68002AECD04033994272D88E
:10992000112F61D9C7F11503002B5DDB08D000FAB8
:1099300003F3C7F11407012000FA07F747EA030011
:10994000C0F3C4330BEB8303D3F8A01000F01F0364
:109950000BEB8303D3F8A02042EA0132C0F3441199
:109960000BEB8101C0F384230BEB8303D1F8A01030
:10997000D3F8A03042EA011242EA032383EA132219
:1099800082EA121202F00F020F2A1BD1B3F5803FB8
:1099900018D2D4F84C221B090132B3F5606FC4F819
:1099A0004C2240F08B8094F8AC2302EB420204EB93
:1099B000C2022A4492F859230D2A7AD00199A8F8B4
:1099C0000C300AE0D4F84C320133C4F84C32D4F8ED
:1099D00048320133C4F8483200213B4B5C2000FB85
:1099E000053052460EF0F4FA0135082D08F114083E
:1099F00006F120067FF43AAF012384F84A33FCE6EF
:109A0000803399428CD9A3EB0E02921102F1010C22
:109A10002E4A82FB0CE2A2EBEC72012AB8BF0122B3
:109A200090401744013A09FA02F210439C46DCF8D0
:109A300000208AB1DCF840208AB3DCF880208AB3A9
:109A4000DCF8C0200CF5807C42B16145EFD89E4621
:109A500063465DE7C03361E70CF1400C6145F6D920
:109A6000ACEB03039B115A1C184B83FB02E3A3EBE3
:109A7000E273012BB8BF012398401F44013B09FA50
:109A800003F3184363469E46634641E702F14003F1
:109A90001FE702F180031CE702F1C00319E70CF194
:109AA000800CDBE70CF1C00CD8E7002003B0BDE868
:109AB000F08F8023019988F81E308EE79BB27DE7F6
:109AC00010170020A81D0020C01A0020565555551B
:109AD000CCD504082DE9F0412F4F07EB401898F83A
:109AE0009C300BB9BDE8F0818C2303FB00730E465C
:109AF00093F89A2A88F88220002183F89A1A04465B
:109B000045010EF055FCC0BB3D442448A5F88060DB
:109B100000EB44100AF0ECFB97F87F30D5F8982062
:109B2000A3B1D5F88410D2F8A03001248C4003F101
:109B3000C001420010F4004F90B202D15A68224393
:109B40005A600C339942F4D1BDE8F081D5F88440D5
:109B5000D2F8A03004F110020124944003F1C001B6
:109B6000420010F4004F90B202D15A6822435A606A
:109B70000C339942F4D1BDE8F08197F8AC3303EB94
:109B8000430307EBC303234493F85963002EBBD070
:109B9000012388F88230B7E71017002090170020C3
:109BA00010B5044642F0E4FF81B22046BDE8104003
:109BB00090E700BF2DE9F0411F4D95F8F82E95F87C
:109BC000AC339A4231D1D5F89466002E12DD0024D0
:109BD00095F87F701948A046013417B1037E012B18
:109BE0001ED002691368B44243F0010300F580708F
:109BF0001360F1D111F032FBD5F8FC4EC5F84002EC
:109C0000002C0BDD0E4A02EBC4041168938888898E
:109C1000083203439BB2A2428B81F6D1BDE8F081AA
:109C200080F8F080FEF78EFCDBE73FF093FB002826
:109C3000C9D1BDE8F08100BF10170020A81D002089
:109C40001026002010B57D4C94F8F82E94F8AC3313
:109C50009A4240F0978194F8202F002A00F0EC807F
:109C600094F8213F002B40F0EB80D4F8241F0888A3
:109C700020F080000004000C0880B4F8280FC862AF
:109C8000088880B240F0800008804B62B1F80CC0B8
:109C9000B4F8380F40EA0C0080B2012A8881A4F899
:109CA000383F00F0C980D4F83C1F088820F08000BD
:109CB0000004000C0880B4F8400FC862088880B225
:109CC00040F0800008804B62B1F80CC0B4F8500F2F
:109CD00040EA0C0080B2022A8881A4F8503F00F0CC
:109CE000AB80D4F8541F088820F080000004000CDA
:109CF0000880B4F8580FC862088880B240F080002D
:109D000008804B62B1F80CC0B4F8680F40EA0C0050
:109D100080B2032A8881A4F8683F00F08D80D4F8CF
:109D20006C1F088820F080000004000C0880B4F844
:109D3000700FC862088880B240F0800008804B62D3
:109D4000B1F80CC0B4F8800F40EA0C0080B2042ACD
:109D50008881A4F8803F6FD0D4F8841F088820F051
:109D600080000004000C0880B4F8880FC8620888DE
:109D700080B240F0800008804B62B1F80CC0B4F8AB
:109D8000980F40EA0C0080B2052A8881A4F8983F19
:109D900052D0D4F89C1F088820F080000004000CEA
:109DA0000880B4F8A00FC862088880B240F0800034
:109DB00008804B62B1F80CC0B4F8B00F40EA0C0058
:109DC00080B2062A8881A4F8B03F35D0D4F8B41FF9
:109DD000088820F080000004000C0880B4F8B80F58
:109DE000C862088880B240F0800008804B62B1F8F9
:109DF0000CC0B4F8C80F40EA0C0080B2072A888172
:109E0000A4F8C83F18D0D4F8CC2FB4F8D00F1188DC
:109E100021F080010904090C1180D0621088B4F887
:109E2000E01F80B240F080001080536290890143AF
:109E300089B29181A4F8E03F10BD00BF1017002047
:109E4000D4F82C3FB4F8301F59601968D4F8240FA7
:109E500041F00101196040F20D33A0F848308189CA
:109E600089B241F48071012A8181E5D0D4F8441F80
:109E7000B4F8480F4860086840F001000860D4F862
:109E80003C0FA0F84830818989B241F48071022AE0
:109E90008181D1D0D4F85C1FB4F8600F48600868A5
:109EA00040F001000860D4F8540FA0F848308189D0
:109EB00089B241F48071032A8181BDD0D4F8741F26
:109EC000B4F8780F4860086840F001000860D4F8E2
:109ED0006C0FA0F84830818989B241F48071042A5E
:109EE0008181A9D0D4F88C1FB4F8900F486008681D
:109EF00040F001000860D4F8840FA0F84830818950
:109F000089B241F48071052A818195D0D4F8A41FCB
:109F1000B4F8A80F4860086840F001000860D4F861
:109F20009C0FA0F84830818989B241F48071062ADB
:109F3000818181D0D4F8BC1FB4F8C00F4860086894
:109F400040F001000860D4F8B40FA0F848308189CF
:109F500089B241F48071072A81813FF46DAFD4F852
:109F6000D41FB4F8D82F4A600868D4F8CC2F40F03A
:109F700001000860A2F8483093899BB243F48073D3
:109F8000938110BD3FF0E6F900287FF464AE10BD68
:109F900070B5104ED6F89036002B19DD06F180040E
:109FA000002505E0D6F89036AB4204F120040FDD21
:109FB000237F0135002BF5D0E0680028F2D0217D09
:109FC0000FF0BEF9D6F89036AB4204F12004EFDC76
:109FD000012070BD10170020F0B5D0F880508768C0
:109FE0002B6858493E6823F001032B6000232B6047
:109FF0008D426B60AB60EB602B614FF0210383B04F
:10A00000044600F160026B6100F097804E4B9D4268
:10A010005ED0284601923BF04DFE019A002384F861
:10A02000543079790C290ED8DFE801F0650D0D0D5B
:10A030005E0D0D0D570D0D0D0700B38B23F400635E
:10A040001B041B0CB383304612F0A8FC7B790C2B4D
:10A0500010D8DFE803F0690F0F0F600F0F0F570FD5
:10A060000F0F0700B38B23F400631B041B0C43F496
:10A070000063B38340222968A369E06A6262334ABD
:10A0800003430A40216B13430B43D4E90D120B43E6
:10A090001343D4E90F120B431343D4E913120B43B8
:10A0A000134343F040032B60D4E911316A690B4339
:10A0B00022F007021343A16A6B61D4E907236960A8
:10A0C000AA60EB602B6843F010032B6003B0F0BD77
:10A0D0004FF4746143F8201CA0E7B38B23F008030E
:10A0E0001B041B0CB383AEE7338B23F400631B0408
:10A0F0001B0C3383A7E7338B23F008031B041B0CD3
:10A100003383A0E7B38B23F008031B041B0C43F03D
:10A110000803B383AEE7338B23F400631B041B0CEB
:10A1200043F400633383A5E7338B23F008031B0458
:10A130001B0C43F0080333839CE7054B3D219960DA
:10A140006CE700BF10600240286002403F801CF0B6
:10A15000006002402DE9F04F694F2DED028B97F81A
:10A160007F4085B034B90124204605B0BDEC028B98
:10A17000BDE8F08FD7F8383208EE103A11F06EF8DB
:10A18000604B02901B7C002B00F0B78107F69825EE
:10A1900007F56C7B07F5117A00260EE02846FFF7DD
:10A1A0001BFF584B1B7C01369E4205F18C050BF1C1
:10A1B0005C0B0AF1140A80F2AB80534B029A53F8FD
:10A1C000E03CD31A03D4AA6D9342C0F27F818C2362
:10A1D00003FB067393F8EC3A03F0FF020192002BA5
:10A1E000DCD0AB68A9891A68D5F880305B681FFAA3
:10A1F00083FE9389CEF1160E9BB223EA0103BEF1D2
:10A20000070F9381CAD9D7F84C320133C7F84C32C3
:10A21000D5F8883003939C46002201215CF8044B5A
:10A22000904689461BE0DCF80000B8F1140FA0EB63
:10A2300004031DDC13F1080448BF03F117042311C4
:10A2400008EB24180446581E013102FA03F38E4528
:10A2500009FA00F242EA03020CF1040C08D38E451D
:10A26000E1D8C8F11503DCF800404FF01508EAE723
:10A27000B8F1150F39D12548C2F38423C2F3441134
:10A2800000EB830300EB8101D3F82031D1F82011DA
:10A290001B0243EA011302F01F0100EB8101C2F32C
:10A2A000C43200EB8202D1F82011D2F820210B43F6
:10A2B00043EA023383EA132282EA121202F00F0207
:10A2C0000F2A12D1C3F30F134FF6FF7293420CD033
:10A2D000B3F5606F00F00181AAF80C30019918EE17
:10A2E000102A58460DF074FE58E7D7F8483201336B
:10A2F000C7F84832002E00F0E28000230193EDE71A
:10A30000101700201027002008280020CCD50408B2
:10A310007D480122002187F84A2340F8E01C002BE9
:10A320003FF421AF97F8A81A890700F1BE80D7F84B
:10A33000A01A086849798A40018C92B289B221EA50
:10A3400002010184018C89B20A43012B02843FF48B
:10A350000AAF97F8342B12F0020FD7F82C2B1068A5
:10A360005479018C0CBF01220422A24092B289B21E
:10A3700021EA02010184018C89B20A43022B028482
:10A380003FF4F1AE97F8C02B12F0020FD7F8B82BBC
:10A3900010685479018C0CBF01220422A24092B2B1
:10A3A00089B221EA02010184018C89B20A43032B9C
:10A3B00002843FF4D8AE97F84C2C12F0020FD7F875
:10A3C000442C10685479018C0CBF01220422A24055
:10A3D00092B289B221EA02010184018C89B20A4356
:10A3E000042B02843FF4BFAE97F8D82C12F0020F72
:10A3F000D7F8D02C10685479018C0CBF01220422AC
:10A40000A24092B289B221EA02010184018C89B290
:10A410000A43052B02843FF4A6AE97F8642D12F090
:10A42000020FD7F85C2D10685479018C0CBF012203
:10A430000422A24092B289B221EA02010184018C75
:10A4400089B20A43062B02843FF48DAE97F8F02DB3
:10A4500012F0020FD7F8E82D10685479018C0CBF68
:10A4600001220422A24092B289B221EA02010184AF
:10A47000018C89B20A43082B02847FF474AED7F8AA
:10A48000742E97F87C3E116850790A8C9B074CBF5C
:10A490000423012383409BB292B222EA03020A847E
:10A4A0000A8C92B213430B845DE6D7F8A02A106899
:10A4B0005479018C0422A24089B292B23FE70399F9
:10A4C0001248582242F0CCFF019607E700242046AC
:10A4D00005B0BDEC028BBDE8F08F97F8AC2302EB22
:10A4E000420207EBC202324492F859230D2A7FF44C
:10A4F000F3AE80238AF81E30F0E6034A012187F884
:10A500004A1342F8E03C2FE608280020001A0020F9
:10A510002DE9F843037D01681F2B044608D94868DC
:10A52000A3F120052022AA40024206D1BDE8F8830B
:10A53000086820229A400242F8D0714A714EDFF832
:10A54000DC81526846F8DC2C98F8212FA56912BBF3
:10A550008C2202FB0582D2F8A00AD2F8187BD0F830
:10A5600000903868B2F8A4CA20F001003860B9F849
:10A570000C2092B222EA0C02A9F80C2098F87F2055
:10A580000ABB1F2B40F2A880A3F120022023934096
:10A59000CB60BDE8F8838C2202FB0582D2F8A02AAA
:10A5A0005069D2F80090026822F001020260B9F806
:10A5B0000C2022F480721204120CA9F80C2098F8D6
:10A5C0007F20002ADDD08C2303FB05834E4AD3F87D
:10A5D000187B3B6823F001033B6000233B609742FC
:10A5E0007B60BB60FB603B614FF021037B617ED0F1
:10A5F000464B9F427FD038463BF05CFB8C2303FBED
:10A60000058356F8E02C012183F8EC1A002A69D062
:10A61000B9F800303E499BB243F08003A9F80030FE
:10A620008C2303FB05F54FF0FF332944C9F82C3088
:10A6300048463BF04DFC08EB05030022D3F8C40A62
:10A64000C3F8BC2AD3F8B02A39680243D3F8C80A41
:10A650000243D3F8CC0A0243D3F8D00A0243D3F81A
:10A66000D40A0243D3F8D80A0243D3F8E40A0243D7
:10A67000D3F8E80A02432748084002433A60796960
:10A68000D3F8DC2AD3F8E00A21F0070102430A4399
:10A690007A61D3F8C02A7A60D3F8B42ABA60D3F8C2
:10A6A000B82AFA60D3F8182B16215160116841F0CE
:10A6B00001011160D3F8A02AB3F8A43A1268918975
:10A6C0000B439BB20E4993814B6846F8D83C237DDF
:10A6D00021681F2B3FF658AF202202FA03F38B604C
:10A6E000BDE8F88310F0BAFD46F8E00C90E70A4B9D
:10A6F0003D229A6082E74FF4746243F8202C7DE794
:10A70000001000E00828002010600240286002408D
:10A710001C2200203F801CF0006002401017002027
:10A72000F8B544F23B330546A0F84C3100F1100473
:10A73000FEF794FB95F8D830072B67D195F81D31BB
:10A740000226002B64D1374680226B2120460DF073
:10A75000D1FF642011F026FB0722682120460DF06E
:10A76000C9FF642011F01EFB00226B2120460DF072
:10A77000C1FF642011F016FB01226B2120460DF071
:10A78000B9FF0F2011F00EFBFA001B2120460DF03F
:10A79000B1FF0F2011F006FBF2001C2120460DF046
:10A7A000A9FF0F2011F0FEFA95F8DB30052B31D808
:10A7B00095F81E31032B2DD195F8233103F0FB03BF
:10A7C000022B0CBF002207221A2120460DF092FF17
:10A7D0000F2011F0E7FA95F82021192120460DF0FD
:10A7E00089FF642011F0DEFA1022372120460DF097
:10A7F00081FF0F2011F0D6FA2046012238210DF0FA
:10A8000079FFBDE8F8400F2011F0CCBA03269AE793
:10A81000032799E70022D7E710B50446FFF780FF2A
:10A820001022A0186A210DF03BFF642011F0BAFA43
:10A8300004480DF015FEA082BDE81040012011F083
:10A8400009B900BF002D310110B500F10C04C0683A
:10A8500040F096FA0022212120460DF04BFFFC2209
:10A86000202120460DF046FF4022242120460DF0F5
:10A8700041FF0C22232120460DF03CFF0022222123
:10A8800020460DF037FF642011F08CFA012010BD36
:10A8900037B500F10C040546C06840F071FA00229B
:10A8A0000A2120460DF026FF142011F07BFA0F221A
:10A8B0000A2120460DF01EFF0A2011F073FA01AAAA
:10A8C0000323102120460DF0A3FE0A2011F06AFA9E
:10A8D0009DF804308033A5F8F6309DF805308033BC
:10A8E000A5F8F8309DF806308033A5F8FA3000223C
:10A8F0000A2120460DF0FEFE0A2011F053FA0DF158
:10A9000003020123022120460DF082FE01230DF1F6
:10A910000302092120460DF07BFE11220A21204668
:10A920000DF0E8FE012003B030BD37B500F10C0595
:10A9300004467022002128460DF0DCFE2022012171
:10A9400028460DF0D7FE0022022128460DF0D2FE47
:10A95000642011F027FA94F8F40088B10FF07EF922
:10A9600008B12823C3802146074B41F8083F0190D6
:10A970003FF088FA01980EF007FB01980EF004FBF7
:10A98000012003B030BD00BFBD87000810B500F145
:10A990000C04C06840F0F4F901220B2120460DF0B0
:10A9A000A9FE20B11D22092120460DF0A3FE00F0D2
:10A9B000010010BD2DE9F047836892B0804613B1C5
:10A9C0001A689B8853836E4B5B68C3F30803002BA4
:10A9D00040F0A480EFF31183002B40F09F8010F033
:10A9E00019FC0546664E674C674F05E010F012FCF7
:10A9F000431BB3F57A7F30D27368C3F308031BB9E6
:10AA0000EFF31183002BF1D0EFF31182102383F3C6
:10AA100012884FF0E0210120D1F818C00B69DB0348
:10AA200003D544F8D40CD1F818C0D7F838E254F85C
:10AA3000D40CD2B282F31188D7F834124FF47A7260
:10AA400002FB01F37044A3EB0C03B3FBF1F302FB35
:10AA50000030431BB3F57A7FCED3D8F8083013B15A
:10AA60001A689B881383464CDFF81CA1454D0A27C2
:10AA700010266368C3F30803002B4BD1EFF3118357
:10AA8000002B47D110F0C6FB814606E010F0C2FB58
:10AA9000A0EB0903B3F57A7F30D26368C3F30803F0
:10AAA0001BB9EFF31183002BF0D0EFF3118286F383
:10AAB00012884FF0E0210120D1F818C00B69DB03A8
:10AAC00044BF45F8D40CD1F818C0DAF838E255F88C
:10AAD000D40CD2B282F31188DAF834124FF47A72BD
:10AAE00002FB01F37044A3EB0C03B3FBF1F302FB95
:10AAF0000030A0EB0903B3F57A7FCED3013FB8D184
:10AB0000D8F80030ADF804701B6A5BB1384612B05B
:10AB1000BDE8F08710F01EFA8146BEE710F01AFA81
:10AB200005465FE780210DF103028DF803100292C4
:10AB300001A90222CDE90812002000210123CDE95C
:10AB40000C0102A94046CDE90373CDE906778DF8E3
:10AB500014708DF828300B970E978DF83C301097B5
:10AB60000DF0F6FCD8F80020136A002BFCD19DF8FC
:10AB70000530242B14BF00200F2012B0BDE8F08751
:10AB800000ED00E008280020101700202DE9F04F0C
:10AB90002DED028B034695B000F1100693F81E319F
:10ABA0000090B6227E21304601930DF079FDBB4D19
:10ABB000BB4CBC4F08EE106A4FF064094FF0100810
:10ABC0007B68C3F30803002B40F08185EFF311830A
:10ABD000002B40F07C8510F01DFB82464FF0E02BEF
:10ABE00006E010F017FBA0EB0A00B0F57A7F30D238
:10ABF0007B68C3F308031BB9EFF31183002BF0D07C
:10AC0000EFF3118388F31288DBF81800DBF81020CB
:10AC100012F4803F4FF001021CBF45F8D42CDBF842
:10AC20001800D4F8382255F8D4CCDBB283F311885D
:10AC3000D4F834624FF47A7101FB06F36244181AB7
:10AC4000B0FBF6F001FB0200A0EB0A00B0F57A7F42
:10AC5000CED3B9F10109B3D1009B9B6918EE106AFC
:10AC600013B11A689B8853838E4B5B68C3F3080348
:10AC7000002B40F06A85EFF31183002B40F06585CF
:10AC800010F0C8FA8046DFF81CA210274FF0E02928
:10AC900006E010F0BFFAA0EB0800B0F57A7F32D2E0
:10ACA000DAF80430C3F308031BB9EFF31183002B68
:10ACB000EFD0EFF3118387F31288D9F818E0D9F8B1
:10ACC0001020D2034FF0010103D545F8D41CD9F868
:10ACD00018E0D4F838B255F8D42CDBB283F31188DD
:10ACE000D4F834C24FF47A7101FB0CF002EB0B0381
:10ACF000A0EB0E00B0FBFCF001FB0300A0EB080092
:10AD0000B0F57A7FCCD3009B9B6913B11A689B88FE
:10AD10001383644F08EE106A4FF00A094FF01008D1
:10AD20007B68C3F30803002B40F0D684EFF3118354
:10AD3000002B40F0D18410F06DFA82464FF0E02BEA
:10AD400006E010F067FAA0EB0A00B0F57A7F30D287
:10AD50007B68C3F308031BB9EFF31183002BF0D01A
:10AD6000EFF3118388F31288DBF81800DBF810206A
:10AD700012F4803F4FF001021CBF45F8D42CDBF8E1
:10AD80001800D4F8382255F8D4CCDBB283F31188FC
:10AD9000D4F834624FF47A7101FB06F36244181A56
:10ADA000B0FBF6F001FB0200A0EB0A00B0F57A7FE1
:10ADB000CED3B9F10109B3D118EE100A4A467C216D
:10ADC0000DF06EFC374B5B68C3F3080318EE106A96
:10ADD000002B40F0B584EFF31183002B40F0B084DA
:10ADE00010F018FA8046DFF8BCA010274FF0E029D9
:10ADF00006E010F00FFAA0EB0800B0F57A7F32D22F
:10AE0000DAF80430C3F308031BB9EFF31183002B06
:10AE1000EFD0EFF3118387F31288D9F818E0D9F84F
:10AE20001020D0034FF0010103D545F8D41CD9F808
:10AE300018E0D4F838B255F8D42CDBB283F311887B
:10AE4000D4F834C24FF47A7101FB0CF002EB0B031F
:10AE5000A0EB0E00B0FBFCF001FB0300A0EB080030
:10AE6000B0F57A7FCCD30022592130460DF018FC82
:10AE70000C4B5B68C3F30803002B40F05C84EFF3DA
:10AE80001183002B40F0578410F0C4F98046DFF89E
:10AE900014A010274FF0E0290DE000BF0828002083
:10AEA0001017002000ED00E010F0B4F9A0EB08004E
:10AEB000B0F57A7F32D2DAF80430C3F308031BB955
:10AEC000EFF31183002BEFD0EFF3118387F3128898
:10AED000D9F818E0D9F81020D2034FF0010103D5BA
:10AEE00045F8D41CD9F818E0D4F838B255F8D42C69
:10AEF000DBB283F31188D4F834C24FF47A7101FBCA
:10AF00000CF002EB0B03A0EB0E00B0FBFCF001FB1E
:10AF10000300A0EB0800B0F57A7FCCD300230593A3
:10AF20008DF81C3008930A930D931093129301230C
:10AF300006938DF830308DF84430CB4B09935E2367
:10AF40008DF80F300DF10F0304934FF4A47300221A
:10AF50000B9304A900233046CDE90E230DF0F8FA37
:10AF6000009B1A69136A002BFCD1C04F08EE106ACF
:10AF70004FF00A094FF010087B68C3F30803002B59
:10AF800040F0AF83EFF31183002B40F0AA8310F061
:10AF900041F982464FF0E02B06E010F03BF9A0EBC0
:10AFA0000A00B0F57A7F30D27B68C3F308031BB97F
:10AFB000EFF31183002BF0D0EFF3118388F31288A5
:10AFC000DBF81800DBF8102012F4803F4FF001028C
:10AFD0001CBF45F8D42CDBF81800D4F8382255F8FB
:10AFE000D4CCDBB283F31188D4F834624FF47A7195
:10AFF00001FB06F36244181AB0FBF6F001FB0200F5
:10B00000A0EB0A00B0F57A7FCED3B9F10109B3D134
:10B0100018EE100A012259210DF042FB934B5B6898
:10B02000C3F3080318EE106A002B40F08083EFF39F
:10B030001183002B40F07B8310F0ECF88046DFF8A2
:10B040002CA210274FF0E02906E010F0E3F8A0EB67
:10B050000800B0F57A7F32D2DAF80430C3F308037F
:10B060001BB9EFF31183002BEFD0EFF3118387F3BC
:10B070001288D9F818E0D9F81020D0034FF0010158
:10B0800003D545F8D41CD9F818E0D4F838B255F8EF
:10B09000D42CDBB283F31188D4F834C24FF47A7124
:10B0A00001FB0CF002EB0B03A0EB0E00B0FBFCF07D
:10B0B00001FB0300A0EB0800B0F57A7FCCD3019B25
:10B0C000032B00F097839B22402130460DF0E8FAD5
:10B0D000664B5B68C3F30803002B40F02483EFF357
:10B0E0001183002B40F01F8310F094F88046DFF8A6
:10B0F0007CA110274FF0E02906E010F08BF8A0EBC0
:10B100000800B0F57A7F32D2DAF80430C3F30803CE
:10B110001BB9EFF31183002BEFD0EFF3118387F30B
:10B120001288D9F818E0D9F81020D0034FF00101A7
:10B1300003D545F8D41CD9F818E0D4F838B255F83E
:10B14000D42CDBB283F31188D4F834C24FF47A7173
:10B1500001FB0CF002EB0B03A0EB0E00B0FBFCF0CC
:10B1600001FB0300A0EB0800B0F57A7FCCD30322EB
:10B17000412130460DF094FA3C4B5B68C3F3080361
:10B18000002B40F0CC82EFF31183002B40F0C782FC
:10B1900010F040F88046DFF8D4A010274FF0E029E7
:10B1A00006E010F037F8A0EB0800B0F57A7F32D255
:10B1B000DAF80430C3F308031BB9EFF31183002B53
:10B1C000EFD0EFF3118387F31288D9F818E0D9F89C
:10B1D0001020D2034FF0010103D545F8D41CD9F853
:10B1E00018E0D4F838B255F8D42CDBB283F31188C8
:10B1F000D4F834C24FF47A7101FB0CF002EB0B036C
:10B20000A0EB0E00B0FBFCF001FB0300A0EB08007C
:10B21000B0F57A7FCCD315F8CF3C013BDBB2022BE3
:10B2200000F26382124A134493F8E822120162F09A
:10B230003202D2B2422130460DF032FA0B4B5B683B
:10B24000C3F30803002B40F06682EFF31183002B59
:10B2500040F061820FF0DEFF8046DFF810A010277B
:10B260004FF0E0290DE000BF6CD7040800ED00E0CE
:10B27000CCD504080FF0CEFFA0EB0800B0F57A7F24
:10B2800032D2DAF80430C3F308031BB9EFF31183A9
:10B29000002BEFD0EFF3118387F31288D9F818E071
:10B2A000D9F81020D0034FF0010103D545F8D41C84
:10B2B000D9F818E0D4F838B255F8D42CDBB283F3BF
:10B2C0001188D4F834C24FF47A7101FB0CF002EB10
:10B2D0000B03A0EB0E00B0FBFCF001FB0300A0EBA6
:10B2E0000800B0F57A7FCCD30822432130460DF018
:10B2F000D7F9B44B5B68C3F30803002B40F0078217
:10B30000EFF31183002B40F002820FF083FF8046A1
:10B31000DFF8B0A210274FF0E02906E00FF07AFF27
:10B32000A0EB0800B0F57A7F32D2DAF80430C3F32C
:10B3300008031BB9EFF31183002BEFD0EFF3118358
:10B3400087F31288D9F818E0D9F81020D2034FF00B
:10B35000010103D545F8D41CD9F818E0D4F838B267
:10B3600055F8D42CDBB283F31188D4F834C24FF4EF
:10B370007A7101FB0CF002EB0B03A0EB0E00B0FBAB
:10B38000FCF001FB0300A0EB0800B0F57A7FCCD302
:10B39000019B032B00F0DE810422582130460DF082
:10B3A0007FF9884B5B68C3F30803002B40F09F8153
:10B3B000EFF31183002B40F09A810FF02BFF8046B2
:10B3C000DFF800A210274FF0E02906E00FF022FF7F
:10B3D000A0EB0800B0F57A7F31D2DAF80430C3F37D
:10B3E00008031BB9EFF31183002BEFD0EFF31183A8
:10B3F00087F31288D9F818C0D9F81020D2034FF07B
:10B40000010103D545F8D41CD9F818C0D4F8382266
:10B4100055F8D40CDBB283F31188D4F834128318B6
:10B420004FF47A7202FB01F0A0EB0C00B0FBF1F0DC
:10B4300002FB0300A0EB0800B0F57A7FCDD30A220F
:10B44000532130460DF02CF95E4B5B68C3F30803C3
:10B45000002B40F05881EFF31183002B40F0538113
:10B460000FF0D8FE8046DFF85CA110274FF0E029EE
:10B4700006E00FF0CFFEA0EB0800B0F57A7F32D2E5
:10B48000DAF80430C3F308031BB9EFF31183002B80
:10B49000EFD0EFF3118387F31288D9F818E0D9F8C9
:10B4A0001020D0034FF0010103D545F8D41CD9F882
:10B4B00018E0D4F838B255F8D42CDBB283F31188F5
:10B4C000D4F834C24FF47A7101FB0CF002EB0B0399
:10B4D000A0EB0E00B0FBFCF001FB0300A0EB0800AA
:10B4E000B0F57A7FCCD302227C2130460DF0D8F81B
:10B4F000344B5B68C3F30803002B40F00081EFF38B
:10B500001183002B40F0FB800FF084FE8046DFF8B3
:10B51000B4A010274FF0E02906E00FF07BFEA0EB6F
:10B520000800B0F57A7F32D2DAF80430C3F30803AA
:10B530001BB9EFF31183002BEFD0EFF3118387F3E7
:10B540001288D9F818E0D9F81020D2034FF0010181
:10B5500003D545F8D41CD9F818E0D4F838B255F81A
:10B56000D42CDBB283F31188D4F834C24FF47A714F
:10B5700001FB0CF002EB0B03A0EB0E00B0FBFCF0A8
:10B5800001FB0300A0EB0800B0F57A7FCCD30E22BC
:10B590007D2130460DF084F80A4B5B68C3F3080345
:10B5A000002B40F0A880EFF31183002B40F0A38024
:10B5B0000FF030FE8046DFF80CA010274FF0E02996
:10B5C00009E000BF00ED00E00FF024FEA0EB080052
:10B5D000B0F57A7F32D2DAF80430C3F308031BB92E
:10B5E000EFF31183002BEFD0EFF3118387F3128871
:10B5F000D9F818E0D9F81020D0034FF0010103D595
:10B6000045F8D41CD9F818E0D4F838B255F8D42C41
:10B61000DBB283F31188D4F834C24FF47A7101FBA2
:10B620000CF002EB0B03A0EB0E00B0FBFCF001FBF7
:10B630000300A0EB0800B0F57A7FCCD3019B032B6D
:10B6400000F07C82009B93F82101C8B10EF006FB4C
:10B650000546002800F0DB8200992623C380C54BF5
:10B6600041F80C3F3EF00EFCAB884FF00042B3FABD
:10B6700083F332FA03F303D0BF490A6813430B6024
:10B680002268BE4BB3EB920F80F0C882B3EBD20FAF
:10B6900080F0C682B3EB121F80F0C482B3EB521F5E
:10B6A00080F0C282B3EB921F80F0C082B3EBD21F56
:10B6B00080F0BE82B3EB122F34BF4FF4807380232F
:10B6C000009A938215B0BDEC028BBDE8F08F0FF0AD
:10B6D00041FC8246FFF782BA0FF03CFC8246FFF73E
:10B6E0002DBB0FF037FC824654E4CD22A2E50FF0CB
:10B6F00031FC804664E60FF02DFC80465BE70FF0DE
:10B7000029FC804603E70FF025FC8046ABE60FF0EE
:10B7100021FC8046FCE50FF01DFC80469DE50FF006
:10B7200019FC804637E50FF015FC8046DFE40FF08A
:10B7300011FC804683E40FF00DFC8046FFF7A7BBA9
:10B740000FF008FC8046FFF74EBB0FF003FC80466D
:10B75000FFF799BA0222582130460CF0A1FF884B1E
:10B760005B68C3F30803002B40F03582EFF31183CD
:10B77000002B40F030820FF04DFD8046DFF800A234
:10B7800010274FF0E02907E00FF044FDA0EB08037D
:10B79000B3F57A7FBFF453AEDAF80430C3F308038D
:10B7A0001BB9EFF31183002BEED0EFF3118287F377
:10B7B0001288D9F818C0D9F81030D8034FF0010119
:10B7C00003D545F8D41CD9F818C0D4F8383255F848
:10B7D000D40CD2B282F31188D4F834124FF47A72B6
:10B7E000184402FB01F3A3EB0C03B3FBF1F302FBE0
:10B7F0000030CBE70022482130460CF051FF604B6F
:10B800005B68C3F30803002B40F0ED81EFF3118375
:10B81000002B40F0E8810FF0FDFC8046DFF860A1CE
:10B8200010274FF0E02906E00FF0F4FCA0EB08032E
:10B83000B3F57A7F31D2DAF80430C3F308031BB9C9
:10B84000EFF31183002BEFD0EFF3118387F312880E
:10B85000D9F818C0D9F81020D2034FF0010103D550
:10B8600045F8D41CD9F818C0D4F8382255F8D40CAF
:10B87000DBB283F31188D4F8341210444FF47A7297
:10B8800002FB01F3A3EB0C03B3FBF1F302FB00306B
:10B89000A0EB0803B3F57A7FCDD38022492130464F
:10B8A0000CF0FEFE364B5B68C3F30803002B40F040
:10B8B000AA81EFF31183002B40F0A5810FF0AAFCC1
:10B8C0008046DFF8BCA010274FF0E02906E00FF01B
:10B8D000A1FCA0EB0803B3F57A7F31D2DAF804308B
:10B8E000C3F308031BB9EFF31183002BEFD0EFF381
:10B8F000118387F31288D9F818C0D9F81020D00323
:10B900004FF0010103D545F8D41CD9F818C0D4F87C
:10B91000382255F8D40CDBB283F31188D4F83412F2
:10B9200010444FF47A7202FB01F3A3EB0C03B3FB58
:10B93000F1F302FB0030A0EB0803B3F57A7FCDD31F
:10B940000022452130460CF0ABFE0D4B5B68C3F383
:10B950000803002B40F05381EFF31183002B40F0DC
:10B960004E810FF057FC8046DFF814A010274FF0EF
:10B97000E0290EE0A18D0008003C0140809698006F
:10B9800000ED00E00FF046FCA0EB0803B3F57A7F72
:10B9900031D2DAF80430C3F308031BB9EFF3118393
:10B9A000002BEFD0EFF3118387F31288D9F818C07A
:10B9B000D9F81020D2034FF0010103D545F8D41C6B
:10B9C000D9F818C0D4F8382255F8D40CDBB283F378
:10B9D0001188D4F8341210444FF47A7202FB01F348
:10B9E000A3EB0C03B3FBF1F302FB0030A0EB080365
:10B9F000B3F57A7FCDD30622462130460CF050FEB7
:10BA00008C4B5B68C3F30803002B40F0F480EFF32A
:10BA10001183002B40F0EF800FF0FCFB8046DFF835
:10BA200014A210274FF0E02906E00FF0F3FBA0EB83
:10BA30000803B3F57A7F31D2DAF80430C3F3080390
:10BA40001BB9EFF31183002BEFD0EFF3118387F3D2
:10BA50001288D9F818C0D9F81020D0034FF001018E
:10BA600003D545F8D41CD9F818C0D4F8382255F8B5
:10BA7000D40CDBB283F31188D4F8341210444FF4A1
:10BA80007A7202FB01F3A3EB0C03B3FBF1F302FBAD
:10BA90000030A0EB0803B3F57A7FCDD30022472115
:10BAA00030460CF0FDFD634B5B68C3F30803002BCD
:10BAB00040F09D80EFF31183002B40F098800FF051
:10BAC000A9FB8046DFF86CA110274FF0E02907E0C2
:10BAD0000FF0A0FBA0EB0803B3F57A7FBFF4F3AA45
:10BAE000DAF80430C3F308031BB9EFF31183002B1A
:10BAF000EED0EFF3118387F31288D9F818C0D9F884
:10BB00001020D2034FF0010103D545F8D41CD9F819
:10BB100018C0D4F8382255F8D40CDBB283F311885E
:10BB2000D4F8341210444FF47A7202FB01F3A3EB01
:10BB30000C03B3FBF1F302FB0030CBE7B02230463D
:10BB40007E210CF0ADFD3B4B5B68C3F30803002B7B
:10BB500045D1EFF31183002B41D10FF05BFB07467A
:10BB6000DFF8D09010264FF0E02806E00FF052FBEF
:10BB7000C31BB3F57A7FBFF465ADD9F80430C3F3C6
:10BB800008031BB9EFF31183002BEFD0EFF3118300
:10BB900086F31288D8F818C0D8F81020D2034FF0D6
:10BBA000010103D545F8D41CD8F818C0D4F83822C0
:10BBB00055F8D40CDBB283F31188D4F83412104456
:10BBC0004FF47A7202FB01F3A3EB0C03B3FBF1F326
:10BBD00002FB0030CCE70FF0BDF98046CEE50FF058
:10BBE000B9F90746BCE70FF0B5F9804616E60FF045
