:020000040800F2
:10000000F0FF0010312005081DC5040815DB0108AC
:10001000D1200508D1200508D120050800000000E6
:1000200000000000000000000000000021C50408DE
:1000300025C504080000000029C50408B5C1010851
:10004000D1200508D1200508D1200508D1200508B8
:10005000D1200508D1200508F5A8010819A9010833
:1000600051A9010889A90108C1A9010881DB00087B
:1000700091DB0008A1DB0008B1DB0008C5DB00084C
:10008000D9DB0008EDDB0008D1200508D1200508E8
:10009000D1200508D1200508D1200508F9A90108BB
:1000A0005DD70108BDD601086DD70108ADD601089E
:1000B000E5D60108F5D6010805D70108C1A3000857
:1000C000A1A80008C9A30008A5A80008D120050818
:1000D000D1200508F9BC0108B1BD010869BE0108BD
:1000E00031AA0108D1200508F1EA04087DD70108EA
:1000F00035D701088DD7010825D7010801DC000894
:10010000D1200508D120050815D70108D120050800
:1001100021BF0108D9BF0108D1200508D120050859
:1001200015DC000829DC00083DDC000851DC000873
:1001300065DC0008D1200508D1200508D12005087C
:10014000D1200508D1200508D12005082DC50408B7
:1001500079DC00088DDC0008A1DC000891C00108F2
:10016000D1A30008A9A80008D1200508D1200508BE
:10017000D1200508D1200508D1200508D120050887
:08018000D1200508D12005087B
:0828000000C00F0800001008E1
:1080000082B01E4B002201920193019B1C4A043353
:108010000193019B1968936803F00C03042B06D0AD
:10802000082B08D0174B184A1A6002B07047154B3E
:10803000196002B070475368506813F4800F00F065
:108040003F00536812D1C3F388130F49B1FBF0F11D
:1080500001FB03F30A4A0B495268C2F301420132A1
:108060005200B3FBF2F30B6002B07047C3F3881306
:10807000B1FBF0F101FB03F3ECE700BF5028004037
:1080800000380240B81600200024F400074BD0F856
:10809000E4105B68D0F8F0205B1A9A42B8BFC0F8D1
:1080A000F030012380F81C3100207047001000E000
:1080B00090F8DB30052B03D890F81E31032B01D04C
:1080C0000020704790F8233103F0FB03022B0CBF14
:1080D00000200720704700BFB84B00EB800103EB86
:1080E000C10170B54A685268B2F814E01EF0010F81
:1080F0004FEA800C6ED15FFA8EF4A60742D5BFF32B
:108100005F8F91F82040012CE5B200F0D180118BF7
:10811000BFF35F8F0CEB000103EBC10191F820402E
:10812000022C00F0E7800CEB000103EBC10191F899
:108130002040032C07D191F8221021B193F87D1033
:10814000002940F0E780918889B241F480619180F4
:1081500093F97C100CEB000E03EBCE0E9EF820E0A2
:108160000EF1010E8E450CD1002183F87D1093F89D
:108170007E10002940F0B780604403EBC00300226A
:108180005A7770BD65075DD414F0400400F0CB80D1
:10819000148A93F97C508E6AE4B274555FFA85FEB6
:1081A0000EF1010464B291F8206083F87C40E51C74
:1081B000AE42214600F025810CEB000503EBC5051E
:1081C00095F82050AC42C5D10EF1020149B283F8B6
:1081D0007C10BFE7B2F800E02EF4006E4FEA0E4EBE
:1081E0004FEA1E4EA2F800E01488A4B244F4806462
:1081F000148091F82240002583F87C50002C48D050
:1082000093F87D40002C41D0012183F87D100CEBC8
:10821000000103EBC10191F82010022904D111885B
:1082200089B241F4006111800CEB000103EBC10144
:10823000897F41F001011182604403EBC00393F890
:10824000203070BD91F82240012583F87E50002C2B
:1082500070D093F87D40002C71D10CEB000103EB42
:10826000C10191F82110002900F0AA80118889B27B
:1082700041F40071118093F87C1001314CB283F805
:108280007C401188CE05FCD4214663E7C97FFF29D5
:10829000BAD00CEB000103EBC1018C7F04F0FE04AB
:1082A0001482CA7FFF2AC7D0FF2283F87C20C3E74D
:1082B00091F8221000293FF42AAF93F87D1000298D
:1082C0003FF425AF118821F480610904090C118065
:1082D000BFF35F8F118B118883F87E5089B241F410
:1082E000007111802FE7918821F440710904090C75
:1082F000918041E791F8221000293FF414AF93F8E0
:108300007D1000293FF40FAF118821F4806109042A
:10831000090C1180918821F480610904090C918075
:1083200093F97C1016E71FFA8EF52D062DD493F9DC
:108330007C100FE793F87D1000298ED096E791F816
:108340002040022C148846D924F480642404240C90
:108350001480158A8E6A93F97C40EDB235558E6A89
:10836000118889B241F400711180E4B2158A611C50
:1083700049B2EDB275549188023489B264B241F4C5
:10838000806183F87C4091807BE793F97C506E1C80
:108390003ED04C6A665D16826C1C91F8205064B227
:1083A000A54283F87C4021467FF4D4AE948824F41F
:1083B00080642404240C9480CCE600BFB81600200E
:1083C000118893F97C4089B241F4807111800121B8
:1083D00083F87D1055E7A4B244F400741480158A24
:1083E0008E6A93F97C40EDB23555E4B28E6A158AF7
:1083F000611C49B20334EDB264B2755483F87C4019
:108400003FE7958825F480652D042D0C9580D3E6F3
:1084100083F87C40CC7F148291F8224024B991F8F3
:10842000201000297FF408AF918821F480610904AD
:10843000090C918000E700BF30B5EAB18E464FEAE3
:10844000014C034600F1C005002419689A6841EA0E
:108450000C0142EA0E029A60C3E900140C33AB42ED
:10846000F3D1D0F8C030C0F8C44043EA0E03C0F8DE
:10847000C030C0F8C84030BD4FEA014E8C46E0E73E
:10848000836930B41C6999682268096822F0010286
:1084900022608A899C8992B222EA04028A81027D42
:1084A00000681F2A06D94468203A082191402142D9
:1084B00016D0FEE70468082191402142F9D120211D
:1084C00001FA02F28260224A12783AB11A7E012A37
:1084D0000BD1D3F8F8200132C3F8F82030BC704734
:1084E000202101FA02F2C260EDE7D3F8F420013254
:1084F000C3F8F420EFF31181502282F312885868F8
:108500005C6C026822EA04029C6C2243C9B20260DD
:1085100081F31188D3E90C401A6999681D6C0968C8
:1085200014605061D3E90E40546090600024B3F8A9
:10853000A800D5604C62C862106801242043106016
:108540001C768A899B8913439BB230BC8B81704710
:1085500004000010F0B5444C04EB401C9CF82020B3
:1085600002B9F0BD414B4FF08C0E0EFB003E93F86C
:10857000E06493F8E1249EF882708CF806709642CD
:108580004FF0000C4FEA40158EF882C00ED002EB7F
:10859000420C03EBCC0C57009CF8E4C40CF1FF3EFA
:1085A000BEF1010F54D9BCF1030F4BD0601981808B
:1085B000EFF31182902383F312888379818843EA51
:1085C00041030021D2B29BB2817182F311881A0952
:1085D000217882EA13225A40C9B1C4698168D4F86B
:1085E000A040D2431B019BB202F00F020120884041
:1085F000134304F1C0015A0013F4004F93B202D1A7
:108600006268024362600C348C42F4D1F0BDC169EF
:108610008068D1F8A0401B0100F110019BB202F06C
:108620000F0201208840134304F1C0015A0013F4E3
:10863000004F93B202D16268024362600C34A142DF
:10864000F4D1F0BD02F1010C0CF0030CB445ADD037
:108650003A4403EBC202131893F8F1140029A5D091
:10866000631901229A71A1E704000010B8160020D6
:10867000704700BF024B03EB401090F82100704799
:10868000040000104368B0F8502010B41A83EFF3D0
:108690001182502383F312884168446C0B6823EAEB
:1086A0000403C46C2343D2B20B6082F31188D0E977
:1086B00007418268036912681C605961D0E9094169
:1086C0005C60C46A9960B0F86010DC600023D1621D
:1086D0005DF8044B03767047037D1F2B30B54FF0D8
:1086E0002002046816D9A3F120056168AA400A4255
:1086F0000FD00C4A002182F8441541680A681F2BEC
:1087000022F001020A604FF0200206D9203B9A4075
:10871000E26030BD21689A40E9E702FA03F3A36002
:10872000F7E700BFB8160020F0B4037D85691F2B62
:1087300063D90168A3F120024E68202494402642A8
:1087400049D010239340CC60CB604B68D340DE0708
:1087500067D4EFF31183502282F312882A6C1168D8
:10876000C9072FD4516889B271B9D5E90964A64205
:1087700025D0AF692744D76058D9341BA4B25460C0
:10878000AE62002185F86410116841F00101DBB28E
:10879000116083F31188037D1F2B19D802681946D5
:1087A000106808238B40184200D09360106804239F
:1087B00003FA01F1014200D09160F0BC7047012240
:1087C00085F86420DBB283F31188037D1F2BE5D984
:1087D0000168A3F120024C6808209040044200D0B8
:1087E000C8604C68042000FA02F22242E5D0203B27
:1087F00000FA03F3F0BCCB607047026820241668CF
:108800009C4026421946CBD010219940946091603B
:108810001168D940CC079CD5012101FA03F393607C
:1088200097E7012303FA02F2CA6092E72E69341B2C
:10883000A4B25460A962A4E707B500238DF80730FD
:108840000DF1070201230F2111F032FB28B19DF831
:1088500007306C2B14BF0020102003B05DF804FB20
:10886000012380F8103170474FF400638381704713
:108870004FF40063838170474FF400638381704736
:108880004FF4006383817047074BD0F8E4105B68B6
:10889000D0F8F0205B1A9342C8BFC0F8F030012333
:1088A00080F81C3100207047001000E04FF4006396
:1088B000838170474FF40063838170474FF40063F6
:1088C0008381704710B5074C94F848350BB90020E8
:1088D00010BD13F0BBFCD4F84C35C01AD0F5FA50DB
:1088E000F6D5F4E7B816002070B505460C46FFF73C
:1088F000E9FF2B685D6808B113F0FCFC064B002211
:1089000083F848252846224693F84935BDE870404B
:10891000492111F045BB00BFB81600202DE9F843EE
:10892000044690F8210144F23B33A4F84C3108B9D5
:10893000BDE8F8830509013D052D00F00F0000F2A8
:1089400098804D4F37F8152042FA00F3DB0740F1CD
:108950009080012303FA00F0013810403D4449F0B3
:1089600093F9464E95F80C80454A804406F5AA696D
:1089700009EBC8052621AB88E980B3FA83F3202BE5
:10898000E260C3F11F02D3D0174406EB82020C341D
:10899000C2F850484FF0004232FA03F33C7D05D054
:1089A000384A116821EA0301116053610021284609
:1089B00012F05AF8AB8859F83820B3FA83F3C3F1B0
:1089C0001F0000F0FC0101F1804101F59C3102F132
:1089D0003F4202F57E0200F003008F688000C2F380
:1089E00087224FF00F0C82400CFA00F027EA0000BB
:1089F0008860886802438A60224A234910684FF0E1
:108A0000004727FA03F320EA03001060506820EAC9
:108A100003005060D1F8000C1843C1F8000C9068B6
:108A200020EA03009060D06820EA0300D060D1F80B
:108A3000082C26441A43C1F8082C96F89028F02AEE
:108A400008D8002B3FF474AF0E490A6813430B603B
:108A5000BDE8F883F02386F890380C4B0022185DAF
:108A6000032146F077FDAB88B3FA83F327FA03F3CB
:108A7000E7E7034BE3605BE774350508B8160020B1
:108A800069AF0008003C0140003001405CA10508CE
:108A90002DE9F04FAE4C94F800A089B0BAF1000F68
:108AA0001ED1D4F8F834002B16DD0026A948314633
:108AB0000769D0F8A0303D6825F0010503F1C00238
:108AC0003D6059600C339A42FBD1D4F8F83401363A
:108AD000B34200F58070EBDC012009B0BDE8F08FF7
:108AE0009D4ED6F8985813F0B1FBD4F80431D4F861
:108AF00008211433801AB0EB430FC0F28981D4F8F7
:108B00000C310293954BA3FB0523954A5B09A2FB0D
:108B1000032C4FEADC0C0CEB8C0CA3EB4C0C96F802
:108B2000E134182202FB0366D4F81821019206F200
:108B3000F143D4F81421079304F5067E002305922F
:108B40005FFA8CF2069304920EEB8C0C04F5887B92
:108B5000261D03931F46029BBB4240F3EA80B16986
:108B600073680A6998005368D1F8EC201FFA83F8FB
:108B7000A2EB0808D1F8E83000F1085008F1806550
:108B800000EB4310393D00EB851501468D4240F264
:108B9000C4800A6801F58073002A00F02C810A6CF9
:108BA000002A00F02B81D1F88020002A00F02981D2
:108BB000D1F8C0201946002AE8D19D4240F2AD808C
:108BC000181AA8EBA010452828BF4520002503EB64
:108BD000801199462846A846994218D91A6892B930
:108BE0001A6C002A40F0C080D3F88020002A40F0A0
:108BF000E480D3F8C02003F580732AB98B42EBD20E
:108C00001A68002AECD04033994200F2B180454600
:108C1000112D40F28280C8F11503002B7DDB07D0B7
:108C200000FA03F30122C8F1140002FA00F018431D
:108C30004C49C0F3C43301EB83030D465A6A00F07C
:108C40001F0301EB83035B6A43EA0233C0F3441260
:108C500001EB8202C0F3842105EB8101526A496A6B
:108C600043EA021343EA012181EA112383EA131341
:108C700003F00F030F2B13D1B1F5803F10D2019BEE
:108C800009090133B1F5606F019340F0C980079B7A
:108C9000DB5D0D2B00F0C0800B46ABF80C3008E01C
:108CA000019B01330193059B0133CDE9053A4FF652
:108CB000FF719EF858300498834214D0DCF80820E5
:108CC000DEF800309B1ACEF80030DCF83020DEF8F9
:108CD00004309B1ACEF804300023CCF80830CCF8CE
:108CE00030308EF85800DEF800300133CEF8003016
:108CF000DCF808300133CCF808304FF6FF739942A6
:108D000076D1DEF80430CDF80CA00133CEF8043073
:108D1000DCF830300133CCF830300137082F0EF159
:108D20005C0E0CF15C0C0BF1140B06F120067FF4C9
:108D300012AF039B13B1019BC4F81831069B13B10A
:108D4000059BC4F81431012384F81632A9E600BF4C
:108D50000400001000050010B81600201F85EB511C
:108D6000CDCCCCCC74350508803399427FF64FAF1B
:108D7000A3EB09029211551C2A4A82FB0592A2EB31
:108D8000E572012AB8BF0122904001259044013AC2
:108D900005FA02F210431D462A6882B12A6C9AB382
:108DA000D5F8802092B3D5F8C02005F580753AB18A
:108DB000A942F1D899462B460EE7C03324E7403547
:108DC000A942F7D9EB1A9B115A1C164B83FB02934D
:108DD000A3EBE273012BB8BF012398409844012212
:108DE000013B02FA03F318432B4699462B46F3E660
:108DF000CDF80CA091E701F14003DEE601F180031C
:108E0000DBE601F1C003D8E68035D9E7C035D7E706
:108E1000002009B0BDE8F08F80238BF81E3048E7B2
:108E20008BB23AE75655555510B5044649F074FED5
:108E300081B22046BDE81040FFF78CBB2DE9F04120
:108E40001F4B93F8E02493F8E1349A4232D11D4E3F
:108E5000D6F8F854002D12DD0024377806F2FC40D5
:108E6000A046013417B1037E012B1ED0026913689E
:108E7000AC4243F0010300F580701360F1D113F0B0
:108E8000E5F9D6F8FC48C6F80801002C0BDD0E4ABF
:108E900002EBC404116893888889083203439BB2AB
:108EA000A2428B81F6D1BDE8F08180F8F080FFF717
:108EB000E9FBDBE746F056FC0028C8D1BDE8F081AD
:108EC000B8160020040000100409001010B57D4CF5
:108ED00094F8E02494F8E1349A4240F099817A4B76
:108EE00093F82029002A00F0EC8093F82439002B15
:108EF00040F0EC80D4F89C18088820F08000000432
:108F0000000C0880B4F8A008C862088880B240F05D
:108F1000800008804B62B1F80CC0B4F8B00840EA99
:108F20000C0080B2012A8881A4F8B03800F0C98012
:108F3000D4F8B418088820F080000004000C0880E1
:108F4000B4F8B808C862088880B240F08000088091
:108F50004B62B1F80CC0B4F8C80840EA0C0080B20B
:108F6000022A8881A4F8C83800F0AB80D4F8CC1865
:108F7000088820F080000004000C0880B4F8D008B5
:108F8000C862088880B240F0800008804B62B1F867
:108F90000CC0B4F8E00840EA0C0080B2032A8881D3
:108FA000A4F8E03800F08D80D4F8E418088820F0A8
:108FB00080000004000C0880B4F8E808C862088843
:108FC00080B240F0800008804B62B1F80CC0B4F869
:108FD000F80840EA0C0080B2042A8881A4F8F83826
:108FE0006FD0D4F8FC18088820F080000004000C32
:108FF0000880B4F80009C862088880B240F0800098
:1090000008804B62B1F80CC0B4F8100940EA0C00BB
:1090100080B2052A8881A4F8103952D0D4F81419E6
:10902000088820F080000004000C0880B4F81809BB
:10903000C862088880B240F0800008804B62B1F8B6
:109040000CC0B4F8280940EA0C0080B2062A8881D6
:10905000A4F8283935D0D4F82C19088820F08000DD
:109060000004000C0880B4F83009C862088880B297
:1090700040F0800008804B62B1F80CC0B4F84009A1
:1090800040EA0C0080B2072A8881A4F8403918D041
:10909000D4F84429B4F84809118821F08001090462
:1090A000090C1180D0621088B4F8581980B240F0D1
:1090B0008000108053629089014389B29181A4F8A5
:1090C000583910BDB816002004000010D4F8A43898
:1090D000B4F8A81859601968D4F89C0841F0010147
:1090E000196040F20D33A0F84830818989B241F40B
:1090F0008071012A8181E4D0D4F8BC18B4F8C0088A
:109100004860086840F001000860D4F8B408A0F88E
:109110004830818989B241F48071022A8181D0D09E
:10912000D4F8D418B4F8D8084860086840F00100B2
:109130000860D4F8CC08A0F84830818989B241F49D
:109140008071032A8181BCD0D4F8EC18B4F8F008FF
:109150004860086840F001000860D4F8E408A0F80E
:109160004830818989B241F48071042A8181A8D074
:10917000D4F80419B4F808094860086840F0010000
:109180000860D4F8FC08A0F84830818989B241F41D
:109190008071052A818194D0D4F81C19B4F8200973
:1091A0004860086840F001000860D4F81409A0F88D
:1091B0004830818989B241F48071062A818180D04A
:1091C000D4F83419B4F838094860086840F0010050
:1091D0000860D4F82C09A0F84830818989B241F49C
:1091E0008071072A81813FF46CAFD4F84C19B4F830
:1091F00050294A600868D4F8442940F0010008600A
:10920000A2F8483093899BB243F48073938110BDD8
:1092100046F0A8FA00287FF462AE10BD70B5104E7B
:10922000D6F80C31002B18DD341D002505E0D6F8EA
:109230000C31AB4204F120040FDD237F0135002BFC
:10924000F5D0E0680028F2D0217D11F0B1FDD6F80C
:109250000C31AB4204F12004EFDC012070BD00BFF3
:10926000040000102DE9F047037D02681F2B04461F
:1092700008D95068A3F120052021A940014206D158
:10928000BDE8F0871068202199400142F8D0BB4921
:10929000BB4E4968C6F8281996F82419D4F81890D6
:1092A000DFF8E482F1B98C2101FB0981D1F8880053
:1092B000D1F8007105683868B1F88CC020F0010061
:1092C0003860A98989B221EA0C01A9813178E9B90C
:1092D0001F2B40F2B580A3F1200120238B40D360E7
:1092E000BDE8F0878C2101FB0981D1F8881048691D
:1092F0000D68016821F001010160A98921F48071E4
:109300000904090CA98131780029E1D04FF08C0AB9
:109310000AFB098ADAF80071384642F07BFFD6F87A
:10932000303901228AF8D420002B00F0F5802A88F9
:109330008C2303FB098392B242F080022A80B3F8A7
:10934000F4204FF0FF31E962002A7FD12A8CB3F874
:10935000F610B3F8F800B3F8FCC022F001021204D2
:10936000120C2A84B3F8FA202B8B23F0F3031B048E
:1093700040EA0C101B0C0343288C9BB22B8383B256
:1093800023F00A030B4343F001032B842B8B23F0C0
:109390000C031B041B0C2B832B8B9BB21A432A83BD
:1093A0008C2303FB09830022D3F8AC00C3F8A4206C
:1093B000D3F8982039680243D3F8B0000243D3F8B9
:1093C000B4000243D3F8B8000243D3F8BC00024310
:1093D000D3F8C0000243D3F8CC000243D3F8D00046
:1093E00002436848084002433A60D3E93120796972
:1093F000024321F007010A437A61D3F8A8207A607A
:10940000D3F89C20BA60D3F8A020FA60D3F80021EA
:1094100016215160116841F001011160D3F88820D4
:10942000B3F88C30126891890B439BB253499381F6
:109430004B68C6F82C39237D22681F2B3FF64BAFB3
:10944000202101FA03F39360BDE8F087042A33D0AA
:10945000082A2A8C65D022F48052B3F8FC10B3F8A5
:10946000F800B3F8F6C01204120C2A84090341EA8A
:109470000020A98BB5F820E0B3F8FA2045F6FF7379
:1094800003EA0E0343EA0C3340F6FF4C0CEA0101F9
:109490009BB2014343F4805389B2A9832B84AB8BE5
:1094A00023F440631B041B0CAB83AB8B9BB243EADE
:1094B00002239BB2AB8373E7298CB3F8F820B3F88F
:1094C000FC00B3F8F6C021F010010904090C29844E
:1094D0001202B3F8FA1042EA0032288B2B8C9BB2AE
:1094E00023F0A00343EA0C1340F6FF4C0CEA000003
:1094F0009BB2024343F0100392B22A832B842B8B3E
:1095000023F440631B041B0C2B832B8B9BB243EA7D
:1095100001239BB22B8343E712F098FEC6F8300973
:1095200005E722F480721204120CB3F8F600B3F8C7
:10953000F810B3F8FCC02A84B3F8FA20AB8B23F000
:10954000F3031B0441EA0C111B0C0B4399B22B8C47
:10955000A9839BB223F4206343EA00239BB243F424
:1095600080732B84AB8B23F00C031B041B0CAB838D
:10957000AB8B9BB21A43AA8312E700BF001000E036
:10958000040000103F801CF0B81600202DE9F04FB9
:10959000DFF80CB19BF8004087B024B901242046C5
:1095A00007B0BDE8F08F3B4ED6F8985812F04EFE4B
:1095B0009BF860390390002B00F0DE82364AA2FB54
:1095C0000532364B5209A3FB0213DB0803EB83037E
:1095D000A2EB4303DAB204920BF5067202EB8303AB
:1095E00000930BF58873019206F1E00402930027C3
:1095F000DBF83039039AD31A04D454F8082C934278
:10960000C0F26A82234A54F858AC256ADAF800603E
:109610008C2303FB072393F8D430002B40F0968172
:10962000284642F0F7FD1B4A8C2303FB0723002248
:1096300083F8D4209AF805100C2914D8DFE811F02B
:1096400078011300130013007101130013001300BD
:109650007F011300130013000D00B38B23F400638C
:109660001B041B0CB3832246304614F023F99AF8EE
:1096700005300C2B1ED8DFE813F04B011D001D0038
:109680001D0042011D001D001D0039011D001D00AF
:109690001D001500B81600201F85EB51CDCCCCCC99
:1096A00004000010B38B23F400631B041B0C43F471
:1096B0000063B383019B54F8342C54F8101C5C33C2
:1096C0000193009B5C330093029B1433029354F884
:1096D000483C43F04003134354F8302C134354F8F0
:1096E0002C2C134354F8282C134354F8242C1343E4
:1096F00054F8202C1343402244F83C2C54F8142CEA
:1097000013432A6822F07E6222F45F3222F47072E0
:109710000B4313432B6054E907316A690B4322F072
:10972000070213436B6154F8383C6B6054F8443CB7
:10973000AB6054F8403CEB602B6843F010032B60A7
:109740009BF8603901379F4204F18C04FFF650AF5B
:10975000012200218BF81622CBF83019002B3FF4A0
:109760001DAF9D4890F89010890700F1A081D0F8B6
:109770008810086849798A40018C92B289B221EA3E
:1097800002010184018C89B20A43012B02843FF457
:1097900005AF914991F81C21970700F1A281D1F8FA
:1097A000142110685479018C012289B2A24092B22E
:1097B00021EA02010184018C89B20A43022B02844E
:1097C0003FF4ECAE844991F8A821960700F1A281FC
:1097D000D1F8A02110685479018C012289B2A240ED
:1097E00092B221EA02010184018C89B20A43032B5F
:1097F00002843FF4D3AE784991F83422950700F102
:109800009281D1F82C2210685479018C012289B2FE
:10981000A24092B221EA02010184018C89B20A437A
:10982000042B02843FF4BAAE6B4991F8C02294072E
:1098300000F18281D1F8B82210685479018C01229C
:1098400089B2A24092B221EA02010184018C89B25C
:109850000A43052B02843FF4A1AE5F4991F84C23E3
:10986000900700F17281D1F8442310685479018C7B
:10987000012289B2A24092B221EA02010184018C44
:1098800089B20A43062B02843FF488AE524991F80C
:10989000D823920700F16281D1F8D023106854795F
:1098A000018C012289B2A24092B221EA0201018414
:1098B000018C89B20A43082B02847FF46FAE464ABA
:1098C00092F864349B0740F15281D2F85C2404235F
:1098D000116850790A8C83409BB292B222EA03024B
:1098E0000A840A8C92B213430B8457E6B38B23F09D
:1098F00008031B041B0C43F00803B383DAE6338B25
:1099000023F400631B041B0C43F400633383D1E690
:10991000338B23F008031B041B0C43F00803338331
:10992000C8E6338B23F400631B041B0C33839AE6D5
:10993000338B23F008031B041B0C338393E6B38B98
:1099400023F008031B041B0CB3838CE66B6834F80C
:10995000542C1FFA83F8B389C8F116089BB223EA86
:109960000203B8F1070FB3817FF65AAEDBF8183166
:109970000133CBF81831A36A05939E4600225EF8A6
:1099800004CB0121914660461DE0DEF800C0B9F12C
:10999000140FACEB000321DC13F1080048BF03F106
:1099A0001700031109EB2019604603F1FF3C013158
:1099B00002FA03F3012202FA0CF2884542EA03029A
:1099C0000EF1040E0AD38845DFD8C9F11503DEF87D
:1099D00000004FF01509E8E7B8160020B9F1150F9F
:1099E0005CD16848C2F38423C2F3441100EB8303C3
:1099F00000EB8101D3F8A430D1F8A4101B0243EA94
:109A0000011302F01F0100EB8101C2F3C43200EB2D
:109A10008202D1F8A410D2F8A4200B4343EA023307
:109A200083EA132282EA121202F00F020F2A35D1C2
:109A3000C3F30F134FF6FF7293422FD0B3F5606F4D
:109A400058D0029A93810198049990F858208A423C
:109A500010D0009A91680268521A00990260096B4E
:109A60004268521A0099426000228A600A6304998F
:109A700080F85810019900980A6801320A608268DB
:109A8000013282604FF6FF7293427FF4C9AD4B689A
:109A900001334B60036B01330363C1E5DBF8143121
:109AA0000133CBF814316FB14FF6FF73CBE7364A71
:109AB000D2F8882010685479018C0422A24089B21F
:109AC00092B25CE605993148582249F09DFCDAF8DB
:109AD00000604FF6FF73B6E70024204607B0BDE8EC
:109AE000F08F294AD2F8142110685479018C04228D
:109AF00089B25BE6244991F8E12402EB420201EBD2
:109B0000C2023A4492F8F1240D2A9AD10299802295
:109B10008A7798E71C4AD2F8A02110685479018C02
:109B2000042289B25BE6184AD2F82C2210685479D4
:109B3000018C042289B26BE6134AD2F8B82210686D
:109B40005479018C042289B27BE60F4AD2F844236F
:109B500010685479018C042289B28BE60A4AD2F843
:109B6000D02310685479018C042289B29BE6064BFD
:109B7000D3F85C240123ABE601228BF81622CBF844
:109B800030390CE574350508B8160020C001001006
:109B90002DE9F341144698460DF1070201230646CC
:109BA0000F4610F085F988B1022012F0A3FB9DF852
:109BB000075025EA040444EA0802394630468DF885
:109BC000072010F0CFFA089812F042FD02B0BDE86D
:109BD000F08173B5642300F11004009301231A4649
:109BE000054612212046FFF7D3FF02220D21204611
:109BF00010F0B8FA012012F02BFD02220E212046AF
:109C000010F0B0FA012012F023FD7422102120463A
:109C100010F0A8FA012012F01BFDAC221121204601
:109C200010F0A0FA0126012012F012FD44237C223C
:109C3000122120460096FFF7ABFF06231A46132198
:109C400020460096FFF7A4FF002317221521204687
:109C50000096FFF79DFF0223204600961A46182122
:109C6000FFF796FF95F8210178B111F017FD044632
:109C700008B12623C3802946074B41F80C3F2046F4
:109C800046F05CF8204610F025FE044810F0EAFA91
:109C9000A88202B070BD00BF61880008809698005D
:109CA000F8B5054600F11004FEF738FE95F8D830F7
:109CB000072B5BD195F81D310226002B58D1374672
:109CC00080226B21204610F04DFA642012F0C0FC77
:109CD00007226821204610F045FA642012F0B8FCF3
:109CE00000226B21204610F03DFA642012F0B0FCF7
:109CF00001226B21204610F035FA0F2012F0A8FC4B
:109D0000FA001B21204610F02DFA0F2012F0A0FCC3
:109D1000F2001C21204610F025FA0F2012F098FCCA
:109D20002846FEF7C5F91A210246204610F01AFA15
:109D30000F2012F08DFC95F820211921204610F0FB
:109D400011FA642012F084FC10223721204610F012
:109D500009FA0F2012F07CFC20460122382110F075
:109D600001FABDE8F8400F2012F072BC0326A6E706
:109D70000327A5E710B500F10C04C06847F044F8CC
:109D800000222121204610F0EDF9FC22202120465E
:109D900010F0E8F940222421204610F0E3F90C22CB
:109DA0002321204610F0DEF900222221204610F067
:109DB000D9F9642012F04CFC012010BD38B500F137
:109DC00010040546194810F04DFAA8822846FEF7FF
:109DD000A5FD01226B21204610F06CF9782012F0CD
:109DE00089FA204618221B2110F064F92046182217
:109DF0001C2110F05FF92846FEF75AF91A21024695
:109E0000204610F057F995F820212046192110F02E
:109E100051F920461022372110F04CF9204601223A
:109E2000BDE83840382110F045B900BF00127A0073
:109E300010B50446FFF734FF1022A0186A2110F075
:109E400039F9642012F004FC044810F00BFAA082E7
:109E5000BDE81040012012F04DBA00BF002D3101C5
:109E600038B500224E21054610F024F9152496201D
:109E700012F0EEFBF521284610F09CF9422807D09D
:109E8000472807D0013C14F0FF04F0D1204638BD2C
:109E90000C24FBE70D24F9E738B580226B21054639
:109EA00010F008F9642012F0D3FBF521284610F0D9
:109EB00081F9AC2818D005D8122817D0982817D0C7
:109EC00000240FE0AF28FBD1092410226A21284684
:109ED00010F0F0F828460322682110F0EBF8642017
:109EE00012F0B6FB204638BD0724EEE70824ECE765
:109EF0000B24EAE773B5054600F110044B4810F057
:109F0000B1F9A8822846FEF709FD42F21F53A5F8D1
:109F10004C310F224E21204610F0CCF80F2012F0C9
:109F200097FB95F8DB30002B71D095F82031013389
:109F300043F00103B3FA83F3C3F11F03032B66DC81
:109F40003B4AD25C02F00F024F212046019210F0F2
:109F5000B1F80F2012F07CFB019A5021204610F03E
:109F6000A9F80F2012F074FB324B93F85D39022BE5
:109F700052D0032B55D0012B15BF0A2508252426C6
:109F8000902614BF06220C2220460C2110F092F8D5
:109F900006F0FC0220460D2110F08CF82A0142EA5E
:109FA000162220460E2110F085F820460C220321AF
:109FB00010F080F820462422042110F07BF820467F
:109FC000A022052110F076F82046EE22522110F052
:109FD00071F820460322142110F06CF8204600226C
:109FE000632110F067F808222046652110F062F81E
:109FF000E421204610F0DEF800F0EF0040F06002AF
:10A000006421204602B0BDE8704010F053B8002330
:10A0100085F8DB30062295E706254FF4DC7615221D
:10A02000B2E704254FF4AC662522ADE700366E0199
:10A0300044A10508B816002008B5F52110F0BAF8BB
:10A04000702818D008D8422817D0472817D01228CF
:10A0500014BF0020082008BDAC2812D006D800F09C
:10A06000FD00712814BF00200620F4E7AF2814BFBC
:10A0700000200920EFE70520EDE70C20EBE70D209D
:10A08000E9E70720E7E738B580226B21044610F0A6
:10A0900011F8642012F0DCFAF521204610F08AF85D
:10A0A0000546012012F026F9682D1BD18C2120468F
:10A0B00010F080F818280DD8142834BF0025032587
:10A0C0002046072268210FF0F5FF642012F0C0FA45
:10A0D000284638BDA0F15403DBB2072B34BF03255B
:10A0E0000025EDE70025F3E710B5124C237843B1C6
:10A0F0000C30114A0623282146F09AFE00202070D9
:10A1000010BD0E4AB2F98039002BB8BF03339B1043
:10A110000B80B2F98239002BB8BF03339B104B8000
:10A12000B2F98439002BB8BF03339B108B80012018
:10A13000E5E700BF8801002038200020B816002085
:10A14000BFF34F8F0549064BCA6802F4E062134320
:10A15000CB60BFF34F8F00BFFDE700BF00ED00E015
:10A160000400FA051648174A174938B5174C184D18
:10A17000121A49F049F9D4F88820164B164842F4CF
:10A180007002C4F888201A68002142F001021A60A7
:10A1900099601A6822F0847222F480321A60586042
:10A1A0001A6822F480221A600C4AD960521B284691
:10A1B0000B4949F029F9A560BDE83840FDF720BFFB
:10A1C0000000001004000010CD3C060800ED00E087
:10A1D00000000020003802401030002488010020D8
:10A1E000000000082DE9F04302691778012F85B0BF
:10A1F00004460D4618D10B79013B13714B79002BA6
:10A2000008BF682300F1100803754FF000093B46B2
:10A210000DF10502752140468DF805900FF048FEBE
:10A22000064600283ED1226902231370EB7823B939
:10A230000026304605B0BDE8F08304F11008A97887
:10A24000404610F045F806460028F1D0E87811F0B5
:10A2500025FAA0612B780133DBB210B1C371222340
:10A260008371092110F000FCA06910F02BF8424A1C
:10A27000D2F89838632BFBD94048DFF80891404F5B
:10A280000FF0F0FFA08202E059F8047B5FB3404674
:10A29000B84703460028F7D0206984F8D83046F044
:10A2A000B3FDC6E7206946F0AFFD3B4649460DF1D8
:10A2B000060240460FF0FCFD9DF8063003F07E03D9
:10A2C0008DF8063008B1682B14D09DF8053003F0E6
:10A2D0007E03682B8DF805300FD0702BA9D1042395
:10A2E00084F8D830A5E7E87811F0D8F911F036FAFB
:10A2F0003E469EE784F8D8709BE70222062384F846
:10A30000D820194602AA40460FF0D2FDE0B19DF8D0
:10A310000D309DF80B209B00520002F0020203F06A
:10A32000040313439DF8092002F0010213430BD0EC
:10A33000012B1DD0022B17D003F00303032B13D0E6
:10A34000032012F03DFB74E701230DF107024046A4
:10A350000C210FF0ADFD0028F2D09DF8073013F06E
:10A360000F03EDD0042B03D0012384F8D93060E72C
:10A37000002384F8D9305CE7B816002040420F0073
:10A3800087A000089C36050843680B4A23F04073F9
:10A3900023F4807343F48073436083681A4042F06F
:10A3A00002028260C36A0139CAB223F4700141EA31
:10A3B0000251C162704700BFFDF7FFC0704700BF88
:10A3C0000020FDF789BE00BF0120FDF785BE00BF5C
:10A3D0000220FDF781BE00BF431C00F03D812DE946
:10A3E000F04FDFF8B4A300EB80030AEBC30287B0A1
:10A3F000D2F80480810005460191DB00B8F1000F1E
:10A4000005D0D468002C00F0FD80A17911B107B00F
:10A41000BDE8F08FD2F81090B9F1000F00F04E8136
:10A4200099F80620002AF2D118330AF10406F01830
:10A43000D8F80470F250691CC0E901221523C260EB
:10A44000C9B2A3711623E17189F8063089F80710A3
:10A4500098F8180045F078FABB88A28823F4407376
:10A460001B041B0CBB8023681A83D9F80030B9F891
:10A4700004201A831121204610F0F6FA11214846D3
:10A4800010F0F2FA09264FF0330B05E0BBF1010B97
:10A4900000F0DD8011F02EFF0A20002CF6D022689B
:10A4A000A18813691942F1D05183052011F022FFD0
:10A4B0002368A2881A83052011F01CFF013EE2D117
:10A4C000002C00F019812368A2885A83052011F01E
:10A4D00011FFB9F1000F00F03781D9F80030B9F859
:10A4E00004205A83052011F005FF2368A2881A83EF
:10A4F000052011F0FFFED9F80030B9F804201A83C6
:10A50000019B20465C190AEBC404A37D227D002B2D
:10A5100014BF322112210FF0EFFAA37D627D002BD0
:10A5200014BF3221122148460FF0E6FA944B9F42A5
:10A5300000F0F480934B9F4200F0FB80924B9F42CF
:10A5400000F00C81019B2B440AEBC30A4FF47A7391
:10A55000BAF8184003FB04F4BB8823F440731B04CF
:10A560001B0CBB803B889BB243F001033B80BD8842
:10A5700002A841F0ADFD25F03F050498834B2D0462
:10A58000A3FB00232D0C45EA9345BD803A8822F0B9
:10A5900001021204120C3A807D4A990C94420B4637
:10A5A0005BDC6200B0FBF2F292B20133042A38BFE6
:10A5B00004223B84BA833B889BB243F001033B8077
:10A5C0003B8823F4816323F002031B041B0C4FF42C
:10A5D000804143F480633B8039813B8823F08003D2
:10A5E0001B041B0C00223B8098F81A00114644F013
:10A5F000B1FF002298F81900114607B0BDE8F04FEE
:10A6000044F0A8BFD2F81090B9F1000F3FD099F8EC
:10A610000620002A7FF4FBAE18330AF10401CA18A1
:10A62000D8F80470CC50C2E901441623D46089F8EC
:10A6300006306B1C89F8073098F8180045F084F94B
:10A64000BB8823F440731B041B0CBB800DE7DCB9F3
:10A65000052011F04FFE2EE7704704EB4404B0FBD9
:10A66000F4F082B2C0F30B0008B942F001024FF4DB
:10A67000967301FB03F34749A1FB03139B090133C5
:10A6800042F400423B8495E72268A1880CE7183326
:10A690000AF10401CA18D8F8047041F80390C2E91D
:10A6A0000199C2F80C9098F8180045F04DF9BB8854
:10A6B00023F440731B041B0CBB80DBE618330AF148
:10A6C0000401CA18D8F8047041F80390C2E901994E
:10A6D0001523C2F80C90A3716B1CE37198F8180055
:10A6E00045F032F9BB88A28823F440731B041B0C8D
:10A6F000BB8023681A83BDE6052011F0FBFDB9F18C
:10A70000000F36D0D9F80030B9F804205A8305205C
:10A7100011F0F0FD052011F0EDFDECE603F5F2334C
:10A720001A6A42F400121A621A6A22F400121A62B9
:10A7300008E703F5F0331A6A42F480021A621A6AD3
:10A7400022F480021A62FDE6052011F0D3FD236891
:10A75000A2881A83052011F0CDFDD1E603F5EE3372
:10A760001A6A42F400021A621A6A22F400021A6299
:10A77000E8E6052011F0BEFD052011F0BBFDBFE6A7
:10A780000054004000580040005C004083DE1B4342
:10A79000A0860100D34D6210B81600202DE9F843C1
:10A7A000074611F027FDDFF84C8007EB87090446C8
:10A7B00008EBC90542F20F7604E011F01BFD031B04
:10A7C000B3420ADC6B7F002BF7D108EBC90898F87D
:10A7D0001C0080F00100BDE8F883B8F88639013329
:10A7E00038469BB2A8F88639FFF7F6FD0020BDE891
:10A7F000F88300BFB816002070B5284D00EB800329
:10A8000005EBC30384B05A685468A28A92B20392DB
:10A81000039A12F4706F1CBF01221A77039B13F482
:10A82000E06F4FEA80060CD1A38A304423F47063B2
:10A8300005EBC0051B041B0C0022A3826A7704B041
:10A8400070BD238BA38823F480631B041B0CA3809F
:10A85000039B9A05E8D423889B05E5D42388D90572
:10A860000FD52388DA05FCD423889BB243F4007308
:10A87000238023889B05FCD40190FFF7ADFD019850
:10A88000D2E723889BB243F400732380A38823F488
:10A8900040731B041B0CA380C6E700BFB816002042
:10A8A0000020A9E70120A7E70220A5E72DE9F84F3E
:10A8B000304F00EB800407EBC404D4F80880B8F1F3
:10A8C000000F04D09A46637F03F0FF0923B14FF0D5
:10A8D00000094846BDE8F88F0E469346054611F03C
:10A8E00089FC0A9B7600F6B2C4E909330123A677F6
:10A8F00084F81FB084F8219084F8223084F820A0D6
:10A90000637784F81C90B8F804209105064622D499
:10A91000B8F80030DA0512D442F20F7404E011F0F6
:10A9200069FC831BA3421ADCB8F800309B05F6D4FF
:10A93000B8F800309BB243F48073A8F80030B8F840
:10A9400004309BB24FF0010943F44073A8F804307F
:10A950004846BDE8F88F99464846BDE8F88FB7F8F5
:10A96000863901339BB22846A7F88639FFF734FDB4
:10A97000AFE700BFB8160020F8B5724C04EB001624
:10A98000D6F88839002B00F08A800546070196F832
:10A99000900944F0D9FF96F89039590903F01F0245
:10A9A00003294FF0010303FA02F300F08E8004291B
:10A9B0007BD0022974D0E319013593F88C0910F08B
:10A9C0006DFEEDB2064610B112238371C571E31915
:10A9D00093F88D0910F062FE10B11323C5718371D5
:10A9E000E31993F88E0910F059FE10B11423C571C4
:10A9F00083713C444A2194F88F2930460FF07CF84B
:10AA000094F88D0910F04AFE94F88F292A210FF04E
:10AA100073F894F88E0910F041FE94F88F290A21FA
:10AA20000FF06AF8D4F88829474B9A4252D0474B26
:10AA30009A423FD0464B9A4257D0464B9A425FD0FB
:10AA4000454B9A4267D0454B9A426FD04449908813
:10AA5000CC888B88CD8923430C8923434C8920F0F3
:10AA6000030023438C890004000C23430C8A90804C
:10AA70002B43108823434C8A898A00F44150234396
:10AA800003439BB21380938B23F400631B041B0CC2
:10AA90009383118213889BB243F040031380F8BD67
:10AAA000304A516A0B43536285E72E4A11690B43C2
:10AAB000136180E703F50033196A41F4804119629C
:10AAC000196A21F480411962C0E7264A116A0B43D2
:10AAD000136270E703F58433596A41F48051596277
:10AAE000596A21F480515962B0E703F5FE33196ABF
:10AAF00041F400411962196A21F400411962A5E785
:10AB000003F58233596A41F400515962596A21F4BC
:10AB1000005159629AE703F56843596A41F480117C
:10AB20005962596A21F4801159628FE703F5644331
:10AB3000596A41F400115962596A21F400115962AD
:10AB400084E700BFB8160020003001400038004004
:10AB5000003C0040003401400050014000540140DE
:10AB6000880100200038024010B404698269E4685A
:10AB7000416814604024D460446900230C31C2E968
:10AB80000433C2E90633C2E90833C2E90A33C2E931
:10AB90000C3393609363516084B1C269E06893633E
:10ABA000C2E90233C2E90433C2E90633C2E9083319
:10ABB000C2E90A33C2E90C33C2E900015DF8044B73
:10ABC000704700BF436800221A60037D1F2B08D91D
:10ABD000203B2022016802FA03F343F01803CB6004
:10ABE00070472022016802FA03F343F018038B60D8
:10ABF000704700BF0268136A11B1D96901B31433F9
:10AC000030B49C681D689169DDB14FF48060886143
:10AC10008D60104640690C6180B15968D369C9B133
:10AC20000A464FF480619A609961224312F0010F45
:10AC300014BF00224FF400521A621C6130BC7047EE
:10AC400070478D61054D4FF0FF0C05F816CF006879
:10AC50008D60DFE7024A9A609961E6E7880100208B
:10AC6000702000200168F8B5D1E904230446556836
:10AC7000002B49D09861107D5E681F2831D8176875
:10AC8000202202FA00F040F01800B8601A7D1F2A56
:10AC900032D91868203A202303FA02F242F018024F
:10ACA000C26000232B6033603368896943F010036E
:10ACB0003360284641F044FB23683046D96941F0AF
:10ACC0003FFB2B68226843F001032B603368526816
:10ACD00043F00103336093889BB243F003039380F6
:10ACE000F8BD17682038202202FA00F040F0180062
:10ACF000F8601A7D1F2ACCD81868202303FA02F2C4
:10AD000042F018028260CCE7137D90611F2B1CD8A3
:10AD10001068202202FA03F343F018038360002333
:10AD20002B602B68896943F010032B60284641F0A3
:10AD300007FB2B68226843F0010352682B6093885D
:10AD40009BB243F002039380F8BD1068203B2022A1
:10AD500002FA03F343F01803C360E0E72DE9F84378
:10AD6000DFF800927D4F0646356896F888806B685C
:10AD7000B088012285F824201A8822F040021204AB
:10AD8000120C1A802A89824223D0198821F03801B6
:10AD900009044B454FEA114100F0BC80704A9342D0
:10ADA00000F0B8800246B2F5807FA8BF4FF48072F1
:10ADB000022AB8BF0222002A92FAA2F2B2FA82F262
:10ADC00008BF4FF0FF32013A41EAC20292B21A8044
:10ADD0002881317BAA7A8A420CD01A8822F0030299
:10ADE0001204120C1A801A8892B2002900F08F8087
:10ADF0001A80A9721A8892B242F040021A802A6A16
:10AE00009168002900F0A0804FF0000C1432E64653
:10AE100052F8100C8E4400EA070120B1B1F1805FB6
:10AE200023D0696909B352F8140C143200EA0701FF
:10AE300010B1B1F1805F18D052F80C1C0CF1010C6C
:10AE40000029E5D12A7B82B1B8F1000F0DD0BCF109
:10AE5000010F6CD8BEF1070F69D80CEB8C0189008B
:10AE60002A6A11440A7B002A61D02A6A9268002A61
:10AE700052D000220AB1127B22B1B26812B111681D
:10AE800092884A832A6A14682A6A51682A6A9268F0
:10AE9000501E9AB12CB3224612F801CB14461A89DF
:10AEA0009207FCD5A3F80CC01A89D207FCD59A8961
:10AEB00092B209B101F8012B0138EBD22B6A1B7B4E
:10AEC000F3B92B6A1B6993B12B6AD6F894001B69FE
:10AED0009847012808D0022809D100232B62BDE839
:10AEE000F8834FF0FF0CDAE72B6A143B2B622A6AD7
:10AEF0002B6A14332B622B6A9B686BB16B68B9E7C2
:10AF0000B368002BDDD01A689B881383D9E742F021
:10AF100003026DE7420846E72B6A1B68DBB12B6A28
:10AF2000D3E900622A620022C3E900221CE7002163
:10AF30003046FFF75FFEB36813B11A689B885383EE
:10AF40003046BDE8F8438DE62A7B002A8DD0B8F163
:10AF5000000F85D189E72B62C1E700BF0000FFFF2A
:10AF6000003C00400038004038B5D0F8E0102C4BD1
:10AF700004465A68D0F8D80071B1131A99420BDC14
:10AF800094F8D030C4F8D820012B10D0D4F8D430A5
:10AF90000133C4F8D43038BDD4F8E430C4F8D82034
:10AFA0000344C4F8DC3094F8D030012BEED1616852
:10AFB000201D04F1E805EFF3118C102383F31288B0
:10AFC00063681B6A0BB3D4F8F0302A461BB1D3690F
:10AFD0001432002BFBD10B6AFBB1996839B993424B
:10AFE00009D0196829B15B6899680029F7D0143332
:10AFF000F3E7C3E900055FFA8CFC8CF31188D4F801
:10B00000D4300133C4F8D43038BD0D625FFA8CFC03
:10B010008CF31188FFF7A2FEB8E71860FFDE00BFCF
:10B02000001000E0F0B58569296995F84C210B788E
:10B03000012B97B0044606D0022B01D10B6A2BB32B
:10B04000002017B0F0BD91F90460731CF8D0022EF7
:10B05000F6DC04AB297D009330460623FFF726FC7F
:10B060000028EDD03046FFF799FB0028E8D0BDF866
:10B070001010BDF81220BDF8143049BA52BA5BBAAC
:10B080000120E1812282638217B0F0BD62F07F026D
:10B090008DF80F200DF10F0206920122CDE9073243
:10B0A000CDE90A338DF824308DF838208DF84C2006
:10B0B0000F9304AA129314930623CDE90C230022C4
:10B0C0000023CDE9102305F11000EFF311861023C2
:10B0D00083F312882B691B6AFBB1089B06AF3A46C3
:10B0E0001BB1D3691432002BFBD10B6AEBB1996809
:10B0F00039B9934209D0196829B15B689968002968
:10B10000F7D01433F3E7C3E90007F6B286F31188EA
:10B110002A69136A002BFCD1A9E706ABF6B20B62D1
:10B1200086F31188FFF71AFEF2E71860FFDE00BF12
:10B1300070B5016990F84D210B78012B96B004464B
:10B1400006D0022B01D10B6A43B3002016B070BDAC
:10B1500091F904506B1CF8D0022DF6DC04AB017D94
:10B16000009328460623FFF7A1FB0028EDD02846D0
:10B17000FFF714FB0028E8D0BDF81010BDF812202E
:10B18000BDF8143049BA52BA5BBA0120A4F8D01005
:10B19000A4F8D220A4F8D43016B070BD62F07F02BB
:10B1A0008DF80F200DF10F0206920122CDE9073232
:10B1B000CDE90A338DF824308DF838208DF84C20F5
:10B1C0000F9304AA129314930623CDE90C230022B3
:10B1D0000023CDE910231030EFF31185102383F302
:10B1E000128823691B6AFBB1089B06AE32461BB16D
:10B1F000D3691432002BFBD10B6AEBB1996839B9D2
:10B200009A4209D0196829B15B6899680029F7D07A
:10B210001433F3E7C3E90006EDB285F31188226920
:10B22000136A002BFCD1A7E706AB0B62EDB285F3E6
:10B230001188FFF793FDF2E71860FFDE38B500F1E3
:10B2400010050446FDF76AFB03226B2128460EF029
:10B2500031FF0F2011F04EF810226A2128460EF01F
:10B2600029FF0F2011F046F800226C2128460EF02D
:10B2700021FF0F2011F03EF894F8202119212846D3
:10B280000EF018FF0F2011F035F818221B21284668
:10B290000EF010FF0F2011F02DF818221C21284667
:10B2A0000EF008FF0F2011F025F810223721284654
:10B2B0000EF000FF0F2011F01DF801223821284662
:10B2C0000EF0F8FE0F2011F015F82046FCF7F0FE06
:10B2D0001A21024628460EF0EDFE012011F00AF870
:10B2E0000A480EF0BFFFA0822046FFF721FF94F925
:10B2F000D230013308D194F9D030013304D1BDE804
:10B300003840062011F05CBB38BD00BF002D310174
:10B310002DE9F041826992F8DC30012B8AB00546B4
:10B320004DD0023B012B55D892F84C31D2F89C20DD
:10B33000304C63F07F0313708669D6F8A030D6F8DE
:10B34000108003F1010E0FCCEC46ACE80F00D6F8EC
:10B350009C30CDE9003E0FCCACE80F0094E8030030
:10B3600006F110078CE80300EFF31180102383F33C
:10B37000128833691B6A002B30D0029B6A461BB1CE
:10B38000D3691432002BFBD1D8F82030002B2ED0FB
:10B39000996839B993420AD0196829B15B689968EC
:10B3A0000029F7D01433F3E71F60C3F804D0C0B20C
:10B3B00080F31188AA6911690B6A002BFCD1D2F8BD
:10B3C000A0305A8852BAEA819A8852BA2A82DB8817
:10B3D0005BBA6B8201200AB0BDE8F081C8F820D0CA
:10B3E000C0B280F311883846FFF7B8FCE2E71F606F
:10B3F000FFDE00BFB43605082DE9F04190F8DC30DF
:10B40000D0F8A050012B8AB0044659D016D8D0F8F5
:10B410009C304FF0FF321A605A609A60DA60D0F8C0
:10B42000E0300522B3F57A7FC0F8F0207DD8032301
:10B4300080F8DC3001200AB0BDE8F081023B012B2E
:10B44000F8D890F84D31D0F89C20544E63F07F032B
:10B450001370D0F8A030D0F8108003F1010E00F185
:10B4600010070FCEEC46ACE80F00D4F89C30CDE9C5
:10B47000003E0FCEACE80F0096E803008CE8030016
:10B48000EFF31180102383F3128823691B6A002BCA
:10B4900074D0029B6A461BB1D3691432002BFBD1D6
:10B4A000D8F82030002B76D0996839B9934225D04E
:10B4B000196801B35B6899680029F7D01433F3E782
:10B4C00090F84C2190F84D319B1A5B100133DBB2A0
:10B4D00005EB430235F813305BBAA0F8D03053883F
:10B4E0005BBAA0F8D23093885BBAA0F8D4300120C0
:10B4F0000AB0BDE8F0811F60C3F804D0C0B280F389
:10B5000011882269136A002BFCD16B885BBAA4F8FE
:10B51000D030AB885BBAA4F8D230EB8801205BBA9C
:10B52000A4F8D4300AB0BDE8F08103691A7B72B385
:10B530005B6963B390F898304BB390F84C31D0F816
:10B540009C20C4F8A40063F07F03137090F84C11A2
:10B5500090F84D31D0F8A0201148C4F804015B1ACE
:10B5600007330121C4F8FC30D4F89C3084F8001172
:10B570000A44C4E93D3284F8DC105BE7C8F820D007
:10B58000C0B280F311883846FFF7E8FBB9E7022321
:10B5900084F8DC304EE71F60FFDE00BFB4360508DC
:10B5A0008D800008F0B585692A691378012B97B062
:10B5B00004460CD0022B01D1136AE3B1049ABDF802
:10B5C0001430C4F80E200120638217B0F0BD92F948
:10B5D0000460731CF2D0022EF0DC04AB297D0093D2
:10B5E000282206233046FFF761F90028E6D03046CE
:10B5F000FFF7D4F8E2E7CDE90A3307938DF824305A
:10B600000F9312931493012308938DF838308DF81B
:10B610004C30A8239FED207B8DF80F300DF10F03E8
:10B62000069304AB0C9306238DED107B05F11000FF
:10B630000D93EFF31186102383F312882B691B6A95
:10B64000FBB1089B06AF39461BB1CB691431002B07
:10B65000FBD1136AEBB19A683AB98B4209D01A68E8
:10B660002AB15B689A68002AF7D01433F3E7C3E97C
:10B670000007F6B286F311882A69136A002BFCD101
:10B680009CE706ABF6B2136286F31188FFF766FB00
:10B69000F2E71860FFDE00BF0000000000000000BD
:10B6A00070B502691378012B96B004460DD0022BB9
:10B6B00001D1136AEBB1049ABDF81430C4F8D0205C
:10B6C0000120A4F8D43016B070BD92F904506B1C60
:10B6D000F1D0022DEFDC04AB017D00932222062382
:10B6E0002846FFF7E3F80028E5D02846FFF756F88C
:10B6F000E1E79FED297B0121CDE907310DF10F0035
:10B70000CDE90A33A2258DF824308DF838108DF854
:10B710004C100F931293149304A906230690CDE9BD
:10B720000C138DED107B04F110008DF80F50EFF32A
:10B730001185102383F3128823691B6AFBB1089BD0
:10B7400006AE31461BB1CB691431002BFBD1136A15
:10B75000EBB19A683AB98B4209D01A682AB15B6892
:10B760009A68002AF7D01433F3E7C3E90006EDB274
:10B7700085F311882269136A002BFCD19BE706AB85
:10B780001362EDB285F31188FFF7E8FAF2E718606B
:10B79000FFDE00BFAFF300800000000000000000EB
:10B7A0002DE9F04F836893B0054613B11A689B8862
:10B7B0005383BF4B5B68C3F30803002B40F0048145
:10B7C000EFF31183002B40F0FF80BA4B4FF0E024E1
:10B7D000D3F89828A069D3F898188A42F8D1D3F8FA
:10B7E000C4198142F4D3D3F8C0694FF47A7404FBCE
:10B7F00006F1091AB1FBF6F104FB0211AC4E4FF051
:10B80000E0204FF47A744FF0100C01277268C2F3F5
:10B810000802002A40F09F80EFF31182002A40F0D6
:10B820009A80D3F89888D0F818E0D3F898289045F3
:10B83000F7D1D3F8C4299645F3D8D3F8C09904FBBF
:10B8400009F2A2EB0E02B2FBF9F204FB0822521A33
:10B85000B2F57A7FDAD3AA6812B1116892880A83A6
:10B8600093480A2410264FF0E0214FF47A7C4FF0E1
:10B87000010B4268C2F30802002A40F08E80EFF309
:10B880001182002A40F08980D3F89828D1F81880D6
:10B89000D3F89878BA42F7D1D3F8C479B845F3D839
:10B8A000D3F8C0990CFB09FEAEEB080EBEFBF9FE07
:10B8B0000CFB02EE4268C2F3080252BBEFF31182A6
:10B8C0003ABBD3F89878D1F81890D3F898289742D3
:10B8D000F7D1D3F8C4299145F3D8D3F8C0A90CFB0C
:10B8E0000AF2A2EB0902B2FBFAF20CFB0722A2EB6E
:10B8F0000E02B2F57A7FDDD3013CBAD12B68ADF8E8
:10B9000004401A6A002A00F08480204613B0BDE883
:10B91000F08FEFF3118986F31288D1F818A00A6925
:10B92000D20344BFC3F8BCB9D1F818A0D3F8982803
:10B93000D3F8BC795FFA89F989F3118807EB02081B
:10B94000D3F8C0790CFB07F2A2EB0A02B2FBF7F2C4
:10B950000CFB0822CBE7EFF311828CF31288D0F8AE
:10B960001880D0F810E01EF4803F03D0C3F8BC79F3
:10B97000D0F81880D3F89898D3F8BCE9D2B282F303
:10B980001188CE44D3F8C09904FB09F2A2EB080257
:10B99000B2FBF9F204FB0E2259E7EFF3118E86F3A6
:10B9A0001288D1F818800A69D70344BFC3F8BCB91C
:10B9B000D1F81880D3F89898D3F8BC295FFA8EFE96
:10B9C0008EF311884A446BE7EFF31181102383F360
:10B9D00012884FF0E0229069136913F4803F354BD1
:10B9E00003D00120C3F8BC099069D3F89848D3F874
:10B9F000BC29C9B281F31188D3F8C06911194FF479
:10BA00007A7404FB06F2121AB2FBF6F204FB01216F
:10BA1000F4E680218DF803100DF10301029101A9D4
:10BA2000089102210122099100200021CDE9034261
:10BA3000CDE90644CDE90C018DF814408DF828209D
:10BA40008DF83C200B940E941094EFF3118210218A
:10BA500081F312882968096A00292DD0049902A867
:10BA6000002932D00146CC691431002CFBD11B6A6D
:10BA7000002B2CD09C683CB9994209D01C682CB191
:10BA80005B689C68002CF7D01433F3E7C3E90050DF
:10BA9000D2B282F311882B681A6A002AFCD19DF871
:10BAA0000530242B14BF00200F2013B0BDE8F08F09
:10BAB00000ED00E0B816002002A91962D2B282F3AC
:10BAC00011882846FFF74AF9E5E70146CFE71D60F0
:10BAD000FFDE00BF38B504462549D0F8D83094F8C9
:10BAE000D020D0F8E40049680344012AC4E93613A1
:10BAF00005D0D4F8D4300133C4F8D43038BD6168EF
:10BB0000201D04F1E805EFF3118C102383F3128854
:10BB100063681B6A0BB3D4F8F0302A461BB1D369B3
:10BB20001432002BFBD10B6AFBB1996839B99342EF
:10BB300009D0196829B15B6899680029F7D01433D6
:10BB4000F3E7C3E900055FFA8CFC8CF31188D4F8A5
:10BB5000D4300133C4F8D43038BD0D625FFA8CFCA8
:10BB60008CF31188FFF7FAF8C3E71860FFDE00BF17
:10BB7000001000E02DE9F041866996F8DC30012BD9
:10BB80008AB005464AD0023B012B52D8D6F89C30E9
:10BB90002F4C8C221A70D0F818800FCCEC46D8F8B5
:10BBA00010E0ACE80F00D6F89C300093D6F8A03037
:10BBB00001930FCCACE80F0094E8030008F11007E4
:10BBC0008CE80300EFF31180102383F31288D8F878
:10BBD00010301B6A002B30D0029B6A461BB1D36920
:10BBE0001432002BFBD1DEF82030002B2ED09968C8
:10BBF00039B993420AD0196829B15B68996800295C
:10BC0000F7D01433F3E71F60C3F804D0C0B280F359
:10BC10001188AB691A69136A002BFCD1D6F8A030E1
:10BC2000B3F90220EA81B3F904202A82B3F906307D
:10BC30006B8201200AB0BDE8F081CEF820D0C0B2FE
:10BC400080F311883846FFF789F8E2E71F60FFDECE
:10BC5000DC3605082DE9F04190F81E31032B8AB03F
:10BC6000044671D090F8DC30D0F8A060012B00F0D1
:10BC7000CC8016D8D0F89C3000221A605A609A60A6
:10BC80009A81D0F8E0300522B3F57A7FC0F8F02031
:10BC90004DD80323012580F8DC3028460AB0BDE8E2
:10BCA000F081023B012B4AD8D0F89C30DFF844E207
:10BCB00092221A70D0F8108000F11007BEE80F0031
:10BCC0006D46AC46ACE80F00BEE80F00ACE80F00D4
:10BCD0009EE80300D4F89C308CE803000093D4F86D
:10BCE000A0300193EFF31180102383F312882369AE
:10BCF0001B6A002B00F0E880029B2A461BB1D36927
:10BD00001432002BFBD1D8F82030002B00F0E58056
:10BD1000996851B99A4200F08B801968002900F0A7
:10BD200085805B6899680029F4D01433F0E70369D3
:10BD30001A7B002A40F0A580022384F8DC3001251C
:10BD400028460AB0BDE8F081664867490023012211
:10BD5000CDE900010A210291CDE90433CDE9063392
:10BD600021698DF80C2004F110068DF8202009932C
:10BD7000EFF31180102383F3128823691B6A002BD1
:10BD80006ED0029B6D462A461BB1D3691432002B3C
:10BD9000FBD10B6A002B00F0A280996839B993425D
:10BDA00009D0196829B15B6899680029F7D0143364
:10BDB000F3E7C3E90065C0B280F311882269136A12
:10BDC000002BFCD14949B1F8CA29052A1BDDB1F97C
:10BDD000CC09D1F8CC59B1F9CE79B1F9D01910F517
:10BDE000004F46D0C4F8D050A4F8D4100125063A2C
:10BDF000002AA5D03046B0227E210EF05BF92846FD
:10BE00000AB0BDE8F0811D46F2E7B6F90820A0F8B7
:10BE1000D020B6F90A20A0F8D220B6F90C20A0F85C
:10BE2000D4201D4628460AB0BDE8F081C3E900755C
:10BE3000C0B280F311882269136A002BFCD1B6F9D5
:10BE40000230A4F8D030B6F90430A4F8D230B6F9F4
:10BE50000630A4F8D430012528460AB0BDE8F081A8
:10BE6000C1F820D0C0B280F311883046FEF776FFCB
:10BE7000A4E717F5004FB5D111F5004FB2D11D461B
:10BE8000B5E75B69002B3FF457AF90F89850002D51
:10BE90003FF452AFD0F89C30C4F8A4008C221A7042
:10BEA000D0F8A020C0F8F8200E2201231049C0F8D5
:10BEB000FC20D0F89C20C0F80411C0F8F42080F8D1
:10BEC000003180F8DC303BE7C8F82050C0B280F386
:10BED00011883846FEF742FFADE71F60FFDE1E60A7
:10BEE000FFDE00BFA001002080200020B816002047
:10BEF00089880008DC3605082DE9F04F054695B025
:10BF000000F1100795F81E310193B62238467E21C4
:10BF10000EF0D0F8C54CC64807EE907A4FF0640A90
:10BF20004FF010084FF0E0224FF47A7E4FF00109F5
:10BF30004368C3F30803002B40F09C82EFF31183A6
:10BF4000002B40F09782D4F898389669D4F8981866
:10BF50008B42F8D1D4F8C4198E42F4D8D4F8C07901
:10BF60000EFB07F18E1BB6FBF7F60EFB036643686C
:10BF7000C3F30803002B40F0C681EFF31183002BBD
:10BF800040F0C181D4F898789369D4F898188F421A
:10BF9000F8D1D4F8C4198B42F4D8D4F8C0190EFBE8
:10BFA00001FCACEB0303B3FBF1F30EFB07339B1B6C
:10BFB000B3F57A7FDBD3BAF1010AB9D1AB6917EED9
:10BFC000907A13B11A689B885383994B5B68C3F3CB
:10BFD0000803002B41F02684EFF31183002B41F07E
:10BFE00021844FF0E026D4F89828B069D4F8983826
:10BFF0009A42F8D1D4F8C4399842F4D8ACEB000393
:10C00000B3FBF1F34FF47A7101FB0233884E4FF02A
:10C01000E0214FF47A704FF0100E4FF0010C72686F
:10C02000C2F30802002A40F0A281EFF31182002A35
:10C0300040F09D81D4F89898D1F81880D4F89828C9
:10C040009145F7D1D4F8C4299045F3D8D4F8C0A9C4
:10C0500000FB0AF2A2EB0802B2FBFAF200FB092293
:10C06000D21AB2F57A7FDAD3AB6913B11A689B881A
:10C070001383DFF8BC810A224FF010094FF0E02152
:10C080004FF47A7C4FF0010ABB46D8F80430C3F372
:10C090000803002B40F0D181EFF31183002B40F017
:10C0A000CC81D4F898388E69D4F898088342F8D1B6
:10C0B000D4F8C4098642F4D8D4F8C0790CFB07F050
:10C0C000801BB0FBF7F00CFB0300D8F80430C3F37F
:10C0D0000803002B40F02B81EFF31183002B40F07D
:10C0E0002681D4F898688F69D4F898389E42F8D1A0
:10C0F000D4F8C4399F42F4D8D4F8C0E90CFB0EF34D
:10C10000DB1BB3FBFEF30CFB06331B1AB3F57A7F84
:10C11000DBD3013AB9D17C2158460DF0CBFF444B1B
:10C120005B68C3F308035F46002B41F05783EFF3CE
:10C130001183002B41F052834FF0E020D4F898385F
:10C140008169D4F898289342F8D1D4F8C42991424F
:10C15000F4D8D4F8C0694FF47A7000FB06F2521A92
:10C16000B2FBF6F200FB0322314E4FF0E0214FF418
:10C170007A704FF0100E4FF0010C7368C3F3080390
:10C18000002B40F01681EFF31183002B40F011815A
:10C19000D4F89898D1F81880D4F898389945F7D100
:10C1A000D4F8C4399845F3D8D4F8C0A900FB0AF3F1
:10C1B000A3EB0803B3FBFAF300FB09339B1AB3F5B7
:10C1C0007A7FDAD30022592138460DF073FF184BDD
:10C1D0005B68C3F30803002B41F0DC82EFF31183AB
:10C1E000002B41F0D7824FF0E020D4F898388169D5
:10C1F000D4F898289342F8D1D4F8C4299142F4D8BD
:10C20000D4F8C0694FF47A7000FB06F2521AB2FB00
:10C21000F6F200FB0322064E4FF0E0214FF47A7055
:10C220004FF0100E4FF0010C04E000BFB8160020D4
:10C2300000ED00E07368C3F30803002B40F0DB80DF
:10C24000EFF31183002B40F0D680D4F89898D1F802
:10C250001880D4F898389945F7D1D4F8C43998455E
:10C26000F3D8D4F8C0A900FB0AF3A3EB0803B3FB8F
:10C27000FAF300FB09339B1AB3F57A7FDAD35E2316
:10C280008DF80F300DF10F030493002305938DF803
:10C290001C3008930A930D93109312930123069375
:10C2A0008DF830308DF84430814B09934FF4A473EE
:10C2B0000B9300220023CDE90E232969EFF31180AF
:10C2C000102383F312882B691B6A002B01F05B8318
:10C2D000069B04AE32461BB1D3691432002BFBD14E
:10C2E0000B6A002B01F04784996851B9934200F022
:10C2F000E3801968002900F0DD805B6899680029F7
:10C30000F4D01433F0E7EFF3118188F312889369C6
:10C310001769FF0344BFC4F8BC999369D4F89878AF
:10C32000D4F8BCC9C9B281F31188674435E6EFF38C
:10C33000118789F31288D1F818E00B69DB0344BF39
:10C34000C4F8BCA9D1F818E0D4F89838D4F8BC697E
:10C35000FFB287F31188D4F8C0791E440CFB07F3B1
:10C36000A3EB0E03B3FBF7F30CFB0633CDE6EFF3C1
:10C3700011828EF31288D1F81890D1F8108018F439
:10C38000803F03D0C4F8BCC9D1F81890D4F898887D
:10C39000D4F8BCA9D2B282F31188D044D4F8C0A991
:10C3A00000FB0AF2A2EB0902B2FBFAF200FB082240
:10C3B00056E6EFF311838EF31288D1F81890D1F876
:10C3C000108018F4803F03D0C4F8BCC9D1F818908D
:10C3D000D4F89888D4F8BCA9DBB283F31188D04490
:10C3E000D4F8C0A900FB0AF3A3EB0903B3FBFAF3EB
:10C3F00000FB0833E2E6EFF311838EF31288D1F8E5
:10C400001890D1F8108018F4803F03D0C4F8BCC94C
:10C41000D1F81890D4F89888D4F8BCA9DBB283F38B
:10C420001188D044D4F8C0A900FB0AF3A3EB090398
:10C43000B3FBFAF300FB08331DE7EFF3118689F332
:10C4400012888F690B69D80344BFC4F8BCA98F69EF
:10C45000D4F89838D4F8BC09F6B286F31188D4F829
:10C46000C06903440CFB06F0C01BB0FBF6F00CFBEC
:10C4700003002AE6EFF3118188F3128897691369A4
:10C48000DB0344BFC4F8BC999769D4F89838D4F852
:10C49000BC69C9B281F31188D4F8C01933440EFBCA
:10C4A00001F6F61BB6FBF1F60EFB03665FE500BF77
:10C4B00004370508C3E90076C0B280F311882A6901
:10C4C000136A002BFCD1DFF8ECE34FF00A0A4FF0BF
:10C4D00010084FF0E0224FF47A764FF00109BB4686
:10C4E000DEF80430C3F30803002B40F09F84EFF321
:10C4F0001183002B40F09A84D4F898389069D4F8CE
:10C5000098188B42F8D1D4F8C4198842F4D8D4F8DA
:10C51000C07906FB07F1091AB1FBF7F106FB03111D
:10C52000DEF80430C3F30803002B40F0B583EFF3CB
:10C530001183002B40F0B083D4F898089769D4F8A1
:10C5400098389842F8D1D4F8C4399F42F4D8D4F836
:10C55000C0C906FB0CF3DB1BB3FBFCF306FB00338B
:10C560005B1AB3F57A7FDBD3BAF1010AB8D10122A5
:10C57000592158460DF09EFDCE4B5B68C3F308036E
:10C580005F46002B41F0E280EFF31183002B41F076
:10C59000DD804FF0E020D4F898388169D4F89828ED
:10C5A0009342F8D1D4F8C4299142F4D8D4F8C069A0
:10C5B0004FF47A7000FB06F2521AB2FBF6F200FB5F
:10C5C0000322BC4E4FF0E0214FF47A704FF0100E72
:10C5D0004FF0010C7368C3F30803002B40F09E83F7
:10C5E000EFF31183002B40F09983D4F89898D1F899
:10C5F0001880D4F898389945F7D1D4F8C4399845BB
:10C60000F3D8D4F8C0A900FB0AF3A3EB0803B3FBEB
:10C61000FAF300FB09339B1AB3F57A7FDAD3019B57
:10C62000032B00F0BD869B22402138460DF042FDD1
:10C63000A04B5B68C3F30803002B40F08D86EFF33B
:10C640001183002B40F088864FF0E020D4F8983812
:10C650008169D4F898289342F8D1D4F8C42991423A
:10C66000F4D8D4F8C0694FF47A7000FB06F2521A7D
:10C67000B2FBF6F200FB03228E4E4FF0E0214FF4A6
:10C680007A704FF0100E4FF0010C7368C3F308037B
:10C69000002B40F02183EFF31183002B40F01C832B
:10C6A000D4F89898D1F81880D4F898389945F7D1EB
:10C6B000D4F8C4399845F3D8D4F8C0A900FB0AF3DC
:10C6C000A3EB0803B3FBFAF300FB09339B1AB3F5A2
:10C6D0007A7FDAD30322412138460DF0EBFC754B0B
:10C6E0005B68C3F30803002B40F01286EFF311835D
:10C6F000002B40F00D864FF0E020D4F89838816987
:10C70000D4F898289342F8D1D4F8C4299142F4D8A7
:10C71000D4F8C0694FF47A7000FB06F2521AB2FBEB
:10C72000F6F200FB0322634E4FF0E0214FF47A70E3
:10C730004FF0100E4FF0010C7368C3F30803002B89
:10C7400040F05283EFF31183002B40F04D83D4F877
:10C750009898D1F81880D4F898389945F7D1D4F83A
:10C76000C4399845F3D8D4F8C0A900FB0AF3A3EB69
:10C770000803B3FBFAF300FB09339B1AB3F57A7F86
:10C78000DAD394F85D39013BDBB2022B00F26C8303
:10C79000494A134493F8D822120162F03202D2B20D
:10C7A000422138460DF086FC424B5B68C3F3080318
:10C7B000002B40F08985EFF31183002B40F0848536
:10C7C0004FF0E020D4F898388169D4F89828934243
:10C7D000F8D1D4F8C4299142F4D8D4F8C0694FF400
:10C7E0007A7000FB06F2521AB2FBF6F200FB03224B
:10C7F000304E4FF0E0214FF47A704FF0100E4FF0B2
:10C80000010C7368C3F30803002B40F0CB82EFF3F5
:10C810001183002B40F0C682D4F89898D1F8188084
:10C82000D4F898389945F7D1D4F8C4399845F3D855
:10C83000D4F8C0A900FB0AF3A3EB0803B3FBFAF397
:10C8400000FB09339B1AB3F57A7FDAD30822432120
:10C8500038460DF02FFC174B5B68C3F30803002B21
:10C8600040F00C85EFF31183002B40F007854FF06B
:10C87000E020D4F898288169D4F898389342F8D108
:10C88000D4F8C4299142F4D8D4F8C0694FF47A702E
:10C8900000FB06F2521AB2FBF6F200FB0322054E31
:10C8A0004FF0E0214FF47A704FF0100E4FF0010C72
:10C8B00004E000BF00ED00E0743505087368C3F3C1
:10C8C0000803002B40F04C82EFF31183002B40F063
:10C8D0004782D4F89838D1F81880D4F898989945B8
:10C8E000F7D1D4F8C4394345F3D3D4F8C0A900FB39
:10C8F0000AF3A3EB0803B3FBFAF300FB09339B1A1B
:10C90000B3F57A7FDAD3019B032B00F0F483042282
:10C91000582138460DF0CEFBCC4B5B68C3F30803BF
:10C92000002B40F0A382EFF31183002B40F09E8296
:10C930004FF0E020D4F898288169D4F898389342D1
:10C94000F8D1D4F8C4299142F4D8D4F8C0694FF48E
:10C950007A7000FB06F2521AB2FBF6F200FB0322D9
:10C96000DFF8E8E24FF0E0204FF47A714FF0100C5E
:10C970000126DEF80430C3F30803002B40F0FF82E9
:10C98000EFF31183002B40F0FA82D4F89838D0F8F6
:10C990001880D4F898989945F7D1D4F8C4399845B7
:10C9A000F3D8D4F8C0A901FB0AF3A3EB0803B3FB47
:10C9B000FAF301FB09339B1AB3F57A7FD9D30A2224
:10C9C000532138460DF076FBA04B5B68C3F3080398
:10C9D000002B40F06D83EFF31183002B40F0688350
:10C9E0004FF0E020D4F898288169D4F89838934221
:10C9F000F8D1D4F8C4298A42F4D3D4F8C0694FF4EA
:10CA00007A7000FB06F2521AB2FBF6F200FB032228
:10CA10008E4E4FF0E0214FF47A704FF0100E4FF031
:10CA2000010C7368C3F30803002B40F06482EFF33A
:10CA30001183002B40F05F82D4F89898D1F81880C9
:10CA4000D4F898389945F7D1D4F8C4399845F3D833
:10CA5000D4F8C0A900FB0AF3A3EB0803B3FBFAF375
:10CA600000FB09339B1AB3F57A7FDAD302227C21CB
:10CA700038460DF01FFB754B5B68C3F30803002BB2
:10CA800040F0B683EFF31183002B40F0B1834FF0F9
:10CA9000E020D4F898288169D4F898389342F8D1E6
:10CAA000D4F8C4298A42F4D3D4F8C0694FF47A7018
:10CAB00000FB06F2521AB2FBF6F200FB0322634EB1
:10CAC0004FF0E0214FF47A704FF0100E4FF0010C50
:10CAD0007368C3F30803002B40F0EB81EFF311837D
:10CAE000002B40F0E681D4F89838D1F81880D4F8BB
:10CAF00098989945F7D1D4F8C4394345F3D3D4F87D
:10CB0000C0A900FB0AF3A3EB0803B3FBFAF300FB95
:10CB100009339B1AB3F57A7FDAD30E227D2138468A
:10CB20000DF0C8FA494B5B68C3F30803002B40F0D3
:10CB30008283EFF31183002B40F07D834FF0E020E0
:10CB4000D4F898388169D4F898289342F8D1D4F869
:10CB5000C4299142F4D8D4F8C0694FF47A7000FB2C
:10CB600006F2521AB2FBF6F200FB0322374E4FF0E8
:10CB7000E0214FF47A704FF0100E4FF0010C736803
:10CB8000C3F30803002B40F0D881EFF31183002B8F
:10CB900040F0D381D4F89838D1F81880D4F8989818
:10CBA0009945F7D1D4F8C4399845F3D8D4F8C0A939
:10CBB00000FB0AF3A3EB0803B3FBFAF300FB093312
:10CBC0009B1AB3F57A7FDAD3019B032B00F0F9812E
:10CBD00095F821317BB31E09771E052F03F00F0353
:10CBE00000F2DE861A4E36F8170040FA03F2D2073A
:10CBF00040F1D686012202FA03F3013B18403E447D
:10CC000045F042F8337B134E134A184406EBC00636
:10CC100029462623F380304641F80C2F43F08EF846
:10CC2000B2884FF00043B2FA82F2D34003D00B49EE
:10CC30000A6813430B602268094BB3EB920F80F034
:10CC4000AC86B3EBD20F80F0B4860BE000ED00E0D1
:10CC500074350508081C0020D5BA0008003C0140C6
:10CC600080969800B3EB121F80F07F87B3EB521FC2
:10CC700080F07E87B3EB921F80F07187B3EBD21FF9
:10CC800080F07087B3EB122F34BF4FF48073802392
:10CC9000AB8215B0BDE8F08FEFF3118788F31288EF
:10CCA000D2F818C01369DB0344BFC4F8BC99D2F8AA
:10CCB00018C0D4F89838D4F8BC09FFB287F31188AB
:10CCC000D4F8C079184406FB07F3A3EB0C03B3FBBD
:10CCD000F7F306FB003343E4EFF311838EF312887E
:10CCE000D1F81890D1F8108018F4803F03D0C4F820
:10CCF000BCC9D1F81890D4F89888D4F8BCA9DBB294
:10CD000083F31188D044D4F8C0A900FB0AF3A3EB45
:10CD10000903B3FBFAF300FB0833D7E4EFF3118305
:10CD20008EF31288D1F81890D1F8108018F4803F53
:10CD300003D0C4F8BCC9D1F81890D4F89888D4F8B6
:10CD4000BCA9DBB283F31188D044D4F8C0A900FB9E
:10CD50000AF3A3EB0903B3FBFAF300FB08335AE42D
:10CD6000EFF311838EF31288D1F81890D1F8108068
:10CD700018F4803F03D0C4F8BCC9D1F81890D4F897
:10CD80009888D4F8BCA9DBB283F31188D044D4F8D6
:10CD9000C0A900FB0AF3A3EB0903B3FBFAF300FB02
:10CDA0000833ACE5EFF311838EF31288D1F81890B5
:10CDB000D1F8108018F4803F03D0C4F8BCC9D1F872
:10CDC0001890D4F89888D4F8BCA9DBB283F3118802
:10CDD000D044D4F8C0A900FB0AF3A3EB0903B3FBCA
:10CDE000FAF300FB08332DE5EFF311838EF312887D
:10CDF000D1F81890D1F8108018F4803F03D0C4F80F
:10CE0000BCC9D1F81890D4F89888D4F8BCA9DBB282
:10CE100083F31188D044D4F8C0A900FB0AF3A3EB34
:10CE20000903B3FBFAF300FB0833A6E4EFF3118028
:10CE300088F3128897691369D90344BFC4F8BC9971
:10CE40009769D4F89838D4F8BC19C0B280F3118827
:10CE5000D4F8C0090B4406FB00F1C91BB1FBF0F18B
:10CE600006FB0311FFF75CBBCD2299E4EFF31182BF
:10CE7000102383F312884FF0E02399691869C003E7
:10CE800003D50121C4F8BC199969D4F89808D4F8DD
:10CE9000BC39D2B282F31188D4F8C0691A184FF4A1
:10CEA0007A7000FB06F35B1AB3FBF6F300FB023269
:10CEB00056E5EFF311838EF31288D1F81890D1F86C
:10CEC000108018F4803F03D0C4F8BCC9D1F8189082
:10CED000D4F89888D4F8BCA9DBB283F31188D04485
:10CEE000D4F8C0A900FB0AF3A3EB0903B3FBFAF3E0
:10CEF00000FB08330DE6EFF311838EF31288D1F8AF
:10CF00001890D1F8108018F4803F03D0C4F8BCC941
:10CF1000D1F81890D4F89888D4F8BCA9DBB283F380
:10CF20001188D044D4F8C0A900FB0AF3A3EB09038D
:10CF3000B3FBFAF300FB083394E5EFF311838EF3B0
:10CF40001288D1F81890D1F8108018F4803F03D0DF
:10CF5000C4F8BCC9D1F81890D4F89888D4F8BCA902
:10CF6000DBB283F31188D044D4F8C0A900FB0AF3E4
:10CF7000A3EB0903B3FBFAF300FB083320E6EFF35E
:10CF800011838CF31288D0F81890D0F8108018F420
:10CF9000803F03D0C4F8BC69D0F81890D4F89888C2
:10CFA000D4F8BCA9DBB283F31188D044D4F8C0A96B
:10CFB00001FB0AF3A3EB0903B3FBFAF301FB08330C
:10CFC000F9E4B0227E2138460DF074F8BD4B5B6861
:10CFD000C3F30803002B40F03585EFF31183002BDA
:10CFE00040F030854FF0E020D4F898388269D4F8CA
:10CFF00098188B42F8D1D4F8C4198A42F4D8D4F8DE
:10D00000C0094FF47A7101FB00F6B61AB6FBF0F6D0
:10D0100001FB0366DFF8AC82D8F80430C3F30803E1
:10D020004FF0E0214FF47A774FF0100E4FF0010CE3
:10D030000BBBEFF31183F3B9D4F898288869D4F8BF
:10D0400098389342F8D1D4F8C4299042F4D8D4F84F
:10D05000C09907FB09F2121AB2FBF9F207FB03238E
:10D060009B1BB3F57A7FBFF4B3ADD8F80430C3F39C
:10D070000803002BDDD0EFF311838EF3128888694B
:10D080000A69D20302D5C4F8BCC98869D4F8989853
:10D09000D4F8BC29DBB283F311884A44D4F8C09990
:10D0A00007FB09F31B1AB3FBF9F307FB0233D7E7BE
:10D0B000EFF31182102383F312884FF0E023996974
:10D0C0001869C60303D50121C4F8BC199969D4F8BD
:10D0D0009808D4F8BC39D2B282F31188D4F8C06968
:10D0E0001A184FF47A7000FB06F35B1AB3FBF6F3E1
:10D0F00000FB02328CE40222582138460CF0DAFFA1
:10D10000704B5B68C3F30803002B40F02384EFF3FC
:10D110001183002B40F01E844FF0E020D4F89838A3
:10D120008169D4F898289342F8D1D4F8C4298A4266
:10D13000F4D3D4F8C069DFF88CE14FF47A7000FBC7
:10D1400006F2521AB2FBF6F200FB0322DEF80430BC
:10D15000C3F308034FF0E0214FF47A704FF0100C46
:10D1600001261BBBEFF3118303BBD4F89898D1F8C9
:10D170001880D4F898389945F7D1D4F8C439434584
:10D18000F3D3D4F8C0A900FB0AF3A3EB0803B3FB65
:10D19000FAF300FB09339B1AB3F57A7FBFF40FACA7
:10D1A000DEF80430C3F30803002BDBD0EFF3118368
:10D1B0008CF31288D1F81890D1F8108018F4803FC1
:10D1C00003D0C4F8BC69D1F81890D4F89888D4F882
:10D1D000BCA9DBB283F31188D044D4F8C0A900FB0A
:10D1E0000AF3A3EB0903B3FBFAF300FB0833D2E71E
:10D1F000EFF31182102383F312884FF0E023996933
:10D200001869C00303D50121C4F8BC199969D4F881
:10D210009808D4F8BC39D2B282F31188D4F8C06926
:10D220001A184FF47A7000FB06F35B1AB3FBF6F39F
:10D2300000FB023243E4EFF31182102383F31288E0
:10D240004FF0E02399691869C60303D50121C4F89A
:10D25000BC199969D4F89808D4F8BC39D2B282F3D1
:10D260001188D4F8C0691A184FF47A7000FB06F3DD
:10D270005B1AB3FBF6F300FB023277E4EFF31182A3
:10D28000102383F312884FF0E02399691869C003D3
:10D2900003D50121C4F8BC199969D4F89808D4F8C9
:10D2A000BC39D2B282F31188D4F8C0691A184FF48D
:10D2B0007A7000FB06F35B1AB3FBF6F300FB023255
:10D2C000FFF7EDBA00ED00E0EFF31182102383F3D6
:10D2D00012884FF0E02399691869C60303D501212C
:10D2E000C4F8BC199969D4F89808D4F8BC39D2B2FA
:10D2F00082F31188D4F8C0691A184FF47A7000FBD1
:10D3000006F35B1AB3FBF6F300FB0232FFF770BAC9
:10D31000EFF31182102383F312884FF0E023996911
:10D320001869C00303D50121C4F8BC199969D4F860
:10D330009808D4F8BC39D2B282F31188D4F8C06905
:10D340001A184FF47A7000FB06F35B1AB3FBF6F37E
:10D3500000FB0232FFF7E7B9EFF31182102383F3EA
:10D3600012884FF0E02399691869C60303D501219B
:10D37000C4F8BC199969D4F89808D4F8BC39D2B269
:10D3800082F31188D4F8C0691A184FF47A7000FB40
:10D3900006F35B1AB3FBF6F300FB0232FFF76CB93E
:10D3A0000022482138460CF085FEC94B5B68C3F368
:10D3B0000803002B40F02383EFF31183002B40F090
:10D3C0001E834FF0E020D4F898388269D4F898187A
:10D3D0008B42F8D1D4F8C4198A42F4D8D4F8C009E1
:10D3E0004FF47A7101FB00F6B61AB6FBF0F601FBBA
:10D3F0000366DFF8DC924FF0E0214FF47A7C4FF0C7
:10D4000010084FF0010ED9F80430C3F30803002BC5
:10D4100040F02C82EFF31183002B40F02782D4F8E8
:10D4200098388869D4F898289342F8D1D4F8C42958
:10D430009042F4D8D4F8C0A90CFB0AF2121AB2FB3D
:10D44000FAF20CFB03239B1BB3F57A7FDBD380221C
:10D45000492138460CF02EFE9D4B5B68C3F3080350
:10D46000002B40F0A982EFF31183002B40F0A4823F
:10D470004FF0E020D4F898388269D4F898188B429D
:10D48000F8D1D4F8C4198A42F4D8D4F8C0094FF4BA
:10D490007A7101FB00F6B61AB6FBF0F601FB0366E3
:10D4A000DFF82C924FF0E0214FF47A7C4FF0100817
:10D4B0004FF0010ED9F80430C3F30803002B40F0FD
:10D4C0002C82EFF31183002B40F02782D4F8983898
:10D4D0008869D4F898289342F8D1D4F8C4299042A6
:10D4E000F4D8D4F8C0A90CFB0AF2121AB2FBFAF273
:10D4F0000CFB03239B1BB3F57A7FDBD30022452172
:10D5000038460CF0D7FD724B5B68C3F30803002B61
:10D5100040F0DF82EFF31183002B40F0DA824FF00E
:10D52000E020D4F898388269D4F898188B42F8D162
:10D53000D4F8C4198A42F4D8D4F8C0094FF47A71E7
:10D5400001FB00F6B61AB6FBF0F601FB0366DFF846
:10D5500080914FF0E0214FF47A7C4FF010084FF0AB
:10D56000010ED9F80430C3F30803002B40F0B88152
:10D57000EFF31183002B40F0B381D4F89838886919
:10D58000D4F898289342F8D1D4F8C4299042F4D81A
:10D59000D4F8C0A90CFB0AF2121AB2FBFAF20CFB87
:10D5A00003239B1BB3F57A7FDBD306224621384643
:10D5B0000CF080FD464B5B68C3F30803002B40F082
:10D5C0006582EFF31183002B40F060824FF0E02082
:10D5D000D4F898388269D4F898188B42F8D1D4F8E6
:10D5E000C4198A42F4D8D4F8C0094FF47A7101FB07
:10D5F00000F6B61AB6FBF0F601FB0366DFF8D09032
:10D600004FF0E0214FF47A7C4FF010084FF0010EFC
:10D61000D9F80430C3F30803002B40F04481EFF342
:10D620001183002B40F03F81D4F898388869D4F8F2
:10D6300098289342F8D1D4F8C4299042F4D8D4F869
:10D64000C0A90CFB0AF2121AB2FBFAF20CFB03237C
:10D650009B1BB3F57A7FDBD30022472138460CF0C1
:10D6600029FD1B4B5B68C3F30803002B40F0548279
:10D67000EFF31183002B40F04F824FF0E020D4F8FD
:10D6800098388269D4F898188B42F8D1D4F8C41924
:10D690008A42F4D8D4F8C0094FF47A7101FB00F63D
:10D6A000B61AB6FBF0F601FB0366DFF82490D9F852
:10D6B0000430C3F308034FF0E0214FF47A7C4FF0BD
:10D6C00010084FF0010E23BBEFF311830BBB01E0F9
:10D6D00000ED00E0D4F898388869D4F8982893428F
:10D6E000F8D1D4F8C4299042F4D8D4F8C0A90CFBDE
:10D6F0000AF2121AB2FBFAF20CFB03239B1BB3F5DE
:10D700007A7FBEF490AFD9F80430C3F30803002B3E
:10D71000DAD0EFF3118388F3128888690A69D2039B
:10D7200002D5C4F8BCE98869D4F89828D4F8BCA913
:10D73000DBB283F311885244D4F8C0A90CFB0AF37E
:10D740001B1AB3FBFAF30CFB0233D7E7EFF311829A
:10D75000102383F312884FF0E02399691869C603F8
:10D7600003D50121C4F8BC199969D4F89808D4F8F4
:10D77000BC39D2B282F31188D4F8C0691A184FF4B8
:10D780007A7000FB06F35B1AB3FBF6F300FB023280
:10D79000FEF717BFEFF31182102383F312884FF0C7
:10D7A000E02399691869C00303D50121C4F8BC19A5
:10D7B0009969D4F89808D4F8BC39D2B282F31188A8
:10D7C000D4F8C0691A184FF47A7000FB06F35B1A9C
:10D7D000B3FBF6F300FB0232FEF71DBDEFF311823F
:10D7E000102383F312884FF0E02399691869C60368
:10D7F00003D50121C4F8BC199969D4F89808D4F864
:10D80000BC39D2B282F31188D4F8C0691A184FF427
:10D810007A7000FB06F35B1AB3FBF6F300FB0232EF
:10D82000FEF7A2BCEFF31182102383F312884FF0AE
:10D83000E02399691869C60303D50121C4F8BC190E
:10D840009969D4F89808D4F8BC39D2B282F3118817
:10D85000D4F8C0691A184FF47A7000FB06F35B1A0B
:10D86000B3FBF6F300FB0233FEF7D0BBEFF31183FB
:10D8700088F3128888690A69D20302D5C4F8BCE922
:10D880008869D4F89828D4F8BCA9DBB283F311884E
:10D890005244D4F8C0A90CFB0AF31B1AB3FBFAF3E9
:10D8A0000CFB0233CFE5EFF3118388F3128888690C
:10D8B0000A69D20302D5C4F8BCE98869D4F898286B
:10D8C000D4F8BCA9DBB283F311885244D4F8C0A9C0
:10D8D0000CFB0AF31B1AB3FBFAF30CFB0233B7E69B
:10D8E000EFF3118388F3128888690A69D20302D59D
:10D8F000C4F8BCE98869D4F89828D4F8BCA9DBB28C
:10D9000083F311885244D4F8C0A90CFB0AF31B1A04
:10D91000B3FBFAF30CFB023343E6EFF3118388F316
:10D92000128888690A69D20302D5C4F8BCE98869FB
:10D93000D4F89828D4F8BCA9DBB283F311885244F8
