:020000040800F2
:10000000F8FF01206D4F090809500908856F0508A0
:1000100009500908095009080950090800000000A2
:100020000000000000000000000000000950090866
:10003000095009080000000009500908D5450508C5
:100040000950090809500908095009080950090808
:1000500009500908095009085D390508853905085E
:10006000C1390508FD390508393A0508ED0B0000CE
:10007000010C0000150C0000290C00003D0C0000D4
:10008000510C0000650C00000950090809500908CE
:10009000095009080950090809500908753A050866
:1000A00009500908A12604080950090891260408E6
:1000B000B1260408C1260408D1260408DD67040817
:1000C00041670408A1680408056804080950090884
:1000D00009500908351100002D12000025130000F9
:1000E000B13A050809500908000000009D270408DE
:1000F00075270408AD27040865270408790C00005B
:100100000950090809500908E1260408095009089E
:100110001D14000015150000F1260408F5B20808AA
:100120008D0C0000A10C0000B50C0000C90C0000F3
:10013000DD0C000009500908095009080950090898
:1001400000000000000000000000000000000000AF
:10015000F10C0000050D0000190D00000D16000047
:1001600065690408C96804080950090809500908A4
:100170000950090809500908095009080000000041
:10018000095009080950090805170000FD1700006B
:1001900009500908095009080950090809500908B7
:1001A00009500908095009080950090809500908A7
:1001B000095009080950090809500908296A040862
:1001C0008D690408095009080950090809500908EF
:1001D0000950090859A108080950090809500908D7
:1001E0000950090809500908095009080950090867
:1001F0000950090809500908095009080950090857
:100200000950090809500908095009080950090846
:10021000BD270408CD270408DD2704080950090874
:100220000950090809500908095009080000000090
:100230000950090809500908000000000950090880
:100240000950090809500908095009080950090806
:1002500009500908095009080950090809500908F6
:1002600009500908095009080950090809500908E6
:100270000950090809500908095009080000000040
:10028000095009080000000009500908000000009A
:080290000000000009500908FC
:0828000000001E080000200882
:020000040804EE
:1000000030B5FAB18E464FEA014C034600F1C00507
:10001000002419680C3353F8042C43F8084C41EAC7
:100020000C0142EA0E02AB4243F80C1C43F8042CCC
:10003000EFD1D0F8C03043EA0E03C0E93144C0F834
:10004000C03030BD4FEA014E8C46DEE7F0B5424C81
:1000500004EB401292F8203003B9F0BD4FF4B47CA9
:100060003E4B00264FEA401E0CFB004C9CF806510C
:100070008CF8066195711D785A7895420DD002EB87
:10008000420C560003EBCC0C9CF804C00CF1FF377B
:10009000012F55D9BCF1030F4DD004EB0E00818028
:1000A000EFF31183902282F312888279DBB2818888
:1000B00042EA4102002192B2817183F3118813094F
:1000C000247883EA122383EA0201CCB11301C943E5
:1000D000C269012480689BB201F00F01D2F8AC2004
:1000E00084400B4302F1C000590013F4004F8BB25F
:1000F00002D15168214351600C328242F4D1F0BDEB
:1001000013018468C26901F00F0104F110009BB271
:100110000124D2F8AC200B43844002F1C000590006
:1001200013F4004F8BB202D15168214351600C325D
:100130009042F4D1F0BD571C07F00307AF42ACD09A
:10014000324403EBC2030344597C0029A5D004EBDD
:100150000E0301229A71A0E7040000205819002420
:1001600070B50F4ED6F8443C002B17DD341D00252A
:1001700004E0D6F8443C2034AB420FDD237F013548
:10018000002BF6D0E06800220028F2D0217D203438
:1001900013F06EFDD6F8443CAB42EFDC012070BD9D
:1001A00004000020704700BF024B03EB401090F8A2
:1001B00021007047040000204368426D30B49A610A
:1001C000EFF31182502383F312884168D2B2856C19
:1001D0000B68046D23EA050323430B6082F3118847
:1001E000436981681A68096822F00102D0E908545D
:1001F0001A60826A1D605C615A60D0E90B429C60A3
:10020000DA600023B0F86C2030BCCA620377704714
:10021000084A0346D0F8E4005268D3F8F010121AE6
:1002200000209142B8BFC3F8F020012283F81C21BE
:10023000704700BF001000E04FF4006383817047F7
:100240003B4BDFED3C3A93F8651093F864000902EC
:1002500093F8662093F867C001EB004193F86800BB
:1002600093ED1D6A0A4409024FEA002093F86910D1
:1002700048BF02F17F42B8EEC66A00EB0C4007EEC1
:10028000902AB3F980200144000205EE902AB3F9C8
:100290007C20F8EEE77A48BF01F17F4104EE902A16
:1002A000B3F97E20F8EEE55A07EE101A67EEA37A4E
:1002B00006EE902AF8EEE44AB3F97A20F8EEE66A00
:1002C000012005EE102AB3F97820E7EEA54AB8EE32
:1002D000C55A04EE102AB8EEC77AB3F96E20B8EE0C
:1002E000C44AA7EEA65AD3ED1C6A27EE237A05EE80
:1002F000902AA4EEA76AB3F96C20F8EEE66AF8EE4D
:10030000E55A04EE902AF6EE003AE7EE046AF8EEBB
:10031000E44AA5EE076A65EE875AB0EE667AE4EE27
:10032000A35AA7EE867AC3ED225A83ED217A70474D
:10033000581900240821843630B10A4BD3ED217AB4
:10034000FDEEE77AC0ED007A51B1064B9FED067ADB
:10035000D3ED227A67EE877AFDEEE77AC1ED007A77
:10036000704700BF581900240000C842704700BF02
:1003700001207047012070477047B0F90000094B19
:100380004143994208DBB1F5000F07DA0029B8BFF5
:10039000FF31081200B270470348FBE747F6FF70D1
:1003A000F8E700BF01FF7FFF0080FFFF704700BF3D
:1003B000043070470269C3682DE9F04712EA030967
:1003C0002AD005460E464FF000474FF00008B9FA14
:1003D00089F327FA03F21B3BD24309EA02092A6197
:1003E000042B16D8DFE803F0352C231A0300B36A78
:1003F000002B37D003F1FF3AC6F828801FFA8AFA9B
:10040000746A34B123682046514698476468002CCA
:10041000F8D1B9F1000FDAD1BDE8F0877068696BE7
:10042000036889B29847B9F1000FD0D1F4E7B068FA
:10043000A96B036889B29847B9F1000FC7D1EBE700
:10044000F068E96B036889B29847B9F1000FBED133
:10045000E2E73069296C036889B29847B9F1000F67
:10046000B5D1D9E7E96A1FFA81FAC9E78069B430E2
:1004700045F01EB92DE9F04FDFF820A385B09AF8BA
:10048000006006BBBA4F57F8C03C002B17DD0025B3
:10049000A7F1BC0029464669D0F8AC30346803F1B6
:1004A000C00224F00104346059600C339A42FBD13D
:1004B000013557F8C03C00F58670AB42EBDC0120FB
:1004C00005B0BDE8F08FAB4BD3F88C4014F0D2F8F8
:1004D000DAF8483CDAF84C2C1433801AB0EB430FAE
:1004E000C0F27981A44B0AF54568A44F0AF1040EC5
:1004F000A3FB0423B1465B09A7FB0327FF0807EB17
:100500008707A3EB4707FBB208EB8707039300239A
:1005100001930AF573630293DAF8443C019A93421B
:1005200040F30481002A40F33B81DEF818400022AA
:10053000934BD4F8F40099692033D1F8F410884231
:1005400008BF4A469E45F6D1002A00F0298162691B
:100550000121DEF804308B4D9940D3B222F0FF0226
:10056000D4F8F840103BA5FB0353874D1B09EB5C07
:100570001A445368854A9BB2E41A0346A21800EB5A
:1005800042029A420FD91D880D4200F0EF805D882B
:100590000D4200F01C819D880D4200F01A81DD881B
:1005A00008330D42EDD11A880A409446002A40F0E3
:1005B000AF80181AA4EB6000452828BF452003EB44
:1005C0004000834280F0A48016461D46144616E083
:1005D000B3F802B00BEA010B5A4540F0C380B3F800
:1005E00004B00BEA010B5A4540F0BE80DA880833AC
:1005F0000A40944206D1984207D91A880A40A2427A
:10060000E6D00233984200F29680BCF1110F7FD9F8
:10061000CCF11503002B7BDB08D006FA03F3CCF1F9
:10062000140C012606FA0CFC4CEA03065848C6F3E3
:10063000C43306F01F0250F8233050F8221041EA6C
:100640000331C6F34413C6F3842650F8233041EA3D
:10065000031150F8263041EA032181EA112383EA8D
:10066000131303F00F030F2B1CD1B1F5803F19D2E8
:10067000DAF8383F09090133B1F5606FCAF8383F3D
:1006800040F0B1803B4A537803EB430302EBC303D2
:10069000019A13445B7C0D2B00F0A1800B46029A5B
:1006A00093810BE0DAF8383F4FF6FF710133CAF857
:1006B000383FDAF8343F0133CAF8343F98F85830FD
:1006C0000398834210D0BA68D8F800309B1AC8F853
:1006D00000303A6BD8F804309B1AC8F80430002375
:1006E000BB603B6388F85800D8F800300133C8F885
:1006F0000030BB680133BB604FF6FF73994207D1EE
:10070000D8F804300133C8F804303B6B01333B6345
:10071000019B08F15C08029A5C3701330EF1200E50
:100720001432082B019302927FF4F6AE194B01228A
:1007300083F83620A6E65D1B33F8024C6A100C40A5
:10074000551C154A82FB05B2A2EBE5720125012A70
:10075000B8BF012296409444013A05FA02F21D46C0
:1007600016434AE704334DE706334BE702331AE7F3
:10077000FC100020581900241F85EB51CDCCCCCCA7
:1007800008000020ABAAAAAAD8E10908C7FFFF7F8A
:10079000A067090804100020565555550400002094
:1007A000DEF81830D3F8F430BFF34F8F03F59072B2
:1007B0000E49C1F85C3220339342F9D1BFF34F8F19
:1007C000BFF36F8FDEF81840D4F8F400BFE60433AF
:1007D000E9E60633E7E6002005B0BDE8F08F8023A8
:1007E000029A93776AE78BB259E700BF00ED00E009
:1007F00010B5044655F076F90146204689B2BDE8A9
:10080000104023E42DE9F843394B1A785B789A427B
:1008100067D1384F4FF0000C374E38463D1FD5F8A2
:10082000443C634517DDBCF1000F44DD81693B4664
:100830000022D1F8AC4099692033D1F8AC108C4239
:1008400008BF01228342F6D1AAB30CF1010C20307B
:10085000BCF1080FE3D1DFF8A88058F8C06C002E77
:1008600012DD00242F78A8F1BC00A146013417B195
:10087000037F012B30D04269B44200F586701368C3
:1008800043F001031360F1D113F0F4FED8F8744380
:10089000C5F84C0C002C0CDD184B03EBC404196894
:1008A000083333F8042CC868A34242EA0002CA6045
:1008B000F5D1BDE8F8838369D3F8AC30BFF34F8F2F
:1008C00003F1E002C6F8683220339342FAD1BFF355
:1008D0004F8FBFF36F8FB8E780F8FC90FFF76CFC89
:1008E000C9E74EF06FFF002893D1BDE8F88300BF41
:1008F000581900240800002000ED00E074140020C6
:10090000FC100020F0B50446D0F85C016F4B83B0BA
:10091000A16804F596720E68C1B220F0FF00019242
:100920001039A3FB0131090951F0BCFDD4F81C11A9
:100930000023019A012984F820311CD004291AD0FF
:10094000102900F0AE80402915D0B1F5807F00F06D
:10095000AB80B1F5806F00F0A780B1F5805F00F04B
:10096000AB80B1F5803F4FF03C030CBF6FF0080740
:100970006FF4006701E06FF0080706F118053046D4
:10098000E9583940E950D4F81C1152F093FBD4F8DF
:100990001C31012B18D0042B16D0102B11D0402B5A
:1009A00012D0B3F5807F00F08380B3F5806F7FD0E5
:1009B000B3F5805F00F08480B3F5803F06F1540505
:1009C00002D04FF4006200E008222B684026D4F8E1
:1009D0005C011343C2B220F0FF012B60103A3B4B85
:1009E000C4F8E860A3FB0232394BD4F80C51120969
:1009F00013F802C0D4E93B365CF801703343354E3E
:100A00003E403343D4F8F4603343D4F8F8603343C2
:100A1000D4F8FC603343D4F80861334343F0400317
:100A20004CF801300CEB0103D5B15E6926F0070EDE
:100A3000D4F810613543D4F8146145EA0E055D61C0
:100A40005CF8015025F0C0753543D4F818614CF8B6
:100A500001505CF8015025F4C00535434CF80150B5
:100A6000D4F8E450DD60D4F8E0509D601A4D5E6823
:100A70003540D4F80061D4F8044135435D60174B2C
:100A80001344174A9B00914218BF20331A6822F082
:100A9000FF0222431A60036843F01003036003B0AF
:100AA000F0BD6FF4006768E76FF00807042364E7A0
:100AB00006F11C05082288E76FF4006704235CE751
:100AC00006F11C054FF400627FE700BFABAAAAAA9B
:100AD000D8E109081F80FCFF0000FFFF0082001022
:100AE000000002402DE9F04FDFF844B185B09BF8DB
:100AF000004024B90124204605B0BDE8F08F464BE4
:100B0000D3F88C5013F0B6FD444991F8AC2A002A72
:100B100000F0BA81424B0BF545670BF58274002655
:100B2000A3FB05233F4D5B09A5FB0325ED0805EB62
:100B30008505A3EB4505D1F8B43AC31A0193EBB28E
:100B400007EB850502930BF573630093019A002A66
:100B500004DBD4F82431934200F37A814FF4B47368
:100B600003FB06B393F82432002B00F0BE80D4F8C8
:100B70005C11A3682C481A68CBB221F0FF01103B2E
:100B8000A0FB030329481B09C35C19444B68A189D6
:100B90001FFA83FED368CEF1160E23EA0103BEF1DD
:100BA000070FD36040F2A180DBF8383F002201211B
:100BB000013390468A46CBF8383FD4F864319C46DE
:100BC00003935CF8049B48461DE0DCF80090B8F104
:100BD000140FA9EB000348462CDC13F1080948BFA9
:100BE00003F117094FEA291308EB291803F1FF391C
:100BF000013102FA03F30CF1040C0AFA09F28E45F2
:100C000042EA030216D38E45DFD8C8F11503DCF89B
:100C100000004FF01508E9E758190024FC100020E7
:100C20001F85EB51CDCCCCCCABAAAAAAD8E1090840
:100C300004000020B8F1150F40F001819749C2F37C
:100C40008423C2F3441001EB830301EB8000D3F84B
:100C50008030D0F880001B0243EA001302F01F002E
:100C6000C2F3C43201EB800001EB8202D0F88010A5
:100C7000D2F880200B4343EA023383EA132282EA4C
:100C8000121202F00F020F2A40F0D980C3F30F13A3
:100C90004FF6FF72934200F0D280B3F5606F00F020
:100CA000DC80009A938197F85820029882420CD0F9
:100CB000A9683A68521A3A607A68296B521A7A60BF
:100CC0000022AA602A6387F858003A6801323A6025
:100CD000AA680132AA604FF6FF72934205D17B6881
:100CE00001337B602B6B01332B63009B2046013665
:100CF0005C3714335C3504F5B4740093FFF702FEDF
:100D0000674B93F8AC3AB3423FF720AF654A0121F5
:100D100082F8361000226249C1F8B42A002B3FF451
:100D2000E9AE9BF8DC21DBF8200212F0020FDBF8C1
:100D30000C2111680A6A0CBF024342EA8002012BAF
:100D40000A623FF4D7AE9BF84423DBF8880312F025
:100D5000020FDBF8742211680A6A0CBF024342EAF0
:100D60008002022B0A623FF4C5AE9BF8AC24DBF88C
:100D7000F00412F0020FDBF8DC2311680A6A0CBFE2
:100D8000024342EA8002032B0A623FF4B3AE9BF8AF
:100D90001426DBF8580612F0020FDBF84425116820
:100DA0000A6A0CBF024342EA8002042B0A623FF443
:100DB000A1AE9BF87C27DBF8C00712F0020FDBF82E
:100DC000AC2611680A6A0CBF024342EA8002052B76
:100DD0000A623FF48FAE9BF8E428DBF8280912F092
:100DE000020FDBF8142811680A6A0CBF024342EABA
:100DF0008002062B0A623FF47DAE9BF84C2ADBF89A
:100E0000900A12F0020FDBF87C2911680A6A0CBF05
:100E1000024342EA8002082B0A627FF46BAE9BF821
:100E2000B43BDBF8F81B13F0020FDBF8E43A1A6866
:100E3000136A14BF43EA81030B4313625AE6DBF8DB
:100E4000343F0133CBF8343FB6B14FF6FF732AE796
:100E50000024204605B0BDE8F08F13494A7802EB24
:100E6000420201EBC2023244527C0D2A7FF419AFD8
:100E7000802200998A7716E7039958220B4855F08B
:100E8000AFFA4FF6FF730EE70BF5805301210448CC
:100E900083F83610C0F8B42A2DE600BFA067090811
:100EA000FC1000200410002058190024E00F00203E
:100EB00008B503681A78012A06D006230B4A0021D8
:100EC00052F016FE012008BD93F904206421084B5E
:100ED00001FB023393F83921202A01D0002008BDFC
:100EE000D3F8F8309B691B04F8D4E6E7BC1900245A
:100EF0005819002410B5124C237843B10C30062346
:100F0000104A282152F0F4FD0020207010BD0E4A36
:100F10000120B2F97032002BB8BF03339B100B8055
:100F2000B2F97232002BB8BF03339B104B80B2F979
:100F30007432002BB8BF03339B108B80E5E700BFF2
:100F400000000024C81B00245819002410B50D4CC3
:100F5000637843B10C3006230B4A032152F0C8FDDD
:100F60000020607010BD094B0120B3F8762252BA00
:100F70000A80B3F8782252BA8A80B3F87A325BBA20
:100F80004B80EEE700000024CE1B002458190024FB
:100F900010B5174C0C3094F87C32012B0CD0022B7E
:100FA00017D0012304F27D22062152F0A1FD012376
:100FB000002084F87C3210BD94F87D3213F00403D5
:100FC000F6D0062304F27E22002152F091FD022386
:100FD000EEE7B4F87E3201200B80B4F880324B800B
:100FE000B4F882328B80002384F87C32E3E700BFC0
:100FF0005819002410B500F10C04C06852F064FDCB
:1010000000222121204611F0B7FAFC22202120469F
:1010100011F0B2FA40222421204611F0ADFA0C2240
:101020002321204611F0A8FA00222221204611F0A7
:10103000A3FA642015F056FA012010BD37B500F16F
:101040000C05044670220021284611F095FA202252
:101050000121284611F090FA00220221284611F0C1
:101060008BFA642015F03EFA94F8F40088B112F07F
:101070006BFF08B12823C3802146074B019041F83C
:10108000083F4DF061FA019812F056FC019812F0F9
:1010900053FC012003B030BDAD03040810B500F1CE
:1010A0000C04C06852F010FD01220B21204611F003
:1010B00063FA20B11D220921204611F05DFA00F0EB
:1010C000010010BD37B500F10C040546C06852F0B0
:1010D000FBFC00220A21204611F04EFA0F220A21C1
:1010E000204611F049FA01AA03231021204611F0ED
:1010F000EFF89DF8043000220A2180332046A5F83D
:10110000F6309DF805308033A5F8F8309DF80630AC
:101110008033A5F8FA3011F02FFA0DF10302012304
:101120000221204611F0D4F801230DF10302092118
:10113000204611F0CDF811220A21204611F01CFAA8
:10114000012003B030BD2DE9FF41C36804460E46BF
:101150001B78013B012B04D90025284604B0BDE8CB
:10116000F08100F10C070DF10702022138464DF025
:1011700039FB0028F0D09DF80730DB07ECD50723BA
:1011800002AA0321384611F0A3F89DF80E80054607
:101190000028E1D011220A21384611F0EDF918F0AB
:1011A000080FD9D1B4F9F61002A8FFF7E6F830809D
:1011B0000DF10A00B4F9F810FFF7DFF8708003A80A
:1011C000B4F9FA10FFF7D9F8B080C6E737B500F1E7
:1011D0000C040546C06852F077FC00220A21204624
:1011E00011F0CAF9142015F07DF90F220A212046CA
:1011F00011F0C2F90A2015F075F901AA0323102194
:10120000204611F065F80A2015F06CF99DF80430BD
:1012100000220A2180332046A5F8F6309DF80530DB
:101220008033A5F8F8309DF806308033A5F8FA3001
:1012300011F0A2F90A2015F055F90DF1030202216F
:1012400020464DF0CFFA0DF10302092120464DF062
:10125000C9FA11220A21204611F08EF9012003B0AB
:1012600030BD2DE9F3416F4C02460D460C3094F829
:101270008432013B032B03D8DFE803F00C1D24BAB2
:101280000123694A022152F033FC0123002084F833
:10129000843206E094F88532DA0705D4002084F819
:1012A000840202B0BDE8F0810623604A032152F0B7
:1012B0001FFC0223EAE701235B4A092152F018FCD4
:1012C0000323E3E7D3681978012910D0022905D157
:1012D0001B6A1BB911220A2111F0F4F894F8850257
:1012E00010F00C00DAD1042384F88432D9E71120FD
:1012F00084F88C0293F90400431CEFD00328EDDC42
:10130000642303FB0043D3F8F850002DE6D093F894
:101310003961202EE2D1AD6915F40045DED193F894
:101320003861012EDAD092F810802122D4F890C2D0
:1013300083F83921402283F8381183F83A213C4A56
:10134000C3F83C51C3F81C213A4AA3F82211C3F850
:101350002421394AC3F82C21B3F8222192B2FF2A62
:1013600020D8B3F822214FF0007792B264234FEADD
:1013700048085843414619232618A6F820210A2276
:10138000CDF800C0DFF8C4C060444EF00DF868B17D
:10139000002386F83831B4F8943201339BB2A4F8B4
:1013A00094329BE7FF224FF08077DFE7D6F8F820F2
:1013B00096F82011536823F07F7323F4583323F4F5
:1013C0007F7323F0030343EA080343EA01431B4905
:1013D0003B435360D6F82C3186F838018B4203D05A
:1013E00017498B4218BFF22513681D43156075E736
:1013F000B2F9F6100D48FEF7C0FF404228801148B0
:10140000B2F9F810FEF7B9FF404268800E48B2F911
:10141000FA10FEF7B2FF0023404284F88432A8801D
:1014200001203EE758190024DD1B0024DE1B0024A8
:10143000E41B00240000FFFFD1690808456B080881
:10144000F16E0808E01B0024E21B0024501A00245F
:1014500008B590F82830012B01D0012008BD406A62
:1014600052F006FBC04300F0010008BD38B50C4D3A
:10147000044694F82830012B03D000230120236276
:1014800038BD606A52F0F4FAC04310F00100F4D1A4
:10149000D5F88C30226A9B1A002BEADB38BD00BFDE
:1014A0005819002438B51C4D044690F82810FF2226
:1014B000406A52F01DFED5F88C3003F5FA732362B2
:1014C00094F82830012B04D00022012B22620FD087
:1014D00038BD606A52F0CCFAC30719D5D5F88C3004
:1014E000226A9B1A002BEBDB94F82830012BEFD1FA
:1014F0000022A021606A52F0D5FD94F82830012B1B
:10150000E6D1606A1822B021BDE8384052F0CABD69
:1015100094F82830D8E700BF58190024CB0700D52D
:101520007047BFE72DE9F043614D91B004460F4687
:10153000164694F8281001292CD000232362062295
:10154000606A52F0D5FD0123637795F89632002B3F
:101550003FD1D7F80090D5F89882376894F82830B2
:10156000012B26D00022012B22626FD0D5F88C30BF
:101570000122023385F89622E26A2362D5F8983276
:1015800030680344C5F898320AB19047306811B00A
:10159000BDE8F083606A52F06BFAC10740F18480C5
:1015A000D5F88C30226A9B1A002BC2DB94F82810E5
:1015B000C5E7606A52F05CFAC20772D5D5F88C3084
:1015C000226A9B1A002BC9DB94F82830012BCDD15D
:1015D0003CE0D5F89832D7F800808DF80230C3F39C
:1015E000022337688DF8013084238DF8003094F899
:1015F0002830012B1AD00022012B2262B6D18DF89F
:10160000243001A98DF8383000230897CDF81880D0
:10161000676A02938DF81030059307930F93CDF806
:1016200004D0CDE90A33CDE90C332EE0606A52F0E4
:101630001FFAC30732D5D5F88C30226A9B1A002BCB
:10164000D5DB94F82830012B90D1D8E78DF82430E1
:1016500001A98DF83830002308978DF80280C8F36F
:10166000022802938DF81030059307930F93676A51
:10167000CDF818908DF80180CDF804D0CDE90A336B
:10168000CDE90C3302238DF8003003233846039351
:1016900010F0E6FE386852F0E7F967E794F8283072
:1016A000A9E794F828305DE794F8281045E700BFD3
:1016B0005819002433B910B51C46C36A2046984710
:1016C000204610BD2EE700BF70B5194D04460E46EA
:1016D00094F82810012910D0002323620622606AA2
:1016E00052F006FD012294F828306277934212D01E
:1016F000D5F88C300F33236270BD606A52F0B8F9B0
:10170000C30712D5D5F88C30226A9B1A002BDFDB79
:1017100094F82810E2E7F20AD821606A52F09EFCA1
:10172000D5F88C300F33236270BD94F82810D3E7BE
:10173000581900248388002B5BD02DE9F04F002638
:101740008DB004462D4D4FF006084FF00109374685
:1017500094F828A0BAF1010F14D0BAF1010FD4F80F
:1017600024B027628DF8078020D084F81D90D5F82A
:101770008C300136A2880F33B2422362E8D80DB014
:10178000BDE8F08F606A52F073F9C30732D5D5F81F
:101790008C30226A9B1A002BDADB94F828A0D4F84C
:1017A00024B0BAF1010F8DF80780DED10DF10703E7
:1017B00002A958468DF814A002938DF828A00B9723
:1017C000CDE9037ACDE90677CDE9087710F048FE38
:1017D000DBF8000052F048F994F8283084F81DA096
:1017E000012BC4D17204D821606AD20A52F036FCAF
:1017F000BDE7704794F828A0AFE700BF5819002450
:1018000070B51D4D95F8963223B1D5F89832C3F3D3
:101810000A0303B170BDD5F89C620446174BF60A63
:101820005E6094F82830012B0FD000222262012B39
:1018300019D0D5F88C300021D5F89822023385F8DC
:101840009612C5F89C22236270BD606A52F010F9AE
:10185000C3070ED5D5F88C30226A9B1A002BE0DB2B
:1018600094F82830E3E732461021606A52F0F6FB24
:10187000DFE794F82830D8E7581900240000002446
:1018800070B52B4DC26295F8963223B1D5F89832D7
:101890008B4203D170BDC5E9A61170BD044694F812
:1018A0002810012929D0002323620622606A52F001
:1018B0001FFC0123D5F89C62637794F82830012B34
:1018C0000BD00022012B226225D0D5F88C300022CB
:1018D000023385F89622236270BD606A52F0C8F820
:1018E000C3071ED5D5F88C30226A9B1A002BE4DB87
:1018F00094F82830012BE8D10DE0606A52F0B8F876
:10190000C20711D5D5F88C30226A9B1A002BC6DB92
:1019100094F82810C9E7F20A1021606A52F09EFB81
:10192000D3E794F82830CCE794F82810BBE700BF41
:101930005819002410B582B004460192049A00930D
:10194000FFF79EFF6A4601A92046FFF7EBFD204600
:10195000FFF756FF02B010BD70B5194D95F89632DD
:1019600003B970BDD5F89C620446164BF60A5E605A
:1019700094F82830012B0BD000222262012B15D0C5
:10198000D5F88C300022023385F89622236270BD90
:10199000606A52F06DF8C3070ED5D5F88C30226A14
:1019A0009B1A002BE4DB94F82830E7E7324610213D
:1019B000606A52F053FBE3E794F82830DCE700BF9D
:1019C00058190024000000242DE9F047DFF8849125
:1019D0001F4690B00E46D9F8043004469046B3EB4B
:1019E000D12F39D190F828C0594DC6F30A06C6F553
:1019F0000069B94534BF1FFA89F91FFA87F9BCF1AC
:101A0000010F4FD0D5F88C3002332362BCF1010FA7
:101A100005D000232362484610B0BDE8F087606A15
:101A200052F026F8C3077AD5D5F88C30226A9B1A73
:101A3000002B0DDA94F828C0E8E7606A52F018F835
:101A4000C10759D5D5F88C30226A9B1A002B06DBCA
:101A5000002010B0BDE8F0874FEAD12A3C4D94F841
:101A600028C0BCF1010FE8D04FF0FF33C9F80430B3
:101A7000D5F88C3002332362BCF1010F04D000236F
:101A8000C9F804A02362B0E7606A51F0F1FFC20711
:101A90005AD5D5F88C30226A9B1A002BD8DA94F8E4
:101AA00028C0E9E700238DF80260360A01A98DF805
:101AB000033002938DF810300F938DF80160666A41
:101AC0008DF824C030468DF838C0CDF804D0CDE96B
:101AD0000533CDE90A33CDE90C3303238DF800300B
:101AE0000423CDE90787039310F0BAFC306851F066
:101AF000BBFF94F828C085E7002394F828C0236230
:101B0000BCF1010F4FF0FF33C9F80430B0D1524699
:101B10001321606A52F0A2FA94F828C0A8E794F85A
:101B200028300022012B22627FF475AF606A51F0E9
:101B30009FFFC0F30110431E022B3FF66CAF2046FF
:101B4000FFF7B0FC484667E794F828C097E700BF66
:101B50005819002400000024014B43F8201070475E
:101B600050400058014B53F8200070475040005837
:101B7000BFF34F8F0549064BCA6802F4E062134376
:101B8000CB60BFF34F8F00BFFDE700BF00ED00E06B
:101B90000400FA052DE9F043BDB0BFF35F8FA24A00
:101BA0000020516A0346044621F480315162014607
:101BB000C2F89400C2F898300133C2F89C10112B7F
:101BC000C2F8A010F6D10523C2F89430536A43F44A
:101BD00080335362BFF34F8FBFF36F8F9348944AA4
:101BE0009449121A54F0FCFB9348944A9449121AEF
:101BF00054F0F6FB934AD368042B00F0FC8005D820
:101C0000012B00F07C83022B00F07283864A0023B4
:101C10008D4C0120D2F888108C4E41F470018C4D0F
:101C2000C2F8881020602361216841F080012160A2
:101C3000216801432160216841F4803121602168DD
:101C400041F480512160A361E3612362A362E362F6
:101C500023636363A363E36323646364216821F400
:101C6000802121607B492366C1F808014FF00061A3
:101C70004FF6FF00784B9160D16801400B43D36071
:101C800042F03CFFA36902460F20C3F30323A1697E
:101C9000334493F8003103F01F0322FA03F32B635C
:101CA00043F08CFC6D4AD36813F0040FD36840F006
:101CB000A4806B4B0021694A0391D96A21F001018C
:101CC000D962DB6A03F001030393936943F4404351
:101CD0009361936903F440430393039B93699B04CB
:101CE000FCD54C2200210DA85E4C54F0EDFB5E4A61
:101CF00042F203031268B3EB124F4FF00003079355
:101D000004F1140318BF1C46E268002A4FD0544B5C
:101D10005249D86A20F00100D862DB6A03F001035F
:101D200007938B6923F4404313438B618B6903F45E
:101D300040430793079B494A93699F04FCD5424B54
:101D40004FF4403149484FF00108D3F8E020002714
:101D500042F08002C3F8E020D3F8E03003F08003C3
:101D60000693069B0323816108A908930B93CDE991
:101D7000098743F0DDFA02230DA8CDF834801E97C1
:101D8000CDE91633A3781893A3881993A3791A93EE
:101D9000E3791B93237A1C9323691D934FF48033BB
:101DA0000E9342F0EDFB03283BD098B1FEE72B4A9F
:101DB0002B4B916941F440419161926902F4404298
:101DC0000792DA6A42F00102DA62DB6A03F0010389
:101DD0000793AFE7264B1A6812F00E0F4CD11A6822
:101DE00022F00F0242F002021A601B6803F00F0398
:101DF000022B41D0FEE7D46008E723F007031D4C17
:101E000043F00203D360D4F8901206E0D4F8903285
:101E10005B1AB3F57A7F3FF64CAF53689804F5D55B
:101E200047E772B6FFF7A4FE00ED00E000000000F7
:101E300050370000646B0A080000002004000020F6
:101E4000EDC50A085040005800440258A067090830
:101E500000000024008000510003FA0500480258E9
:101E600000040058080000240010005C001C025808
:101E700000200052581900246D4A936903F0700342
:101E80003F2B05D8936923F0700343F0400393611F
:101E9000674AD36903F070033F2B05D8D36923F059
:101EA000700343F04003D361614AD36903F4E063F4
:101EB000B3F5806F05D2D36923F4E06343F4806304
:101EC000D3615B4A136A03F070033F2B05D8136A92
:101ED00023F0700343F040031362554B9A691407D3
:101EE00005D49A6922F00F0242F008029A61504A22
:101EF000936923F470639361136898017FF57AAF57
:101F0000136941F288304B4C23F0070343F003037D
:101F10001361D4F8901205E0D4F890325B1A834232
:101F200000F29E81136903F03803182BF4D19369F2
:101F300003F00F03082B05D9936923F00F0343F037
:101F4000080393613C4A136803F00F03022B0BD97B
:101F5000136823F00F0343F002031360136803F0C8
:101F60000F03022B7FF446AF314A936903F07003ED
:101F7000402B05D9936923F0700343F0400393612C
:101F80002B4AD36903F07003402B05D9D36923F0A2
:101F9000700343F04003D361254AD36903F4E0633F
:101FA000B3F5806F05D9D36923F4E06343F480630C
:101FB000D3611F4A136A03F07003402B00F248817B
:101FC0001B4F42F09BFD0346686BBA69B969C2F3C7
:101FD0000322164496F8002102F01F02D3402B631F
:101FE00043F0ECFA002840F03C8110231490169046
:101FF0000DA80D9342F0C4FA002840F028813B68F8
:102000000E4943F080033B60D7F8F43043F00203FD
:10201000C7F8F430D7F8F43003F002030293029BC0
:102020000A6A074B42F001020A62D4F890120CE0EF
:10203000004402585819002400200052000400589F
:1020400000E20400013B3FF4ECAED4F89022914250
:10205000F8D0D4F89022D4F890329B1A0A2BFAD9EF
:102060004FF48023B14C0DA84FF000080D934FF4AE
:102070004013032602272E9350F012FBD4F8EC30C5
:102080000DA843F00203C4F8EC30D4F8EC3003F0B0
:1020900002030193019BD4F8943043F00203C4F887
:1020A0009430D4F8943023F00203C4F89430A04B59
:1020B0001A6841F20303B3EB124F9E4B9E4A38BF9E
:1020C0001A469E4B5A601A6822F47C5242F400521F
:1020D0001A601A6842F060021A600D96CDE92A88EB
:1020E00050F0DEFA4FF4E0430DA8CDF8E0800D93F8
:1020F000CDE9248850F0D4FA18230DA8CDF8B48087
:102100000D93CDF8C88050F0CBFA4FF400230DA802
:102110000D934FF40033359350F0C2FAD4F8E03009
:1021200008A9874843F00103C4F8E030D4F8E03050
:10213000CDF8308003F001030593059B4FF48073C5
:10214000CDE90A86CDE9083743F0F2F8236908A9FA
:102150007C4823F0FE7343F088732361D4F8E030A9
:1021600043F00403C4F8E030D4F8E030099703F0FA
:1021700004030B96CDF8288004934FF40073049A5F
:102180000893CDF8308043F0D3F8236923F07E43E1
:1021900043F0FC43236142F0B1FC6B4B6B4A414678
:1021A00028631846D21A54F08FF96948694A6A4977
:1021B000121A54F015F9BFF35F8F684D4646684C0C
:1021C00001276B6A23F480336B62C5F8948023E0A7
:1021D000002A44D0D4F80080637A103414F8061C26
:1021E0001B0643EA017343EA420314F8052C43EA51
:1021F000824314F8042C43EA424314F8032CC5F834
:102200009860013643EA0243C5F89C80032E43F0F0
:102210000103C5F8A03025D06368227A002BD7D0FF
:10222000D4F80080002AD7D128F01F09A3EB0903B6
:10223000202B38BF20231846994654F0CBF8431E74
:1022400007FA03F2914518BF0346DAB2C4E7FEE786
:10225000136A23F0700343F040031362B0E6FEE715
:10226000C8E5C7E50523C5F894306B6A43F48033AD
:102270006B62BFF34F8FBFF36F8FBFF34F8FBFF30F
:102280006F8F0022C5F85022BFF34F8FBFF36F8FBF
:102290006B6943F400336B61BFF34F8FBFF36F8FF4
:1022A000C5F88420BFF34F8FD5F8805043F6E07611
:1022B0002A49C5F34E34C5F3C905640104EA060092
:1022C0002B4640EA8372013BC1F86022F9D2203CE0
:1022D00014F1200FF2D1BFF34F8F4B6943F48033D9
:1022E0004B61BFF34F8FBFF36F8F3DB0BDE8F083FD
:1022F00004210320FFF730FC72B6FFF739FC0220FF
:102300000A4B1849D060D3F8F4200243C3F8F420F4
:10231000D3F8F43003400D930D9AD1F8003883F3CD
:102320000888D1F804389847FEE700BF00440258F7
:102330000010005C7FBB22307FBB22000084004085
:10234000000002580008025860DF0024E0DF00248B
:1023500060DD002460DF0024F1C50A0800ED00E024
:10236000380000240090F01F30B5264C4FF6FF00D7
:10237000254A85B0E168254B0140254D0A43E260BE
:10238000D3F8D020D3F8DC2042F00052C3F8DC2090
:10239000D3F8DC2002F000520192019AD3F8DC203D
:1023A00042F08042C3F8DC20D3F8DC2002F0804207
:1023B0000292029AD3F8DC2042F00042C3F8DC20FB
:1023C000D3F8DC3003F000430393039B42F096FB09
:1023D000D4F8FC200F4B42F080720F49C4F8FC2067
:1023E000A5FB00200D4C4FF06042800CC2F8B04FAE
:1023F0000022C1F8A0025A601A6842F001021A6075
:1024000005B030BD00ED00E00005FA0500440258BB
:1024100083DE1B43001000E05819002455CEACC5E4
:1024200008B51D480023C0F88430BFF34F8F4369BF
:1024300023F480334361BFF34F8FD0F8803043F6ED
:10244000E074C3F34E3CC3F3C90E4FEA4C1C0CEAD4
:102450000401734641EA8372013BC0F874225A1C9E
:10246000F8D1ACF1200C1CF1200FF0D1BFF34F8F4D
:10247000BFF36F8FBFF34F8FBFF36F8F436900229E
:1024800023F400334361C0F85022BFF34F8FBFF3F2
:102490006F8F72B6FFF76CFB00ED00E0800AA0F5CD
:1024A0008010522808D8054B184490F810310D2B95
:1024B00002D8034AD056704700207047A067090829
:1024C000F8E1090803689B0AA3F58013522B5BD837
:1024D000F0B4414C234493F810410D2C52D840796C
:1024E0008608002955D04FEA900C4C253B4804EB58
:1024F000840305FB040504EB4303D5F8A47202250D
:10250000334405FA0CFCFD6800EB83064CEA050534
:10251000C6F81C17C6F82C27FD60EFF31185502371
:1025200083F312882C2304FB03F3C118D1F8182776
:102530005AB3131DC1F83C27294A2C21294E04FB0C
:1025400001F106EB010C14310A4452F8041B19B1D5
:10255000196052F8043C04339445F6D10022EDB2E0
:102560001A6085F311882C2303FB0403D3F83C374E
:1025700043B34C2303FB0400D0F8A422D36843F0F8
:102580000103D360F0BC70477047154A24331344ED
:10259000D3E712484C23022503FB040305FA06FC8B
:1025A000D3F8A47204EB8403FD6804EB430325EA2B
:1025B0000C053344FD6000EB8305C5F81C17C5F816
:1025C0002C27AAE74C2303FB0400D0F8A422D368ED
:1025D00023F00103D360D5E7A06709085819002448
:1025E000702000249420002403689B0AA3F5801324
:1025F000522B00D97047154A134493F810310D2B14
:10260000F8D84FF04C0C10B4114C79B94179022232
:102610000CFB03405DF8044B21FA02F3D0F8A4123E
:102620009A40CB6823EA0203CB60704741790222CB
:102630000CFB03405DF8044B21FA02F3D0F8A4121E
:1026400002FA03F3CA681343CB607047A067090816
:102650005819002403689B0AA3F58013522B12D843
:10266000094A134493F810210D2A0CD8407902230B
:1026700006494FF04C0CD8400CFB02128340D2F8B4
:10268000A422DB4313617047A0670908581900248E
:1026900001490248FDF78EBE702000240000014071
:1026A00001490248FDF786BE702000240000014069
:1026B00002494FF08040FDF77DBE00BF9C20002402
:1026C00001490248FDF776BEC820002400040040FE
:1026D00001490248FDF76EBEF420002400080040C6
:1026E00001490248FDF766BE20210024000C00408D
:1026F0002DE9F843194E3569F3681D4010D04FF0AD
:102700000047DFF85C80B5FA85F227FA02F31F2A4A
:102710006FEA030305EA0305336103D0002DF2D10C
:10272000BDE8F883D8F81C38A3B103F1FF390023C2
:102730001FFA89F9C8F81C38D8F81848002CEDD0D1
:1027400023682046494698476468002CF8D1002D3C
:10275000D9D1E5E7F16A1FFA81F9EDE700100040F1
:102760005819002401490248FDF724BEA421002481
:102770000004014010B5064C064804F64C01FDF774
:1027800019FE04F6A4010448BDE81040FDF712BE8E
:102790005819002400040140001C0040014902486F
:1027A000FDF708BED021002400180040014902486E
:1027B000FDF700BE28220024002000400149024805
:1027C000FDF7F8BD542200240040014001490248B1
:1027D000FDF7F0BD80220024004401400149024879
:1027E000FDF7E8BDAC220024004801402DE9F04788
:1027F0004FF425728EB000218A4853F065FE8A4B53
:102800008A4F4FF08041D3F8F02007F12004B946F9
:1028100042F0010207F53065A246DFF81882C3F8DE
:10282000F02007F52E66D3F8F02002F001020092A6
:10283000009AD3F8E82042F00102C3F8E820D3F868
:10284000E82002F001020192019AD3F8E82042F058
:102850000202C3F8E820D3F8E82002F00202029254
:10286000029AD3F8E82042F00402C3F8E820D3F833
:10287000E82002F004020392039AD3F8E82042F021
:102880000802C3F8E820D3F8E82002F00802049216
:10289000049AD3F8E82042F01002C3F8E820D3F8F5
:1028A000E82002F010020592059AD3F8E82042F0E1
:1028B0002002C3F8E820D3F8E82002F020020692B4
:1028C000069AD3F8F02042F00202C3F8F020D3F8C1
:1028D000F02002F002020792079AD3F8E82042F0B3
:1028E0004002C3F8E820D3F8E82002F04002089242
:1028F000089AD3F8E82042F08002C3F8E820D3F821
:10290000E82002F080020992099AD3F8E82042F404
:102910008072C3F8E820D3F8E82002F480720A92AB
:102920000A9AD3F8F02042F48032C3F8F020D3F8AA
:10293000F02002F480320B920B9AD3F8F02042F48C
:102940000032C3F8F020D3F8F02002F400320C92E9
:102950000C9AD3F8F02042F48022C3F8F020D3F888
:10296000F03003F480230D930D9B4246002301E0D9
:1029700056F833208A420CD00133112BF8D10AF1DA
:10298000200A00204CF0BEFF55450DD05AF8201CFF
:10299000EBE7274A0AF1200A02EBC303B3F8480C1D
:1029A0004CF0B0FF5545F1D107F52E6709F120092C
:1029B0004F4512D099F80630002BF7D099F8040053
:1029C00011F0C2FA02210028F0D099F8082009F18C
:1029D000200911F04DF94F45ECD14FF08041154FD2
:1029E000154E3A46002301E056F833208A420BD0B8
:1029F0000133112BF8D1203400204CF083FFAC427E
:102A00000CD054F8201CECE7094A203402EBC30335
:102A1000B3F8480C4CF076FFAC42F2D10EB0BDE8F2
:102A2000F08700BF702000240044025804690908A0
:102A3000A067090800000140E4730908704700BF5F
:102A40001F4B984210B50ED003F5806398420AD010
:102A50001C4A03F58043984218BF904203D003F507
:102A6000806398421BD142F06BF8174B1749DC6921
:102A7000DA69C4F3022CC2F3022201EB0C0393F8CF
:102A8000003103F01F03D8400F4B11491B69C3F3FA
:102A9000C03342EAC303CB5C03FB00F010BD42F03D
:102AA0004FF8094B0949DC69DA69C4F30214C2F32F
:102AB00002120B1993F8003103F01F03D840E3E72B
:102AC000000001400040014000440258A06709088E
:102AD000E4E10908830AA3F58013522B4AD82DE9B3
:102AE000F041684D84B02B4493F810610D2E3ED810
:102AF000DFF8B4814C25044605FB0685D5F8A432E1
:102B0000834234D001391746C5F8A40289B2C5F80A
:102B1000B012FFF795FF0023B0FBF7F2C5F8B4320F
:102B2000013AC5F8AC3208F52970C5F8B83206EBA1
:102B3000C603C5F8A82206EB430300EB830042F06E
:102B400039F8514B9C4216D0B4F1804F13D0A3F505
:102B50007C439C420FD003F580639C420BD003F56D
:102B600080639C4269D003F578439C4265D004B0F1
:102B7000BDE8F08170474C234FF48051002203FBE5
:102B80000683009193F8E01203920129CDE9012216
:102B9000EDD00221D3F8A402012483F8E1123B49CD
:102BA00085682940816083F8E14283F8E0224C2265
:102BB000002302FB06820293CDE9003392F8E03253
:102BC000012BD4D0D2F8A43202212F4882F8E1128E
:102BD00083425A6899682CD000F58060834228D0DF
:102BE00022F070022A485A602A4A934218BFB3F171
:102BF000804F0CBF01220022834208BF42F0010235
:102C000000F58060834208BF42F0010212B9224AF7
:102C1000934202D121F0800199604C2301210022CE
:102C200003FB068686F8E11286F8E02204B0BDE8D0
:102C3000F0811A4810405860ECE700214FF48053AF
:102C4000CDE900314C2303FB068393F8E022012AEF
:102C5000CDE902118BD0D3F8A402022283F8E1223D
:102C60000A4A85682A4082600D4A83F8E0120121F1
:102C7000944283F8E1129AD00A4B9C427FF477AFDA
:102C800095E700BFA0670908000001408800CEFF5B
:102C90000008004000040040001800408FFF0FFFB4
:102CA000000C0040000401405819002470B504468F
:102CB0000068830AA3F58013522B05D82C4D2B44B2
:102CC00093F810610D2E00D970BDFFF703FF294B5B
:102CD0004C2202FB063696F8E132012B13D0216814
:102CE0000023254A254801E050F8332091421CD0AA
:102CF0000133112BF8D1012100204BF043FD204B73
:102D000001221A6070BD0223D6F8A42286F8E132AF
:102D10001C4B91680B40062BE1D0B3F5803FDED011
:102D2000136843F001031360D9E705EBC3030121E6
:102D3000134D93F84A4C20464BF024FD04F01F033A
:102D4000012162091B2C01FA03F345F8223006D158
:102D500019204BF017FD4FF000732B6070BD2E2C27
:102D6000B2D12C204BF00EFD4FF480536B6070BD40
:102D7000A06709085819002400000140E4730908FD
:102D800000E100E007000100D0F850112422F8B55E
:102D9000C0F8D02104460A680023806804F5A875AD
:102DA00022F001020A600B604B608B6094F805C052
:102DB000C4F8D83184F8CC31C4F8D031C4F86831C3
:102DC000C4F8D431C4F87031C4F864314FEA8C23AC
:102DD000B44A03F48053C4F854019142C4F8583102
:102DE0004FEA0C3303F40053C4F85C314FEA0C2370
:102DF00003F48063C4F8603100F0AE81237913F0EE
:102E0000010002D00422C4F8642113F0020305D0AB
:102E1000D4F8642142F00802C4F864211CF0010FC8
:102E20000DD048B1D4F8782142F00202C4F87821DC
:102E30004FF48032C4F88021002B40F081819A4BFE
:102E400003F12C0053F8042B944200F03F81984288
:102E5000F8D11CF0080F40F04F81D4F8D031002B8E
:102E600000F0988124232846C4F8D0310B6823F061
:102E700001030B6046F024FE012815D0D4F8783108
:102E8000002B40F08D81D4F8503128465A6822F446
:102E900090425A609A6822F02A029A601A6842F0B8
:102EA00001021A604EF00CF92379DA076DD5D4F8D7
:102EB0002C21002A00F05B810023D4F8341104F1A6
:102EC0003C06E2634FF48062C4F8B8103046E26416
:102ED000C4E91133C4E91433C4E91833C4E91A331B
:102EE0004FF48033E3654FF48073A3654EF064F9CB
:102EF000304643F067F8D4F8D431C4F8C861202BC9
:102F000065673DD1E368626999B2CAB3B1FA81F0ED
:102F10004009A9B394F8CCC1BCF1010F30D02227ED
:102F2000C4F8D80194F870C0C4F8D4715F4FA4F805
:102F3000AC110121A7675E4F8C45C4F8A821E76753
:102F40005C4FC4F88C0084F8CC11C4F888700ED0A3
:102F500094F8717084F87010012FD4F8501100F0BB
:102F600027814FF4006384F87000C4F8903010217A
:102F700000222023C4F8D81184F8CC21C4F8D03121
:102F8000E26B23795268C4F844219B0740F18880A2
:102F9000D4F83021002A00F0E3800023D4F838115F
:102FA00004F1B406C4F8B420C4F8C0304022C4F818
:102FB000D0303046C4E93233C4E93633C4E938335B
:102FC0004FF48033C4F8D4304FF48063C4E92E1238
:102FD000C4F8C4304EF0F0F8304642F0F3FF002859
:102FE00040F0B980D4F8B420334B3448344982429D
:102FF00018BF9A42C4F8C461C4F8EC5000F16000F4
:103000000CBF012300232F4C8A4208BF43F0010369
:103010003031A24208BF43F0010360348A4208BF46
:1030200043F001033031824208BF43F0010300F551
:1030300068708A4208BF43F0010301F55C71A24247
:1030400008BF43F0010304F568748A4208BF43F0E7
:1030500001033031824208BF43F0010360308A42ED
:1030600008BF43F001033031A24208BF43F001031F
:103070008A4208BF43F001033031824208BF43F067
:1030800001038A4208BF43F001033BB90E4BD31A38
:10309000B3FA83F35B09002B00F0A3800023536095
:1030A000F8BD00BF000C0058BC1B0020917208083E
:1030B000C5720808C97208081000024028000240C2
:1030C0004000024058000240B8040240002C3FF487
:1030D000C0AE94F8F431002B3FF4BBAED4F8783195
:1030E0001CF0080F43F00803C4F878314FF4004394
:1030F000C4F888313FF4B1AED4F8D031002B4CD0B5
:1031000024232846C4F8D0310B6823F001030B6058
:1031100046F0D6FC01283FF4C7AED4F87831002B36
:1031200042D1D4F8503128465A6822F490425A606D
:103130009A6822F022029A609A6842F00802ACE68D
:10314000D4F8783143F00103C4F878314FF40033F8
:10315000C4F87C3173E6FEE70423C4F874314DE60D
:10316000D4F8DC21136843F080031360F8BDD4F871
:10317000DC21116841F480711160916841F0010116
:103180009160116841F020011160116841F0100157
:103190001160FAE684F8CC3164E684F8CC31AFE70C
:1031A000284646F063FF6EE6284646F05FFFB8E724
:1031B0009BB22431304643F025F900287FF4D7AE86
:1031C000D4F8503184F8CC011A6842F480721A6045
:1031D0009A6842F001029A609A6842F040029A604E
:1031E000CEE65360F8BD00BFF8B50446EFF3118595
:1031F000502383F31288D0F830311B6803F00103A9
:103200001BB1EDB285F31188F8BDD0F8D021D0F80C
:10321000D4110A4302F02102212AF2D0D0E9092177
:103220008A424FD04BD800691A46431A9BB2A26219
:10323000002284F8E021D4F8D021202AE1D1A2692B
:103240005118DED0B3FA83F25209002BD9D094F88A
:10325000CC010128D5D02120A4F8A6314FF0010CD3
:10326000C4F8D821C4F8D001D4F8C401C4F8A0111E
:10327000A4F8A43184F8CCC170B31D4E90F834E0AA
:10328000C6631C4EE645026506641B4EC6640CD040
:1032900090F83560D4F85071664580F834C015D088
:1032A0004FF4006380F8342043651021002220236E
:1032B000C4F8D81184F8CC21C4F8D031A1E7531A4E
:1032C0009BB2B4E7012380F8E0319AE707F12802C6
:1032D00043F098F80028E8D1D4F85031002240217A
:1032E000196284F8CC219A6842F080029A6088E7DB
:1032F000697208088D720808C97208082DE9F84338
:10330000404C04EB8004D4F8C04A002C3DD0D4F8E3
:10331000E4511F463C4B0646A16020462360904680
:103320006B68C4F8DC31AB6B63616B6BA361EB8FD3
:10333000E360AB8F236110F053FF6B68A88DC4F876
:10334000503100285AD194F8EA0110F0FDFD3A07F7
:10335000034694F8E8911BD538B317F0510F4FF09E
:103360000B0206F1010614BF0A211A2117F0410FC2
:10337000C671827114BF4023202394F8EB211943B6
:103380000EF0C0FED4F82C3123B32046BDE8F883FC
:1033900018F0020F09D040B10B2202218271721C79
:1033A000C27194F8EB2110F063FC484610F0CCFD9C
:1033B0000028E7D018F0010FE4D00C2201360221DA
:1033C000C671827194F8E92110F052FCD4F82C31C6
:1033D000002BDAD195F8321095F8300089094BF0BE
:1033E000D1F995F830300122084903F01F005B093C
:1033F0008240204641F82320BDE8F8834CF082FA51
:10340000A1E700BFFC1000206C74090800E100E097
:10341000F8B5AF4C04EB0017D7F8AC39002B00F02F
:10342000BD8005460601B7F8B6094CF06BFAB7F84F
:10343000B639012103F01F025B09023B01FA02F2D7
:10344000082B0FD8DFE813F004010C0114011C0154
:10345000240109002C0134013C019E4BD96F21EA63
:103460000202DA67A319013593F8B009EDB210F042
:103470006BFD10B11223C5718371A31993F8B109C3
:1034800010F062FD074610B11323C5718371A319B3
:1034900093F8B20910F058FD10B11423C57183716F
:1034A00034442E21384694F8B4290EF02BFE94F8BB
:1034B000B20910F049FD94F8B5290E210EF022FE54
:1034C00094F8B00910F040FD94F8B3292E210EF0C5
:1034D00019FED4F8AC3980491A688B4222F00102F7
:1034E0001A605CD07D4A934200F0888002F58062C9
:1034F000934272D1774AD2F8901041F40041C2F859
:103500009010D2F8901021F40041C2F89010DA68BF
:1035100042F00042DA609A6822F4F0729A601A6807
:10352000D6073BD46E499D68D1F88020D1F88840F9
:1035300044EA02000A6F10436A4A2A401043CA6FE5
:103540009860DD68C86EED0077D50243486FDE688D
:10355000B4F5800F42EA0002886F634D42EA000230
:10356000D1F8840005EA060542EA0002886E00F4FC
:10357000C02600F4006042EA060242EA0502DA6070
:103580001A6822F4006242EA00021A6002D1D1F8FD
:103590008C201A641A6D22F001021A65F8BD4D4A9A
:1035A000D2F8981041F48051C2F89810D2F89810CF
:1035B00021F48051C2F898104C4A9342A7D1454A51
:1035C000D2F89C1041F02001C2F89C10D2F89C1057
:1035D00021F02001C2F89C1099E7454A93421BD183
:1035E0003C4AD2F8981041F40051C2F89810D2F831
:1035F000981021F40051C2F8981088E7354AD2F8A3
:10360000901041F48041C2F89010D2F8901021F44B
:103610008041C2F89010CFE7364A9342CCD12D4A70
:10362000D2F8981041F48011C2F89810D2F898108E
:1036300021F48011C2F8981069E7B2F1806F84D14B
:10364000B0F5800F81D11D6845F480551D607CE781
:10365000204BD3F8981021EA0202C3F8982001E722
:103660001C4BD3F8901021EA0202C3F89020F9E62F
:10367000184BD3F8941021EA0202C3F89420F1E623
:10368000144BD3F8801021EA0202C3F88020E9E647
:10369000104BD3F8841021EA0202C3F88420E1E63B
:1036A0000C4BD3F88C1021EA0202C3F88C20D9E627
:1036B000084BD3F8881021EA0202C3F88820D1E62B
:1036C000044BD3F89C1021EA0202C3F89C20C9E6FF
:1036D00058190024004402580030014000380040CE
:1036E00000000024E0FFBF8FFFFF39D8001400580E
:1036F0000034014000500140114A037A0168D35C54
:1037000010B4CC58CA1824F00104CC501368DB075D
:10371000FCD4037D1F2B09D9203B20225DF8044BEC
:1037200002FA03F343F01803CB60704720225DF8E0
:10373000044B02FA03F343F018038B60704700BF99
:10374000D8E10908F8B507680646D7E90454A0612E
:103750002B7D1F2B49D9203B2022286802FA03F336
:1037600043F01803C360237D1F2B48D92022203B40
:1037700002FA03F3226843F01803D360636800225F
:1037800069680A601A601A6842F010021A60BA6921
:10379000297A4EF037FEFA69217A20684EF032FE1F
:1037A00033682E681A6A5B6891685868184A024044
:1037B00020680A4317495A602A7A8D5C725942F090
:1037C00001027251227A895C425842F00102425051
:1037D0009A6842F440429A601A6842F001021A6004
:1037E0001A6842F400721A60F8BD2022286802FAB2
:1037F00003F343F018038360237D1F2BB6D82022E8
:1038000002FA03F3226843F018039360B6E700BF9F
:103810000000FFFFD8E1090882682DE9F04F054656
:1038200093B01AB1938812681B049361BE4B5B6816
:10383000C3F30803002B40F00481EFF31183002B46
:1038400040F0FF80B94B4FF0E024D3F88C20A06902
:10385000D3F88C108A42F8D1D3F8901D8142F4D36A
:10386000D3F8A0624FF47A7404FB06F1091AB1FB95
:10387000F6F104FB0211AC4E4FF0E0204FF47A74E5
:103880004FF0100C01277268C2F30802002A40F0C2
:103890009F80EFF31182002A40F09A80D3F88C8049
:1038A000D0F818E0D3F88C209045F7D1D3F8902DBC
:1038B0009645F3D8D3F8A09204FB09F2A2EB0E02CE
:1038C000B2FBF9F204FB0822521AB2F57A7FDAD37E
:1038D000AA6812B1116892888A610A249248102657
:1038E0004FF0E0214FF47A7C4FF0010B4268C2F3B5
:1038F0000802002A40F08E80EFF31182002A40F087
:103900008980D3F88C20D1F81880D3F88C70BA4213
:10391000F7D1D3F8907DB845F3D8D3F8A0920CFB3B
:1039200009FEAEEB080EBEFBF9FE0CFB02EE426890
:10393000C2F3080252BBEFF311823ABBD3F88C708A
:10394000D1F81890D3F88C209742F7D1D3F8902D66
:103950009145F3D8D3F8A0A20CFB0AF2A2EB09021E
:10396000B2FBFAF20CFB0722A2EB0E02B2F57A7F51
:10397000DDD3013CBAD12B68ADF804401A6A002AA5
:1039800000F08480204613B0BDE8F08FEFF311897A
:1039900086F31288D1F818A00A69D20303D5C3F8B8
:1039A0008CBDD1F818A0D3F88C205FFA89F9D3F830
:1039B0008C7D89F3118807EB0208D3F8A0720CFB09
:1039C00007F2A2EB0A02B2FBF7F20CFB0822CBE7EC
:1039D000EFF311828CF31288D0F81880D0F810E041
:1039E0001EF4803F03D0C3F88C7DD0F81880D3F844
:1039F0008C90D2B2D3F88CED82F31188CE44D3F8F8
:103A0000A09204FB09F2A2EB0802B2FBF9F204FB5C
:103A10000E2259E7EFF3118E86F31288D1F8188041
:103A20000A69D70303D5C3F88CBDD1F81880D3F841
:103A30008C905FFA8EFED3F88C2D8EF311884A4459
:103A40006BE7EFF31181102383F312884FF0E0222C
:103A50009069136913F4803F344B03D00120C3F8FD
:103A60008C0D9069D3F88C40C9B2D3F88C2D81F3BA
:103A700011881119D3F8A0624FF47A7404FB06F28E
:103A8000121AB2FBF6F204FB0121F4E680210122B6
:103A9000002003948DF803100DF1030104920291AC
:103AA00001A98DF828208DF83C20022208910021E0
:103AB0008DF81440069407940B940E941094099278
:103AC000CDE90C01EFF3118284F312882968096AA9
:103AD00000292DD0049902A8002932D00146CC69D2
:103AE0001431002CFBD11B6A002B2CD09C683CB9F4
:103AF000994209D01C682CB15B689C68002CF7D0F7
:103B00001433F3E7C3E90050D2B282F311882B6873
:103B10001A6A002AFCD19DF80530242B14BF00201E
:103B20000F2013B0BDE8F08F00ED00E0581900241D
:103B300002A9D2B2196282F31188284652F024FEFB
:103B4000E5E70146CFE71D60FFDE00BF38B504465C
:103B5000264BD4F8E410586894F8D020D4F8D83024
:103B6000012AC4F8D8000B44C4F8DC3005D0D4F8DE
:103B7000D4300133C4F8D43038BD201D04F1E80539
:103B80006168EFF3118C002383F3128863681B6A6A
:103B90000BB3D4F8F0302A461BB1D3691432002B92
:103BA000FBD10B6AFBB1996839B9934209D0196806
:103BB00029B15B6899680029F7D01433F3E7C3E9AA
:103BC00000055FFA8CFC8CF31188D4F8D4300133F3
:103BD000C4F8D43038BD5FFA8CFC0D628CF31188C8
:103BE00052F0D2FDC3E71860FFDE00BF001000E016
:103BF0002DE9F04186698AB0054696F8DC30012B44
:103C00004AD0023B012B52D8D6F89C308C222F4C44
:103C1000EC461A70D0F818800FCCD8F810E008F1F4
:103C20001007ACE80F00D6F89C300093D6F8A0300F
:103C300001930FCCACE80F0094E803008CE803007C
:103C4000EFF31180002383F31288D8F810301B6A39
:103C5000002B30D0029B6A461BB1D3691432002B73
:103C6000FBD1DEF82030002B2ED0996839B9934271
:103C70000AD0196829B15B6899680029F7D0143314
:103C8000F3E71F60C3F804D0C0B280F31188AB69BA
:103C90001A69136A002BFCD1D6F8A030B3F90220C0
:103CA000EA81B3F904202A82B3F906306B8201203D
:103CB0000AB0BDE8F081C0B2CEF820D080F3118800
:103CC000384652F061FDE2E71F60FFDEE874090844
:103CD0002DE9F04190F81E318AB00446032B6AD0DA
:103CE00090F8DC30D0F8A060012B00F0C98017D824
:103CF000D0F89C30002205211A605A609A609A819F
:103D0000D0F8E030C0F8F010B3F57A7F00F2EC8024
:103D10000323012580F8DC3028460AB0BDE8F08195
:103D2000023B012B42D8D0F89C306D469222DFF83E
:103D300028E2AC4600F110071A70D0F81080BEE8F7
:103D40000F00ACE80F00BEE80F00ACE80F00D4F89D
:103D50009C309EE803008CE803000093D4F8A03068
:103D60000193EFF31180002383F3128823691B6A08
:103D7000002B00F0E080029B2A461BB1D36914326D
:103D8000002BFBD1D8F82030002B00F0DD809968A3
:103D900051B9934200F087801968002900F08180B2
:103DA0005B6899680029F4D01433F0E701252846B0
:103DB0000AB0BDE8F081664F002301220A2007F116
:103DC000200104F1100600978DF80C208DF82020BA
:103DD0000993CDE90110CDE904332169CDE906331A
:103DE000EFF3118083F3128823691B6A002B72D0D2
:103DF0006D46029B2A461BB1D3691432002BFBD1BE
:103E00000B6A002B00F0A280996839B9934209D05F
:103E1000196829B15B6899680029F7D01433F3E772
:103E2000C3E90065C0B280F311882269156A002DCC
:103E3000FCD17A8C052A18DDBB8CB7F92650B7F96E
:103E4000281015F5004F08BFB3F5004F786A14BF6E
:103E50000123002311F5004518BF01251D4303D0A0
:103E6000C4F8D000A4F8D410063A002A9FD03046F7
:103E7000B0227E210EF026FB28460AB0BDE8F08174
:103E8000B6F908201D46A0F8D020B6F90A30A0F8EF
:103E9000D230B6F90C30A0F8D43028460AB0BDE8CC
:103EA000F081C3E90075C0B280F311882269136AFA
:103EB000002BFCD1B6F902300125A4F8D0302846F9
:103EC000B6F90430A4F8D230B6F90630A4F8D430EC
:103ED0000AB0BDE8F081C0B2C1F820D080F31188EB
:103EE000304652F051FCA0E703691A7BF2B15B69DE
:103EF000E3B190F89850CDB1D0F89C100E228C20F0
:103F0000C4F8A44001230870C4F8FC20114AD4F876
:103F1000A010C4F80421D4F89C20C4F8F81084F848
:103F2000003184F8DC30C4F8F42040E70223012596
:103F300084F8DC303BE7C0B2C8F8205080F3118829
:103F4000384652F021FCB1E71F60FFDE1E60FFDE45
:103F500060DD002411020408E87409082DE9F04F1F
:103F600000F1100790F81E3195B0B6227E2105466B
:103F700038460193C64C0EF0A5FA4FF0640AC548C6
:103F80004FF010084FF0E0224FF47A7E4FF0010915
:103F900007EE907A4368C3F30803002B40F09D823C
:103FA000EFF31183002B40F09882D4F88C3096699F
:103FB000D4F88C108B42F8D1D4F8901D8E42F4D8EE
:103FC000D4F8A0720EFB07F18E1BB6FBF7F60EFBC2
:103FD00003664368C3F30803002B40F0C781EFF387
:103FE0001183002B40F0C281D4F88C709369D4F80F
:103FF0008C108F42F8D1D4F8901D8B42F4D8D4F8AD
:10400000A0120EFB01FCACEB0303B3FBF1F30EFBC0
:1040100007339B1BB3F57A7FDBD3BAF1010AB9D121
:10402000AA6917EE907A1AB1938812681B049361FB
:10403000984B5B68C3F30803002B41F01784EFF340
:104040001183002B41F012844FF0E026D4F88C202D
:10405000B069D4F88C309A42F8D1D4F8903D9842A7
:10406000F4D8ACEB0003B3FBF1F34FF47A7101FB2E
:104070000233884E4FF0E0214FF47A704FF0100E6B
:104080004FF0010C7268C2F30802002A40F0A281CE
:10409000EFF31182002A40F09D81D4F88C90D1F882
:1040A0001880D4F88C209145F7D1D4F8902D904504
:1040B000F3D8D4F8A0A200FB0AF2A2EB0802B2FBEC
:1040C000FAF200FB0922D21AB2F57A7FDAD3AB6991
:1040D00013B11A689B8893610A22DFF8B8814FF008
:1040E00010094FF0E0214FF47A7C4FF0010ABB46F3
:1040F000D8F80430C3F30803002B40F0D181EFF36C
:104100001183002B40F0CC81D4F88C308E69D4F828
:104110008C008342F8D1D4F8900D8642F4D8D4F8BC
:10412000A0720CFB07F0801BB0FBF7F00CFB030048
:10413000D8F80430C3F30803002B40F02B81EFF3D1
:104140001183002B40F02681D4F88C608F69D4F85D
:104150008C309E42F8D1D4F8903D9F42F4D8D4F8E8
:10416000A0E20CFB0EF3DB1BB3FBFEF30CFB0633F0
:104170001B1AB3F57A7FDBD3013AB9D17C215846BB
:104180000EF0A0F9434B5F465B68C3F30803002BB6
:1041900041F04883EFF31183002B41F043834FF04C
:1041A000E020D4F88C308169D4F88C209342F8D187
:1041B000D4F8902D9142F4D8D4F8A0624FF47A70DC
:1041C00000FB06F2521AB2FBF6F200FB0322314E5C
:1041D0004FF0E0214FF47A704FF0100E4FF0010CC9
:1041E0007368C3F30803002B40F01681EFF31183CB
:1041F000002B40F01181D4F88C90D1F81880D4F8BD
:104200008C309945F7D1D4F8903D9845F3D8D4F83F
:10421000A0A200FB0AF3A3EB0803B3FBFAF300FB35
:1042200009339B1AB3F57A7FDAD300225921384635
:104230000EF048F9174B5B68C3F30803002B41F0FD
:10424000CD82EFF31183002B41F0C8824FF0E020C4
:10425000D4F88C308169D4F88C209342F8D1D4F80A
:10426000902D9142F4D8D4F8A0624FF47A7000FBFC
:1042700006F2521AB2FBF6F200FB0322054E4FF093
:10428000E0214FF47A704FF0100E4FF0010C03E074
:104290005819002400ED00E07368C3F30803002BF5
:1042A00040F0DC80EFF31183002B40F0D780D4F88E
:1042B0008C90D1F81880D4F88C309945F7D1D4F887
:1042C000903D9845F3D8D4F8A0A200FB0AF3A3EBE5
:1042D0000803B3FBFAF300FB09339B1AB3F57A7FAB
:1042E000DAD301225E234FF000084FF000098DF869
:1042F0000F300DF10F0306928DF830208DF8442019
:10430000844A0493002309924FF4A4722969059307
:104310008DF81C3008930A930D93109312930B920F
:10432000CDE90E89EFF3118083F312882B691B6AA4
:10433000002B01F0338304AE069B32461BB1D369D8
:104340001432002BFBD10B6A002B01F026849968F4
:1043500051B9934200F0E2801968002900F0DC8036
:104360005B6899680029F4D01433F0E7EFF311810A
:1043700088F3128893691769FF0302D5C4F88C9DEE
:104380009369D4F88C70C9B2D4F88CCD81F31188BC
:10439000674434E6EFF3118789F31288D1F818E007
:1043A0000B69DB0303D5C4F88CADD1F818E0D4F861
:1043B0008C30FFB2D4F88C6D87F31188D4F8A072DA
:1043C0001E440CFB07F3A3EB0E03B3FBF7F30CFB4C
:1043D0000633CDE6EFF311828EF31288D1F81890F0
:1043E000D1F8108018F4803F03D0C4F88CCDD1F8F8
:1043F0001890D4F88C80D2B2D4F88CAD82F31188A6
:10440000D044D4F8A0A200FB0AF2A2EB0902B2FB4E
:10441000FAF200FB082256E6EFF311838EF31288BE
:10442000D1F81890D1F8108018F4803F03D0C4F868
:104430008CCDD1F81890D4F88C80DBB2D4F88CAD48
:1044400083F31188D044D4F8A0A200FB0AF3A3EBB5
:104450000903B3FBFAF300FB0833E2E6EFF3118341
:104460008EF31288D1F81890D1F8108018F4803F9C
:1044700003D0C4F88CCDD1F81890D4F88C80DBB27E
:10448000D4F88CAD83F31188D044D4F8A0A200FBFB
:104490000AF3A3EB0903B3FBFAF300FB08331CE7B1
:1044A000EFF3118689F312888F690B69D80302D55F
:1044B000C4F88CAD8F69D4F88C30F6B2D4F88C0D7A
:1044C00086F31188D4F8A06203440CFB06F0C01BED
:1044D000B0FBF6F00CFB03002AE6EFF3118188F342
:1044E000128897691369DB0302D5C4F88C9D97691C
:1044F000D4F88C30C9B2D4F88C6D81F31188D4F81B
:10450000A01233440EFB01F6F61BB6FBF1F60EFBD0
:1045100003665EE510750908C3E90076C0B280F352
:1045200011882A69136A002BFCD14FF00A0ADFF8C0
:10453000E8E34FF010084FF0E0224FF47A764FF0A6
:104540000109BB46DEF80430C3F30803002B40F03A
:104550009084EFF31183002B40F08B84D4F88C30DF
:104560009069D4F88C108B42F8D1D4F8901D884211
:10457000F4D8D4F8A07206FB07F1091AB1FBF7F1E1
:1045800006FB0311DEF80430C3F30803002B40F0F0
:10459000A683EFF31183002B40F0A183D4F88C00A5
:1045A0009769D4F88C309842F8D1D4F8903D9F4266
:1045B000F4D8D4F8A0C206FB0CF3DB1BB3FBFCF36E
:1045C00006FB00335B1AB3F57A7FDBD3BAF1010A3D
:1045D000B8D10122592158465F460DF073FFCE4BEA
:1045E0005B68C3F30803002B41F0D480EFF3118321
:1045F000002B41F0CF804FF0E020D4F88C3081695F
:10460000D4F88C209342F8D1D4F8902D9142F4D86C
:10461000D4F8A0624FF47A7000FB06F2521AB2FB93
:10462000F6F200FB0322BC4E4FF0E0214FF47A700B
:104630004FF0100E4FF0010C7368C3F30803002B0A
:1046400040F08F83EFF31183002B40F08A83D4F87E
:104650008C90D1F81880D4F88C309945F7D1D4F8E3
:10466000903D9845F3D8D4F8A0A200FB0AF3A3EB41
:104670000803B3FBFAF300FB09339B1AB3F57A7F07
:10468000DAD3019B032B00F0AF869B2240213846F2
:104690000DF018FFA04B5B68C3F30803002B40F03C
:1046A0007F86EFF31183002B40F07A864FF0E020F5
:1046B000D4F88C308169D4F88C209342F8D1D4F8A6
:1046C000902D9142F4D8D4F8A0624FF47A7000FB98
:1046D00006F2521AB2FBF6F200FB03228E4E4FF0A6
:1046E000E0214FF47A704FF0100E4FF0010C736818
:1046F000C3F30803002B40F01283EFF31183002B68
:1047000040F00D83D4F88C90D1F81880D4F88C3018
:104710009945F7D1D4F8903D9845F3D8D4F8A0A2A4
:1047200000FB0AF3A3EB0803B3FBFAF300FB093326
:104730009B1AB3F57A7FDAD30322412138460DF074
:10474000C1FE754B5B68C3F30803002B40F0048681
:10475000EFF31183002B40F0FF854FF0E020D4F8F9
:104760008C308169D4F88C209342F8D1D4F8902D04
:104770009142F4D8D4F8A0624FF47A7000FB06F2AC
:10478000521AB2FBF6F200FB0322634E4FF0E02117
:104790004FF47A704FF0100E4FF0010C7368C3F3B2
:1047A0000803002B40F04383EFF31183002B40F00C
:1047B0003E83D4F88C90D1F81880D4F88C30994589
:1047C000F7D1D4F8903D9845F3D8D4F8A0A200FBD7
:1047D0000AF3A3EB0803B3FBFAF300FB09339B1ABC
:1047E000B3F57A7FDAD394F8953D013BDBB2022B27
:1047F00000F25D83494A134493F8B82E120162F027
:104800003202D2B2422138460DF05CFE424B5B6868
:10481000C3F30803002B40F07B85EFF31183002BDB
:1048200040F076854FF0E020D4F88C308169D4F8E0
:104830008C209342F8D1D4F8902D9142F4D8D4F83A
:10484000A0624FF47A7000FB06F2521AB2FBF6F245
:1048500000FB0322304E4FF0E0214FF47A704FF00E
:10486000100E4FF0010C7368C3F30803002B40F0E7
:10487000BC82EFF31183002B40F0B782D4F88C9008
:10488000D1F81880D4F88C309945F7D1D4F8903D00
:104890009845F3D8D4F8A0A200FB0AF3A3EB0803D1
:1048A000B3FBFAF300FB09339B1AB3F57A7FDAD333
:1048B0000822432138460DF005FE174B5B68C3F311
:1048C0000803002B40F0FD84EFF31183002B40F030
:1048D000F8844FF0E020D4F88C208169D4F88C3033
:1048E0009342F8D1D4F8902D9142F4D8D4F8A06234
:1048F0004FF47A7000FB06F2521AB2FBF6F200FB9C
:104900000322054E4FF0E0214FF47A704FF0100E65
:104910004FF0010C04E000BF00ED00E0A0670908C3
:104920007368C3F30803002B40F03D82EFF311835B
:10493000002B40F03882D4F88C30D1F81880D4F8AD
:104940008C909945F7D1D4F8903D4345F3D3D4F8F2
:10495000A0A200FB0AF3A3EB0803B3FBFAF300FBEE
:1049600009339B1AB3F57A7FDAD3019B032B00F04E
:10497000E5830422582138460DF0A4FDCC4B5B683A
:10498000C3F30803002B40F09482EFF31183002B54
:1049900040F08F824FF0E020D4F88C208169D4F869
:1049A0008C309342F8D1D4F8902D9142F4D8D4F8B9
:1049B000A0624FF47A7000FB06F2521AB2FBF6F2D4
:1049C00000FB0322DFF8E8E24FF0E0204FF47A71B9
:1049D0004FF0100C0126DEF80430C3F30803002B5F
:1049E00040F0F082EFF31183002B40F0EB82D4F81B
:1049F0008C30D0F81880D4F88C909945F7D1D4F841
:104A0000903D9845F3D8D4F8A0A201FB0AF3A3EB9C
:104A10000803B3FBFAF301FB09339B1AB3F57A7F62
:104A2000D9D30A22532138460DF04CFDA04B5B68C8
:104A3000C3F30803002B40F05E83EFF31183002BD8
:104A400040F059834FF0E020D4F88C208169D4F8ED
:104A50008C309342F8D1D4F8902D8A42F4D3D4F814
:104A6000A0624FF47A7000FB06F2521AB2FBF6F223
:104A700000FB03228E4E4FF0E0214FF47A704FF08E
:104A8000100E4FF0010C7368C3F30803002B40F0C5
:104A90005582EFF31183002B40F05082D4F88C90B4
:104AA000D1F81880D4F88C309945F7D1D4F8903DDE
:104AB0009845F3D8D4F8A0A200FB0AF3A3EB0803AF
:104AC000B3FBFAF300FB09339B1AB3F57A7FDAD311
:104AD00002227C2138460DF0F5FC754B5B68C3F370
:104AE0000803002B40F0A783EFF31183002B40F065
:104AF000A2834FF0E020D4F88C208169D4F88C3068
:104B00009342F8D1D4F8902D8A42F4D3D4F8A0621D
:104B10004FF47A7000FB06F2521AB2FBF6F200FB79
:104B20000322634E4FF0E0214FF47A704FF0100EE5
:104B30004FF0010C7368C3F30803002B40F0DC81D5
:104B4000EFF31183002B40F0D781D4F88C30D1F8EB
:104B50001880D4F88C909945F7D1D4F8903D43450E
:104B6000F3D3D4F8A0A200FB0AF3A3EB0803B3FB32
:104B7000FAF300FB09339B1AB3F57A7FDAD30E22DE
:104B80007D2138460DF09EFC494B5B68C3F308035A
:104B9000002B40F07383EFF31183002B40F06E8302
:104BA0004FF0E020D4F88C308169D4F88C20934207
:104BB000F8D1D4F8902D9142F4D8D4F8A0624FF4F3
:104BC0007A7000FB06F2521AB2FBF6F200FB0322E7
:104BD000374E4FF0E0214FF47A704FF0100E4FF047
:104BE000010C7368C3F30803002B40F0C981EFF395
:104BF0001183002B40F0C481D4F88C30D1F8188098
:104C0000D4F88C909945F7D1D4F8903D9845F3D8D5
:104C1000D4F8A0A200FB0AF3A3EB0803B3FBFAF35A
:104C200000FB09339B1AB3F57A7FDAD3019B032B80
:104C300000F0EA8195F82131ABB31C0903F00F03B2
:104C4000013C062C00F2A0871A4E06EB4402B2F893
:104C50001C0D40FA03F2D20740F196870122264448
:104C6000154C02FA03F3013B18404FF0ABFF96F8E6
:104C70002C3D262229461844104B04EBC004E28048
:104C8000204641F80C3F49F05FFCA2884FF00043FA
:104C9000B2FA82F2D34006D04FF0B041D1F8802072
:104CA0001343C1F88030064A022306490CE000BFD6
:104CB00000ED00E0A0670908642300244D3B0408D0
:104CC00080F0FA028096980052085B008A429BB2FC
:104CD00001D9FF2BF8D9AB8215B0BDE8F08FEFF307
:104CE000118788F31288D2F818C01369DB0303D543
:104CF000C4F88C9DD2F818C0D4F88C30FFB2D4F828
:104D00008C0D87F31188D4F8A072184406FB07F3C2
:104D1000A3EB0C03B3FBF7F306FB003352E4EFF312
:104D200011838EF31288D1F81890D1F8108018F4FE
:104D3000803F03D0C4F88CCDD1F81890D4F88C8083
:104D4000DBB2D4F88CAD83F31188D044D4F8A0A2A0
:104D500000FB0AF3A3EB0903B3FBFAF300FB0833F0
:104D6000E6E4EFF311838EF31288D1F81890D1F8AE
:104D7000108018F4803F03D0C4F88CCDD1F818907F
:104D8000D4F88C80DBB2D4F88CAD83F31188D04496
:104D9000D4F8A0A200FB0AF3A3EB0903B3FBFAF3D8
:104DA00000FB083369E4EFF311838EF31288D1F826
:104DB0001890D1F8108018F4803F03D0C4F88CCD3F
:104DC000D1F81890D4F88C80DBB2D4F88CAD83F392
:104DD0001188D044D4F8A0A200FB0AF3A3EB090386
:104DE000B3FBFAF300FB0833BBE5EFF311838EF35B
:104DF0001288D1F81890D1F8108018F4803F03D0B1
:104E0000C4F88CCDD1F81890D4F88C80DBB2D4F8EB
:104E10008CAD83F31188D044D4F8A0A200FB0AF330
:104E2000A3EB0903B3FBFAF300FB08333CE5EFF314
:104E300011838EF31288D1F81890D1F8108018F4ED
:104E4000803F03D0C4F88CCDD1F81890D4F88C8072
:104E5000DBB2D4F88CAD83F31188D044D4F8A0A28F
:104E600000FB0AF3A3EB0903B3FBFAF300FB0833DF
:104E7000B5E4EFF3118088F3128897691369D903B9
:104E800002D5C4F88C9D9769D4F88C30C0B2D4F8A0
:104E90008C1D80F31188D4F8A0020B4406FB00F1AE
:104EA000C91BB1FBF0F106FB0311FFF76BBBCD2271
:104EB000A8E4EFF31182102383F312884FF0E0236C
:104EC00099691869C00303D50121C4F88C1D99693B
:104ED000D4F88C00D2B2D4F88C3D82F311881A1821
:104EE000D4F8A0624FF47A7000FB06F35B1AB3FBB0
:104EF000F6F300FB023265E5EFF311838EF31288BF
:104F0000D1F81890D1F8108018F4803F03D0C4F87D
:104F10008CCDD1F81890D4F88C80DBB2D4F88CAD5D
:104F200083F31188D044D4F8A0A200FB0AF3A3EBCA
:104F30000903B3FBFAF300FB08331CE6EFF311831C
:104F40008EF31288D1F81890D1F8108018F4803FB1
:104F500003D0C4F88CCDD1F81890D4F88C80DBB293
:104F6000D4F88CAD83F31188D044D4F8A0A200FB10
:104F70000AF3A3EB0903B3FBFAF300FB0833A3E541
:104F8000EFF311838EF31288D1F81890D1F81080C6
:104F900018F4803F03D0C4F88CCDD1F81890D4F821
:104FA0008C80DBB2D4F88CAD83F31188D044D4F874
:104FB000A0A200FB0AF3A3EB0903B3FBFAF300FB87
:104FC00008332FE6EFF311838CF31288D0F8189092
:104FD000D0F8108018F4803F03D0C4F88C6DD0F85E
:104FE0001890D4F88C80DBB2D4F88CAD83F31188A0
:104FF000D044D4F8A0A201FB0AF3A3EB0903B3FB4E
:10500000FAF301FB083308E5B0227E2138460DF0A3
:1050100059FABE4B5B68C3F30803002B40F0E184F0
:10502000EFF31183002B40F0DC844FF0E020D4F844
:105030008C308269D4F88C108B42F8D1D4F8901D52
:105040008A42F4D8D4F8A0024FF47A7101FB00F63A
:10505000B61AB6FBF0F601FB0366DFF8B0824FF03C
:10506000E0214FF47A774FF0100ED8F804304FF06B
:10507000010CC3F308030BBBEFF31183F3B9D4F8AE
:105080008C208869D4F88C309342F8D1D4F8902DD4
:105090009042F4D8D4F8A09207FB09F2121AB2FB9E
:1050A000F9F207FB03239B1BB3F57A7FBFF4C2AD74
:1050B000D8F80430C3F30803002BDDD0EFF31183DD
:1050C0008EF3128888690A69D20302D5C4F88CCDA0
:1050D0008869D4F88C90DBB2D4F88C2D83F31188D6
:1050E0004A44D4F8A09207FB09F31B1AB3FBF9F367
:1050F00007FB0233D7E7EFF31182102383F3128803
:105100004FF0E02399691869C60303D50121C4F85B
:105110008C1D9969D4F88C00D2B2D4F88C3D82F3FE
:1051200011881A18D4F8A0624FF47A7000FB06F3C5
:105130005B1AB3FBF6F300FB02329BE40222582118
:1051400038460DF0BFF9714B5B68C3F30803002BC1
:1051500040F02E84EFF31183002B40F029844FF0B0
:10516000E020D4F88C308169D4F88C209342F8D1B7
:10517000D4F8902D8A42F4D3D4F8A0624FF47A7018
:10518000DFF888E14FF0100C00FB06F2521A4FF0E6
:10519000E021B2FBF6F200FB0322DEF804304FF40C
:1051A0007A700126C3F308031BBBEFF3118303BB23
:1051B000D4F88C90D1F81880D4F88C309945F7D178
:1051C000D4F8903D4345F3D3D4F8A0A200FB0AF3F2
:1051D000A3EB0803B3FBFAF300FB09339B1AB3F507
:1051E0007A7FBFF41EACDEF80430C3F30803002B53
:1051F000DBD0EFF311838CF31288D1F81890D1F83B
:10520000108018F4803F03D0C4F88C6DD1F818904A
:10521000D4F88C80DBB2D4F88CAD83F31188D04401
:10522000D4F8A0A200FB0AF3A3EB0903B3FBFAF343
:1052300000FB0833D2E7EFF31182102383F31288C7
:105240004FF0E02399691869C00303D50121C4F820
:105250008C1D9969D4F88C00D2B2D4F88C3D82F3BD
:1052600011881A18D4F8A0624FF47A7000FB06F384
:105270005B1AB3FBF6F300FB023252E4EFF3118248
:10528000102383F312884FF0E02399691869C6034D
:1052900003D50121C4F88C1D9969D4F88C00D2B2D1
:1052A000D4F88C3D82F311881A18D4F8A0624FF418
:1052B0007A7000FB06F35B1AB3FBF6F300FB0232D5
:1052C00086E4EFF31182102383F312884FF0E0237A
:1052D00099691869C00303D50121C4F88C1D996927
:1052E000D4F88C00D2B2D4F88C3D82F311881A180D
:1052F000D4F8A0624FF47A7000FB06F35B1AB3FB9C
:10530000F6F300FB0232FFF7FCBA00BF00ED00E04D
:10531000EFF31182102383F312884FF0E023996991
:105320001869C60303D50121C4F88C1D9969D4F806
:105330008C00D2B2D4F88C3D82F311881A18D4F8BC
:10534000A0624FF47A7000FB06F35B1AB3FBF6F32E
:1053500000FB0232FFF77EBAEFF31182102383F3D2
:1053600012884FF0E02399691869C00303D5012121
:10537000C4F88C1D9969D4F88C00D2B2D4F88C3D55
:1053800082F311881A18D4F8A0624FF47A7000FBE7
:1053900006F35B1AB3FBF6F300FB0232FFF7F5B935
:1053A000EFF31182102383F312884FF0E023996901
:1053B0001869C60303D50121C4F88C1D9969D4F876
:1053C0008C00D2B2D4F88C3D82F311881A18D4F82C
:1053D000A0624FF47A7000FB06F35B1AB3FBF6F39E
:1053E00000FB0232FFF77AB90022482138460DF05F
:1053F00069F8C94B5B68C3F30803002B40F038839E
:10540000EFF31183002B40F033834FF0E020D4F80A
:105410008C308269D4F88C108B42F8D1D4F8901D6E
:105420008A42F4D8D4F8A0024FF47A7101FB00F656
:10543000B61AB6FBF0F601FB0366DFF8DC924FF01C
:10544000E0214FF47A7C4FF010084FF0010ED9F8AC
:105450000430C3F30803002B40F08382EFF3118381
:10546000002B40F07E82D4F88C308869D4F88C20F0
:105470009342F8D1D4F8902D9042F4D8D4F8A0A259
:105480000CFB0AF2121AB2FBFAF20CFB03239B1B71
:10549000B3F57A7FDBD38022492138460DF012F82C
:1054A0009D4B5B68C3F30803002B40F02783EFF3A9
:1054B0001183002B40F022834FF0E020D4F88C3091
:1054C0008269D4F88C108B42F8D1D4F8901D8A42AE
:1054D000F4D8D4F8A0024FF47A7101FB00F6B61AA2
:1054E000B6FBF0F601FB0366DFF82C924FF0E021EB
:1054F0004FF47A7C4FF010084FF0010ED9F80430C9
:10550000C3F30803002B40F00F82EFF31183002B4D
:1055100040F00A82D4F88C308869D4F88C20934209
:10552000F8D1D4F8902D9042F4D8D4F8A0A20CFB76
:105530000AF2121AB2FBFAF20CFB03239B1BB3F51F
:105540007A7FDBD30022452138460CF0BBFF724B3B
:105550005B68C3F30803002B40F06782EFF311830D
:10556000002B40F062824FF0E020D4F88C3082694A
:10557000D4F88C108B42F8D1D4F8901D8A42F4D81C
:10558000D4F8A0024FF47A7101FB00F6B61AB6FB0C
:10559000F0F601FB0366DFF880914FF0E0214FF455
:1055A0007A7C4FF010084FF0010ED9F80430C3F3A5
:1055B0000803002B40F09B81EFF31183002B40F098
:1055C0009681D4F88C308869D4F88C209342F8D135
:1055D000D4F8902D9042F4D8D4F8A0A20CFB0AF293
:1055E000121AB2FBFAF20CFB03239B1BB3F57A7F72
:1055F000DBD30622462138460CF064FF464B5B683D
:10560000C3F30803002B40F09C82EFF31183002BBF
:1056100040F097824FF0E020D4F88C308269D4F8C3
:105620008C108B42F8D1D4F8901D8A42F4D8D4F86B
:10563000A0024FF47A7101FB00F6B61AB6FBF0F641
:1056400001FB0366DFF8D0904FF0E0214FF47A7C45
:105650004FF010084FF0010ED9F80430C3F30803DF
:10566000002B40F02781EFF31183002B40F02281C3
:10567000D4F88C308869D4F88C209342F8D1D4F8CF
:10568000902D9042F4D8D4F8A0A20CFB0AF2121A82
:10569000B2FBFAF20CFB03239B1BB3F57A7FDBD33F
:1056A0000022472138460CF00DFF1B4B5B68C3F30B
:1056B0000803002B40F0FF81EFF31183002B40F033
:1056C000FA814FF0E020D4F88C308269D4F88C1045
:1056D0008B42F8D1D4F8901D8A42F4D8D4F8A002B5
:1056E0004FF47A7101FB00F6B61AB6FBF0F601FB37
:1056F0000366DFF824904FF0E0214FF47A7C4FF0FE
:105700001008D9F804304FF0010EC3F3080323BB8F
:10571000EFF311830BBB01E000ED00E0D4F88C3017
:105720008869D4F88C209342F8D1D4F8902D904217
:10573000F4D8D4F8A0A20CFB0AF2121AB2FBFAF2C7
:105740000CFB03239B1BB3F57A7FBEF49EAFD9F805
:105750000430C3F30803002BDAD0EFF3118388F38E
:10576000128888690A69D20302D5C4F88CED886969
:10577000D4F88C20DBB2D4F88CAD83F3118852447A
:10578000D4F8A0A20CFB0AF31B1AB3FBFAF30CFB30
:105790000233D7E7EFF31182102383F312884FF01F
:1057A000E02399691869C60303D50121C4F88C1D4B
:1057B0009969D4F88C00D2B2D4F88C3D82F3118868
:1057C0001A18D4F8A0624FF47A7000FB06F35B1A43
:1057D000B3FBF6F300FB0232FEF725BFEFF31182B5
:1057E000102383F312884FF0E02399691869C003EE
:1057F00003D50121C4F88C1D9969D4F88C00D2B26C
:10580000D4F88C3D82F311881A18D4F8A0624FF4B2
:105810007A7000FB06F35B1AB3FBF6F300FB02326F
:10582000FEF72CBDEFF31182102383F312884FF0A3
