:020000040800F2
:10000000F0FF0010597F0508A508050899F30108BD
:10001000F97F0508F97F0508F97F05080000000051
:10002000000000000000000000000000A908050812
:10003000AD08050800000000B10805083DBD010835
:10004000F97F0508F97F0508F97F0508F97F05089C
:10005000F97F0508F97F050879A401089DA4010826
:10006000D9A4010815A5010851A5010861C000081F
:1000700075C0000889C000089DC00008B1C0000814
:10008000C5C00008D9C00008F97F0508F97F050838
:10009000F97F0508F97F0508F97F05088DA5010896
:1000A000E1EF010841EF0108F1EF010831EF01082C
:1000B00069EF010879EF010889EF0108C9AC000870
:1000C0008DB10008D1AC000891B10008F97F050896
:1000D000F97F050881B8010839B90108F1B90108AB
:1000E000C9A50108F97F05089571050801F0010807
:1000F000B9EF010811F00108A9EF0108EDC00008EF
:10010000F97F0508F97F050899EF0108F97F0508CF
:10011000A9BA010861BB0108F97F0508F97F050844
:1001200001C1000815C1000829C100083DC100082F
:1001300051C10008F97F0508F97F0508F97F050816
:10014000F97F0508F97F0508F97F0508B508050856
:1001500065C1000879C100088DC1000819BC0108FB
:10016000D9AC000895B10008F97F0508F97F0508AA
:10017000F97F0508F97F0508F97F0508F97F05086B
:08018000F97F0508F97F05086D
:0828000000C00F0800001008E1
:1080000082B01E4B002201920193019B1C4A043353
:108010000193019B1968936803F00C03042B06D0AD
:10802000082B08D0174B184A1A6002B07047154B3E
:10803000196002B070475368506813F4800F00F065
:108040003F00536812D1C3F388130F49B1FBF0F11D
:1080500001FB03F30A4A0B495268C2F301420132A1
:108060005200B3FBF2F30B6002B07047C3F3881306
:10807000B1FBF0F101FB03F3ECE700BF5028004037
:1080800000380240E81800200024F400074BD0F824
:10809000E4105B68D0F8F0205B1A9A42B8BFC0F8D1
:1080A000F030012380F81C3100207047001000E000
:1080B000B84B00EB800103EBC10170B54A68526810
:1080C000B2F814E01EF0010F4FEA800C6ED15FFA97
:1080D0008EF4A60742D5BFF35F8F91F82040012CA4
:1080E000E5B200F0D180118BBFF35F8F0CEB000184
:1080F00003EBC10191F82040022C00F0E7800CEB6B
:10810000000103EBC10191F82040032C07D191F845
:10811000221021B193F87D10002940F0E78091886A
:1081200089B241F48061918093F97C100CEB000ED0
:1081300003EBCE0E9EF820E00EF1010E8E450CD121
:10814000002183F87D1093F87E10002940F0B7805D
:10815000604403EBC00300225A7770BD65075DD40D
:1081600014F0400400F0CB80148A93F97C508E6A9E
:10817000E4B274555FFA85FE0EF1010464B291F821
:10818000206083F87C40E51CAE42214600F025814A
:108190000CEB000503EBC50595F82050AC42C5D1AA
:1081A0000EF1020149B283F87C10BFE7B2F800E09B
:1081B0002EF4006E4FEA0E4E4FEA1E4EA2F800E07B
:1081C0001488A4B244F48064148091F822400025FD
:1081D00083F87C50002C48D093F87D40002C41D08F
:1081E000012183F87D100CEB000103EBC10191F834
:1081F0002010022904D1118889B241F40061118054
:108200000CEB000103EBC101897F41F001011182F8
:10821000604403EBC00393F8203070BD91F8224016
:10822000012583F87E50002C70D093F87D40002CFF
:1082300071D10CEB000103EBC10191F82110002971
:1082400000F0AA80118889B241F40071118093F87E
:108250007C1001314CB283F87C401188CE05FCD4EF
:10826000214663E7C97FFF29BAD00CEB000103EB7D
:10827000C1018C7F04F0FE041482CA7FFF2AC7D09C
:10828000FF2283F87C20C3E791F8221000293FF4F5
:108290002AAF93F87D1000293FF425AF118821F40F
:1082A00080610904090C1180BFF35F8F118B118865
:1082B00083F87E5089B241F4007111802FE79188D4
:1082C00021F440710904090C918041E791F82210D2
:1082D00000293FF414AF93F87D1000293FF40FAF4D
:1082E000118821F480610904090C1180918821F41E
:1082F00080610904090C918093F97C1016E71FFA3C
:108300008EF52D062DD493F97C100FE793F87D1090
:1083100000298ED096E791F82040022C148846D987
:1083200024F480642404240C1480158A8E6A93F942
:108330007C40EDB235558E6A118889B241F40071E6
:108340001180E4B2158A611C49B2EDB2755491886E
:10835000023489B264B241F4806183F87C40918038
:108360007BE793F97C506E1C3ED04C6A665D1682AA
:108370006C1C91F8205064B2A54283F87C402146E1
:108380007FF4D4AE948824F480642404240C948074
:10839000CCE600BFE8180020118893F97C4089B230
:1083A00041F480711180012183F87D1055E7A4B25A
:1083B00044F400741480158A8E6A93F97C40EDB2FF
:1083C0003555E4B28E6A158A611C49B20334EDB2A8
:1083D00064B2755483F87C403FE7958825F4806546
:1083E0002D042D0C9580D3E683F87C40CC7F14823D
:1083F00091F8224024B991F8201000297FF408AFA9
:10840000918821F480610904090C918000E700BF84
:1084100030B5EAB18E464FEA014C034600F1C00583
:10842000002419689A6841EA0C0142EA0E029A6037
:10843000C3E900140C33AB42F3D1D0F8C030C0F81C
:10844000C44043EA0E03C0F8C030C0F8C84030BD95
:108450004FEA014E8C46E0E7836930B41C699968A5
:108460002268096822F0010222608A899C8992B2FE
:1084700022EA04028A81027D00681F2A06D9446824
:10848000203A08219140214216D0FEE704680821D5
:1084900091402142F9D1202101FA02F28260224A60
:1084A00012783AB11A7E012A0BD1D3F8F8200132A2
:1084B000C3F8F82030BC7047202101FA02F2C260F4
:1084C000EDE7D3F8F4200132C3F8F420EFF3118183
:1084D000502282F3128858685C6C026822EA040217
:1084E0009C6C2243C9B2026081F31188D3E90C402D
:1084F0001A6999681D6C096814605061D3E90E40CF
:10850000546090600024B3F8A800D5604C62C86243
:1085100010680124204310601C768A899B891343CC
:108520009BB230BC8B81704704000010F0B5444C06
:1085300004EB401C9CF8202002B9F0BD414B4FF0E9
:108540008C0E0EFB003E93F8E06493F8E1249EF855
:1085500082708CF8067096424FF0000C4FEA40157E
:108560008EF882C00ED002EB420C03EBCC0C57000D
:108570009CF8E4C40CF1FF3EBEF1010F54D9BCF1EC
:10858000030F4BD060198180EFF31182902383F3A6
:1085900012888379818843EA41030021D2B29BB2D9
:1085A000817182F311881A09217882EA13225A40D4
:1085B000C9B1C4698168D4F8A040D2431B019BB201
:1085C00002F00F0201208840134304F1C0015A0059
:1085D00013F4004F93B202D16268024362600C341C
:1085E0008C42F4D1F0BDC1698068D1F8A0401B0174
:1085F00000F110019BB202F00F02012088401343EA
:1086000004F1C0015A0013F4004F93B202D1626822
:10861000024362600C34A142F4D1F0BD02F1010CBE
:108620000CF0030CB445ADD03A4403EBC20213186E
:1086300093F8F1140029A5D0631901229A71A1E7DA
:1086400004000010E8180020704700BF024B03EB45
:10865000401090F821007047040000104368B0F803
:10866000502010B41A83EFF31182502383F3128841
:108670004168446C0B6823EA0403C46C2343D2B200
:108680000B6082F31188D0E90741826803691268A0
:108690001C605961D0E909415C60C46A9960B0F816
:1086A0006010DC600023D1625DF8044B03767047F4
:1086B000037D1F2B30B54FF02002046816D9A3F1BB
:1086C00020056168AA400A420FD00C4A002182F8B6
:1086D000441541680A681F2B22F001020A604FF01E
:1086E000200206D9203B9A40E26030BD21689A40C2
:1086F000E9E702FA03F3A360F7E700BFE8180020F8
:10870000F0B4037D85691F2B63D90168A3F12002B2
:108710004E6820249440264249D010239340CC60D8
:10872000CB604B68D340DE0767D4EFF31183502250
:1087300082F312882A6C1168C9072FD4516889B254
:1087400071B9D5E90964A64225D0AF692744D7603D
:1087500058D9341BA4B25460AE62002185F864106D
:10876000116841F00101DBB2116083F31188037DD0
:108770001F2B19D802681946106808238B4018422D
:1087800000D093601068042303FA01F1014200D085
:108790009160F0BC7047012285F86420DBB283F35E
:1087A0001188037D1F2BE5D90168A3F120024C68D5
:1087B00008209040044200D0C8604C68042000FAB1
:1087C00002F22242E5D0203B00FA03F3F0BCCB607A
:1087D00070470268202416689C4026421946CBD078
:1087E00010219940946091601168D940CC079CD5C4
:1087F000012101FA03F3936097E7012303FA02F2E0
:10880000CA6092E72E69341BA4B25460A962A4E73F
:108810004FF40063838170474FF400638381704796
:10882000B0F90000084B4143994208DBB1F5000F55
:1088300007DA0029B8BFFF31081200B270470348B9
:10884000FBE747F6FF70F8E701FF7FFF0080FFFFBF
:10885000704708B5F52111F06BFA702818D008D8C8
:10886000422817D0472817D0122814BF002008200C
:1088700008BDAC2812D006D800F0FD00712814BF46
:1088800000200620F4E7AF2814BF00200920EFE7FE
:108890000520EDE70C20EBE70D20E9E70720E7E7EF
:1088A00038B590F82820012A04464FF0000307D07D
:1088B000427F5AB103F00100607780F0010038BDBB
:1088C000406A0268117B69B9637F0BB9012038BD2A
:1088D000074D0849022305F5A96211F05FF995F8E3
:1088E0004935E7E7126A002AEED0184638BD00BFC6
:1088F000E81800208801002038B590F82810427F41
:10890000012904461AD0002372B9012038BD1B6A20
:10891000ABB9002AF9D00D4D0D49022305F5A96226
:1089200011F03CF995F8493503F0010363771A46D5
:10893000002BEAD094F828100129F7D1606A036867
:10894000197B0029E3D1002ADFD0E4E7E8180020F2
:10895000880100200123437700207047D0E90B21D4
:1089600008B583690B4483610AB10846904700202B
:1089700008BD00BF436A1B681B6A5B685B780246E0
:1089800013F0010008BF5077704700BF70B5224A4E
:10899000224C234B94B00546CDE90042214A09926E
:1089A000A4F108020A922A7F0493201D0023CDE936
:1089B00005039A42CDE90E330B931093139314BF22
:1089C0000520042011936B6A0C9002200122029072
:1089D00018688DF80C200E4607928DF820208DF82F
:1089E00034208DF848204EF0B7F82B7F93B1330E2A
:1089F00004F8073C063C320C330A22706370A67000
:108A0000686A694611F098F86B6A18684EF0A4F825
:108A100014B070BD073CEEE7341E00209401002026
:108A2000758900085589000810B5044694B0502295
:108A30000649684650F044FD606A694611F07CF8CA
:108A4000636A18684EF088F814B010BD2C960508BB
:108A5000C2628161704700BF2DE9F0410446406A5F
:108A600000681E460F4690464EF076F8237F002B96
:108A700037D0254DA0690523EB64030E6B7505F116
:108A800016039870020C000A58701A703B68AB65A8
:108A90000020D8F800302B66012E2363286727D0EA
:108AA000022E1CD1D8F80420A866796885F86400E5
:108AB000E966134415496A670120236385F8780045
:108AC000E967134B617F606A03F11402002914BF48
:108AD0001946114611F030F8E36A83B1206BBDE806
:108AE000F081094DA0690423EB6405F11503C8E783
:108AF000064B85F86460C5E91A306867E1E7636A88
:108B000018684EF029F8E9E7880100205D8900081F
:108B1000A4010020704700BF00B583B081610192BD
:108B2000049A0093C26201236A4601A9FFF794FFE9
:108B300003B05DF804FB00BF043070470D4B93F8A1
:108B40005425D3F850150244D2B283F8542593F833
:108B5000542508441206C3F8500505D593F854254A
:108B600082F0800283F85425034B012283F894207D
:108B7000704700BFE8180020880100202DE9F04769
:108B8000144FD7F85855ED0A1ED00026B04607F509
:108B9000B269D7F85C351048D3F828A0C7F88885A3
:108BA000AC19641010234A46E102D0470F280BDDB0
:108BB0000A4B03F1100C53F8041B013107D1634534
:108BC000F9D12546B542E4DCE802BDE8F087661C31
:108BD000F8E700BFE8180020441E0020781E00209F
:108BE0001C4BD3F8A015D3F8A4258A1A322A16D81C
:108BF000D3F8B8258A4200D37047D3F8AC2522B306
:108C00001068928810B444693231224218BF4283FE
:108C10005DF8044B08BF0283C3F8B815704793F89A
:108C2000A825D3F8AC1502F0010219B132B90A68CF
:108C3000898811830022C3F8B82570470A6889889B
:108C400051830022C3F8B82570473231C3F8B815F4
:108C5000704700BFE8180020122301480B807047BE
:108C600020020020042301480B80704734020020BA
:108C70002048D0F8E837D0F8EC2730B59B184FF0F3
:108C80001A040C8001D11C4830BD1B4AD0F8EA17E9
:108C90004FF0000E10467546B3F1204F4FEA137C9B
:108CA0000CF130040EF1020E2ABF0CF1370C847067
:108CB00080F802C0BEF1100FC5704FEA031300F137
:108CC0000200E9D100200446B1F1204F4FEA1173B0
:108CD00003F1300C00F102002ABF373382F812C0D2
:108CE00093740828D4744FEA011102F10202EBD107
:108CF000014830BD00F0FF1F38020020094A92F8F9
:108D0000A835D2F8AC2503F001031AB123B91368D2
:108D100092881A8300207047136892885A83002033
:108D2000704700BFE81800204FF40070034B10603C
:108D3000D3F8C8350B600020704700BFE81800204A
:108D400000207047012070470120704700207047C5
:108D5000F0B511F0010583B00AD190F82860012E1A
:108D6000044607D0C368B3F1807F01D9012323777C
:108D700003B0F0BD0A4B476AD3F8F80511F034F898
:108D8000E368B880B3F1807FF2D9B7218DF8041081
:108D9000267733462A46384601A910F0FFFEE7E75A
:108DA000E81800202DE9F0430446406A344D00687D
:108DB00095B00E46914698464DF0CEFE314B01934C
:108DC000314B049305F1D4030093217F02230293D6
:108DD00005F1CC02012300278DF80C30059206978F
:108DE000002936D08DF834308DF84830CDE9097738
:108DF000330ECDE90E77CDE9107785F8CD30052318
:108E0000CDF82C908DF82070CDF830801397CE35AA
:108E10000793330C1D4F2B70330A6B70AE70D7F86D
:108E2000F805656A10F0E0FF637FA88033BB05A9F1
:108E3000284610F081FE636A18684DF08DFED7F861
:108E4000000610F0D1FF636A9880404615B0BDE877
:108E5000F0838DF834308DF848300423CDE90911C2
:108E6000CDE90E11CDE91011CDF82C908DF8201020
:108E7000CDF830801391CD350793CAE76946D7E71F
:108E800088010020E41E002075890008E8180020F1
:108E900010B5074C94F804360BB9002010BD12F041
:108EA00099FFD4F80836C01AD0F5FA50F6D5F4E791
:108EB000E818002030B5044691B00D46FFF7E8FFF2
:108EC00023685C6808B114F0A3FD2368154A1B6A87
:108ED000002082F8040613BB92F805168DF81030B6
:108EE000C9228DF803200DF10302CDE90123CDE95C
:108EF0000751012201A9204603928DF824208DF804
:108F00003820CDE90533CDE90A33CDE90C330F9391
:108F100010F012FE2268136A002BFCD1012011B060
:108F200030BD00BFE81800202DE9F04FAE4C94F89A
:108F300000A089B0BAF1000F1ED1D4F8F834002B8C
:108F400016DD0026A94831460769D0F8A0303D68F3
:108F500025F0010503F1C0023D6059600C339A42CF
:108F6000FBD1D4F8F8340136B34200F58070EBDC65
:108F7000012009B0BDE8F08F9D4ED6F8A05512F043
:108F800029FFD4F80431D4F808211433801AB0EB47
:108F9000430FC0F28981D4F80C310293954BA3FBA7
:108FA0000523954A5B09A2FB032C4FEADC0C0CEB72
:108FB0008C0CA3EB4C0C96F8E134182202FB0366F0
:108FC000D4F81821019206F2F143D4F81421079342
:108FD00004F5067E002305925FFA8CF20693049254
:108FE0000EEB8C0C04F5887B261D03931F46029B19
:108FF000BB4240F3EA80B16973680A69980053681C
:10900000D1F8EC201FFA83F8A2EB0808D1F8E83079
:1090100000F1085008F1806500EB4310393D00EB8A
:10902000851501468D4240F2C4800A6801F58073BF
:10903000002A00F02C810A6C002A00F02B81D1F864
:109040008020002A00F02981D1F8C0201946002A8A
:10905000E8D19D4240F2AD80181AA8EBA010452837
:1090600028BF4520002503EB801199462846A846D5
:10907000994218D91A6892B91A6C002A40F0C08037
:10908000D3F88020002A40F0E480D3F8C02003F514
:1090900080732AB98B42EBD21A68002AECD0403395
:1090A000994200F2B1804546112D40F28280C8F10C
:1090B0001503002B7DDB07D000FA03F30122C8F172
:1090C000140002FA00F018434C49C0F3C43301EB1A
:1090D00083030D461A6D00F01F0301EB83031B6D24
:1090E00043EA0233C0F3441201EB8202C0F384214D
:1090F00005EB8101126D096D43EA021343EA012178
:1091000081EA112383EA131303F00F030F2B13D10A
:10911000B1F5803F10D2019B09090133B1F5606FB1
:10912000019340F0C980079BDB5D0D2B00F0C080F0
:109130000B46ABF80C3008E0019B01330193059B13
:109140000133CDE9053A4FF6FF719EF85830049887
:10915000834214D0DCF80820DEF800309B1ACEF8E9
:109160000030DCF83020DEF804309B1ACEF80430F2
:109170000023CCF80830CCF830308EF85800DEF8F8
:1091800000300133CEF80030DCF808300133CCF881
:1091900008304FF6FF73994276D1DEF80430CDF8EF
:1091A0000CA00133CEF80430DCF830300133CCF8B9
:1091B00030300137082F0EF15C0E0CF15C0C0BF116
:1091C000140B06F120067FF412AF039B13B1019B31
:1091D000C4F81831069B13B1059BC4F81431012360
:1091E00084F81632A9E600BF040000100005001044
:1091F000E81800201F85EB51CDCCCCCC2C9605086F
:10920000803399427FF64FAFA3EB09029211551CB0
:109210002A4A82FB0592A2EBE572012AB8BF01221D
:10922000904001259044013A05FA02F210431D4690
:109230002A6882B12A6C9AB3D5F8802092B3D5F807
:10924000C02005F580753AB1A942F1D899462B4660
:109250000EE7C03324E74035A942F7D9EB1A9B113A
:109260005A1C164B83FB0293A3EBE273012BB8BF8E
:109270000123984098440122013B02FA03F318436A
:109280002B4699462B46F3E6CDF80CA091E701F169
:109290004003DEE601F18003DBE601F1C003D8E61E
:1092A0008035D9E7C035D7E7002009B0BDE8F08F99
:1092B00080238BF81E3048E78BB23AE75655555558
:1092C00010B504464FF084FC81B22046BDE8104042
:1092D000FFF72CB92DE9F0411F4B93F8E02493F8E8
:1092E000E1349A4232D11D4ED6F8F854002D12DDE9
:1092F0000024377806F2FC40A046013417B1037E03
:10930000012B1ED002691368AC4243F0010300F543
:1093100080701360F1D112F05DFDD6F8FC48C6F8FC
:109320000801002C0BDD0E4A02EBC404116893887F
:109330008889083203439BB2A2428B81F6D1BDE8F3
:10934000F08180F8F080FFF789F9DBE74AF0ECFD67
:109350000028C8D1BDE8F081E81800200400001002
:109360000409001010B57D4C94F8E02494F8E13421
:109370009A4240F099817A4B93F82029002A00F014
:10938000EC8093F82439002B40F0EC80D4F80C16D4
:10939000088820F080000004000C0880B4F8100653
:1093A000C862088880B240F0800008804B62B1F843
:1093B0000CC0B4F8200640EA0C0080B2012A888173
:1093C000A4F8203600F0C980D4F82416088820F0CC
:1093D00080000004000C0880B4F82806C8620888E1
:1093E00080B240F0800008804B62B1F80CC0B4F845
:1093F000380640EA0C0080B2022A8881A4F8383688
:1094000000F0AB80D4F83C16088820F080000004FF
:10941000000C0880B4F84006C862088880B240F0AA
:10942000800008804B62B1F80CC0B4F8500640EAE6
:109430000C0080B2032A8881A4F8503600F08D8099
:10944000D4F85416088820F080000004000C08802E
:10945000B4F85806C862088880B240F080000880DE
:109460004B62B1F80CC0B4F8680640EA0C0080B258
:10947000042A8881A4F868366FD0D4F86C1608885E
:1094800020F080000004000C0880B4F87006C86268
:10949000088880B240F0800008804B62B1F80CC0B0
:1094A000B4F8800640EA0C0080B2052A8881A4F84E
:1094B000803652D0D4F88416088820F0800000044A
:1094C000000C0880B4F88806C862088880B240F0B2
:1094D000800008804B62B1F80CC0B4F8980640EAEE
:1094E0000C0080B2062A8881A4F8983635D0D4F8CA
:1094F0009C16088820F080000004000C0880B4F856
:10950000A006C862088880B240F0800008804B62E4
:10951000B1F80CC0B4F8B00640EA0C0080B2072ADB
:109520008881A4F8B03618D0D4F8B426B4F8B806B8
:10953000118821F080010904090C1180D062108883
:10954000B4F8C81680B240F0800010805362908951
:10955000014389B29181A4F8C83610BDE8180020F3
:1095600004000010D4F81436B4F8181659601968BD
:10957000D4F80C0641F00101196040F20D33A0F857
:109580004830818989B241F48071012A8181E4D017
:10959000D4F82C16B4F830064860086840F0010092
:1095A0000860D4F82406A0F84830818989B241F4D3
:1095B0008071022A8181D0D0D4F84416B4F84806CC
:1095C0004860086840F001000860D4F83C06A0F844
:1095D0004830818989B241F48071032A8181BCD0ED
:1095E000D4F85C16B4F860064860086840F00100E2
:1095F0000860D4F85406A0F84830818989B241F453
:109600008071042A8181A8D0D4F87416B4F8780641
:109610004860086840F001000860D4F86C06A0F8C3
:109620004830818989B241F48071052A818194D0C2
:10963000D4F88C16B4F890064860086840F0010031
:109640000860D4F88406A0F84830818989B241F4D2
:109650008071062A818180D0D4F8A416B4F8A806B7
:109660004860086840F001000860D4F89C06A0F843
:109670004830818989B241F48071072A81813FF4A1
:109680006CAFD4F8BC16B4F8C0264A600868D4F8A9
:10969000B42640F001000860A2F8483093899BB2DC
:1096A00043F48073938110BD4AF03EFC00287FF4A0
:1096B00062AE10BD70B5104ED6F80C31002B18DD1F
:1096C000341D002505E0D6F80C31AB4204F120042E
:1096D0000FDD237F0135002BF5D0E0680028F2D0A4
:1096E000217D11F033F9D6F80C31AB4204F120049E
:1096F000EFDC012070BD00BF040000102DE9F04731
:10970000037D02681F2B044608D95068A3F1200589
:109710002021A940014206D1BDE8F0871068202130
:1097200099400142F8D0BB49BB4E4968C6F8281998
:1097300096F82419D4F81890DFF8E482F1B98C2156
:1097400001FB0981D1F88800D1F8007105683868FB
:10975000B1F88CC020F001003860A98989B221EAF3
:109760000C01A9813178E9B91F2B40F2B580A3F132
:10977000200120238B40D360BDE8F0878C2101FBC2
:109780000981D1F8881048690D68016821F001014C
:109790000160A98921F480710904090CA98131783B
:1097A0000029E1D04FF08C0A0AFB098ADAF800712F
:1097B000384645F099FFD6F8303901228AF8D4208E
:1097C000002B00F0F5802A888C2303FB098392B2DA
:1097D00042F080022A80B3F8F4204FF0FF31E962B2
:1097E000002A7FD12A8CB3F8F610B3F8F800B3F84A
:1097F000FCC022F001021204120C2A84B3F8FA20F1
:109800002B8B23F0F3031B0440EA0C101B0C0343C7
:10981000288C9BB22B8383B223F00A030B4343F0C3
:1098200001032B842B8B23F00C031B041B0C2B83B9
:109830002B8B9BB21A432A838C2303FB09830022C0
:10984000D3F8AC00C3F8A420D3F8982039680243B9
:10985000D3F8B0000243D3F8B4000243D3F8B80001
:109860000243D3F8BC000243D3F8C0000243D3F84C
:10987000CC000243D3F8D0000243684808400243BA
:109880003A60D3E931207969024321F007010A43A4
:109890007A61D3F8A8207A60D3F89C20BA60D3F814
:1098A000A020FA60D3F8002116215160116841F020
:1098B00001011160D3F88820B3F88C3012689189C7
:1098C0000B439BB2534993814B68C6F82C39237DD7
:1098D00022681F2B3FF64BAF202101FA03F3936060
:1098E000BDE8F087042A33D0082A2A8C65D022F4F8
:1098F0008052B3F8FC10B3F8F800B3F8F6C01204C5
:10990000120C2A84090341EA0020A98BB5F820E053
:10991000B3F8FA2045F6FF7303EA0E0343EA0C336B
:1099200040F6FF4C0CEA01019BB2014343F4805323
:1099300089B2A9832B84AB8B23F440631B041B0CDB
:10994000AB83AB8B9BB243EA02239BB2AB8373E73F
:10995000298CB3F8F820B3F8FC00B3F8F6C021F076
:1099600010010904090C29841202B3F8FA1042EA22
:109970000032288B2B8C9BB223F0A00343EA0C13FC
:1099800040F6FF4C0CEA00009BB2024343F0100388
:1099900092B22A832B842B8B23F440631B041B0C71
:1099A0002B832B8B9BB243EA01239BB22B8343E790
:1099B00012F010FAC6F8300905E722F4807212049A
:1099C000120CB3F8F600B3F8F810B3F8FCC02A8410
:1099D000B3F8FA20AB8B23F0F3031B0441EA0C111C
:1099E0001B0C0B4399B22B8CA9839BB223F42063ED
:1099F00043EA00239BB243F480732B84AB8B23F0A8
:109A00000C031B041B0CAB83AB8B9BB21A43AA83C6
:109A100012E700BF001000E0040000103F801CF0BF
:109A2000E81800202DE9F04FDFF80CB19BF800405A
:109A300087B024B90124204607B0BDE8F08F3B4E23
:109A4000D6F8A05512F0C6F99BF860390390002BA8
:109A500000F0DE82364AA2FB0532364B5209A3FBE8
:109A60000213DB0803EB8303A2EB4303DAB2049295
:109A70000BF5067202EB830300930BF588730192DA
:109A800006F1E00402930027DBF83039039AD31A79
:109A900004D454F8082C9342C0F26A82234A54F842
:109AA00058AC256ADAF800608C2303FB072393F88F
:109AB000D430002B40F09681284645F015FE1B4A15
:109AC0008C2303FB0723002283F8D4209AF8051087
:109AD0000C2914D8DFE811F07801130013001300EB
:109AE00071011300130013007F0113001300130012
:109AF0000D00B38B23F400631B041B0CB3832246BD
:109B0000304615F019FB9AF805300C2B1ED8DFE80B
:109B100013F04B011D001D001D0042011D001D0022
:109B20001D0039011D001D001D001500E818002052
:109B30001F85EB51CDCCCCCC04000010B38B23F4AB
:109B400000631B041B0C43F40063B383019B54F8B4
:109B5000342C54F8101C5C330193009B5C3300934D
:109B6000029B1433029354F8483C43F040031343E0
:109B700054F8302C134354F82C2C134354F8282C4D
:109B8000134354F8242C134354F8202C134340223D
:109B900044F83C2C54F8142C13432A6822F07E62BB
:109BA00022F45F3222F470720B4313432B6054E9AA
:109BB00007316A690B4322F0070213436B6154F8C3
:109BC000383C6B6054F8443CAB6054F8403CEB606C
:109BD0002B6843F010032B609BF8603901379F42DC
:109BE00004F18C04FFF650AF012200218BF81622FD
:109BF000CBF83019002B3FF41DAF9D4890F8901022
:109C0000890700F1A081D0F88810086849798A4056
:109C1000018C92B289B221EA02010184018C89B2DD
:109C20000A43012B02843FF405AF914991F81C21AE
:109C3000970700F1A281D1F8142110685479018CA2
:109C4000012289B2A24092B221EA02010184018C70
:109C500089B20A43022B02843FF4ECAE844991F8A6
:109C6000A821960700F1A281D1F8A02110685479AB
:109C7000018C012289B2A24092B221EA0201018440
:109C8000018C89B20A43032B02843FF4D3AE784996
:109C900091F83422950700F19281D1F82C221068B6
:109CA0005479018C012289B2A24092B221EA0201C8
:109CB0000184018C89B20A43042B02843FF4BAAEBA
:109CC0006B4991F8C022940700F18281D1F8B82243
:109CD00010685479018C012289B2A24092B221EA23
:109CE00002010184018C89B20A43052B02843FF4EE
:109CF000A1AE5F4991F84C23900700F17281D1F831
:109D0000442310685479018C012289B2A24092B296
:109D100021EA02010184018C89B20A43062B0284E4
:109D20003FF488AE524991F8D823920700F162813E
:109D3000D1F8D02310685479018C012289B2A24055
:109D400092B221EA02010184018C89B20A43082BF4
:109D500002847FF46FAE464A92F864349B0740F168
:109D60005281D2F85C240423116850790A8C834014
:109D70009BB292B222EA03020A840A8C92B2134383
:109D80000B8457E6B38B23F008031B041B0C43F032
:109D90000803B383DAE6338B23F400631B041B0C44
:109DA00043F400633383D1E6338B23F008031B04B1
:109DB0001B0C43F008033383C8E6338B23F40063A2
:109DC0001B041B0C33839AE6338B23F008031B041C
:109DD0001B0C338393E6B38B23F008031B041B0C8B
:109DE000B3838CE66B6834F8542C1FFA83F8B3897C
:109DF000C8F116089BB223EA0203B8F1070FB3813A
:109E00007FF65AAEDBF818310133CBF81831A36A6C
:109E100005939E4600225EF804CB012191466046E0
:109E20001DE0DEF800C0B9F1140FACEB000321DC3B
:109E300013F1080048BF03F11700031109EB2019C3
:109E4000604603F1FF3C013102FA03F3012202FAFA
:109E50000CF2884542EA03020EF1040E0AD388454B
:109E6000DFD8C9F11503DEF800004FF01509E8E767
:109E7000E8180020B9F1150F5CD16848C2F38423BB
:109E8000C2F3441100EB830300EB8101D3F8D0301F
:109E9000D1F8D0101B0243EA011302F01F0100EBBE
:109EA0008101C2F3C43200EB8202D1F8D010D2F8A3
:109EB000D0200B4343EA023383EA132282EA1212D0
:109EC00002F00F020F2A35D1C3F30F134FF6FF72C2
:109ED00093422FD0B3F5606F58D0029A93810198C6
:109EE000049990F858208A4210D0009A916802682C
:109EF000521A00990260096B4268521A0099426036
:109F000000228A600A63049980F858100199009829
:109F10000A6801320A608268013282604FF6FF727D
:109F200093427FF4C9AD4B6801334B60036B01333F
:109F30000363C1E5DBF814310133CBF814316FB1A1
:109F40004FF6FF73CBE7364AD2F888201068547971
:109F5000018C0422A24089B292B25CE60599314894
:109F600058224FF0ADFADAF800604FF6FF73B6E70B
:109F70000024204607B0BDE8F08F294AD2F814210A
:109F800010685479018C042289B25BE6244991F867
:109F9000E12402EB420201EBC2023A4492F8F124BE
:109FA0000D2A9AD1029980228A7798E71C4AD2F822
:109FB000A02110685479018C042289B25BE6184A0A
:109FC000D2F82C2210685479018C042289B26BE6F5
:109FD000134AD2F8B82210685479018C042289B24D
:109FE0007BE60F4AD2F8442310685479018C04228E
:109FF00089B28BE60A4AD2F8D02310685479018CD2
:10A00000042289B29BE6064BD3F85C240123ABE61D
:10A0100001228BF81622CBF830390CE52C96050876
:10A02000E8180020C001001010B500F10C04C06851
:10A030004CF096FD0022212120460FF051FEFC221B
:10A04000202120460FF04CFE4022242120460FF014
:10A0500047FE0C22232120460FF042FE002222213F
:10A0600020460FF03DFE642013F0BEFE012010BD1F
:10A0700037B500F10C040546C0684CF071FD0022B4
:10A080000A2120460FF02CFE142013F0ADFE0F2203
:10A090000A2120460FF024FE0A2013F0A5FE01AA93
:10A0A0000323102120460FF073FC0A2013F09CFEBE
:10A0B0009DF804308033A5F8F6309DF805308033E4
:10A0C000A5F8F8309DF806308033A5F8FA30002264
:10A0D0000A2120460FF004FE0A2013F085FE0DF140
:10A0E00003020123022120460FF052FC01230DF14F
:10A0F0000302092120460FF04BFC11220A212046C1
:10A100000FF0EEFD012003B030BD10B500F10C04DE
:10A11000C0684CF025FD01220B2120460FF0E0FD28
:10A1200020B11D22092120460FF0DAFD00F00100C8
:10A1300010BD2DE9F04144F23B33054600F1100615
:10A14000A0F84C3190F82101A0B30709013F052F79
:10A1500000F00F0000F29A80DFF84C8108EB470313
:10A16000B3F8502142FA00F414F001040FD0012397
:10A1700003FA00F00138104047444DF019FD97F8FC
:10A180005C31464C184404EBC0042623E380294686
:10A19000434B41F80C3F20464AF0DEFE54B1A38801
:10A1A000B3FA83F24FF00043D34003D03D490A682D
:10A1B00013430B6095F8D830072B69D195F81D3102
:10A1C0000224002B66D1274680226B2130460FF0F7
:10A1D00087FD642013F008FE0722682130460FF047
:10A1E0007FFD642013F000FE00226B2130460FF04B
:10A1F00077FD642013F0F8FD01226B2130460FF04B
:10A200006FFD0F2013F0F0FDFA001B2130460FF018
:10A2100067FD0F2013F0E8FDE2001C2130460FF02F
:10A220005FFD0F2013F0E0FD95F8DB30052B33D8F0
:10A2300095F81E31032B2FD195F8233103F0FB0342
:10A24000022B0CBF002207221A2130460FF048FDD6
:10A250000F2013F0C9FD95F82021192130460FF089
:10A260003FFD642013F0C0FD1022372130460FF06F
:10A2700037FD0F2013F0B8FD3046012238210FF0D2
:10A280002FFDBDE8F0410F2013F0AEBD00247EE7A6
:10A29000032498E7032797E70022D5E7B41F00209F
:10A2A00069B80008003C01402C96050810B504462A
:10A2B000FFF73FFF1022A0186A210FF0B7FC6420BF
:10A2C00013F092FD04480FF08FFDA082BDE810400E
:10A2D000012013F09DBB00BF002D310137B500F107
:10A2E0000C0504467022002128460FF0F9FC2022BC
:10A2F000012128460FF0F4FC0022022128460FF02D
:10A30000EFFC642013F070FD94F8F40088B110F0B5
:10A3100091FF08B12823C3802146074B41F8083F2D
:10A3200001904AF019FE019810F096F8019810F08B
:10A3300093F8012003B030BD5188000810B5134CCC
:10A3400094F8D6304BB10C30114A062328214CF03A
:10A350001BFC002084F8D60010BD0E4AB2F9CC399F
:10A36000002BB8BF03339B100B80B2F9CE39002B02
:10A37000B8BF03339B104B80B2F9D039002BB8BF64
:10A3800003339B108B800120E4E700BF880100208D
:10A39000B4220020E818002010B50E4C94F8D730F5
:10A3A0004BB10C300C4A062303214CF0EDFB00208E
:10A3B00084F8D70010BD094BB3F8D22952BA0A80ED
:10A3C000B3F8D42952BA8A80B3F8D6395BBA4B8035
:10A3D0000120EDE788010020BA220020E8180020C3
:10A3E00010B5174C94F8D839012B00F10C000CD0A3
:10A3F000022B17D0012304F6D91206214CF0C4FB1E
:10A40000012384F8D839002010BD94F8D93913F00D
:10A410000403F6D0062304F6DA1200214CF0B4FB54
:10A420000223EEE7B4F8DA390B80B4F8DC394B805C
:10A43000B4F8DE398B80002384F8D8390120E3E7B3
:10A44000E818002038B5354C94F8E039013B054652
:10A450000A460C30032B03D8DFE803F00C1B22461E
:10A4600001232F4A02214CF08FFB012384F8E039AD
:10A47000002006E094F8E139DA0703D4002084F8DC
:10A48000E00938BD0623274A03214CF07DFB022357
:10A49000ECE70123224A09214CF076FB0323E5E790
:10A4A000EB681A78012A10D0022A05D11B6A1BB961
:10A4B00011220A210FF0BAFB94F8E10910F00C0008
:10A4C000DCD1042384F8E039DBE793F9040011229E
:10A4D000431C84F8E829EFD00228EDDC124B297CDC
:10A4E0000A2249F0B9FDE7E7B5F9F6100D48FEF785
:10A4F00097F940421080B5F9F8100C48FEF790F932
:10A5000040425080B5F9FA100948FEF789F9002356
:10A510004042908084F8E0390120B2E7E81800203A
:10A52000C9220020CA220020D0220020CC220020F4
:10A53000CE2200202DE9F047089F884615460021CD
:10A54000202204461E464FF01EF84FB13B68E381BF
:10A550001B0C23827B687A89E3821B0C6282238333
:10A5600040464CF077FEEB0619D4431EB8B108EB19
:10A57000000701E0013B12D317F801CDBCF12E0F0B
:10A58000F8D1C01A421E032AA8BF0322082B03F1E8
:10A59000010AA8BF08239146C2441A4606E00828CB
:10A5A0000246C246A8BF08224FF000094FF02033F0
:10A5B00041462360636004F1080720464EF080FFA7
:10A5C000174B23815146BB704A4638464EF078FF00
:10A5D000611EE31D11F801CFACF1610EBEF1190F40
:10A5E0009CBFACF1200C81F800C08B42F2D1384600
:10A5F00004F10B0110F8013BA3F16102192A9CBF81
:10A60000203B00F8013C8842F4D118232373330C1B
:10A61000A382E572099B6683E361BDE8F08700BF12
:10A62000202020000A4608B5054920B9054845F014
:10A63000C3FA034808BD044845F0BEFA004808BD07
:10A64000D42200201C0D0608440D060810B5044C49
:10A6500004480A46214645F0AFFA204610BD00BF27
:10A66000D42200206C0D060810B5044C04480A469C
:10A67000214645F0A1FA204610BD00BFD42200209B
:10A68000800D060810B5044C04480A46214645F0E2
:10A6900093FA204610BD00BFD42200208C0D06087E
:10A6A0002DE9F04FDFF88894D9F8A005C9F8A40582
:10A6B00087B0002B00F0DA8001F5FE781344DFF854
:10A6C00074B40393164601F12007C24621E0002E20
:10A6D00064D0D9F8D435B34200F0CC80D9F8D03565
:10A6E000B34200F0FF80D9F8D835D9F8DC15B34271
:10A6F0004BD8B14200F29981711A204648F01CFDF6
:10A70000039B01369E4207F500770AF5007A00F0B8
:10A71000AD80D9F8E055B542A7F12004D7D8751B14
:10A72000D9F8F08505F00702EB080492D8F830203C
:10A730000233934203D3D8F8382093420BD94146D1
:10A740001846059348F0C8FC059B8046002800F099
:10A750008C81C9F8F00598F80420002A40F0348173
:10A76000D8F82850002D00F07981D8F830209B1AB5
:10A77000049A02EBC303D8F80C20204602EB4322D4
:10A780004FF400714346A847BAE7B142B4D9204616
:10A790004FF4007200214EF0F6FEB1E74FF4007264
:10A7A000314620464EF0EFFE802387F89E310C2381
:10A7B00087F8A231D9F8D035D44AD9F8C815C4F8E9
:10A7C000C6319342C4F8CA1100F33481D04AD14C47
:10A7D00082FB03021A44D817C0EB621284FB0254B6
:10A7E000CD4D85FB03C5C0EB2530C2EB821587F844
:10A7F000A1015B1B801020F03F0001330343144490
:10A8000087F8A031D317C3EBE4142244BF4B87F879
:10A810009F214A1E9A4200F31981BD4BBD4883FB1C
:10A8200002311144D317C3EB611180FB0140BA4CD4
:10A8300084FB0254C3EB2433C1EB811487F8A531A8
:10A84000121B9B1023F03F0301321343084487F887
:10A85000A431CB17C3EBE010014487F8A3115523B3
:10A8600087F8DE31AA2387F8DF3149E7002007B0F7
:10A87000BDE8F08F4FF0FF3384F8EC3184F8ED3110
:10A8800084F8EE3184F8EF31D9F8E835C4F8E831CE
:10A890005223237063706123A37084F8E73141234E
:10A8A0000025E37084F8E631722384F8E43184F8FB
:10A8B000E5314FF4F0722946A7F11C004EF063FE1B
:10A8C0005523C7F8D051C7F8D451C7F8D85184F8E8
:10A8D000FE316FF0550384F8FC5184F8FD5184F883
:10A8E000FF310DE700214FF4007220464EF04BFE81
:10A8F0008A4A03CA47F81D0CEB2007F8200C5820A1
:10A9000007F81F0C902047F8191C07F81E0C0023AD
:10A9100002220821F820E372227307F8131CA273A5
:10A92000E37307F8102C07F80B0CD9F8D00584F85E
:10A930002C20D9F8C8256376121A2262D9F8D805D6
:10A94000D9F8DC25E376121A3F2020764FF0FF304D
:10A95000A0763E20207701206377A377E37784F801
:10A960002D3084F82E3084F82F30626284F8300065
:10A9700084F8313087F82610802187F820102921AB
:10A9800087F82210942187F823100E2187F82410CD
:10A990000D21634A87F82510552187F8DE11AA2179
:10A9A00087F8DF1103CA5F4BC7F82700C7F82B10E1
:10A9B00003CB1388A7F82F309378C7F83200C7F875
:10A9C000361087F831309BE64FF4007200212046A4
:10A9D0004EF0D9FD049B002B4ED1D8F84030002B0F
:10A9E00000F0AA80049AD8F830304F49CDE900220F
:10A9F00020461122FFF79EFDD8F840301A6C002A3D
:10AA000000F0AD80049A1B6BCDE90022474911226A
:10AA10003846FFF78FFDD8F8448007F120044FF443
:10AA2000E075B8F1000F3FD16AE6F11A204648F010
:10AA300083FB65E6FF2387F89F3187F8A13187F80C
:10AA4000A031324B4A1E9A427FF7E7AEFF2387F8C8
:10AA5000A33187F8A53187F8A43100E729462046BD
:10AA60004FF400724EF08FFD4AE6A7F1240343F83D
:10AA700004BF9A45FBD143E6D8F84030049AD8F891
:10AA80004480002B0CBF01230223C3EB0215434675
:10AA9000002B3FF435AE013D9B6CF9D198464FF445
:10AAA0000075002B3FF42CAE25442034234620357E
:10AAB0004446049698460EE05CF81C1B236BCDF8C8
:10AAC00000C000260196FFF735FDA46C08F12008B0
:10AAD000CCB1A84517D02379A44604F11C0E11224D
:10AAE000A8F12000002BE7D162792669236B216849
:10AAF00042F02102CDE900E6FFF71CFDA46C08F14D
:10AB00002008002CE5D1049EFAE500BFFF03FB00FE
:10AB1000832008828180808097554541A40D0608D6
:10AB2000B00D0608BC0D06089C0D0608A00D060811
:10AB3000E8180020DEADBEEF049BD9F8CC15CDE9B6
:10AB4000003320460822FFF7F5FCD8F84480B8F11E
:10AB5000000F3FF4D5AD3C464FF4F075A4E7049BDD
:10AB6000CDE9003352E700BFBFF34F8F0549064BD5
:10AB7000CA6802F4E0621343CB60BFF34F8F00BF9B
:10AB8000FDE700BF00ED00E00400FA051648174A93
:10AB9000174938B5174C184D121A4EF091FCD4F8DD
:10ABA0008820164B164842F47002C4F888201A68B0
:10ABB000002142F001021A6099601A6822F0847242
:10ABC00022F480321A6058601A6822F480221A60D7
:10ABD0000C4AD960521B28460B494EF071FCA56007
:10ABE000BDE83840FDF70CBA00000010040000106A
:10ABF00065B7060800ED00E00000002000380240C4
:10AC0000103000248801002000000008F8B5CB783F
:10AC100013B900252846F8BD00F110070C4606467A
:10AC2000897838460FF016F905460028F1D0E0780B
:10AC300010F000FBB06123780133DBB210B1C371B7
:10AC40002223837109210FF0DDFCB0690FF0FCF8BD
:10AC50000D4AD2F8A035632BFBD90C480FF0C4F88D
:10AC6000B0823846FDF7F5FD074630B9E07810F0C0
:10AC7000E1FA10F03FFB3D46CCE7306986F8D8702A
:10AC80004BF06EFFC6E700BFE818002040420F00FF
:10AC900043680B4A23F0407323F4807343F48073BA
:10ACA000436083681A4042F002028260C36A01393D
:10ACB000CAB223F4700141EA0251C162704700BF79
:10ACC000FDF7FFC0704700BF0020FDF7F1B900BFDE
:10ACD0000120FDF7EDB900BF0220FDF7E9B900BF83
:10ACE000431C00F038812DE9F04FDFF898A300EB0A
:10ACF00080030AEBC30287B0D2F8048081000546C6
:10AD00000191DB00B8F1000F04D0D468002C4CD0C6
:10AD1000A17911B107B0BDE8F08FD2F81090B9F168
:10AD2000000F00F0478199F80620002AF2D118336D
:10AD30000AF10406F018D8F80470F250691CC0E952
:10AD400001221523C260C9B2A3711623E17189F8EB
:10AD5000063089F8071098F8180049F0D7F9BB8831
:10AD6000A28823F440731B041B0CBB8023681A8346
:10AD7000D9F80030B9F804201A83112120460FF0C9
:10AD800041FC112148460FF03DFC09264FF0330BE2
:10AD900024B12268A188106901422DD1BBF1010BB9
:10ADA00000F0D3804AF020F8F2E7D2F81090B9F121
:10ADB000000F00F0E88099F80620002AAAD1183385
:10ADC0000AF10401CA18D8F80470CC50C2E9014451
:10ADD0001623D46089F806306B1C89F8073098F880
:10ADE000180049F093F9BB8823F440731B041B0C33
:10ADF000BB80BDE72268A18851834AF051F82368DF
:10AE0000A2881A834AF04CF8013EBFD1002C00F012
:10AE1000EF802368A2885A834AF042F8B9F1000F04
:10AE200000F00B81D9F80030B9F804205A834AF0B9
:10AE300037F82368A2881A834AF032F8D9F800302C
:10AE4000B9F804201A83019B20465C190AEBC4045C
:10AE5000A37D227D002B14BF322112210EF0BCFBFA
:10AE6000A37D627D002B14BF3221122148460EF0D3
:10AE7000B3FB7E4B9F4200F0CA807D4B9F4200F0A7
:10AE8000D1807C4B9F4200F0E080019B2B440AEB79
:10AE9000C30A4FF47A73BAF8184003FB04F4BB8872
:10AEA00023F440731B041B0CBB803B889BB243F014
:10AEB00001033B80BD8802A844F074FB25F03F05E8
:10AEC00004986D4B2D04A3FB00232D0C45EA9345FC
:10AED000BD803A8822F001021204120C3A80674ABF
:10AEE000990C94420B4637DC6200B0FBF2F292B24E
:10AEF0000133042A38BF04223B84BA833B889BB2C7
:10AF000043F001033B803B8823F4816323F0020379
:10AF10001B041B0C4FF4804143F480633B80398158
:10AF20003B8823F080031B041B0C00223B8098F815
:10AF30001A00114648F076FB002298F819001146D5
:10AF400007B0BDE8F04F48F06DBB002C7FF452AF66
:10AF500049F0A6FF56E7704704EB4404B0FBF4F059
:10AF600082B2C0F30B0008B942F001024FF49673AD
:10AF700001FB03F34249A1FB03139B09013342F494
:10AF800000423B84B9E718330AF10401CA18D8F823
:10AF9000047041F80390C2E90199C2F80C9098F846
:10AFA000180049F0B3F8BB8823F440731B041B0C52
:10AFB000BB80E2E618330AF10401CA18D8F804701D
:10AFC00041F80390C2E901991523C2F80C90A371CE
:10AFD0006B1CE37198F8180049F098F8BB88A288B8
:10AFE00023F440731B041B0CBB8023681A83C4E644
:10AFF00049F056FFB9F1000F32D0D9F80030B9F856
:10B0000004205A8349F04CFF49F04AFF16E703F544
:10B01000F2331A6A42F400121A621A6A22F4001217
:10B020001A6232E703F5F0331A6A42F480021A62B8
:10B030001A6A22F480021A6227E749F031FF236876
:10B04000A2881A8349F02CFFFDE603F5EE331A6A55
:10B0500042F400021A621A6A22F400021A6214E729
:10B0600049F01EFF49F01CFFEDE600BF0054004010
:10B0700000580040005C004083DE1B43A0860100B6
:10B08000D34D6210E81800202DE9F843074610F070
:10B0900073FEDFF84C8007EB8709044608EBC9050F
:10B0A00042F20F7604E010F067FE031BB3420ADCA5
:10B0B0006B7F002BF7D108EBC90898F81C0080F0D3
:10B0C0000100BDE8F883B8F8EC3A013338469BB28A
:10B0D000A8F8EC3AFFF704FE0020BDE8F88300BFB3
:10B0E000E818002070B5284D00EB800305EBC30382
:10B0F00084B05A685468A28A92B20392039A12F4F6
:10B10000706F1CBF01221A77039B13F4E06F4FEAA4
:10B1100080060CD1A38A304423F4706305EBC0058C
:10B120001B041B0C0022A3826A7704B070BD238B22
:10B13000A38823F480631B041B0CA380039B9A0544
:10B14000E8D423889B05E5D42388D9050FD5238827
:10B15000DA05FCD423889BB243F400732380238850
:10B160009B05FCD40190FFF7BBFD0198D2E7238833
:10B170009BB243F400732380A38823F440731B0421
:10B180001B0CA380C6E700BFE81800200020A9E739
:10B190000120A7E70220A5E72DE9F84F304F00EB8B
:10B1A000800407EBC404D4F80880B8F1000F04D081
:10B1B0009A46637F03F0FF0923B14FF00009484628
:10B1C000BDE8F88F0E469346054610F0D5FD0A9B64
:10B1D0007600F6B2C4E909330123A67784F81FB0DC
:10B1E00084F8219084F8223084F820A0637784F8D2
:10B1F0001C90B8F804209105064622D4B8F8003017
:10B20000DA0512D442F20F7404E010F0B5FD831B8E
:10B21000A3421ADCB8F800309B05F6D4B8F8003029
:10B220009BB243F48073A8F80030B8F804309BB2A6
:10B230004FF0010943F44073A8F804304846BDE8D4
:10B24000F88F99464846BDE8F88FB7F8EC3A0133D5
:10B250009BB22846A7F8EC3AFFF742FDAFE700BFE4
:10B26000E8180020F8B5774C04EB0016D6F8F03A51
:10B27000002B00F094800546070196F8F80A48F084
:10B2800045FF96F8F83A590903F01F0203294FF0D9
:10B29000010303FA02F300F09880042900F085808E
:10B2A00002297DD0E319013593F8F40A0FF0C2FFAB
:10B2B000EDB2064610B112238371C571E31993F8FC
:10B2C000F50A0FF0B7FF10B11323C5718371E319AD
:10B2D00093F8F60A0FF0AEFF10B11423C571837115
:10B2E0003C444A2194F8F72A30460EF075F994F858
:10B2F000F50A0FF09FFF94F8F72A2A210EF06CF957
:10B3000094F8F60A0FF096FF94F8F72A0A210EF047
:10B3100063F9D4F8F02A4C4B9A425BD04B4B9A42DB
:10B3200048D04B4B9A4260D04A4B9A4268D04A4B25
:10B330009A4270D0494B9A4278D049499088B1F8E6
:10B34000DA40B1F8D830B1F8E2502343B1F8DC402C
:10B350002343B1F8DE4020F003002343B1F8E0407E
:10B360000004000C2343B1F8E44090802B43108884
:10B370002343B1F8E640B1F8E81000F4415023430C
:10B3800003439BB21380938B23F400631B041B0CB9
:10B390009383118213889BB243F040031380F8BD5E
:10B3A000304A516A0B4353627CE72E4A11690B43C2
:10B3B000136177E703F50033196A41F4804119629C
:10B3C000196A21F480411962B7E7264A116A0B43D2
:10B3D000136267E703F58433596A41F48051596277
:10B3E000596A21F480515962A7E703F5FE33196ABF
:10B3F00041F400411962196A21F4004119629CE785
:10B4000003F58233596A41F400515962596A21F4B3
:10B410000051596291E703F56843596A41F480117C
:10B420005962596A21F48011596286E703F5644331
:10B43000596A41F400115962596A21F400115962A4
:10B440007BE700BFE81800200030014000380040D2
:10B45000003C0040003401400050014000540140D5
:10B46000880100200038024010B404698269E46851
:10B47000416814604024D460446900230C31C2E95F
:10B480000433C2E90633C2E90833C2E90A33C2E928
:10B490000C3393609363516084B1C269E068936335
:10B4A000C2E90233C2E90433C2E90633C2E9083310
:10B4B000C2E90A33C2E90C33C2E900015DF8044B6A
:10B4C000704700BF436800221A60037D1F2B08D914
:10B4D000203B2022016802FA03F343F01803CB60FB
:10B4E00070472022016802FA03F343F018038B60CF
:10B4F000704700BF0268136A11B1D96901B31433F0
:10B5000030B49C681D689169DDB14FF4806088613A
:10B510008D60104640690C6180B15968D369C9B12A
:10B520000A464FF480619A609961224312F0010F3C
:10B5300014BF00224FF400521A621C6130BC7047E5
:10B5400070478D61054D4FF0FF0C05F8EACF00689C
:10B550008D60DFE7024A9A609961E6E78801002082
:10B56000082400200168F8B5D1E904230446556891
:10B57000002B49D09861107D5E681F2831D817686C
:10B58000202202FA00F040F01800B8601A7D1F2A4D
:10B5900032D91868203A202303FA02F242F0180246
:10B5A000C26000232B6033603368896943F0100365
:10B5B0003360284644F02EF923683046D96944F0B8
:10B5C00029F92B68226843F001032B603368526825
:10B5D00043F00103336093889BB243F003039380ED
:10B5E000F8BD17682038202202FA00F040F0180059
:10B5F000F8601A7D1F2ACCD81868202303FA02F2BB
:10B6000042F018028260CCE7137D90611F2B1CD89A
:10B610001068202202FA03F343F01803836000232A
:10B620002B602B68896943F010032B60284644F097
:10B63000F1F82B68226843F0010352682B6093886D
:10B640009BB243F002039380F8BD1068203B202298
:10B6500002FA03F343F01803C360E0E72DE9F8436F
:10B66000DFF800927D4F0646356896F888806B6853
:10B67000B088012285F824201A8822F040021204A2
:10B68000120C1A802A89824223D0198821F03801AD
:10B6900009044B454FEA114100F0BC80704A9342C7
:10B6A00000F0B8800246B2F5807FA8BF4FF48072E8
:10B6B000022AB8BF0222002A92FAA2F2B2FA82F259
:10B6C00008BF4FF0FF32013A41EAC20292B21A803B
:10B6D0002881317BAA7A8A420CD01A8822F0030290
:10B6E0001204120C1A801A8892B2002900F08F807E
:10B6F0001A80A9721A8892B242F040021A802A6A0D
:10B700009168002900F0A0804FF0000C1432E6464A
:10B7100052F8100C8E4400EA070120B1B1F1805FAD
:10B7200023D0696909B352F8140C143200EA0701F6
:10B7300010B1B1F1805F18D052F80C1C0CF1010C63
:10B740000029E5D12A7B82B1B8F1000F0DD0BCF100
:10B75000010F6CD8BEF1070F69D80CEB8C01890082
:10B760002A6A11440A7B002A61D02A6A9268002A58
:10B7700052D000220AB1127B22B1B26812B1116814
:10B7800092884A832A6A14682A6A51682A6A9268E7
:10B79000501E9AB12CB3224612F801CB14461A89D6
:10B7A0009207FCD5A3F80CC01A89D207FCD59A8958
:10B7B00092B209B101F8012B0138EBD22B6A1B7B45
:10B7C000F3B92B6A1B6993B12B6AD6F894001B69F5
:10B7D0009847012808D0022809D100232B62BDE830
:10B7E000F8834FF0FF0CDAE72B6A143B2B622A6ACE
:10B7F0002B6A14332B622B6A9B686BB16B68B9E7B9
:10B80000B368002BDDD01A689B881383D9E742F018
:10B8100003026DE7420846E72B6A1B68DBB12B6A1F
:10B82000D3E900622A620022C3E900221CE700215A
:10B830003046FFF75FFEB36813B11A689B885383E5
:10B840003046BDE8F8438DE62A7B002A8DD0B8F15A
:10B85000000F85D189E72B62C1E700BF0000FFFF21
:10B86000003C00400038004038B5D0F8E0102C4BC8
:10B8700004465A68D0F8D80071B1131A99420BDC0B
:10B8800094F8D030C4F8D820012B10D0D4F8D4309C
:10B890000133C4F8D43038BDD4F8E430C4F8D8202B
:10B8A0000344C4F8DC3094F8D030012BEED1616849
:10B8B000201D04F1E805EFF3118C002383F31288B7
:10B8C00063681B6A0BB3D4F8F0302A461BB1D36906
:10B8D0001432002BFBD10B6AFBB1996839B9934242
:10B8E00009D0196829B15B6899680029F7D0143329
:10B8F000F3E7C3E900055FFA8CFC8CF31188D4F8F8
:10B90000D4300133C4F8D43038BD0D625FFA8CFCFA
:10B910008CF31188FFF7A2FEB8E71860FFDE00BFC6
:10B92000001000E0F0B58569296995F84C210B7885
:10B93000012B97B0044606D0022B01D10B6A2BB322
:10B94000002017B0F0BD91F90460731CF8D0022EEE
:10B95000F6DC04AB297D009330460623FFF71CFC80
:10B960000028EDD03046FFF78FFB0028E8D0BDF867
:10B970001010BDF81220BDF8143049BA52BA5BBAA3
:10B980000120E1812282638217B0F0BD62F07F0264
:10B990008DF80F200DF10F029FED257B06920122FD
:10B9A000CDE907328DF838208DF84C2004AA0C928E
:10B9B0000622CDE90A338DED107B8DF824300F93EC
:10B9C000129314930D9205F11000EFF3118683F397
:10B9D00012882B691B6AFBB1089B06AF3A461BB164
:10B9E000D3691432002BFBD10B6AEBB1996839B9DA
:10B9F000934209D0196829B15B6899680029F7D08A
:10BA00001433F3E7C3E90007F6B286F311882A6915
:10BA1000136A002BFCD1AAE706ABF6B20B6286F3E1
:10BA20001188FFF71BFEF2E71860FFDEAFF300801E
:10BA3000000000000000000070B5016990F84D2181
:10BA40000B78012B96B0044606D0022B01D10B6A6D
:10BA500043B3002016B070BD91F904506B1CF8D0B0
:10BA6000022DF6DC04AB017D009328460623FFF788
:10BA700093FB0028EDD02846FFF706FB0028E8D00E
:10BA8000BDF81010BDF81220BDF8143049BA52BAF2
:10BA90005BBA0120A4F8D010A4F8D220A4F8D430C6
:10BAA00016B070BD62F07F028DF80F200DF10F020D
:10BAB0009FED257B06920122CDE907328DF83820D3
:10BAC0008DF84C2004AA0C920622CDE90A338DEDA4
:10BAD000107B10308DF824300F93129314930D9235
:10BAE000EFF3118583F3128823691B6AFBB1089B6E
:10BAF00006AE32461BB1D3691432002BFBD10B6A60
:10BB0000EBB1996839B99A4209D0196829B15B68D3
:10BB100099680029F7D01433F3E7C3E90006EDB2C2
:10BB200085F311882269136A002BFCD1A8E706ABC4
:10BB30000B62EDB285F31188FFF790FDF2E7186014
:10BB4000FFDE00BFAFF30080000000000000000037
:10BB50002DE9F041826992F8DC30012B8AB005466C
:10BB60004DD0023B012B55D892F84C31D2F89C2095
:10BB7000304C63F07F0313708669D6F8A030D6F896
:10BB8000108003F1010E0FCCEC46ACE80F00D6F8A4
:10BB90009C30CDE9003E0FCCACE80F0094E80300E8
:10BBA00006F110078CE80300EFF31180002383F304
:10BBB000128833691B6A002B30D0029B6A461BB186
:10BBC000D3691432002BFBD1D8F82030002B2ED0B3
:10BBD000996839B993420AD0196829B15B689968A4
:10BBE0000029F7D01433F3E71F60C3F804D0C0B2C4
:10BBF00080F31188AA6911690B6A002BFCD1D2F875
:10BC0000A0305A8852BAEA819A8852BA2A82DB88CE
:10BC10005BBA6B8201200AB0BDE8F081C8F820D081
:10BC2000C0B280F311883846FFF718FDE2E71F60C5
:10BC3000FFDE00BF909705082DE9F04190F8DC3059
:10BC4000D0F8A050012B8AB0044659D016D8D0F8AD
:10BC50009C304FF0FF321A605A609A60DA60D0F878
:10BC6000E0300522B3F57A7FC0F8F0207DD80323B9
:10BC700080F8DC3001200AB0BDE8F081023B012BE6
:10BC8000F8D890F84D31D0F89C20544E63F07F03E3
:10BC90001370D0F8A030D0F8108003F1010E00F13D
:10BCA00010070FCEEC46ACE80F00D4F89C30CDE97D
:10BCB000003E0FCEACE80F0096E803008CE80300CE
:10BCC000EFF31180002383F3128823691B6A002B92
:10BCD00074D0029B6A461BB1D3691432002BFBD18E
:10BCE000D8F82030002B76D0996839B9934225D006
:10BCF000196801B35B6899680029F7D01433F3E73A
:10BD000090F84C2190F84D319B1A5B100133DBB257
:10BD100005EB430235F813305BBAA0F8D0305388F6
:10BD20005BBAA0F8D23093885BBAA0F8D430012077
:10BD30000AB0BDE8F0811F60C3F804D0C0B280F340
:10BD400011882269136A002BFCD16B885BBAA4F8B6
:10BD5000D030AB885BBAA4F8D230EB8801205BBA54
:10BD6000A4F8D4300AB0BDE8F08103691A7B72B33D
:10BD70005B6963B390F898304BB390F84C31D0F8CE
:10BD80009C20C4F8A40063F07F03137090F84C115A
:10BD900090F84D31D0F8A0201148C4F804015B1A86
:10BDA00007330121C4F8FC30D4F89C3084F800112A
:10BDB0000A44C4E93D3284F8DC105BE7C8F820D0BF
:10BDC000C0B280F311883846FFF748FCB9E7022378
:10BDD00084F8DC304EE71F60FFDE00BF9097050857
:10BDE0008D80000870B5984C94F8213B012B92B0DF
:10BDF00000F0E480022B00F0D680002B00F095804C
:10BE0000924DD4F8241B95F8EB305B064CBF4FF4F1
:10BE1000F0734FF4C37302AE8D4AC4F8BC2B02F129
:10BE20000212C4F8C02B02F10212C4F8C42B02F1B2
:10BE30000212C4F8C82B02F10212C4F8CC2B02F192
:10BE40000212C4F8D02B02F10212A5F8EC30C4F8AB
:10BE5000D42B012302F102127E4885F8EE308DF8D2
:10BE600014308DF82830C4F8D82B00232022CDE9D7
:10BE70000633CDE9083303930B9302900492EFF35A
:10BE8000118C83F31288D4F8243B1B6A002B00F03A
:10BE9000C080049B32461BB1D3691432002BFBD106
:10BEA0000B6A002B00F0CC80996839B99A420AD00D
:10BEB000196829B15B6899680029F7D01433F3E752
:10BEC000654A5E601A605FFA8CFC8CF31188D4F8C6
:10BED000243B196A0029FCD195F8EB205E480DF04F
:10BEE000A5FE94F8DC2B5C4802210DF09FFE94F82F
:10BEF000DD2B594803210DF099FE94F8DE3B93B1F8
:10BF0000012B7FD0032B14BFC722F72252480121F7
:10BF10000DF08CFEB5F8EC205048002112B0BDE8C1
:10BF200070404DF030BB4722F0E70DF10601A02034
:10BF300002910DF1070101228DF806000891002001
:10BF40000021CDE90C01CDE90332CDE90633D4F867
:10BF5000241B8DF8143009928DF828200B930E9332
:10BF60008DF83C201093EFF3118083F31288D4F8FE
:10BF7000243B1B6A002B59D0049B02AE32461BB1F6
:10BF8000D3691432002BFBD10B6A002B58D099686F
:10BF900039B99A421FD01968D1B15B6899680029F4
:10BFA000F7D01433F3E7294DD4F8241B082385F880
:10BFB000EB300DEB03064FF4C3732DE7234DD4F89C
:10BFC000241B482385F8EB3002AE4FF4F07323E7CF
:10BFD000214AC3E90026C0B280F31188D4F8241B9B
:10BFE0000B6A002BFCD19DF8073003F00602022AF1
:10BFF0000AD003F00503012B144D13D0082385F854
:10C00000EB30D8E7872281E7104D082385F8EB3025
:10C01000D1E70E625FFA8CFC8CF311889838FFF739
:10C020001DFB54E7482385F8EB30CEE702AE0E62E5
:10C03000C0B280F3118804F62430FFF70FFBCDE780
:10C04000054A1A60FFDE00BFE818002088010020C2
:10C0500010011101A42400200C240020C824002079
:10C060000348D0F800310BB1F0301847704700BFDB
:10C07000880100200348D0F8243113B100F58A70FC
:10C0800018477047880100200348D0F8483113B1A1
:10C0900000F59C7018477047880100200348D0F8CD
:10C0A0006C3113B100F5AE7018477047880100205D
:10C0B0000348D0F8903113B100F5C07018477047AD
:10C0C000880100200348D0F8B43113B100F5D270D4
:10C0D00018477047880100200348D0F8D83113B1C1
:10C0E00000F5E47018477047880100200348D0F835
:10C0F000FC3113B100F5F670184770478801002035
:10C100000348D0F8203213B100F504701847704787
:10C11000880100200348D0F8443213B100F50D70B7
:10C1200018477047880100200348D0F8683213B1DF
:10C1300000F5167018477047880100200348D0F8B2
:10C140008C3213B100F51F7018477047880100202A
:10C150000348D0F8B03213B100F528701847704783
:10C16000880100200348D0F8D43213B100F53170B3
:10C1700018477047880100200348D0F8F83213B1FF
:10C1800000F53A7018477047880100200348D0F83E
:10C190001C3313B100F54370184770478801002025
:10C1A000094B0A4A013800EBC00003EB8000116B19
:10C1B000D0F8F030064883420CBF4FF400134FF420
:10C1C00080030B431363704788010020003802404E
:10C1D0000060024070B501383C4C3D4D00EBC00C96
:10C1E00004EB8C0C9646DCF8F0603A4AAE420CBF89
:10C1F0004FF400154FF48005166B35431563CCF8EA
:10C200000011CCF808313449DCF8F4308B424FEAA5
:10C21000C0023ED001F580618B423AD0A1F57A711F
:10C220008B4247D001F580618B4243D0A1F57A71F2
:10C230008B4241D001F580618B423DD0A1F57A71EE
:10C240008B4235D001F580618B4231D0A1F57A71F6
:10C250008B4233D001F580618B422FD0A1F57A71EA
:10C260008B422DD001F580618B4229D0A1F57A71E6
:10C270008B4227D001F580618B4223D0A1F57A71E2
:10C280008B4221D0154D01F580618B4218BF0025EE
:10C2900000E0134D104404EB8003CEF38711C3F884
:10C2A000105193F80501BDE87040002247F0BAB97B
:10C2B0000C4DEFE70C4DEDE70C4DEBE70C4DE9E7CE
:10C2C0000C4DE7E70C4DE5E7044DE3E7880100205E
:10C2D00000600240003802401060024000800028E8
:10C2E00020800010008000180088001000802010BE
:10C2F0002080002000880020008020202DE9F04FC1
:10C30000A04BDFF89C9293F8D23D9F4F8FB0CDE9C0
:10C310000239013BDBB201939C4B0025A3F2D466AA
:10C32000DFF880B2DFF880A25B46D3469A464FEA38
:10C330009A23A3F58013522B4CD8334493F88C31B5
:10C340000D2B47D8FC56029B012B40F0FA80012CA4
:10C3500035D14FF000084146204612F05DFA12F048
:10C36000FBFA037813B1542B40F0058108F104085F
:10C370001FFA88F8B8F1100FEDD14FF0000E8DB311
:10C38000494600200CE0334493F88C310D2B0ED835
:10C39000FB569C420ED00130854201F580711EDDB6
:10C3A0008A6813689B0AA3F58013522BEBD90023EC
:10C3B0009C42F0D153799BF805209A42EBD1734B04
:10C3C0009B454BD05BF820AF4FEA9A23A3F580132F
:10C3D000522BB2D9019B012BF1D90024B9E7BEF150
:10C3E000000FECD158460DF0E3FFC3B2022B9BF8CF
:10C3F00005C000F25383431C5BB203EB43034FEAD7
:10C40000830E634B634903F5727004E0834200F0CE
:10C41000458353F82C1F5145F8D11A796245F5D15F
:10C4200053F80E40002CF1D05B4800234268A24232
:10C4300003F1010300F08280102B00F12400F5D1FC
:10C440004FF0FF33554A03EBC30302EB830393F82A
:10C450000C31002BB3D1039BC3F808B0039B01350B
:10C4600003F58073042D03937FF45AAFDFF83C810A
:10C4700008F6981301270193A8F1040ADAF80C21B1
:10C480007B1E9A4257DDD8F80C50002D00F0028335
:10C490002968AE8801F13F41B6FA86F601F57E01C2
:10C4A000C6F11F06890ADAF8F804002840F38280F2
:10C4B000002302E0013383427AD01C0259F80420A1
:10C4C0008A42F7D14C44C8F80460C8F81840FBB25F
:10C4D00015B1EB710323AB71636CE16C7200032047
:10C4E000904003436364012303FA02F20A43E264C7
:10C4F0009AF8002062B3226DB3401A43226515B149
:10C500002A68A9881183D4F8A00099B20122FBF708
:10C510007FFF2046FCF7A2F8019A0123013788F833
:10C520001C3088F81D305374092F02F1180308F1EC
:10C5300020080193A2D10FB0BDE8F08FDBB2013B20
:10C5400080E7022B7FF405AF082C3FF402AF36E7FB
:10C55000226D06F110018B401343236515B12B6842
:10C56000AA885A830121B140D4F8A00089B20022E0
:10C57000FBF74EFFCDE74FF0010E002D7FF400AF2B
:10C580001DE700BFE8180020480E0608009D0508BA
:10C590000C98050800000140780200208801002066
:10C5A0000005001000040140009C05080800001070
:10C5B000032B6BDC0AEB002203020293D2F8043552
:10C5C000002B00F06082C2F8FC140131C9B282F87D
:10C5D000F91504910130542182F8F815CAF8F804CD
:10C5E0001A685C79039218460DF0E2FEA54AC3B2C0
:10C5F00092F8E72D0592022B98F8102006928646B5
:10C6000000F24C8200F1010C4FFA8CFC0CEB4C0C4C
:10C610009D499E48039A4FEA8C0C002305E00133A4
:10C62000172B00F03B8251F82C0F8242F7D108798A
:10C63000A042F4D151F80C000028F0D02C2101FBCD
:10C6400003F30EEB4E0E9249DFF884B203EB8E0338
:10C650000B445C46D3F8F011029B5344C3F8101509
:10C66000C3F80C050021636898421FD001311029DE
:10C6700004F12404F7D1874B93F8E82052B95422EF
:10C6800083F8E820049A83F8E92003E07D4A032335
:10C6900082F8E63D8049814A814BCAF88419CAF87C
:10C6A0008029CAF88C390FB0BDE8F08F4B1CDBB283
:10C6B0007849013B03EBC30301EB830393F80C11AF
:10C6C00007910029E6D10298049983F80D11C11150
:10C6D000744C01EB202101EB01114FF0540C04EBE1
:10C6E00081014FF08C0E83F80CC16F4C03120EFBCE
:10C6F00003F304EB43040AEB00032868C3F89C151A
:10C700003321C3F8E445C3F80005C3F8E8E5C3F8EE
:10C71000A015029B09EB0304644B9A421AD05B4BB1
:10C720009A4217D003F580439A4213D003F58063F1
:10C730009A420FD003F580639A420BD0514B19688F
:10C74000059B062B4FEA510109D15948594B4FF02F
:10C75000380C12E04B4B1968059B062BF5D0072BC4
:10C76000DFF870C1544B554814BF4FF0710C184698
:10C77000534B04BF63464FF01C0CB1FBF3F3B1FB0A
:10C78000F0F11046029ACAF804C15244013B9BB230
:10C790000139A2F8A415A2F85C350392029AA365A8
:10C7A00002F1540100234944A4F85C30636543F06E
:10C7B000B5F9039A4349D2F80435039318680288FF
:10C7C00092B242F0800202800023ADF82830038844
:10C7D000099123F0010302214FF480721B04CDE97B
:10C7E0000C124FF00A0C1B0CCDF82CC00380039BDD
:10C7F00009AA597912F0A0FC039B1879002840F08F
:10C800002A81029B0AEB03020023D2F80405D2F826
:10C810000CC501680A8892B242F001020A80DBF876
:10C820000420944503F1010300F01181102B0BF15A
:10C83000240BF4D14FF0FF33164ADFF89CC003EB12
:10C84000C30302EB8303204AD3F8F03063450CBFE7
:10C850004FF400134FF48003D2F830C043EA0C03C6
:10C860001363437919480C2B9BBF094A02EB43031E
:10C870004FF0000CB3F8F4C6029B5344A3F808C56C
:10C88000002332E0E81800200C9805080000014061
:10C890002C9605088801002001750108FD74010827
:10C8A00009750108D0260020002A0020000401405C
:10C8B000882A1100A0BB0D001055220044950800E5
:10C8C000D0DD0600600001000038024004090010BD
:10C8D0007802002040771B0000600240914200F087
:10C8E000D7800133042B00F0DC8050F83320002A7D
:10C8F000F4D1DAF8FC280132CAF8FC280AEBC302AA
:10C90000DB00C2F80019034467499A8807984CEA8B
:10C91000020CA3F804C090222346FFF75BFC2069B9
:10C920000268002342F010020260C4E92533A367C5
:10C93000C4F88830C4F89C30029B0AEB030B4FF418
:10C940008062DBF810156166E2674FF40031042263
:10C95000C4E9231240212167DBF8A0156167DBF8E9
:10C9600000151831A1664FF48051C4F88010DBF82F
:10C970009C25E26603F164014FF480424944C4F807
:10C98000842042F047FFDBF80C05029BD0F800E062
:10C99000C4F81CE0D0F814E0C4F820E0D0F804E0BB
:10C9A000C4F824E003F1AC01D0F808E0C4F828E0B2
:10C9B0000023D0F80CE0C4F82CE0C4E93733C4F805
:10C9C000B830C4F8C030C4F8D030C4F8E430DBF874
:10C9D0001035C4F8AC304FF4403C0423C4E935C3EF
:10C9E0004FF48062C4F8C420DBF8E835C4F8BC30EA
:10C9F000DBF800351033C4F8B0304FF40063C4F8EE
:10CA0000C830DBF8E435C4F8B4304FF4804349440F
:10CA1000C4F8CC3042F0FEFEDBF80C25116821632F
:10CA2000516961635168A1639168E163D1682164D0
:10CA3000116841F010011160069A88F81020FBB2CD
:10CA4000C8F80460C8F80C50C8F8184041E5DBB2DB
:10CA50000793013BF0E60EF0EDFB049038B1039B29
:10CA600002211A7A0EF052F9049B5422DA80039BB9
:10CA70001A68B2F844306FEA43436FEA53439BB2FB
:10CA8000A2F84430BDE6094A022382F8E63D01E6F9
:10CA9000DB0038E74FF0FF36314604E500235B68E2
:10CAA000FFDE00239B88FFDE59840008E818002081
:10CAB000084B10B5D3F8803418440C46007E0EF0B5
:10CAC000B9FB18B1036882880CB11A8310BD5A8370
:10CAD000FCE700BFE02900200B4B10B5D3F88034F1
:10CAE00003440446187E0EF0A5FB58B12E22827135
:10CAF000621CC27101210DF085FD20460021BDE8B8
:10CB00001040D5E710BD00BFE02900202DE9F04F0F
:10CB10008DB00E469DF858400194039305460028B9
:10CB200000F0D080DFF8D0C1077900230CF28444F4
:10CB300002E0152B00F0C68003EB43010133605C7B
:10CB4000B842F6D161442F6891F9868495F805E0E2
:10CB50005FFA88F3022B00F2B58008F1010C4FFA5E
:10CB60008CFC0CEB4C0C604B4FEA8C0C002105E06C
:10CB70000131172903F12C0300F0A48018688742C3
:10CB8000F6D118797045F3D153F80C40002CEFD052
:10CB90002C2303FB01F108EB4808544BDFF85CB190
:10CBA00001EB88011944D1F8F03105939BF8243941
:10CBB0000093002B40F08B804D4FD7F8F430A34208
:10CBC00000F0E482D7F818319C4200F0CF84D7F807
:10CBD0003C31A34200F0CC84D7F86031A34200F08E
:10CBE000C984D7F884319C4200F0C684D7F8A831B4
:10CBF000A34200F06584D7F8CC31A34200F0BE8494
:10CC0000D7F8F0319C4200F0BB84D7F81432A3422D
:10CC100000F0BB84D7F83832A34200F0C284D7F8C2
:10CC20005C329C4200F0BB84D7F88032A34200F013
:10CC3000BA84D7F8A4329C4200F0BF84D7F8C83237
:10CC4000A34200F0C184D7F8EC32A34200F0BA84CA
:10CC5000D7F81033A34208BF0F2300F098820023B7
:10CC60004FF0FF3A0693009B002B49D00AEBCA0213
:10CC700007EB82024FEACA03079392F80C31392B73
:10CC800000F02983D5F800804FEA9822A2F580129F
:10CC9000522A00F29C8215490A4492F88C210D2AEE
:10CCA00000F295821349895CCBB9079A524407EB8D
:10CCB000820282F80D11392182F80C11069A72B1A4
:10CCC000009333E0DFF834B09BF824393BB1D5E969
:10CCD000054305931CB1012300936DE731B3002098
:10CCE0000DB0BDE8F08F00BF0C9805082C96050824
:10CCF00088010020480E0608E029002004000010EA
:10CD00000AEBCA0307EB83034FEACA01079193F8C2
:10CD10000C110029E3D1013283F80D21032283F89D
:10CD20000C21069B002BDAD0D5F80080DFF86C933D
:10CD30009BF8203906EB8602C2EBC20231B20B919E
:10CD40009100089109F1800101EB82020992ABB3D5
:10CD5000D9F80C26424500F01584012B2ED0D9F8C5
:10CD60002426904500F01884022B27D0D9F83C26C1
:10CD7000424500F01A84032B20D0D9F854264245AE
:10CD800000F01D84042B19D0D9F86C26424500F020
:10CD90001D84052B12D0D9F88426424500F0198451
:10CDA000062B0BD0D9F89C26424500F01684072BA1
:10CDB00004D0D9F8B426424500F0848303EB430243
:10CDC00009EBC2020293C2F80C865A1CD2B28BF84D
:10CDD00020291346013B0299AB4A04938C2303FBA1
:10CDE000069301EB410102EBC10183F89160C3F8A6
:10CDF0008850C3F8041195F804C04FEA1C13013B96
:10CE0000052B0CF00F0C00F25183A0490A9301EBA3
:10CE10004300B0F850E14EFA0CF010F0010012D0CF
:10CE2000012000FA0CFC0CF1FF3C0CEA0E004AF069
:10CE3000BFFE96490A9B944A0B44C03293F85C317A
:10CE4000184402EBC000019A9BF8003002F0010187
:10CE5000013113B182F0010301938C2303FB06938C
:10CE6000490141F00A01C3F894102A7A0CF0B4FB8E
:10CE7000049B029A934200F07382039B063BDBB251
:10CE80000A93089A82496032531807EE903A8C232D
:10CE900006FB03F303F1680C0A468C4409EB03011B
:10CEA00000206033A1F8E400C1F8E800CCE90100FB
:10CEB0004FF0600C42F803C0019B13F0020208928D
:10CEC00000F07881DB0003F00803A1F8EE300423C2
:10CED000A1F8F200A1F8E4308C2303FB06930021B3
:10CEE000C3F8E8104FF00A0C68799BF82419A3F8EE
:10CEF000F6C04FF0010CC3F8F8C04FF0020CA3F8D5
:10CF0000F400A3F8FCC0002900F0D081D3F804316C
:10CF10009C602368CDED017A23F001032360204655
:10CF200042F0E2FB009BDDED017A002B00F0AC81CA
:10CF30008C2303FB06939BF824090027C3E926777B
:10CF4000C3E92877C3E92A77C3E92C77C3E92E77A9
:10CF5000C3E93077C3E93277C3F8D070002800F016
:10CF60006F81039A2968082A029A01F14C00494905
:10CF700002EBC20ED3F8042101EB4E111161AA6934
:10CF8000C3F89820C3E927014FF04001C3F8A4106B
:10CF90004FF0040E4FF00301C3E93377C3E931E1E9
:10CFA0000CBF06211221C3F8AC70C3F8BC70C3F8E3
:10CFB000A8104FF480624FF48051C3E92C214FF444
:10CFC0008041C3F8B8104FF400310A9AC3F8C0107A
:10CFD0008C2303FB0693022AC3F8004100F2E5808C
:10CFE00003990829294901EB820108BF5F27D1F87D
:10CFF00080072949B1FBF0F101F12301C3F8D810F2
:10D0000018BF13278C2101FB06912046D1F804316B
:10D01000D1F888A09F80CDED037A0191DAF80070F5
:10D0200042F062FB0199DDED037A002381F8D430F0
:10D030009AF805100C2914D8DFE811F0CB00130082
:10D0400013001300F400130013001300ED0013008D
:10D05000130013000D00BB8B23F400631B041B0C97
:10D06000BB8317EE902A384612F066F89AF805301E
:10D070000C2B1DD8DFE803F0C61C1C1CBD1C1C1C9F
:10D08000B41C1C1C140000BFF41E00202C960508C4
:10D0900068190020A42E002000D01213E8180020E8
:10D0A000BB8B23F400631B041B0C43F40063BB83A2
:10D0B000099920688C2202FB069240234B62D2F829
:10D0C000A410D2F898300B43D2F8AC100B43D2F82E
:10D0D000B0100B43D2F8B4100B43D2F8B8100B4386
:10D0E000D2F8BC100B43D2F8C0100B43D2F8CC10CE
:10D0F0000B43D2F8D0100B43934901400B439BF8EC
:10D1000024092360D2E9313167690B4327F007070F
:10D110003B436361D2F8A8306360D2F89C30A360CF
:10D12000D2F8A030E360236843F01003236090B38B
:10D13000009B83B3B8F800309BB243F00103A8F81A
:10D140000030B8F82020089B697992B25BB30423C1
:10D150008B409BB222EA0302A8F82020B8F82020D6
:10D1600092B21343A8F82030029A049B934200F035
:10D17000D2809BF80030002B5BD18C2303FB0696FA
:10D18000012086F88F000DB0BDE8F08F0023591CF8
:10D1900006919A4667E592F8913006986B4990227D
:10D1A000FFF718F8C6E70123D2E78D21C3F8D8109E
:10D1B000132727E75B0003F00203A1F8EC300123FB
:10D1C000A1F8E2304FF48073A1F8F03084E600213A
:10D1D0006AE53B8B23F008031B041B0C3B8340E7F1
:10D1E000BB8B23F008031B041B0C43F00803BB8319
:10D1F0005EE73B8B23F400631B041B0C43F40063CA
:10D200003B8355E73B8B23F008031B041B0C43F0C7
:10D2100008033B834CE7BB8B23F008031B041B0C68
:10D22000BB831EE73B8B23F400631B041B0C3B8377
:10D2300017E72B686A7934334FF6FF7199509CE7F2
:10D24000059AC3F898200B9A4149C3F8D00002EB25
:10D25000820702EB470701EBC701C3F80811C3F8C7
:10D26000A010C3E932004021C3F8A4100421C3F880
:10D27000C41029686F79C3F8AC0034313944C3F85D
:10D280009C10C3F8BC0094E6079B324932485344D3
:10D2900007EB8307D7F8F03083420CBF4FF400133D
:10D2A0004FF48003086B03430B6341E60C2800F244
:10D2B000FF802A4B03EB4000B0F8F416C84300B2DD
:10D2C0008C2303FB0693A3F88C10D3F80431998ABE
:10D2D000084098821DE6D5F8008092F80D114FEABB
:10D2E0009822A2F58012522A3FF6F8AC1B4800EBB8
:10D2F000020C9CF88CC1BCF10D0F40F2DC804FF0A9
:10D30000000C61453FF412AD024492F88C210D2AC5
:10D310007FF6C8ACE3E4B8F800309BB243F080037A
:10D32000A8F80030B8F844306FEA43436FEA53433B
:10D330009BB2A8F84430B8F800309BB243F0010328
:10D34000A8F8003015E700BF3F801CF0FD960008EC
:10D35000A437002000380240006002402C960508E7
:10D36000AC4B984500F03D81B8F1804F00F03D8115
:10D37000A3F57C43984500F0368103F5806398451A
:10D3800000F0378103F58063984500F0308103F5A4
:10D390008063984500F0338103F58063984500F081
:10D3A0002C8103F57043984500F0318103F57053EB
:10D3B000984500F02A8103F58063984500F02381A9
:10D3C00003F58063984500F01C81A3F598339845D8
:10D3D0007BD003F58063984500F00D8103F58063F1
:10D3E000984508BF0D2371D0B8F8003023F0010331
:10D3F0001B041B0CA8F80030D9F800305B0807EEBE
:10D40000903A039B063BDAB2022AF8EE677A0A9258
:10D4100000F29980804BDFED816A03EB820303F514
:10D42000F06292ED007AB8EE477A87EE870A30EE26
:10D43000260A4BF0CDFB039B0138082B82B214BFA8
:10D4400013215F217348B8F8003080459BB26FD03C
:10D4500000F5806080456BD0B8F1804F68D0A0F5B2
:10D460008030804564D000F58060804560D000F554
:10D47000806080455CD06A48804570D000F580604F
:10D4800080456CD023F440739BB2A8F80030614B08
:10D49000C8F82C109845A8F8282040F0898000236F
:10D4A000A8F830300123A8F81430EAE40020CAE4D8
:10D4B0004FF0FF3004E7DFF878E11EF90CC020E7F9
:10D4C000052364E60722029284E40B23524A02EB0E
:10D4D000C303012193F8143703F01F025B09032BE8
:10D4E00001FA02F253D0042B26D14E490B6B1343A1
:10D4F0000B63B8F8003023F001031B041B0CA8F8E1
:10D500000030494B984510D0A3F5806398450CD066
:10D5100003F58043984508D003F58063984504D00F
:10D5200003F5806398457FF467AFD9ED007A68E72B
:10D5300023F070039BB29EE7022BDAD139494B6C82
:10D540001A434A64D5E79FED397A9FED340AA7EE76
:10D55000870A4BF03DFB013882B2132172E7A8F82D
:10D560000030C8F82C10A8F828209BE701230EE60D
:10D5700002230CE603230AE6042308E6062306E654
:10D58000072304E60022029224E40823FFE525494C
:10D590000B6C1A430A64ACE7012202921AE40A23D4
:10D5A000F5E50923F3E50B23F1E50222029211E4EC
:10D5B0001D4B98453FF473AF74E70C23E7E5032256
:10D5C000029207E40E23E2E50D23E0E50422029235
:10D5D00000E405220292FFF7FDBB06220292FFF74C
:10D5E000F9BB002372E7022370E701236EE70423EF
:10D5F0006CE703236AE70C2368E7062366E7052345
:10D6000064E70A2362E7092360E708235EE707234C
:10D610005CE700BF000001402C9605080AD7233CB8
:10D62000001000400038024000040140FCF4B23415
:10D63000480E060838B5424C8C2303FB004393F890
:10D640008F3003B938BD94F8E0C494F8E1349C45B8
:10D650000ED003EB430204EBC20292F8E4E40EF1B5
:10D66000FF35012D4FEA430246D9BEF1030F3ED0EC
:10D670008C2202FB0042A2F88010EFF3118190236C
:10D6800083F31288B2F8805092F8823043EA45035F
:10D690000025C9B29BB282F8825081F311882949D2
:10D6A0001A090D7882EA13225A4005B1D2431B01B0
:10D6B0009BB202F00F021A4391F824395BBB8C2312
:10D6C00003FB0044D1F85C3AD4F8080101219847E3
:10D6D000D4F80411B4F88C508A8AD4F800312A4363
:10D6E0008A8258601A6842F001021A6038BD5D1CD7
:10D6F00005F003056545BBD0134404EBC3030344A5
:10D7000093F8F1140029B3D08C2303FB00430122CA
:10D7100083F88220ACE78C2303FB0044D1F85C5AE9
:10D72000D4F88830D4F804115B79086903F0FC035D
:10D7300018440421A847D4F804318000988138BDEA
:10D74000E81800200400001030B50446006EA268FE
:10D75000838923F400531B041B0C8381637995B0E8
:10D7600013F0040F4FF00001019214BF4FF48052E8
:10D770000A46ADF808201A031B0203F48063ADF8D3
:10D780000C302379ADF80E1002F40052ADF80A20E7
:10D79000DA0744BF0422ADF80E209B07ADF8101045
:10D7A00005D5BDF80E3043F00803ADF80E3001A9E1
:10D7B00042F06EF86279236ED50700F1858012F091
:10D7C000080F9A8A48D092B242F008029A829A8947
:10D7D00092B242F400529A812279D00732D5E06B9E
:10D7E000002800F083800023E26D0893CDE90C331C
:10D7F000CDE91033CDE912334FF480750A93636994
:10D80000E1680E9506920793626C05924FF480636F
:10D810004FF480350B9309910F9541F065FF05A9F1
:10D82000E06B41F0F7FFE26B216E136843F00103F8
:10D8300013608B8A9BB243F040038B82536822793A
:10D840009BB2636591070DD4226E93899BB243F41A
:10D850000053938115B030BD22F008021204120C5F
:10D860009A82B4E7206C00284CD02369A26D0993FA
:10D87000A36CCDE90532402300254FF48031089395
:10D880004FF480630B930F91CDE90C55CDE9105502
:10D89000CDE9125507950A950E9541F025FF05A98A
:10D8A000206C41F0B7FF236C226E596941F0800172
:10D8B0005961196841F0160119605D60938A9BB245
:10D8C00043F080039382C0E71D498B4222D0A1F52B
:10D8D0004C418B421CD001F580618B421CD102204F
:10D8E0000121FFF7E5F86279236E68E74FF6DF71F3
:10D8F0001980D96841F02001D960D96841F0100140
:10D90000D9609FE7226ED36843F08003D3609CE721
:10D910000120E5E70020E3E701F580618B420AD0B2
:10D9200001F580618B4208D001F544418B427FF4C0
:10D9300046AF0520D4E70320D2E70420D0E700BF9C
