:020000040800F2
:1000000000000120F1D704088DD8040801C60108BA
:1000100051C401088DD804088DD8040800000000E0
:100020000000000000000000000000008DD804085F
:100030008DD80408000000008DD8040889870108C5
:100040008DD804088DD804088DD804088DD80408EC
:100050008DD804088DD80408AD820108B582010846
:10006000BD820108C5820108CD82010869A100088E
:100070007DA1000891A10008A5A10008B9A1000870
:10008000CDA10008E1A100088DD804088DD804088E
:100090008DD804088DD804088DD80408D5820108AD
:1000A00035BE000821BD000845BE000811BD00088E
:1000B00049BD000859BD000869BD0008459D0008FC
:1000C000399D0008799D00086D9D00088DD80408B1
:1000D0008DD80408D5860108E1860108ED8601085F
:1000E000DD8201088DD804088DD8040855BE0008AB
:1000F0000DBE00088DD80408FDBD0008F5A100085C
:100100008DD804088DD8040879BD00088DD804085E
:10011000F98601080587010889BD0008E55E040825
:1001200009A200081DA2000831A2000845A200088B
:1001300059A20008000000000000000000000000BC
:1001400000000000000000000000000069540408E6
:100150006DA2000881A2000895A20008118701087D
:10016000AD9D0008A19D00088DD804088DD8040815
:100170008DD804088DD8040800000000000000009D
:100180008DD804088DD804088DD804088DD80408AB
:100190008DD804088DD80408000000008DD804080C
:1001A0000000000000000000000000008DD80408DE
:1001B0008DD804088DD8040800000000000000005D
:1001C000000000000000000000000000000000002F
:1001D0000000000000000000000000008DD80408AE
:0801E000FCD204000100000044
:1001E800FA010100040000008032012028320120B9
:1001F8000000000005E0000824320120053001005D
:10020800080000004C2D01203032012000000000C1
:10021800F82A06082C32012013020100040000000D
:100228009C2A01203C32012000000000002B060817
:10023800383201201F02080010000000E4230120CA
:1002480044320120000000000DE000084032012087
:100258000610010026000000801B012058320120F2
:1002680000000000B9DE000854320120210201001C
:10027800F000000020690120946A012000000000BD
:10028800F56D0308906A01202C000400100000009E
:1002980010690120886B0120000000004DB202089F
:1002A800846B012025201E002C010000E46701203A
:1002B8009C6B01200000000000000000986B0120EA
:1002C8002B001200240000009C670120CC6C012048
:1002D8000000000069B20208C86C01201620010065
:1002E8000600000020590120F46C012000000000E5
:1002F800042B0608F06C0120270001000400000010
:1003080014590120006D0120000000000A2B060886
:10031800FC6C01200C5004008000000000520120F9
:10032800086D0120000000009D540208046D0120A2
:10033800031101000A000000C05701208C6D012044
:100348000000000039B80308886D01202920140036
:1003580078000000AC5601209C6D012000000000D0
:1003680000000000986D0120012001000C00000031
:10037800A0560120186E0120000000000E2B060870
:10038800146E012023200100100000009056012067
:10039800286E01200000000049B50208246E0120E3
:1003A80028300100160000005C5601203C6E012038
:1003B8000000000075CE0208386E01200B300100E5
:1003C8001A00000040560120586E0120000000006D
:1003D8001A2B0608546E01200E5004005802000023
:1003E80080520120786E012000000000FDAF020855
:1003F800746E01201E10010009000000C055012084
:10040800D470012000000000342B0608D0700120B1
:100418000D100100700000004C550120E47001200F
:100428000000000075DF0108E070012016021500C9
:100438003F000000506A01205871012000000000B0
:1004480055E0000854710120220201001C0100003F
:10045800CC5701209C7101200000000099F200088F
:10046800987101201840010038000000145501203F
:10047800BC7201200000000059E50008B872012094
:100488001A0201003C000000106A0120F8720120E5
:1004980000000000F9E40008F47201201C020200C8
:1004A8001C00000074560120387301200000000071
:1004B800A1E40008347301202802040004000000AD
:1004C8005C73012058730120000000002DDF000834
:1004D80054730120270204000400000068730120FF
:1004E800647301200000000021DF00086073012010
:1004F8001B020100100000008073012070730120AE
:10050800000000000DDF00086C73012004000800E3
:1005180080000000285A0120947301200000000088
:10052800000000009073012008120400140000006D
:10053800C05A0120187401200000000039DF0008AB
:10054800147401200A90010024000000D8540120EE
:1005580030740120000000005DB502082C740120F1
:10056800031201003D000000645B01205874012063
:10057800000000003E2B060854740120010201000F
:100588000A0000006C5E01209C740120000000003D
:10059800F5DF0008987401200C0201000400000037
:1005A800D45A0120AC74012000000000E5DF0008E7
:1005B800A8740120FD1701009A0000007C5E01204C
:1005C800B474012000000000BDB30308B07401201A
:1005D8001310010004000000385601205475012052
:1005E800000000007C2B0608507501200202010063
:1005F80003000000685E01205C7501200000000017
:100608000000000058750120F5C1010074000000C9
:100618004C5701206475012000000000A9BC0308A4
:1006280060750120F62101000C00000040570120F0
:10063800DC75012000000000802B0608D875012019
:100648001212010004000000D0760120EC75012090
:10065800000000008C2B0608E8750120110201003B
:1006680008000000D4760120F47501200000000085
:10067800902B0608F0750120F831010006000000F3
:10068800FC5401200076012000000000982B060889
:10069800FC750120020001000C000000245B012011
:1006A8000C76012000000000000000000876012000
:1006B800FE01010014000000245701201C760120CF
:1006C8000000000059E00008187601200612040016
:1006D800180000000C5B01203476012000000000A7
:1006E80021E4000830760120F7010100060000002F
:1006F8003857012050760120000000009E2B060884
:100708004C7601201A0001000E000000A85A0120B2
:100718005C76012000000000A42B06085876012012
:1007280014000100050000000C550120707601201E
:1007380000000000B22B06086C760120FD010100C4
:1007480024000000025A01207C76012000000000ED
:10075800875B0108787601201D0202000600000070
:10076800FC590120A47601200000000000000000D0
:10077800A0760120F901010004000000DC760120C8
:10078800B076012000000000415B0108AC76012032
:10079800123001001000000020510120B87601201D
:1007A80000000000B82B0608B4760120374001008D
:1007B800280000003080012078810120000000001E
:1007C800C82B0608748101201B2001000C000000C2
:1007D800187F0120A481012000000000714F030848
:1007E800A08101201010010002000000487D0120B6
:1007F800B481012000000000F02B0608B081012020
:100808000E0201000200000040810120BC8101208D
:1008180000000000F22B0608B88101202F200100FB
:1008280022000000C4810120E476012000000000BD
:10083800F42B0608C081012001010100040000001A
:1008480018880120788901200000000000000000BD
:1008580074890120000101000400000014880120AF
:100868008089012000000000182C06087C890120DE
:10087800020101000300000010880120888901207E
:10088800000000008D54020884890120290201001B
:1008980040000000B4880120908901200000000079
:1008A8001C2C06088C890120263001000800000055
:1008B8001C870120D489012000000000B1B503087D
:1008C800D08901202052010008000000148701206F
:1008D800E0890120000000005C2C0608DC8901206A
:1008E8002A120100080000000C870120EC89012071
:1008F80000000000642C0608E889012019000100A6
:100908000500000004870120F8890120000000008C
:100918006C2C0608F48901201F50010024000000F7
:10092800A8850120048A012000000000742C060814
:10093800008A0120384001000600000034830120AD
:100948002C8A012000000000982C0608288A012023
:100958002332010014000000C48F012034910120CB
:1009680000000000A02C06083091012005020100BB
:1009780004000000789001204C9101200000000044
:10098800B42C0608489101202C0201000400000044
:10099800E89001207491012000000000B82C06089E
:1009A800709101202D02010001000000548A0120ED
:1009B8007C910120000000000000000078910120D7
:1009C800001201000A000000F49B012024A101206C
:0C09D800000000000000000020A1012031
:08280000082800080040000850
:10800000084A0346D0F8E4005268D3F8F010121A78
:1080100000209142B8BFC3F8F020012283F81C2150
:10802000704700BF001000E030B5FAB18E464FEA4D
:10803000014C034600F1C005002419680C3353F8C5
:10804000042C43F8084C41EA0C0142EA0E02AB4210
:1080500043F80C1C43F8042CEFD1D0F8C03043EAAD
:108060000E03C0E93144C0F8C03030BD4FEA014EC4
:108070008C46DEE7836930B45C69996822680968D8
:1080800022F0010222601C8ACA6822EA0402CA6045
:10809000027D00681F2A06D9203A082144689140D1
:1080A000214216D0FEE70821046891402142F9D10F
:1080B000202101FA02F28260204A12783AB11A7F36
:1080C000012A0BD1D3F804210132C3F8042130BCBA
:1080D0007047202101FA02F2C260EDE7D3F80021D7
:1080E0000132C3F80021EFF31181502282F312888C
:1080F0005868C9B29D6C0268DC6C22EA0502224312
:10810000026081F311885A699968D3E90D400968C2
:1081100014605061D3E90F40546090605C6CB3F818
:10812000B400D4600124C8621068204310601A8A29
:108130001C77CB68134330BCCB607047C80100206C
:1081400070B50E4E7368002B16DD06F1080400258D
:1081500003E073682034AB420EDD237F0135002B32
:10816000F7D0E06800220028F3D0217D203410F001
:1081700009F97368AB42F0DC012070BDC801002032
:10818000704700BF024B03EB401090F8250070478A
:10819000C80100204368426D30B49A61EFF3118248
:1081A000502383F312884168D2B2856C0B68046D4A
:1081B00023EA050323430B6082F311884369816836
:1081C0001A68096822F00102D0E908541A60826A2C
:1081D0001D605C615A60D0E90B429C60DA6000234C
:1081E000B0F86C2030BCCA62037770474FF400636C
:1081F000838170474FF4006383817047704701208B
:108200007047012070472DE9F047DFF880810E4666
:108210000746D8F80050B8F80420B8F80A90C2EB26
:1082200025135200C2EBE502B8F906506A4303FB7E
:1082300003F5B8F908302D135D43B8F90E30AD13CE
:108240004FEAE37E05EBE225A5F5FA31C8F81C50AC
:1082500081FB010C03FB0CF200FB0E22A3FB003E92
:108260009644B8F90C201B0A82FB014243EA0E63D4
:10827000120342EA145224031B194FF0000442EB8C
:108280002E22A3FB093E02F5004209FB02EE4FEA53
:10829000EE734FEA6E0253EA6E0E6BD0B8F914908B
:1082A0004FEAE97E09FB0CFC00FB0ECCA9FB009019
:1082B0008444B8F9120080FB01E148044FEA4E41C2
:1082C00040EADE3011EB0909D8F820104CEB000031
:1082D000C1F5801C14EB0904B8F910100CF0004A29
:1082E00040F6354900EBC1014AEA5C0A4FEACC7C12
:1082F000BCEB04006AEB010AA0FB090109FB0A11AF
:1083000045F03AF8B8F91A404FEA613E8146430B0E
:1083100004FB0EF24FEAE47C43EAC14303FB0C2C5E
:10832000A4FB0342624404FB0EFE03FB02EEB8F919
:108330001820A4FB03439E44640E02FB01F344EAAD
:10834000CE1414EB000C4FEAE274A2FB092941EBB6
:108350006E6E04FB0031D40CB8F91630494444EA7F
:1083600041341CEB04044EEBE141240A44EA01646D
:1083700004EB03140FB1240A3C6026B105EB85051C
:1083800080352D123560BDE8F08700BF60180120F0
:10839000B0F90000084B4143994208DBB1F5000FEA
:1083A00007DA0029B8BFFF31081200B2704703484E
:1083B000FBE747F6FF70F8E701FF7FFF0080FFFF54
:1083C000704700BF0346012200205A77704700BF64
:1083D00008B5D0E90B2183690B4483610AB10846D3
:1083E0009047002008BD00BF436A02461B681B6A15
:1083F0005B685B7813F0010008BF5077704700BFDF
:10840000C2628161704700BF704700BF043070478F
:108410000B4B93F82820596A02440844D2B25862A0
:1084200083F8282093F82820120605D593F82820F1
:1084300082F0800283F82820024B01221A707047D4
:1084400060180120000001202DE9F84F144FFD6A4B
:10845000ED0A1FD00026DFF84CA007F13009B04626
:10846000AC19396B102352466410D1F828B0484635
:10847000C7F85C80E102D8470F280BDD094B03F1F8
:10848000100253F8041B013107D19342F9D125465C
:10849000B542E5DCE802BDE8F88F661CF8E700BFEE
:1084A0006018012000000020154B596E9A6E8A1A40
:1084B000322A12D8DA6F8A4200D370471A6FDAB1C3
:1084C00010683231928810B44469D96722425DF84D
:1084D000044B18BF12048261704793F86C20196F27
:1084E00002F0010219B1086889881AB98161002275
:1084F000DA6770470904F9E73231D967704700BF7E
:1085000060180120074A92F86C30126F03F00103E3
:108510001AB11168928813B98A6100207047120459
:10852000FAE700BF60180120044B4FF4007C0020E4
:10853000D3F88830A2F800C00B60704760180120A3
:1085400000207047012070470120704700207047CD
:10855000134BD0F8D8105B68D0F8E02010B5044673
:10856000581A824200DC22B9D4F8E4200A44C4F844
:10857000DC2094F8D020C4F8D830012A05D0D4F8F3
:10858000D4300133C4F8D43010BD04F1E801201D0B
:108590000FF0FCF8D4F8D4300133C4F8D43010BD57
:1085A000001000E0CB070AD490F82830012B08D047
:1085B000C368B3F1807F03D9012303777047704705
:1085C00070471B4AD2E92E1310B5B1EB930F8CB054
:1085D0004FEA9302446A4FF0020306D252085B004E
:1085E00091429BB201D2FF2BF8D9C268A380B2F1AD
:1085F000807F1BD90122002301A94FF0B70C02771D
:10860000204604928DF814208DF828208DF804C09F
:108610000B93CDE9021302A9CDE90633CDE9083366
:108620000FF0B4F82268136A002BFCD10CB010BD17
:108630006018012030B590F828208BB00023044644
:10864000012A08D0427F62B103F0010282F00100EA
:1086500062770BB030BD456A2A68117B01BB637F2E
:1086600013B901200BB030BD1049022000230122B4
:108670000290081F8DF80C208DF820200993CDE979
:10868000001069462846CDE90433CDE906330FF0E2
:108690007DF82A68136A002BFCD1054B5B7CD3E77D
:1086A000126A002ADBD01846D3E700BF140000206E
:1086B0000000002030B590F828108BB00446427FAF
:1086C00001292DD000230ABB01200BB030BD1B6A4D
:1086D0003BBB002AF8D01649022000230122029059
:1086E000081F8DF80C208DF820200993CDE900108B
:1086F00069462846CDE90433CDE906330FF046F844
:108700002A68136A002BFCD10A4B5B7C03F001033F
:108710001A466377002BD7D094F828100129F7D197
:10872000656A2B68197B0029D1D1002ACCD0D2E709
:108730001400002000000020244A002330B5044625
:1087400095B0101D224D0693019002200B931093BB
:10875000139311930290207F009200280495CDE995
:108760000E334FF001038DF80C3007938DF8203055
:108770008DF834308DF8483002F10803A2F1080278
:10878000059314BF052304230A920C93114B0993FC
:10879000636A1A68136A002BFCD1A0B10E480A0E56
:1087A00000F11A0342760A0A9970080C69465A7059
:1087B0001870606A0EF0EAFF636A1A68136A002B89
:1087C000FCD115B030BD054BEDE700BF2000002007
:1087D000E9830008C583000800000020190000207C
:1087E00010B594B0044650220749684646F046FA50
:1087F0006946606A0EF0CAFF636A1A68136A002B42
:10880000FCD114B010BD00BFD0F00408F8B5054687
:10881000406A0068046A002CFCD1287F002839D007
:10882000A8690527254E4FEA106C254C2E3606F810
:1088300001CC6763B0704FEA104C000A012B86F838
:1088400000C070704FF000000E6826641668A664C1
:108850002E63A06524D0022B1BD153680122206512
:108860001E444968E365174B84F84C0061652E632C
:1088700084F860206366144B697F03F11402686A10
:10888000002914BF194611460EF080FFEB6A73B140
:10889000286BF8BD04200A4C0C4E6063A869C9E738
:1088A000084A84F84C306065E0652265E3E76B6A4E
:1088B0001A68136A002BFCD1EAE700BF0000002011
:1088C00000000120D1830008040001202D000020B9
:1088D00000B583B08161019201A9049A009301233C
:1088E000C2626A46FFF792FF03B05DF804FB00BF67
:1088F00070B51D46436A94B006461B681C6A002C7E
:10890000FCD13A4B02204FF0010C0694029003F187
:108910003C008DF80CC0009003F1400001903448F9
:10892000049003F134000590307F00284BD00B9267
:108930000A0E36338DF8204003F8012C05220C95E1
:108940008DF834C08DF848C013940792CDE90944DE
:10895000CDE90E44CDE910440A0C9970254C090A62
:108960001A705970706AD4E92E32B3EB920F4FEA45
:1089700092014FF0020206D2490852008B4292B295
:1089800001D2FF2AF8D9737F8280D3B905A90EF0EE
:10899000FDFE706A03681A6A002AFCD10222D4E93B
:1089A0002F34B4EB930F4FEA930106D249085200DB
:1089B0008C4292B201D2FF2AF8D98280284614B0A4
:1089C00070BD6946E3E70B92042235338DF8200031
:1089D0000C958DF834C08DF848C013900792CDE9FE
:1089E0000900CDE90E00CDE91000B5E70000002038
:1089F000E98300086018012010B5044682B0806940
:108A000006236A4690F84C1110300FF071F858B1F7
:108A1000BDF80010BDF80220BDF8043049BA52BAC2
:108A20005BBAE1812282638202B010BD10B582B0D0
:108A3000044690F84D1106236A4610300FF058F89E
:108A400070B1BDF80010BDF80220BDF8043049BA7D
:108A500052BA5BBAA4F8D010A4F8D220A4F8D4304B
:108A600002B010BD8369F0B593F8DC208BB00546E9
:108A7000012A27D0023A012A2FD893F84C21EC463C
:108A8000D3F89C1062F07F03154C0B708669D6F802
:108A9000A0305F1C0FCCACE80F00D6F89C30CDE9BD
:108AA00000370FCCACE80F0094E803008CE803001B
:108AB000694606F110000EF069FEAB6919690A6A91
:108AC000002AFCD1D3F8A0305A8852BAEA819A8899
:108AD00052BA2A82DB885BBA6B8201200BB0F0BDF0
:108AE00020F10408F0B590F8DC308BB00446D0F8E3
:108AF000A060012B4BD015D8D0F89C304FF0FF323E
:108B000005211A605A609A60DA60D0F8E030C0F847
:108B1000F010B3F57A7F54D8032380F8DC300120BD
:108B20000BB0F0BD023B012BF9D890F84D31EC466B
:108B3000D0F89C2063F07F03384D1370D0F8A0303C
:108B40005F1C0FCDACE80F00D4F89C30CDE90037A6
:108B50000FCDACE80F0095E803008CE803006946F0
:108B600004F110000EF012FE2269136A002BFCD1F2
:108B7000738801205BBAA4F8D030B3885BBAA4F83C
:108B8000D230F3885BBAA4F8D4300BB0F0BD90F8C3
:108B90004C2190F84D319B1A5B100133DBB236F853
:108BA000132006EB430653BAA0F8D03073885BBAA3
:108BB000A0F8D230B3885BBAA0F8D43001200BB053
:108BC000F0BD03691A7B2AB35B691BB390F8983038
:108BD00003B390F84C310122D0F89C0063F07F037E
:108BE000C4F8A4400E49037094F84D3194F84C0138
:108BF00084F800211B1A84F8DC20D4F8A020073365
:108C0000C4F804110132D4F89C10C4E93E23C4F81E
:108C1000F41084E7022384F8DC3080E720F10408B4
:108C200001800008836910B5074C04EB8303D3F877
:108C3000E4003BF0A5FC0021B4F8040140F046FF3D
:108C4000002384F8063110BD6018012080699C3033
:108C50003BF096BC10B5074C94F808310BB90020D6
:108C600010BD0FF0E3FDD4F80C31C01AD0F5FA5066
:108C7000F6D5F4E7601801202DE9F0412E4F07EBFF
:108C8000401898F824300BB9BDE8F08100EB800360
:108C90000E460021044607EB4313450193F80A21D1
:108CA00083F80A1188F80A2046F0DEF998BB3D44A3
:108CB00022482E8100EB441046F0DAF93B782A6A0C
:108CC0009BB1E9680124D2F8AC308C4003F1C001BB
:108CD000420010F4004F90B202D15A6822435A6009
:108CE0000C339942F4D1BDE8F081E9680124D2F84F
:108CF000AC3001F1100203F1C0019440420010F4C5
:108D0000004F90B202D15A6822435A600C33994204
:108D1000F4D1BDE8F0810A4B93F8702102EB4202D6
:108D200003EBC203234493F81D61002EBFD001233F
:108D300088F80A30BBE700BFC8010020D00100203E
:108D40006018012010B5044645F020FB014620467E
:108D500089B2BDE810408FE72DE9F04146F090F967
:108D600098B31D4ED6F80856002D12DD0024377832
:108D700006F21460A046013417B1037F012B1FD007
:108D80004269AC4200F58670136843F0010313603A
:108D9000F1D10FF04BFDD6F81046C6F80C06002CAA
:108DA0000CDD0E4B03EBC4041968083333F8042CB4
:108DB000C868A34242EA0002CA60F5D1BDE8F0816A
:108DC00080F8FC80FFF7E6F9DAE73FF0F7FF0028CC
:108DD000C7D1BDE8F08100BFC80100200C0C002005
:108DE0000269C3682DE9F04712EA03092AD0054653
:108DF0000E464FF000474FF00008B9FA89F327FA02
:108E000003F21B3BD24309EA02092A61042B16D85C
:108E1000DFE803F0352C231A0300B36A002B37D0A8
:108E200003F1FF3AC6F828801FFA8AFA746A34B14F
:108E300023682046514698476468002CF8D1B9F160
:108E4000000FDAD1BDE8F0877068696B036889B2FA
:108E50009847B9F1000FD0D1F4E7B068A96B036867
:108E600089B29847B9F1000FC7D1EBE7F068E96B19
:108E7000036889B29847B9F1000FBED1E2E73069C3
:108E8000296C036889B29847B9F1000FB5D1D9E7C9
:108E9000E96A1FFA81FAC9E72DE9F04F4D4C83B01A
:108EA0002378F3B9D4F80836002B16DD00264A489B
:108EB00031464769D0F8AC303D6803F1C00225F077
:108EC00001053D6059600C339342FBD10136D4F863
:108ED000083600F58670B342EBDC012003B0BDE834
:108EE000F08F3E4BDFF80091D3F864B00FF09EFC9A
:108EF00059F8CC2CD4F80C161432401AB0EB420FAF
:108F000064DBA9F1C80704F108060025DFF8DCA03E
:108F1000019718E0B0F5606F48D0019B98814FF63B
:108F2000FF712F4B5A46411A4FF05C0018BF0121C8
:108F300000FB05300EF0F8F9019B013520361433A3
:108F4000082D01932ED06368AB422BDDB3694FF639
:108F5000FF78244FD3F814C07268D3E93D015FFA5B
:108F60008CF32CF0FF0C103BA7FB03731B091AF8C2
:108F700003309C44DCF804309BB2C91A46F070F808
:108F80004FF6FE739842D7D059F8C03C404503F1E4
:108F9000010349F8C03CBDD159F8C43C013349F83C
:108FA000C43CBCE7012289F83E207BE70B4A92F8DB
:108FB000703103EB430302EBC3032B4493F81D31E1
:108FC0000D2BAAD18023019A9377A8E7002003B044
:108FD000BDE8F08FC8010020DC07002060180120E8
:108FE00000130020ABAAAAAAC0120020BC6B05087F
:108FF00010B500F10C04C06843F010F900222121E3
:1090000020460EF01DFCFC22202120460EF018FC0C
:109010004022242120460EF013FC0C22232120465E
:109020000EF00EFC0022222120460EF009FC6420E6
:1090300012F0D0FE012010BD37B500F10C0405463A
:10904000C06843F0EBF800220A2120460EF0F8FB3E
:10905000142012F0BFFE0F220A2120460EF0F0FB72
:109060000A2012F0B7FE01AA0323102120460EF0B9
:109070003FFD0A2012F0AEFE9DF8043000220A21C6
:1090800080332046A5F8F6309DF805308033A5F8EA
:10909000F8309DF806308033A5F8FA300EF0D0FB9A
:1090A0000A2012F097FE0DF103020123022120464F
:1090B0000EF01EFD01230DF10302092120460EF0E2
:1090C00017FD11220A2120460EF0BAFB012003B041
:1090D00030BD10B500F10C04C06843F09FF80122C8
:1090E0000B2120460EF0ACFB20B11D2209212046A9
:1090F0000EF0A6FB00F0010010BDF8B544F23B33C2
:10910000044600F11005A0F84C3190F82101C0B1DF
:109110000FF010F9064608B12623C3802146424BC2
:10912000304641F80C3F40F05DFC56B1B388B3FACD
:1091300083F24FF00043D34003D03C490A68134305
:109140000B6094F8D830072B67D194F81D310226B4
:10915000002B64D1374680226B2128460EF070FB2D
:10916000642012F037FE0722682128460EF068FBC3
:10917000642012F02FFE00226B2128460EF060FBC7
:10918000642012F027FE01226B2128460EF058FBC6
:109190000F2012F01FFE1B21FA0028460EF050FB94
:1091A0000F2012F017FE1C21F20028460EF048FB9B
:1091B0000F2012F00FFE94F8DB30052B31D894F815
:1091C0001E31032B2DD194F8233103F0FB03022B26
:1091D0000CBF002207221A2128460EF031FB0F2077
:1091E00012F0F8FD94F82021192128460EF028FBF2
:1091F000642012F0EFFD1022372128460EF020FBEC
:109200000F2012F0E7FD2846012238210EF018FB4E
:109210000F20BDE8F84012F0DDBD03269AE70327D2
:1092200099E70022D7E700BF51850008003C0140C4
:1092300037B500F10C0504467022002128460EF0D7
:10924000FFFA2022012128460EF0FAFA002202211C
:1092500028460EF0F5FA642012F0BCFD94F8F400F4
:1092600088B10FF067F808B12823C3802146074B67
:10927000019041F8083F40F0B5FB01980FF006F867
:1092800001980FF003F8012003B030BDC18300083E
:10929000F52108B50EF0B8FE702818D008D842287D
:1092A00017D0472817D0122814BF0020082008BD67
:1092B000AC2812D006D800F0FD00712814BF0020A1
:1092C0000620F4E7AF2814BF00200920EFE70520AF
:1092D000EDE70C20EBE70D20E9E70720E7E710B505
:1092E0000446FFF70AFF10226A21A0180EF080FA48
:1092F000642012F06FFD04480EF070F8A082012087
:10930000BDE8104012F06ABB002D31013122F4217A
:1093100043F03AB810B5134C94F87C304BB10C3094
:109320000623114A282142F08DFF002084F87C009A
:1093300010BD0E4A0120B2F97231002BB8BF0333C1
:109340009B100B80B2F97431002BB8BF03339B1014
:109350004B80B2F97631002BB8BF03339B108B8062
:10936000E4E700BF00000120D219012060180120AD
:1093700038B52A4C02460D460C3094F87831013B42
:10938000032B03D8DFE803F00C1B222F0123244A10
:10939000022142F057FF0123002084F8783106E0D3
:1093A00094F87931DB0703D4002084F8780138BDC4
:1093B00006231C4A032142F045FF0223ECE7012368
:1093C000174A092142F03EFF0323E5E711220A2153
:1093D00042F0DAFF94F8790110F00C00E4D1042394
:1093E00084F87831E3E7B2F9F6100E48FEF7D0FFC3
:1093F000404228800C48B2F9F810FEF7C9FF4042FD
:1094000068800A48B2F9FA10FEF7C2FF0023404212
:1094100084F87831A8800120C9E700BF60180120D6
:10942000D9190120DA190120DC190120DE190120E7
:1094300010B50E4C94F87D304BB10C3006230C4A1D
:10944000032142F0FFFE002084F87D0010BD094B8F
:109450000120B3F8802152BA0A80B3F8822152BAAF
:109460008A80B3F884315BBA4B80EDE700000120BD
:10947000E01901206018012010B5174C0C3094F849
:109480008631012B0CD0022B17D0012304F2871256
:10949000062142F0D7FE0123002084F8863110BD5A
:1094A00094F8873113F00403F6D0062304F5C47250
:1094B000002142F0C7FE0223EEE7B4F88831012014
:1094C0000B80B4F88A314B80B4F88C318B80002348
:1094D00084F88631E3E700BF6018012010B5044628
:1094E000006840F057FB38B920460623034AF721AD
:1094F00042F0A8FE012010BD0020FCE7EC15002082
:1095000008B5006840F046FBD8B90F4A0F4992F8F9
:109510002D3392F82C031B0143EA003392F82E03FB
:1095200043EA101392F82F030B6292F8303392F84B
:1095300031231B0143EA0033012043EA12130B607D
:1095400008BD0020FCE700BFC01200206018012009
:1095500038B505460C46FFF77DFB2B685D6808B102
:1095600012F03CFA2A680020064B126A83F80801C0
:109570003AB9284693F809312246C9210EF092FAE9
:10958000012038BD601801202DE9F843DDF8208066
:109590000F4616460021202204461D4645F0E2FBF8
:1095A000B8F1000F0CD0D8F80030B8F80A20E381E9
:1095B0001B0C2382D8F804306282E3821B0C2383C5
:1095C000384643F07BFAF30619D4431EB8B107EBD3
:1095D000000C01E0013B12D31CF801EDBEF12E0F8F
:1095E000F8D1C01A03F10109421EB944032AA8BFE9
:1095F0000322082BA8BF082390461A4606E0082835
:109600000246B9464FF00008A8BF08224FF02033A9
:10961000394620462360636045F030FB04F10803BF
:109620001748424649462081A072184645F026FB5D
:1096300004F1FF3C0346E21D1CF8011FA1F1610E7D
:109640002039BEF1190F98BF8CF800106245F3D194
:10965000184604F10B0110F8013BA3F16102203B15
:10966000192A98BF00F8013C8842F4D11823658379
:109670002D0CE6722373099BA582E361BDE8F88394
:10968000202020002DE9F04FDFF88C9487B0D9F826
:109690006400C9F86800002B00F0DA801344154616
:1096A00001F1200601F5FE77DFF870A403931FE0B7
:1096B000002D63D0D9F89420AA4200F0CD80D9F8CB
:1096C0009020AA4200F00281D9E92621AA424CD872
:1096D000A94200F2CF81691A18463FF057FA0135C6
:1096E000039B06F5007607F500779D4200F0B080F9
:1096F000D9F8A040A6F12003AC42D9D82C1BD9F848
:10970000B080E208D8F8301004F0070402328A4230
:1097100003D3D8F838108A420DD941461046059334
:1097200004923FF003FA8046DDE90423002800F0AC
:10973000C181C9F8B00098F80410002940F03F81B9
:10974000D8F828B0BBF1000F00F0AD811846D8F86A
:1097500030304FF40071D21AD8F80C3004EBC2024A
:1097600003EB42224346D847B9E7A942B3D918468A
:109770004FF40072002145F0F5FAB0E74FF40072A3
:109780002946184645F0EEFA80220346D94886F865
:109790009E210C2286F8A221D9F89010D9F88820B1
:1097A0008142C3F8C611C3F8CA2100F36881D24BC5
:1097B000013AD24C83FB0103C81784FB01C40B445C
:1097C000C0EB6313C0EB2430CD4C84FB03C4C3EB6C
:1097D000831C86F8A1018010A1EB0C011C4420F031
:1097E0003F000131014386F8A011D917C1EBE41104
:1097F0000B4486F89F31BF4B9A4200F34C81BE4B1D
:10980000BE4883FB0213D11780FB02401344C1EB17
:109810006313C1EB2031BA4880FB0340C3EB8314D0
:1098200086F8A5118910121B184421F03F0101325E
:109830000A4386F8A421DA17C2EBE010034486F845
:10984000A331552386F8DE31AA2386F8DF3146E7B7
:10985000002007B0BDE8F08F4FF0FF320024A6F1E2
:109860001C00049383F8EC21214683F8ED2183F852
:10987000EE2183F8EF2152221A705A7061229A70F9
:1098800083F8E7214122DA7083F8E621722283F817
:10989000E42183F8E521D9F8A820C3F8E8214FF4A2
:1098A000F07245F05FFA049B5522C6F8D041C6F825
:1098B000D441C6F8D84183F8FE216FF0550283F8F1
:1098C000FC4183F8FD4183F8FF2108E78D4C00211E
:1098D0004FF40072184645F045FA03464FF0000C6D
:1098E000022203CC46F8191CEB2146F81D0C082077
:1098F00006F8201C582106F81F1C902106F81E1C93
:10990000F8211A7383F80BC006F8130C9A7383F8C6
:109910000FC006F8102C06F80B1C83F82C20D9F881
:109920009010D9F8882083F819C0521A83F81BC008
:1099300083F81DC01A6283F81EC083F81FC083F825
:109940002DC083F82EC083F82FC0D9E92612521AF1
:1099500080215A623F221A764FF0FF329A763E22D9
:109960001A77012283F8302083F831C086F820105E
:109970002921654B86F82210942186F8260086F866
:1099800023100E21614A86F824100D2186F8251037
:10999000552186F8DE11AA2186F8DF1103CBC6F81F
:1099A0002B101988C6F827009B78A6F82F1086F888
:1099B000313003CAC6F83200C6F836108FE64FF4CD
:1099C00000721846002145F0CDF9D8F84020034632
:1099D000002C76D1002A00F0A380D8F83030112274
:1099E0004B49CDE90044FFF7CFFDD8F840301A6C61
:1099F000002A00F0A1801B6BCDE9004411224549EB
:109A000030464FF4E07BFFF7BFFD06F12003D8F8A6
:109A10004480B8F1000F3FF462AE03F120049B4490
:109A2000049523464446984610E05CF81C1B00252C
:109A3000236BCDE900C5FFF7A7FDABEB0803A46CD2
:109A400008F12008002C18BF1F2B51D92379A446F8
:109A500004F11C0E1122A8F12000002BE5D162793F
:109A60002569236B42F021022168CDE900E5FFF76B
:109A70008BFDE2E7A91A18463FF088F82FE6FF238E
:109A8000013A86F89F3186F8A13186F8A031194B4A
:109A90009A427FF7B4AEFF2386F8A33186F8A5314A
:109AA00086F8A431CDE6594618464FF4007245F0C9
:109AB00059F914E6A6F1240343F804AF9F42FBD101
:109AC0000DE6002AD8F844800CBF01220222C2EB26
:109AD0000414B8F1000F3FF402AE4246013C926C10
:109AE000002C01DD002AF9D190464FF4007B90E76D
:109AF000049DF4E5FF03FB00832008829755454150
:109B000081808080086B0508146B0508206B0508B0
:109B1000006B0508046B050860180120DEADBEEF80
:109B200023460822D9F88C104FF4F07BCDE900448D
:109B3000FFF72AFD33466AE72346CDE900445DE797
:109B4000BFF34F8F0549064BCA6802F4E062134326
:109B5000CB60BFF34F8F00BFFDE700BF00ED00E01B
:109B60000400FA05014B53F82000704750280040CC
:109B7000F8B5CB7813B900252846F8BD00F11007D9
:109B80000C460646897838460DF048FC0546002804
:109B9000F1D0E0780EF0CEFBB06123780133DBB278
:109BA00010B1C371222383710D210EF031FCB06915
:109BB0000DF02EFC0D4A536E632BFCD90C480DF0B2
:109BC0000DFC03463846B382FFF762FB034630B90B
:109BD000E0781D460EF0AEFB0EF03AFCCCE73069A3
:109BE00086F8D83042F01AFBC6E700BF60180120A3
:109BF00040420F0030B490F8443000F10801474A69
:109C0000012BC2F890116ED083684549DC68454D40
:109C100024F46004AB42DC60DC6844F46004DC6083
:109C20009C6B24F440149C639C6B44F480149C63F0
:109C30009C6B24F4F8449C639C6B44F488449C63C0
:109C40009C6824F470249C609C689C609C6824F44C
:109C500040149C609C689C605C6824F480645C6038
:109C60005C6824F480545C605C6901EA0401596119
:109C70005969596145D0DC68294924F0E064DC6009
:109C8000DC6844F0E064DC609C6B24F440149C636A
:109C90009C6B44F480149C639C6B24F478249C6338
:109CA0009C6B44F410249C639C6824F470249C6096
:109CB0009C689C609C6824F440149C609C689C6038
:109CC0005C6824F480645C605C6824F480545C60AC
:109CD0009C692140134C9961A3429969996116D0FE
:109CE000002380F844301048104B848DC18D408D86
:109CF000091B93FBF1F3C2E96504C2F89C3130BC47
:109D000070470B4C616841F400016160B3E708499A
:109D10004B6843F400034B60E2E700BF601801208A
:109D200000F0FFFF00200140007AF01F80380100A2
:109D300000230140704700BF01483BF005BB00BF56
:109D4000141A0120084810B4D0F8B431D0F8E84112
:109D500099691A682CB1234600F5DA705DF8044B56
:109D600018475DF8044B70476018012001483BF02C
:109D7000EBBA00BF741A0120084810B4D0F81432AE
:109D8000D0F8484299691A682CB1234600F505704D
:109D90005DF8044B18475DF8044B704760180120CC
:109DA00001483BF0D1BA00BFD41A0120084810B4D2
:109DB000D0F87432D0F8A84299691A682CB12346B9
:109DC00000F51D705DF8044B18475DF8044B7047B3
:109DD000601801202DE9F84FD54F6023044603FB9E
:109DE0000073D3F8A051002D00F0A081D3F8A86132
:109DF0001EB1B379002B40F09981602303FB0473FB
:109E0000D3F8AC91B9F1000F04D099F80630002BCB
:109E100040F08C81631CDBB216B11522F371B27174
:109E2000B9F1000F04D0162289F8073089F806200E
:109E3000287C4FF009083FF0E9FA30460DF0E8FAC7
:109E400048460DF0E5FA112130460EF0E1FA1121F5
:109E500048460EF0DDFA4FF0330A02E00A2011F016
:109E6000BDFD26B13368B2881B691A4202D1BAF12E
:109E7000010AF3D130460DF0C5FA052011F0AEFD10
:109E800030460DF0C5FA052011F0A8FDB8F1010823
:109E9000E1D130464FF0600B0DF0B4FA052011F01F
:109EA0009DFD48460DF0AEFA0BFB04FB052011F0BA
:109EB00095FD30460DF0ACFA07EB0B0A052011F0CA
:109EC0008DFD48460DF0A4FA9AF8B03130460422D0
:109ED000002B984E14BF3E211E210EF079FA9AF8FD
:109EE000B0315E444846002B4FF00402C14614BF17
:109EF0003E211E210EF06CFA4C224146304644F0C1
:109F000031FFDAF8A0319FED8C7AB0EE084A5B6839
:109F1000F7EE003ABAF8B2B1CAF8B431874B9FED08
:109F2000885A9A68874BC2F38222134493F8F82028
:109F3000D7F8BC30D34007EE903AF8EE677AC7EE18
:109F4000275A07EE90BA9FED807AF8EEE77AC7EECF
:109F5000274ADFED7E7AB0EE007AE5EE877AA5EE4D
:109F6000875A25EE844A37EE856A74EEE72ABBF5F8
:109F7000C87F40F2145309F1010ED7BF19463223AE
:109F800064234FF49670C8BF782007EE90EAD4BFE0
:109F90004FF4167C4FF4827C0344B8EEE77AC8BFD6
:109FA0004FF4FA7107EE903A27EE257A01EB0C0395
:109FB000F8EEE76A86EE873A73EE636AFCEEE67ABD
:109FC00017EE902A07EE90CAB8EEE73A07EE903AFD
:109FD000F8EEE77A23EE243AC3EE276A36EEC53A66
:109FE00072EEE66AC3EE077A77EEE37AFCEEE77A82
:109FF00017EE901AC6EE877A77EEE37AFCEEE77AF0
:10A0000017EE903A03F1020C0CEB010AF0EE466AEF
:10A0100007EE90AAF8EE677AE7EE276AF4EEE64AD2
:10A02000F1EE10FA00F398805FFA82FCBCF10F0F9A
:10A0300000F29480323807EE900AF8EEE77A77EE75
:10A04000C47AC7EE876AFCEEE67A17EE90CA5FFA2A
:10A050008CF00F2800F2828088B2FF287ED898B258
:10A06000FF287BD840EA097310054FEA0C4200F044
:10A070007F6002F47F0203431343354A02EA012161
:10A0800043EA01086020012300FB047400273046E6
:10A09000C4F8B881C4E96F73C4E97177C4E974770F
:10A0A00040F050FA94F8F531202BD9B21AD194F837
:10A0B000F431012B16D0242384F8F531D4F8B431CF
:10A0C0001A6822F001021A601A6822F480521A609B
:10A0D0001A681A601A6842F001021A6084F8F511D1
:10A0E00084F8F471002195F912003FF04BFC95F9CA
:10A0F0001230AA7C002B07DB02F01F0101225B0952
:10A100008A40144941F82320002195F911003FF0BD
:10A1100039FC95F911306A7C002B07DB02F01F0136
:10A1200001225B098A400B4941F82320BDE8F88FE2
:10A1300060180120141A0120286B6E4E003802406E
:10A1400000001643D0F00408002474490000704257
:10A1500000FFFF0000E100E0013155E7BEF10F0F05
:10A1600090D0F14603E700BF0348D0F890300BB120
:10A1700080301847704700BF000001200348D0F826
:10A18000B4300BB1A4301847704700BF0000012065
:10A190000348D0F8D8300BB1C8301847704700BF1B
:10A1A000000001200348D0F8FC300BB1EC30184718
:10A1B000704700BF000001200348D0F8203113B1E0
:10A1C00000F5887018477047000001200348D0F858
:10A1D000443113B100F59A70184770470000012010
:10A1E0000348D0F8683113B100F5AC7018477047D8
:10A1F000000001200348D0F88C3113B100F5BE7087
:10A2000018477047000001200348D0F8B03113B15F
:10A2100000F5D07018477047000001200348D0F8BF
:10A22000D43113B100F5E2701847704700000120E7
:10A230000348D0F8F83113B100F5F47018477047AF
:10A24000000001200348D0F81C3213B100F5037060
:10A2500018477047000001200348D0F8403213B17E
:10A2600000F50C7018477047000001200348D0F833
:10A27000643213B100F515701847704700000120D3
:10A280000348D0F8883213B100F51E7018477047A4
:10A29000000001200348D0F8AC3213B100F527705C
:10A2A00018477047000001200138074B074A00EBB0
:10A2B000C00003EB8000D0F8800090420CBF9520D6
:10A2C00096203FF0A3B800BF0000012000600240CC
:10A2D00001382DE9E84100EBC000134D1E46134B39
:10A2E00005EB800590460F46D5F8800098420CBFDC
:10A2F000952096203FF08AF895F995004FEA98113D
:10A30000C5F89070C5F898603FF03CFB95F9953022
:10A31000002B07DB03F01F0001225B090449824088
:10A3200041F82320BDE8E8810000012000600240E0
:10A3300000E100E0AB4B2DE9F04F97B093F832838A
:10A34000A94B0025A94F0093A94BA3F5C96ADFF8D3
:10A35000B892DFF8B8B24E46B30AA3F58013522B79
:10A3600055D8534493F800310D2B50D8B8F1010F54
:10A37000FC5640F01D81012C3FD14FF000094946A9
:10A38000204611F0E9FE11F06FFF90F800C0BCF11B
:10A39000000F18BFBCF1540F14BF4FF0010C4FF069
:10A3A000000C40F0018109F104091FFA89F9B9F1A3
:10A3B000100FE4D1002D00F0B9808B4A00210DE090
:10A3C000534493F800310D2B0FD8FB56A3420FD006
:10A3D000013102F58672A94280F2A4809068036878
:10A3E0009B0AA3F58013522BEAD90023A342EFD195
:10A3F00043799BF805009842EAD17D4B5B4513D029
:10A400005BF8206FB30AA3F58013522BA9D9B8F1DA
:10A41000010FF2D001230024B8F1020FADD1002BBF
:10A42000ABD0734B5B45EBD1009B013503F58673D5
:10A43000042D00938BD16F4B4FF00108DFF8D0B1A2
:10A44000009303F57C73ABF1080A059308F1FF3321
:10A45000DAF804209A4262DDDBF80C60002E00F08E
:10A46000DE833168B78801F13F41B7FA87F701F51C
:10A470007E01C7F11F07890ADAF80856002D40F35C
:10A48000CB80594B002405E0013403F58673AC42C0
:10A4900000F0C0801A688A42F6D14FF48673524A9F
:10A4A000CBF8047003FB04245FFA88F3CBF8184060
:10A4B00016B1F3710323B3717A000321012301FA6A
:10A4C00002F0A16C03FA02F20143A164216D0A4378
:10A4D00022659AF80020002A6FD0626DBB401A43B3
:10A4E000626516B13268B188916199B20122D4F8DF
:10A4F000AC00FDF799FD204608F10108FDF74AFE82
:10A500000123009AB8F1090F8BF81C300BF1200BD6
:10A510000BF8033C537402F11803009396D117B063
:10A52000BDE8F08FBCF1000F7FF467AF58460DF027
:10A5300071FE9BF80540C3B2022B00F27883431CE6
:10A540002D4A5BB203EB430398002C4B03F5727169
:10A5500004E0994200F06B8353F82C2FB242F8D1FB
:10A560001A79A242F5D11A58002AF2D09446002353
:10A57000234A51680133614513D0102B02F12402A4
:10A58000F7D14FF0FF3303EBC3031E4A02EB830303
:10A5900093F89C30002B7FF430AF009BC3F808B0D9
:10A5A00042E7DBB2013BEEE7002D7FF406AF24E784
:10A5B000B4F1080318BF01232EE707F110029340FE
:10A5C000626D134363651EB1B38832681B049361E7
:10A5D00001210022D4F8AC00B94089B2FDF724FD76
:10A5E00089E700BF60180120DC070020AC6B05087C
:10A5F00018F70408281600200000014024F204087F
:10A6000080000120000001200004014018F6040829
:10A61000D0010020032C6BDC4FF4867303FB05A3F1
:10A62000D3F81C06002800F0F082C3F8141601319C
:10A63000CAB283F81D270292542283F81C276B1C90
:10A640000268CAF80836447901920DF0E3FDA94B7F
:10A65000864693F8473303939BF810300493C3B2B4
:10A66000022B00F2E48200F1010CA349A34800236D
:10A670004FFA8CFC019A0CEB4C0C4FEA8C0C05E069
:10A680000133172B00F0D38251F82C0F8242F7D1FF
:10A690000879A042F4D151F80C000028F0D02C2108
:10A6A0000EEB4E0EDFF8889201FB03F394494C4603
:10A6B00003EB8E030B44D3F864114FF4867303FB52
:10A6C00005A3C3F82C160021C3F828066368984236
:10A6D0001DD0013124341029F8D18A4B93F8782009
:10A6E00052B90299542283F8791083F8782003E054
:10A6F0000323804A82F84633834B84488449854A41
:10A70000C3E9D310C3F8582317B0BDE8F08F4B1C32
:10A710007C49DBB2013B03EBC30301EB830393F8FA
:10A720009C1006910029E7D1029983F89D104FF4FF
:10A73000867101FB05F08C210446542083F89C00AF
:10A740002046A310744C0190504404FB03F334687A
:10A75000C0F80C17C0F8184603FB01F1059C03EB89
:10A76000430304EB410103EB0313C0F808176B49E3
:10A7700001EB8303C0F8C0363323C0F8C436684BFE
:10A7800001981C185B4BD3F8BC10039B062B00F000
:10A790003782072BDFF89CC1624B634814BF4FF030
:10A7A000710C1846614B04BF63464FF01C0CB1FBA3
:10A7B000F3F3B1FBF0F1013B104601399AB24FF4CB
:10A7C000867303FB05A3A3F8C816A3F8802602939B
:10A7D000019B2266002203F15801514BA4F8582036
:10A7E00062661944E265484A42F8CCCC41F088F9E7
:10A7F000029BD3F81C2610680292036843F0800382
:10A80000036053790C2B08D8DFE803F06C070707C7
:10A81000640707075B07070752004FF4867303FBC3
:10A8200005A3D3F820164FF0600C026800234FF008
:10A83000020ECDF838C04FF4807C22F00102109354
:10A84000CDF850C04FF0010C1393CDF83CC04FF041
:10A850000A0C1593CDE911CE02600EAA41F00EF854
:10A860004FF48672029B02FB05A2D2F820161A68EA
:10A870000023012900F08C81042900F0898110292E
:10A8800000F0C881402900F08381B1F5807F53D06A
:10A89000B1F5806F50D0B1F5805F00F0C481B1F5A3
:10A8A000803F4FF03C030CBF08214FF4006145E0AE
:10A8B0004FF486734FF4805103FB05A3C3F82016B1
:10A8C000B1E74FF486734FF4807103FB05A3C3F81F
:10A8D0002016A8E74FF48673102103FB05A3C3F8E5
:10A8E0002016A0E74FF48673012103FB05A3C3F8EC
:10A8F000201698E76018012024F2040800000140A7
:10A90000D0F0040800000120C0120020615B0108A3
:10A910005D5B0108695B01086B4CA407E816002029
:10A92000DC0700201055220044950800D0DD060009
:10A930008000012040771B000821042302F1180049
:10A9400050F803C041EA0C01C150029B187900285D
:10A9500040F027814FF48672002302FB05A2D2F853
:10A960001C06D2F828160068026842F00102026054
:10A97000D9F804200133914200F00F81102B09F126
:10A980002409F5D14FF0FF33AC4A03EBC30302EBCC
:10A990008303D3F88000AA4B98420CBF95209620E1
:10A9A0003EF034FD4FF4867303FB05A3D3F81C2659
:10A9B00053790C2B00F2EE80A24901EB4303B3F86C
:10A9C00070C64FF4867310689F4903FB05A3A3F874
:10A9D00024C6002306E0904200F01F810133042BBF
:10A9E00000F0288151F83320002AF4D1DAF810263B
:10A9F0000132CAF810260AEBC302DB00C2F8440A8F
:10AA00001944069823469022B1F804E0DFF85092EA
:10AA10004CEA0E0CA1F804C08C49FFF759FC6069A0
:10AA20004FF486734FF4804C03FB05A5036843F095
:10AA300010030360036843F0140303600023C4E9B8
:10AA40001F33C4E92833C4F8A8300423D5F82C26D2
:10AA5000C4F89C304FF48063C4F894204FF4403223
:10AA6000C4F88430C4F898204022A267D5F8C426E0
:10AA7000C4F89020C2B2D5F8181620F0FF00103AA2
:10AA800018312167A9FB0231019B4FF4805209095B
:10AA9000C4F8882003F170026D4B1A44D5F8C03613
:10AAA000C4F88CC063673FF09BFDD5F82806019B76
:10AAB0004FF40031D0F800E04FF4006C03F1B8021D
:10AAC000634BC4F820E0D0F814E01A440023C4F823
:10AAD00024E0D0F804E0C4F828E0D0F808E0C4F896
:10AAE0002CE0D0F80CE0C4F8C830C4F830E0C4F86A
:10AAF000F030C4E93033C4E93A33D5F82C36019349
:10AB00000423C4F8E4304FF48063C4F8CC30019BD4
:10AB1000C4E93731D5F80C37C4F8D830C3B220F0C7
:10AB2000FF00103BA9FB0331D5F81836C4F8D0C09C
:10AB300010330909C4F8B830D5F8083701934FF439
:10AB40008043C4F8D430019BC4F8BC303FF048FDCA
:10AB5000D5F828265FFA88F3116861635169A1630B
:10AB60005168E16391682164D1686164116841F0C2
:10AB700010011160116841F014011160049ACBF8C2
:10AB800004708BF81020CBF80C60CBF8184090E4E0
:10AB90000821D3E64FF0000C13E7DBB20693013B2C
:10ABA000F2E603920DF0C6FB039A20B30268254B30
:10ABB00002F13F42079002F57E0203EB9222029BD4
:10ABC00092F868061A7A03923EF020FC079B039ADB
:10ABD00099880D92002218680C92089108A9039395
:10ABE000CDE90A220222099240F044FC5422039B40
:10ABF000DA80029B1A68536C43F400435364A9E65D
:10AC000014484FF0380C144BD1E50223134A82F854
:10AC1000463371E54FF4006190E6DB00F0E64FF05B
:10AC2000FF37394628E44FF40061042386E6002309
:10AC30005B68FFDE00239B88FFDE00BF0000012071
:10AC400000600240D0F004080C0C00207580000861
:10AC5000DC070020882A1100A0BB0D00601801202D
:10AC6000ABAAAAAA2DE9F041834DC0EB001605EB73
:10AC7000C606D6F84833002B00F0BC800446070116
:10AC800096F8B8033EF0C2FB96F8B833012203F001
:10AC90001F015B09013B8A40032B0AD8DFE813F050
:10ACA000E0000400E600DA0074494B6A23EA02027D
:10ACB0004A623B1B04F1010805EBC3035FFA88F805
:10ACC00093F84C030DF036FB18B1122380F807807F
:10ACD00083713B1B05EBC30393F84D030DF02AFB77
:10ACE000064618B1132380F8078083713B1B05EBE0
:10ACF000C30393F84E030DF01DFB18B1142380F825
:10AD0000078083713C1B2E21304605EBC40494F868
:10AD100050230DF05DFB94F84E030DF00BFB94F8FF
:10AD200051230E210DF054FB94F84C030DF002FB5F
:10AD300094F84F232E210DF04BFBD4F848335049A3
:10AD40001A688B4222F040021A6055D04D4A934255
:10AD500069D002F58062934258D1484A116A41F4A1
:10AD600000411162116A21F4004111625A6842F4F3
:10AD700080525A601A68520634D443491E68D1F88A
:10AD8000D442D1F8E002D1E9B025B0F5005F42EA43
:10AD90000502D1F8CC5242EA0502D1F8D05242EA7B
:10ADA0000502D1F8D85242EA040242EA0502D1F87B
:10ADB000DC5242EA0502354D42EA000205EA060588
:10ADC00042EA05021A60D1F8C8225D6842EA1442DC
:10ADD0002F4C04EA050442EA04025A6002D1B1F899
:10ADE000E4221A61DA6922F40062DA611A6842F038
:10ADF00040021A60BDE8F081204A516A41F4805156
:10AE00005162516A21F480515162AFE7214A934265
:10AE100013D11A4A516A41F400515162516A21F426
:10AE200000515162A2E7154A116A41F48041116252
:10AE3000116A21F48041116298E7174A934295D133
:10AE40000E4A516A41F480115162516A21F4801115
:10AE500051628BE709490B6923EA02020A6128E77C
:10AE600006494B6923EA02024A6122E703490B6A59
:10AE700023EA02020A621CE760180120003802403F
:10AE80000030014000380040000001204000FFFF7A
:10AE9000FBF0FFFF003401400050014030B4046972
:10AEA000002341684025E46882690C31546244699A
:10AEB0009560536093631160C2E90333C2E90533BF
:10AEC000C2E90733C2E90A33C2E90C3384B1C2696B
:10AED000E068936350621160C2E90133C2E9033351
:10AEE000C2E90533C2E90733C2E90A33C2E90C33C8
:10AEF00030BC7047114A037A0168D35C10B4CC5857
:10AF0000CA1824F00104CC501368DB07FCD4037D7D
:10AF10001F2B09D9203B20225DF8044B02FA03F3D2
:10AF200043F01803CB60704720225DF8044B02FA0F
:10AF300003F343F018038B60704700BFBC6B050838
:10AF4000F0B50668356A00295CD12F68AC68D6F880
:10AF500018E0002F5FD0364B3B40B3F1005F61D06B
:10AF600007F01F0104F11F0327F01F02194421F00D
:10AF70001F01BFF34F8F00290BDD114402F12003A5
:10AF8000DFF8B0C08B42CCF868221A4603F12003E8
:10AF9000F8D1BFF34F8FBFF36F8F03684FF4806218
:10AFA000CEF80470CEF814205B69CEF8204043B38D
:10AFB0006868F669002837D01D4B0340B3F1005F85
:10AFC0001AD000F01F0220F01F011F32224422F08D
:10AFD0001F02BFF34F8F002A0ADD0A4401F120034C
:10AFE000144D9A42C5F87012194603F12003F8D1A6
:10AFF000BFF34F8FBFF36F8F4FF480637060736147
:10B000003462F0BDEC69002CFBD06F691435D6F8C2
:10B0100018E0002F9FD1084A3346CEF81470CEF8BE
:10B020000420C1E73346B9E7044B70617360E7E77A
:10B030000000FFFF00ED00E0440000204800002079
:10B04000F8B507680646D7E90454002C50D0A06133
:10B050002B7D1F2B39D82022286802FA03F343F0F6
:10B0600018038360237D1F2B3AD92022203B02FA4C
:10B0700003F3226843F01803D36063680022696811
:10B080000A601A601A6842F010021A60BA69297AD6
:10B090003FF0A6FAFA69217A20683FF0A1FA2A7AED
:10B0A0002A492F6833688D5C5A687B59206843F0C1
:10B0B00001037B51237AC95C435843F00103435099
:10B0C000536843F003035360F8BD203B20222868F7
:10B0D00002FA03F343F01803C360237D1F2BC4D887
:10B0E000202202FA03F3226843F018039360C4E7B6
:10B0F0002A7D6B681F2AA8611FD82021286801FAC1
:10B1000002F242F0180282600021BA6919601968DF
:10B1100041F010011960297A3FF062FA2A7A0B494E
:10B1200033682868895C5A68435843F001034350E8
:10B13000536843F002035360F8BD203A2021286889
:10B1400001FA02F242F01802C260DDE7BC6B0508AA
:10B15000014B43F82010704750280040F0B5A24C36
:10B16000A5B0E368022B00F03A82A048A04AA149AA
:10B17000121A43F083FDA048A04AA149121A43F0D5
:10B180007DFDA368012B00F2C28003EB43039D4ABF
:10B190009D4D02EB430032F8132041888388C5E9B6
:10B1A000BA21C5F8F032994C994E9A4BB2FBF1F2A4
:10B1B000994901FB02F20021C6F8BC20D4F888208E
:10B1C00042F47002C4F888201A6842F001021A6042
:10B1D0009960924A1868024091481A60C0F30807C3
:10B1E000904A5A601A6822F480221A60D96007B126
:10B1F000FEE78D49A0604FF6FF000A688B4B42F4D2
:10B2000000720A60E26802401343E3603EF03EFCD5
:10B21000BFF34F8FBFF36F8FC4F85072BFF34F8FE0
:10B22000BFF36F8F636943F400336361BFF34F8FE4
:10B23000BFF36F8FC4F88470BFF34F8FD4F88030A2
:10B2400043F6E07CC3F3C90EC3F34E33580100EA62
:10B250000C01734641EA8372013B5F1CC4F8602213
:10B26000F8D1203810F1200FF1D1BFF34F8F63696F
:10B2700043F480336361BFF34F8FBFF36F8F6A492D
:10B28000644B0A6842F480720A60196C684A41F0A3
:10B2900080511964196C01F0805102910299116872
:10B2A00041F4404111601268D5F8E80202F44042CE
:10B2B000D5F8EC42D5F8F0120192019A9A6802F0A2
:10B2C0000C02042A00F08D809A6802F00C02082A11
:10B2D00000F083804F4A136843F480331360D6F83C
:10B2E000287504E0D6F82835DB1B642B74D8136866
:10B2F0009B03F7D5474A936803F00C03082B6BD0E8
:10B30000136823F080731360D6F8287508E03E4D6B
:10B31000D5E9BA2147E7D6F82835DB1B022B5BD8E5
:10B3200013689B01F7D40B06640843EA8013611E7F
:10B3300043EA01433F491943364B5160116841F0DC
:10B3400080711160D6F8281504E0D6F82825521A25
:10B35000022A41D81A689201F7D5196C344A41F093
:10B36000805119641B6C03F080530393039B136893
:10B3700043F480331360D6F8281506E0D6F8283554
:10B380005B1AB3F57A7F00F2CB805368DF03F5D503
:10B390001368274943F400331360D6F8282506E0E4
:10B3A000D6F828359B1AB3F57A7F00F2B9804B683E
:10B3B0009C03F5D54FF400124FF0006304A80492EB
:10B3C0004FF4C07221930723CDE9082303230A9386
:10B3D00039F00CFC80B3FEE7FEE75B685A027FF5AC
:10B3E00079AF0C4B1B6885E7502800400000000037
:10B3F000A037000058F3050800000020C801002015
:10B40000184506085CF704080000012000ED00E084
:10B41000601801200038024040420F00FFFFF6FE96
:10B420000000000810300024003C02400003FA0530
:10B4300000700040080040206C4A136803F00F03BE
:10B44000062B0AD8136823F00F0343F00703136099
:10B45000136803F00F03072B63D1654B9A6842F41E
:10B46000E0529A609A6842F460429A609A6822F0C8
:10B47000F0029A601A68900153D59A6841F28831B7
:10B4800022F0030242F002029A60D6F8280504E096
:10B49000D6F82825121A8A4243D89A6802F00C027C
:10B4A000082AF5D1514A136819070AD5136823F001
:10B4B0000F0343F007031360136803F00F03072B18
:10B4C0002FD14B4C4B4FA36823F4E05343F4A053CC
:10B4D000A360A36823F4604343F40043A36039F0FE
:10B4E0003FF9A368C3F303133B4493F89836D8405D
:10B4F000C6F8BC003EF0CAFA002304A8CDE9133315
:10B50000CDE91533CDE91733CDE91933CDE91B3337
:10B51000CDE91D33384B049339F068FB10B1FEE7D9
:10B52000FEE7FEE702234FF0007204A8CDE90633E0
:10B53000D823CDE9042301230B9339F057FB00B145
:10B54000FEE7D4F88C3023F08073C4F88C30D4F844
:10B550008C3043F08073C4F88C30A36803F00C0384
:10B56000042B36D0082B18D0244BC6F8BC30204A08
:10B57000D5E9BA31B3FBF1F39168D6F8BC20C1F339
:10B5800003110F4497F89816CA401D4901FB03F3B5
:10B59000C6F8BC20934220D0FEE76368626813F4CB
:10B5A000800F636802F03F0218BF1649C3F3881387
:10B5B00008BF1249B1FBF2F202FB03F30C4A5268D6
:10B5C000C2F3014201325200B3FBF2F3C6F8BC30C1
:10B5D000CDE70C4BC6F8BC30C9E725B0F0BD002163
:10B5E0000320FFF7B5FDFEF7ABFA00BF003C0240B9
:10B5F00000380240D0F00408C0FF03000024F4002B
:10B6000040420F0000127A001D4B1E48196C1E4A62
:10B6100041F0805130B4196482B0196CFF2401F0FC
:10B62000805101910199016841F480710160CA2043
:10B63000196C41F480611964196C01F48061009106
:10B640005321009D5462506251625B6FDB000DD448
:10B650000E4B00210E4A43F8041B9342FBD10D4BC5
:10B660000D4AC3F8502802B030BC7047094A0A4B53
:10B67000D2F850289A42EBD102B030BC704700BFDC
:10B68000003802400070004000280040542800406C
:10B690006C2800400020004031666542800AA0F519
:10B6A0008010522808D8054B184490F800310D2B13
:10B6B00002D8034AD056704700207047D0F00408E3
:10B6C000AC6B0508F0B50446D0F89400434B83B04A
:10B6D000A16804F1640204F118070E68C1B220F0F9
:10B6E000FF0001921039A3FB013109093EF0C2FFAE
:10B6F000616D0023019A012984F8583018D004297B
:10B7000016D0102955D0402912D0B1F5807F53D0E2
:10B71000B1F5806F50D0B1F5805F55D0B1F5803F65
:10B720004FF03C030CBF6FF0080C6FF4006C01E0AD
:10B730006FF0080C06F118053046E95801EA0C01D3
:10B74000E950616D40F09AF8636D012B16D0042B1F
:10B7500014D0102B0FD0402B10D0B3F5807F2FD0FA
:10B76000B3F5806F2CD0B3F5805F31D0B3F5803F57
:10B7700006F1540502D04FF4006100E008212B6867
:10B780003A46D4F894000B4340212B602162C1B2A9
:10B79000124B20F0FF001039A3FB013109093EF0E4
:10B7A0001FFFD4F89420136843F01003136003B014
:10B7B000F0BD6FF4006CBDE76FF0080C0423B9E72F
:10B7C00006F11C050821DAE76FF4006C0423B1E7E9
:10B7D00006F11C054FF40061D1E700BFABAAAAAA8D
:10B7E000934B2DE9F04F1C782DED028B85B034B9C9
:10B7F0000124204605B0BDEC028BBDE8F08F8D4BD7
:10B800008D4F5B6E08EE103A0DF010F897F8E43BA0
:10B810000190002B00F00681854B07F1400AA7F14B
:10B82000C804002603F5847B5D46CDF80CB0D7F83C
:10B830002833019AD31A03D4EA6D9A4200F3D580D3
:10B840007B4A06EB860302EB431393F8603103F067
:10B85000FF020092002B00F08E80D5F89410AB68A8
:10B8600076481A68CBB221F0FF01103BA0FB03031E
:10B8700073481B09C35C19444B68A9891FFA83FEEE
:10B88000D368CEF1160E23EA0103BEF1070FD36091
:10B8900071D957F8C03C00220121013390468B46F4
:10B8A00047F8C03CD5F89C309C4602935CF8049B5A
:10B8B00048461DE0DCF80090B8F1140FA9EB000336
:10B8C00048461EDC13F1080948BF03F117094FEA87
:10B8D000291308EB291803F1FF39013102FA03F3A8
:10B8E0000CF1040C0BFA09F28E4542EA030208D36C
:10B8F0008E45DFD8C8F11503DCF800004FF01508BD
:10B90000E9E7B8F1150F67D14E49C2F38423C2F3BA
:10B91000441001EB830301EB8000D3F8A836D0F884
:10B92000A8061B0243EA001302F01F00C2F3C43250
:10B9300001EB800001EB8202D0F8A816D2F8A8260D
:10B940000B4343EA023383EA132282EA121202F023
:10B950000F020F2A40D1C3F30F134FF6FF72934229
:10B960003AD0B3F5606F47D0A381009918EE102A42
:10B9700050460BF0D9FC28460136FFF7A3FE97F896
:10B98000E43B0AF15C0A1434B34205F1A0053FF729
:10B990004EAF01210022DDF80CB087F83E10C7F849
:10B9A0002823002B3FF424AF03EB83030BEB43135B
:10B9B0009BF810200BF1A00B5BF84C0C12F0020F5F
:10B9C0005BF8982C11680A6A14BF42EA80020243AD
:10B9D0005B450A62ECD10BE757F8C43C013347F8EA
:10B9E000C43CC6B100230093BFE70024204605B045
:10B9F000BDEC028BBDE8F08F0E4991F8702102EB8F
:10BA0000420201EBC202324492F81D210D2AABD151
:10BA10008023A377A9E7029958220B4843F02EF917
:10BA20000096A2E70122C7F8283387F83E20E0E617
:10BA3000C801002060180120C0120020ABAAAAAAE9
:10BA4000BC6B0508D0F00408A4120020830AA3F5FB
:10BA50008013522B45D8F0B50446624885B00344A4
:10BA600093F800010D283AD85F4D860105EB80134D
:10BA7000D3F82C75A74232D00139C3F82C4589B2CE
:10BA8000C3F83815D5F8BC10B1FBF2F2013AC3F88F
:10BA9000302505F22C5202EB80100022C3F83C2521
:10BAA000C3F83425C3F8402538F056FB4F4B9C4271
:10BAB00018D0B4F1804F15D0A3F57C439C4272D0CE
:10BAC00003F580639C426ED0494A03F57C439C4257
:10BAD00018BF944246D003F570539C4242D005B043
:10BAE000F0BD704700234FF48051AA19CDE900132F
:10BAF00092F868150129CDE90233F0D00221D2F87D
:10BB00002C05012482F869153A498768394081601B
:10BB100082F8694582F868350023AA19CDE9003317
:10BB2000029392F86835012BD9D0D2F82C35022136
:10BB30002E4882F8691583425A6899684ED000F5FC
:10BB4000806083424AD022F0700221F080013544A7
:10BB500001205A609960002385F8690585F86835E9
:10BB600005B0F0BD00214FF48053CDE90031AB1991
:10BB700093F86825012ACDE90211B0D0D3F82C053D
:10BB8000022283F869251B4A87683A4082601A4A74
:10BB900083F868150121944283F86915BCD0144BD1
:10BBA0009C429CD1B8E700224FF48051AB19CDE9FB
:10BBB000001293F868150129CDE902228FD00221E5
:10BBC000D3F82C05012483F869150A4987683940A0
:10BBD000816083F8694583F868259DE722F4700247
:10BBE000B1E700BFD0F00408601801200000014058
:10BBF000000C00408800FEFF0004014003689B0A1F
:10BC0000A3F58013522B58D8F0B53D4C234493F83C
:10BC100000310D2B50D84479A608002952D003EBEF
:10BC20008300384D4FF0020CA40803EB40000CFADF
:10BC300004F4304405EB8316D6F82C6505EB800C34
:10BC4000F768CCF8F0183C43CCF80029F4609C016C
:10BC5000EFF3118C502282F312882C2203FB02F2A4
:10BC6000A818D0F8EC1849B30A1DC0F810192649D5
:10BC70002C20264E03FB00F006EB000E143001448E
:10BC800051F8040B18B1106051F8042C04328E45A1
:10BC9000F6D100215FFA8CFC11608CF311882C2204
:10BCA0002C4402FB0353D4F82C25D3F8103913B3DA
:10BCB000D36843F00103D360F0BD704724321249CA
:10BCC0000A44D5E703EB83000E4D344603EB4000F6
:10BCD000304405EB8316D6F82C750226A640FC6886
:10BCE00024EA0604FC6005EB8004C4F8F018C4F8EC
:10BCF00000299C01ACE7D36823F00103D360F0BDB9
:10BD0000D0F00408601801204C210120702101208E
:10BD100001490248FDF764B84C21012000000140B0
:10BD200010B5064C064804F6EC01FDF759F804F688
:10BD300078210448BDE81040FDF752B86018012092
:10BD4000000001400044014002494FF08040FDF7EF
:10BD500047B800BF7821012001490248FDF740B8EB
:10BD6000A42101200004004001490248FDF738B831
:10BD7000D02101200008004001490248FDF730B8F9
:10BD8000FC210120000C00402DE9F843194E3569D3
:10BD9000F3681D4010D04FF00047DFF85C80B5FA23
:10BDA00085F227FA02F31F2A6FEA030305EA030567
:10BDB000336103D0002DF2D1BDE8F883D8F8F03913
:10BDC000A3B103F1FF3900231FFA89F9C8F8F0394C
:10BDD000D8F8EC49002CEDD0236820464946984716
:10BDE0006468002CF8D1002DD9D1E5E7F16A1FFA7B
:10BDF00081F9EDE700100040601801200149024878
:10BE0000FCF7EEBF802201200004014010B5064C73
:10BE1000064804F52261FCF7E3FF04F6FC21044820
:10BE2000BDE81040FCF7DCBF6018012000040140B1
:10BE3000001C004001490248FCF7D2BFAC2201209F
:10BE40000040014001490248FCF7CABF0423012019
:10BE50000048014001490248FCF7C2BF30230120DD
:10BE6000001800402DE9F04F4FF4257295B00021E5
:10BE7000804842F077FF804B804F4FF080415A6CF2
:10BE800007F12004B94642F0010207F51E65A246FB
:10BE9000DFF8F4815A645A6C794E02F00102009284
:10BEA000009A1A6C42F001021A641A6C02F0010244
:10BEB0000192019A1A6C42F002021A641A6C02F0A2
:10BEC00002020292029A1A6C42F004021A641A6C7C
:10BED00002F004020392039A1A6C42F008021A64F8
:10BEE0001A6C02F008020492049A1A6C42F01002D2
:10BEF0001A641A6C02F010020592059A1A6C42F04C
:10BF000020021A641A6C02F020020692069A5A6CF9
:10BF100042F002025A645A6C02F002020792079A37
:10BF20005A6C42F480325A645A6C02F4803208929D
:10BF3000089A5A6C42F400325A645A6C02F4003285
:10BF40000992099A5A6C42F480225A645A6C02F49B
:10BF500080220A920A9A1A6C42F040021A641A6C01
:10BF600002F040020B920B9A1A6C42F080021A64A3
:10BF70001A6C02F080020C920C9A1A6C42F48072D5
:10BF80001A641B6C03F480730D930D9B42460023CF
:10BF900001E056F833208A420CD001330E2BF8D141
:10BFA0000AF1200A00203DF031FA55450DD05AF82B
:10BFB000201CEBE7334A0AF1200A02EBC30313F813
:10BFC0000C0C3DF023FA5545F1D107F51C67DFF85D
:10BFD000BCB0DFF8BCA009F120094F4526D099F884
:10BFE0000630002BF7D099F804000CF0A3F90646B0
:10BFF0000028F0D0036809F1200919F8188C53447F
:10C000000BEB932393F868063DF000FAB288306892
:10C0100000230E9202220EA9CDF84C80CDE90F2309
:10C02000CDE911333FF026FA4F45D8D14FF080418A
:10C03000154F134E3A46002301E056F833208A424A
:10C040000BD001330E2BF8D1203400203DF0DEF967
:10C05000AC420CD054F8201CECE70A4A203402EB26
:10C06000C30313F80C0C3DF0D1F9AC42F2D115B07A
:10C07000BDE8F08F4C21012000380240F8F7040899
:10C08000B8010508C801050800000140D0F0040807
:10C090000000FEBF08B572B6FDF752FD30B50320B3
:10C0A00083B0FDF75FFD01284BD0324C0025324AAA
:10C0B0000523C4F89850C4F89C50C4F8A020C4F8D4
:10C0C0009430BFF34F8FBFF36F8F4FF6FF01E268DD
:10C0D0002A4B0A4013432A4AE360536F38F040FB6F
:10C0E000284B2949A3FB0023D4F8FC209B0C42F0E9
:10C0F0008072C4F8FC20C1F8803BD1F8BC302349E1
:10C10000234AA1FB031323499B09C2F8B01F5560C2
:10C11000013B1168B3F1807F41F00101116008D249
:10C120004FF0E022F0215361072384F8231095613A
:10C1300013614FF0E022136943F00403136103B06D
:10C1400030BD02210320FFF703F80D4B12485A6C53
:10C15000124942F480425A645B6C03F480430193B9
:10C16000019A02680B68026083F308884B6898475D
:10C17000FEE700BF00ED00E01B0000060005FA0529
:10C180000038024083DE1B4360180120D34D62104B
:10C19000001000E055CEACC5003801400000F01F93
:10C1A000D0F82011242200232DE9F041C0F8942179
:10C1B00004460A68806804F5907522F001020A605E
:10C1C0000B604B608B6094F805C0C4F89C314FEA5B
:10C1D0008C22C4F8943184F8903102F48052C4F86F
:10C1E0009831C4F83831C4F828214FEA0C32C4F829
:10C1F000403102F40052C4F834312379C4F82C21C0
:10C200004FEA0C22C4F8240113F0010002F480620A
:10C21000C4F8302102D00422C4F8342113F0020300
:10C2200005D0D4F8342142F00802C4F834211CF0BF
:10C23000010F0DD048B1D4F8442142F00202C4F8F5
:10C2400044214FF48032C4F84C21002B40F0FF8091
:10C25000A64B03F1200053F8042F944200F0BD8058
:10C260009842F8D11CF0080F40F0CD80D4F89431FA
:10C27000002B00F0128124232846C4F894310B6867
:10C2800023F001030B6038F09FFA012815D0D4F891
:10C290004431002B40F01481D4F8203128465A68EC
:10C2A00022F490425A609A6822F02A029A601A6830
:10C2B00042F001021A603FF0B1F82379DA0761D544
:10C2C000D4F8FC20002A00F0D5800023D4F8041113
:10C2D00004F13C06E263A3644FF480623046E264FA
:10C2E000C4E91013C4E91433C4E91833C4E91A3398
:10C2F0004FF48033E3654FF48073A3653FF084FC13
:10C30000304638F057F8D4F89881C4F88C61B8F109
:10C31000200F656731D1E368626999B26AB3B1FAF7
:10C3200081F77F0949B394F89001012825D0304660
:10C330000126C4F89C710B4684F890612226A4F86B
:10C340007811C4F898616A4ED4F82011A667694E36
:10C350002431C4F87421E667674EC4F88C70C4F8C1
:10C36000886038F0C5F8002800F0AE80102384F80B
:10C370009071C4F89C31C4F89481E26B23795268BF
:10C38000C4F814219B0773D5D4F80021002A69D082
:10C390000023D4F8081104F19C06C4F89C20C4F8CA
:10C3A000A8304022C4F8B8303046C4E92C33C4E980
:10C3B0003033C4E932334FF48033C4F8BC304FF427
:10C3C0008063C4E92812C4F8AC303FF01DFC30464D
:10C3D00037F0F0FF002863D0FEE7002C3FF442AFB7
:10C3E00094F8B831002B3FF43DAFD4F844311CF041
:10C3F000080F43F00803C4F844314FF40043C4F875
:10C4000054313FF433AFD4F89431002B51D024236E
:10C410002846C4F894310B6823F001030B6038F010
:10C42000D3F901283FF449AFD4F84431002B43D16C
:10C43000D4F8203128465A6822F490425A609A680B
:10C4400022F022029A609A6842F008022EE7D4F89D
:10C45000443143F00103C4F844314FF40033C4F8CD
:10C460004831F5E6D4F8A021136843F08003136047
:10C47000BDE8F081D4F8A021116841F48071116009
:10C48000916841F001019160116841F02001116053
:10C49000116841F01001116074E784F89031EAE608
:10C4A000D4F89C30C4F88861C4F8D4505860BDE812
:10C4B000F08184F89031AAE7284638F03FFBB7E7CF
:10C4C000284638F03BFBE7E6D4F8203184F89001A9
:10C4D0001A6842F480721A609A6842F001029A6007
:10C4E0009A6842F040029A6047E700BFAC1E002005
:10C4F00091190408C1190408C5190408F8B5EFF327
:10C500001185502383F31288D0F800311B6813F093
:10C51000010303D0EDB285F31188F8BDD0F8942162
:10C520000446D0F898110A4302F02102212AF1D0E2
:10C53000D0E90901884253D043D822691846531ADA
:10C540009BB2D4F894710022A062202F84F8A42119
:10C55000E0D1A2695118DDD0B3FA83F67609002B39
:10C56000D8D094F89021012AD4D00122D4F888019F
:10C57000A4F8723184F890212122C4F89C61C4F897
:10C580006C11A4F87031C4F89421E8B1DFF858C0F8
:10C59000D4F82021C0F83CC0DFF850C0283206652E
:10C5A000C0F840C0DFF848C0C0F84CC037F0A0FF6A
:10C5B00050B1102384F89061C4F89C31C4F8947190
:10C5C000A8E7431A9BB2BCE7D4F8203100224021EF
:10C5D000196284F890219A6842F080029A6099E783
:10C5E000012384F8A43195E7691904088D1904081A
:10C5F000C5190408F8B5D0F820310446DA69910667
:10C6000015D5586AE36AC0B2002B00F0D580216BC3
:10C610009847D4F820311A6822F480721A609A6818
:10C6200022F001029A609A6942F008029A61DA697E
:10C63000D20701D501221A62DA69970701D50222D1
:10C640001A62DA69560701D504221A62DA691507F7
:10C6500001D508221A62D4F8002152B3D9694906DB
:10C660000AD4DA69D20606D5626B12B19047D4F8C3
:10C67000203110221A62F8BDD96904F590701E6845
:10C680000F079D682DD18F0602D5B50600F1C88031
:10C690000F0602D5350600F1B380480602D57106B3
:10C6A00000F1A38012B12046FFF728FFD4F8203113
:10C6B000D7E7D9690806D1D5D4F894112129CDD06E
:10C6C000D4E90901814200F0A480A069405C0131F5
:10C6D000C0B298622069B1FBF0F500FB1511A162B0
:10C6E000BCE705F0010506F4907C5CEA0507CFD0B5
:10C6F000CF0709D5F70507D501271F62D4F89C712C
:10C7000047F00107C4F89C718F0761D44F0708D523
:10C710003DB104271F62D4F89C7147F00207C4F8AA
:10C720009C710F070CD506F0200C5CEA050507D0BC
:10C7300008251D62D4F89C5145F00805C4F89C51A9
:10C74000D4F89C51002DADD08D0607D5B10605D586
:10C75000D4F8802112B19047D4F82031D4F89C113C
:10C760009A6801F0080102F04002114368D01A688B
:10C770002020002122F490721A609A6822F00102AF
:10C780009A60C4F898019A68C4F88011520610D5CE
:10C790009A68D4F88C0122F040029A6048B190F86F
:10C7A00035302A4A022B02653FD08023436535F09D
:10C7B00039F9D4F8002175E7E3696269D054E36977
:10C7C000E2680133B3FBF2F102FB1133E36120E7CE
:10C7D000002DA6D002271F62D4F89C7147F00407F1
:10C7E000C4F89C714F079CD593E71968202021F06D
:10C7F000400119600023C4F89401C4F8843151E762
:10C80000D4F88431002B3FF44DAF9847D4F8002181
:10C8100048E7A4F87221196821F0800119601DE72A
:10C82000D4F88031002BF0D13CE70168052380F873
:10C8300035300B68D4F8002123F001030B6031E799
:10C84000D4F80021C4F89C112CE700BF251A040875
:10C850002DE9F04FAB4C89B004EB8004D4F8F04BD9
:10C86000002C68D0D4F8A8511F46DFF8B0B290462B
:10C870006B680646DFF8A892C4F8A0316B6BA16024
:10C8800063612B6BA3616B8FE3600BF1600323602B
:10C890002B8F23612A7809EB420393F9840B530011
:10C8A0000193C3B2012B40F2B080D4F8003183B1C0
:10C8B000954900209C464B68013024319C4500F08E
:10C8C00031811028F7D1914B93F87810002900F0AE
:10C8D0007B81D4F8FC00002840F0EC806B68C4F841
:10C8E000203195F82800002840F0FC8094F8AE0133
:10C8F0000BF020FD17F0080B814694F8ACA11ED078
:10C90000002841D017F0510F4FF00B0306F101063C
:10C9100014BF0A211A2117F0410F8371C67114BF89
:10C920004023202394F8AF2119430BF02BFDD4F8BA
:10C93000FC30002B52D0204609B0BDE8F08F18F033
:10C94000020F21D000B302687149724B114403EB0E
:10C95000912393F868060B2389F80630731C89F835
:10C96000073094F8AF713CF051FDB9F8043002A9DA
:10C97000D9F80000029302230797CDF818B003936B
:10C98000CDE904BB3EF076FD50460BF0D3FC0746E4
:10C990000028CCD018F0010FC9D001680C235C4AE4
:10C9A000013683710A445B4BC67103EB922394F802
:10C9B000AD6193F868063CF029FDBB883868022217
:10C9C0000293002302A90796CDE90323CDE905339D
:10C9D0003EF050FDD4F8FC30002BACD195F82C1073
:10C9E00095F92A0089093CF0CDFF95F92A3095F890
:10C9F0002A20002B9FDB02F01F0201215B09464821
:10CA000001FA02F240F8232095E708234FF00C0AC0
:10CA10000BF1900C1AFB003A0023E646194601314F
:10CA2000172962D01EF81C3F042BF8D19EF8013064
:10CA30009342F4D15EF80A30002BF0D08E46019973
:10CA4000C4F800318944CEEBCE0199F985EB890019
:10CA500000EB4009BEF1FF3F01EB89015944D1F8D9
:10CA60009C10C4F808113FF423AF002101311729AD
:10CA70003FF41DAF1CF81CEFBEF1050FF6D19CF87A
:10CA800001E09645F2D15CF80AE0BEF1000FEDD06E
:10CA9000C1EBC101C4F8FCE000EB4000890001EBF0
:10CAA00080008344DBF89C10C4F80411002B7FF451
:10CAB000FFAE7046144A0023516801332432884285
:10CAC0005FD0102BF8D1114B93F87820002A7FF417
:10CAD00005AF2A78013283F879200C2283F8782078
:10CAE0006B68FCE63CF092FC00E7019B9944D4F8AB
:10CAF000003199F9851B0131B7D1002B7FF4D8AEF5
:10CB0000E7E600BFC01200208000012000000120E5
:10CB10000000FEBFD0F0040800E100E0C8010508F5
:10CB2000601801205FFA80F92B4B013209F1FF31C7
:10CB3000D2B201EBC10103EB810393F89C100029F1
:10CB40007FF4C7AE83F89D202448D3F8802082422A
:10CB50000CBF952096200B2283F89C203CF056FCBD
:10CB60002346484695F82B201D49FDF7B1FB6B681D
:10CB7000D4F8FC002833C4F8183100283FF4AEAED6
:10CB800098E7DBB2144A013B03EBC30302EB8303D8
:10CB90002A7893F89C100132D2B200297FF49EAE1D
:10CBA000D3F8800083F89D200C4A90420CBF95205A
:10CBB00096200C2283F89C203CF028FC6B6803F143
:10CBC0002402C4F81C218AE6013283F879200B2262
:10CBD00083F878207DE600BF00000120006002405D
:10CBE0004D8C00082DE9F0410468884617461D4623
:10CBF00094F800C0BCF1030F25D1646825210279A7
:10CC0000204642F080023FF029FE4246204626217F
:10CC10003FF024FE45F08002272120463FF01EFE13
:10CC200004200FF0D7F872B623681B6A4BB9204670
:10CC30002B463A46C9210AF035FF012062B6BDE80D
:10CC4000F0810020FAE7BDE8F0410AF051BF2DE97C
:10CC5000FF47C36805460F4600F10C061C78022CFE
:10CC600004D83CB9204604B0BDE8F087032C36D088
:10CC70000024F7E701230DF1070202213046FFF7F8
:10CC8000B1FF044658B19DF8074014F0010005D0EB
:10CC9000072302AA03213046FFF7A4FF04469DF8AC
:10CCA0000E80002CE4D011220A2130463FF004FE11
:10CCB00018F0080FDCD1B5F9F61002A8FBF768FBF5
:10CCC00038800DF10A00B5F9F810FBF761FB7880A8
:10CCD00003A8B5F9FA10FBF75BFBB880C2E74FF089
:10CCE000020A0024DFF8808098F8949BB9F1010FC4
:10CCF0000ED0B9F1020F29D0B9F1000FCFD1012226
:10CD0000022130463FF0B2FD012388F8943BAFE7A3
:10CD1000FBF7A0FF0028ABD102A93046FCF718FCB6
:10CD2000044618B19DF80830DB0708D40023BAF197
:10CD3000010F88F8943B9BD04FF0010AD4E70722FB
:10CD4000032130463FF092FD0223DEE7FBF782FF2E
:10CD5000814600288CD102A93046FCF7F9FB88F8FF
:10CD6000949B04469BE700BF6018012037B500F193
:10CD70000C040546C0683FF051FA204600220A2103
:10CD80003FF09AFD20460F220A213FF095FD01AAAF
:10CD9000032310212046FFF725FF9DF8043020468D
:10CDA000002280330A21A5F8F6309DF80530803343
:10CDB000A5F8F8309DF806308033A5F8FA303FF03A
:10CDC0007BFD0DF10302012302212046FFF70AFF3C
:10CDD00001230DF1030209212046FFF703FF20463E
:10CDE00011220A213FF068FD012003B030BD00BFD1
:10CDF000C1F10301194A41EA800092F8F432C0B24D
:10CE000083422AD01023164910B58AB082F8F40262
:10CE100001EB430202F8203C013302F81F0C202BE7
:10CE2000F6D100220F4C4FF0010C029304F698301B
:10CE300009928DF80CC08DF820C0CDE9001269462A
:10CE4000CDE90422CDE906220AF0A0FCD4F8982B03
:10CE5000136A002BFCD10AB010BD704700000120FE
:10CE60004C0000206018012038B5344D95F8303C56
:10CE7000012B43D0022B09D0002B46D0304C94F824
:10CE8000F5325B0606D54FF4F07305E02C4C082311
:10CE900084F8F5324FF4C373FF2202210020A4F876
:10CEA000F63284F8F422FFF7A3FF94F8F52200216C
:10CEB00024480AF09DFC95F8312C022121480AF003
:10CEC00097FC95F8322C03211E480AF091FC95F846
:10CED000333C33B1012B2AD0032B14BFC722F722D6
:10CEE00000E04722012117480AF082FCB4F8F6223C
:10CEF00000211548BDE8384041F034BF4823104CAC
:10CF000084F8F5324FF4F073C6E7A02105F69830A7
:10CF10000BF07AF800F00603094C022B03D000F066
:10CF20000500012805D0082384F8F532B2E78722EE
:10CF3000D8E7482384F8F532A5E700BF6018012040
:10CF400000000120F82301209424012070B5544CE6
:10CF50008CB0544D666E28B9D5F8F83203F57A7363
:10CF6000B34225D200230122FF214F480B938DF8B5
:10CF7000061002A98DF814208DF82820C5F8F86253
:10CF8000CDE90332CDE90633CDE908330DF10603CF
:10CF900002930AF0FBFBD4F8982B136A002BFCD108
:10CFA000802141480BF030F895F8F532834248D1A2
:10CFB00094F8300C10B100200CB070BDD4F8143EC1
:10CFC000F31AB3F57A7FF7D9FF2303900B9002A9E8
:10CFD0008DF807300DF1070302930123CDE9060018
:10CFE000CDE90800304804938DF814308DF82830CE
:10CFF0000AF0CCFBD4F8982B136A002BFCD1A021AB
:10D0000029480BF001F894F8183E172B0FD195F82A
:10D01000F53203F04003002BA4F81C3E00F0070398
:10D02000A4F81E3E14BF10230D23A4F8223E41078E
:10D030000CD50023C4F8243E0020C4F8146E0CB0B4
:10D0400070BDFFF711FF01200CB070BD00F00500AE
:10D0500001281BD00028EFD195F8F5325B06EBD5FF
:10D06000D4F8243EBBB1626ED31A642BE4D9FFF727
:10D07000FBFE94F8183E172BDED1B4F8283E01339E
:10D080009BB2A4F8283EA4F8203ED5E795F8F532E7
:10D090005A06E5D5D0E7636EC4F8243ECCE700BF5E
:10D0A0006018012000000120F82301202DE9F04F35
:10D0B000DFF820B285B09BF82A3E43B17F4EB6F828
:10D0C000F600003818BF012005B0BDE8F08FDBF88E
:10D0D000983B1A7B002A40F09D800A221D6A0C2191
:10D0E0000092002D40F0A380744E0B1F744A01275C
