:020000040800F2
:1000000000000120C5E3040861E404088DCD010867
:10001000DDCB010861E4040861E40408000000008D
:1000200000000000000000000000000061E404087F
:1000300061E404080000000061E404087D91010807
:1000400061E4040861E4040861E4040861E404086C
:1000500061E4040861E40408A18C0108A98C01088A
:10006000B18C0108B98C0108C18C010861AB000892
:1000700075AB000889AB00089DAB0008B1AB000868
:10008000C5AB0008D9AB000861E4040861E40408CA
:1000900061E4040861E4040861E40408C98C01080F
:1000A00031C800081DC7000841C800080DC7000876
:1000B00045C7000855C7000865C700083DA70008E8
:1000C00031A7000871A7000865A7000861E40408CB
:1000D00061E40408C9900108D5900108E190010885
:1000E000D18C010861E4040861E4040851C80008E7
:1000F00009C8000861E40408F9C70008EDAB00086E
:1001000061E4040861E4040875C7000861E40408B8
:10011000ED900108F990010885C70008296A0408D4
:1001200001AC000815AC000829AC00083DAC000883
:1001300051AC0008000000000000000000000000BA
:10014000000000000000000000000000AD5F040897
:1001500065AC000879AC00088DAC00080591010879
:10016000A5A7000899A7000861E4040861E4040851
:1001700061E4040861E404080000000000000000DD
:1001800061E4040861E4040861E4040861E404082B
:1001900061E4040861E404080000000061E404086C
:1001A00000000000000000000000000061E40408FE
:1001B00061E4040861E4040800000000000000009D
:1001C000000000000000000000000000000000002F
:1001D00000000000000000000000000061E40408CE
:0801E000D0DE04000100000064
:1001E800FA01010003000000E83201206832012012
:1001F8000000000011EA0008643201200530010007
:10020800080000008C2D0120703201200000000041
:10021800043806086C3201201302010004000000B3
:10022800DC2A01207C320120000000000C3806087E
:10023800783201200A90010024000000EC19012006
:10024800843201200000000041BB020880320120F6
:100258001F0208001000000020240120AC320120F9
:100268000000000019EA0008A83201200610010069
:1002780026000000BC1B0120C03201200000000045
:10028800C5E80008BC32012021020100F00000008E
:1002980064690120D86A012000000000FD79030884
:1002A800D46A01202C0004001000000054690120C9
:1002B800CC6B01200000000031B80208C86B012097
:1002C80025201E002C01000028680120E06B012079
:1002D8000000000000000000DC6B01202B00120071
:1002E80024000000E0670120106D012000000000DC
:1002F8004DB802080C6D0120162001000600000010
:1003080064590120386D01200000000010380608EB
:10031800346D012027000100040000005859012015
:10032800446D01200000000016380608406D0120C9
:100338000C50040080000000685201204C6D012020
:1003480000000000F15A0208486D01200311010065
:100358000A00000004580120D06D012000000000B0
:1003680031C40308CC6D0120292014007800000056
:10037800F0560120E06D01200000000000000000A0
:10038800DC6D0120012001000C000000E456012072
:100398005C6E0120000000001A380608586E012023
:1003A8002320010010000000D45601206C6E0120AB
:1003B800000000002DBB0208686E012028300100F3
:1003C80016000000A0560120806E012000000000E9
:1003D8005DD402087C6E01200B3001001A00000079
:1003E800845601209C6E0120000000002638060873
:1003F800986E01200E50040058020000E8520120B7
:10040800BC6E012000000000E1B50208B86E0120B2
:100418001E10010009000000045601201871012077
:100428000000000040380608147101200D1001007A
:100438007000000090550120287101200000000084
:1004480005E7010824710120160215003F0000008D
:10045800946A01209C7101200000000061EA0008F4
:1004680098710120220201001C010000105801208F
:10047800E071012000000000A5FC0008DC710120EB
:100488001840010038000000585501200073012071
:100498000000000065EF0008FC7201201A0201004C
:1004A8003C000000546A01203C7301200000000059
:1004B80005EF0008387301201C0202001C00000030
:1004C800B85601207C73012000000000ADEE000842
:1004D800787301202802040004000000A0730120A2
:1004E8009C7301200000000039E90008987301207E
:1004F8002702040004000000AC730120A873012047
:10050800000000002DE90008A47301201B0201006F
:1005180010000000C4730120B47301200000000023
:1005280019E90008B07301200400080080000000E9
:100538006C5A0120D8730120000000000000000060
:10054800D47301200812040014000000045B012089
:100558005C7401200000000045E90008587401207F
:10056800031201003D000000A85B01207474012003
:10057800000000004A3806087074012001020100DA
:100588000A000000B05E0120B874012000000000DD
:1005980001EA0008B47401200C0201000400000004
:1005A800185B0120C874012000000000F1E9000870
:1005B800C4740120FD1701009A000000C05E0120EC
:1005C800D074012000000000B5BF0308CC740120DE
:1005D80013100100040000007C56012070750120F2
:1005E80000000000883806086C750120020201002E
:1005F80003000000AC5E01207875012000000000B7
:100608000000000074750120F5C1010074000000AD
:10061800905701208075012000000000B5C803082C
:100628007C750120F62101000C0000008457012090
:10063800F8750120000000008C380608F4750120C8
:100648001212010004000000EC7601200876012057
:100658000000000098380608047601201102010005
:1006680008000000F076012010760120000000004C
:100678009C3806080C760120F831010006000000BD
:10068800405501201C76012000000000A43806080F
:1006980018760120020001000C000000685B0120B0
:1006A80028760120000000000000000024760120C8
:1006B800FE0101001400000068570120387601206F
:1006C8000000000065EA00083476012006120400E4
:1006D80018000000505B0120507601200000000047
:1006E8002DEE00084C760120F701010006000000FD
:1006F8007C5701206C76012000000000AA3806080B
:10070800687601201A0001000E000000EC5A012052
:100718007876012000000000B038060874760120C1
:100728001400010005000000505501208C760120BE
:1007380000000000BE38060888760120FD0101008F
:1007480024000000465A012098760120000000008D
:100758007B650108947601201D0202000600000056
:10076800405A0120C076012000000000000000006F
:10077800BC760120F901010004000000F876012090
:10078800CC7601200000000035650108C8760120FC
:10079800123001001000000088510120D476012099
:1007A80000000000C4380608D07601203730010068
:1007B80026000000787F0120C08001200000000092
:1007C800D4380608BC8001201B2001000C00000062
:1007D800787E0120EC80012000000000D15B030836
:1007E800E88001201010010002000000247C012094
:1007F800FC80012000000000FA380608F88001207B
:100808000E020100020000008880012004810120FE
:1008180000000000FC380608008101202F2001009C
:10082800220000000C810120007701200000000058
:10083800FE380608088101200101010004000000BB
:100848005C870120E0880120000000000000000013
:10085800DC88012000010100040000005887012005
:10086800E88801200000000020390608E4880120FB
:10087800020101000300000054870120F0880120D4
:1008880000000000E15A0208EC880120290201005A
:10089800400000001C880120F888012000000000AA
:1008A80024390608F48801202630010008000000D9
:1008B800608601203C89012000000000A9C10308CE
:1008C80038890120205201000800000058860120C4
:1008D8004889012000000000643906084489012085
:1008E8002A120100080000005086012054890120C6
:1008F800000000006C390608508901201900010029
:1009080005000000488601206089012000000000E1
:10091800743906085C8901201F500100240000007A
:10092800CC8401206C890120000000007C39060875
:100938006889012038400100060000005882012023
:100948009489012000000000A03906089089012040
:100958002332010014000000288F01202491012077
:1009680000000000A83906082091012005020100B6
:1009780004000000E08F01203C91012000000000ED
:10098800BC390608389101202C020100040000003F
:10099800F49001206491012000000000C03906088D
:1009A800609101202D02010001000000BC89012096
:1009B8006C910120000000000000000068910120F7
:1009C800001201000A000000E09B012014A1012090
:0C09D800000000000000000010A1012041
:08280000082800080040000850
:10800000084A0346D0F8E4005268D3F8F010121A78
:1080100000209142B8BFC3F8F020012283F81C2150
:10802000704700BF001000E090F8DB30052B03D84C
:1080300090F81E31032B01D00020704790F82331B7
:1080400003F0FB03022B0CBF00200720704700BF8A
:1080500030B5FAB18E464FEA014C034600F1C00537
:10806000002419680C3353F8042C43F8084C41EAF7
:108070000C0142EA0E02AB4243F80C1C43F8042CFC
:10808000EFD1D0F8C03043EA0E03C0E93144C0F864
:10809000C03030BD4FEA014E8C46DEE7836930B414
:1080A0005C6999682268096822F0010222601C8AD2
:1080B000CA6822EA0402CA60027D00681F2A06D943
:1080C000203A082144689140214216D0FEE7082159
:1080D000046891402142F9D1202101FA02F2826024
:1080E000204A12783AB11A7F012A0BD1D3F8042121
:1080F0000132C3F8042130BC7047202101FA02F29A
:10810000C260EDE7D3F800210132C3F80021EFF39C
:108110001181502282F312885868C9B29D6C02689E
:10812000DC6C22EA05022243026081F311885A695D
:108130009968D3E90D40096814605061D3E90F4094
:10814000546090605C6CB3F8B400D4600124C862E1
:108150001068204310601A8A1C77CB68134330BC28
:10816000CB607047E001002070B50E4E7368002BA5
:1081700016DD06F10804002503E073682034AB42E5
:108180000EDD237F0135002BF7D0E06800220028A8
:10819000F3D0217D203410F0EFFD7368AB42F0DCAA
:1081A000012070BDE0010020704700BF024B03EBCF
:1081B000401090F825007047E00100204368426DB0
:1081C00030B49A61EFF31182502383F3128841682F
:1081D000D2B2856C0B68046D23EA050323430B6060
:1081E00082F31188436981681A68096822F00102E4
:1081F000D0E908541A60826A1D605C615A60D0E957
:108200000B429C60DA600023B0F86C2030BCCA627C
:10821000037770474FF40063838170474FF4006326
:1082200083817047084A0346D0F8E4005268D3F8C7
:10823000F010121A00208A42C8BFC3F8F0200122B1
:1082400083F81C21704700BF001000E04FF400636A
:10825000838170474FF40063838170474FF400635C
:1082600083817047394BDFED3A3A59781878090223
:108270009A7893F803C001EB0041187993ED046AF2
:108280000A4409024FEA0020597948BF02F17F42AF
:10829000B8EEC66A00EB0C4007EE902AB3F91C203A
:1082A0000144000205EE902AB3F91820F8EEE77AAF
:1082B00048BF01F17F4104EE902AB3F91A20F8EE8D
:1082C000E55A07EE101A67EEA37A06EE902AF8EE4A
:1082D000E44AB3F91620F8EEE66A012005EE102A0A
:1082E000B3F91420E7EEA54AB8EEC55A04EE102AF9
:1082F000B8EEC77AB3F90A20B8EEC44AA7EEA65A78
:10830000D3ED036A27EE237A05EE902AA4EEA76A3E
:10831000B3F90820F8EEE66AF8EEE55A04EE902A82
:10832000F6EE003AE7EE046AF8EEE44AA5EE076AD4
:1083300065EE875AB0EE667AE4EEA35AA7EE867A27
:10834000C3ED095A83ED087A704700BF5018012029
:108350000821843630B10A4BD3ED087AFDEEE77A76
:10836000C0ED007A51B1064B9FED067AD3ED097A44
:1083700067EE877AFDEEE77AC1ED007A704700BFBD
:10838000501801200000C842704700BF012070470C
:1083900001207047704770470120704701207047E7
:1083A00008B5006842F0B4F9D8B90F4A0F4992F8FD
:1083B000093192F808011B0143EA003392F80A01DF
:1083C00043EA101392F80B018B6292F80C3192F889
:1083D0000D211B0143EA0033012043EA1213CB6253
:1083E00008BD0020FCE700BFE0010020501801207C
:1083F0002DE9F047DFF87C810E460746D8F82C506F
:10840000B8F83020B8F83690C2EB25135200C2EB12
:10841000E502B8F932506A4303FB03F5B8F934308A
:108420002D135D43B8F93A30AD134FEAE37E05EB07
:10843000E225A5F5FA31C8F8485081FB010C03FB91
:108440000CF200FB0E22A3FB003E9644B8F9382044
:108450001B0A82FB014243EA0E63120342EA1452F2
:1084600024031B194FF0000442EB2E22A3FB093E0C
:1084700002F5004209FB02EE4FEAEE734FEA6E028C
:1084800053EA6E0E6BD0B8F940904FEAE97E09FBD3
:108490000CFC00FB0ECCA9FB00908444B8F93E0014
:1084A00080FB01E148044FEA4E4140EADE3011EB27
:1084B0000909D8F828104CEB0000C1F5801C14EB1A
:1084C0000904B8F93C100CF0004A40F6354900EBBD
:1084D000C1014AEA5C0A4FEACC7CBCEB04006AEBBF
:1084E000010AA0FB090109FB0A1145F02FFDB8F9AB
:1084F00046404FEA613E8146430B04FB0EF24FEAD1
:10850000E47C43EAC14303FB0C2CA4FB034262441A
:1085100004FB0EFE03FB02EEB8F94420A4FB034368
:108520009E44640E02FB01F344EACE1414EB000CEB
:108530004FEAE274A2FB092941EB6E6E04FB0031A5
:10854000D40CB8F94230494444EA41341CEB0404E9
:108550004EEBE141240A44EA016404EB03140FB139
:10856000240A3C6026B105EB850580352D12356067
:10857000BDE8F08750180120B0F90000084B4143D6
:10858000994208DBB1F5000F07DA0029B8BFFF31C7
:10859000081200B270470348FBE747F6FF70F8E7A0
:1085A00001FF7FFF0080FFFF704700BF03460122ED
:1085B00000205A77704700BF08B5D0E90B218369C6
:1085C0000B4483610AB108469047002008BD00BFF4
:1085D000436A02461B681B6A5B685B7813F0010004
:1085E00008BF5077704700BFC2628161704700BF0B
:1085F000704700BF043070470B4B93F85020D96C84
:1086000002440844D2B2D86483F8502093F8502032
:10861000120605D593F8502082F0800283F850208E
:10862000024B01221A7070475018012000000120EF
:108630002DE9F84F144F7D6DED0A1FD00026DFF8AD
:108640004CA007F15809B046AC19B96D1023524639
:108650006410D1F824B04846C7F88480E102D847B6
:108660000F280BDD094B03F1100253F8041B0131F5
:1086700007D19342F9D12546B542E5DCE802BDE8D1
:10868000F88F661CF8E700BF50180120000000209A
:10869000194BD3F88C10D3F890208A1A322A15D8A7
:1086A000D3F8A4208A4200D37047D3F89820F2B1BF
:1086B00010683231928810B44469C3F8A410224281
:1086C0005DF8044B18BF12048261704793F8942040
:1086D000D3F8981002F0010219B10868898822B90C
:1086E00081610022C3F8A42070470904F8E7323101
:1086F000C3F8A410704700BF50180120074A92F831
:108700009430D2F8982003F001031AB111689288CE
:1087100013B98A61002070471204FAE7501801204B
:10872000044B4FF4007C0020D3F8B030A2F800C016
:108730000B607047501801200020704701207047DF
:108740000120704700207047134BD0F8D8105B68A9
:10875000D0F8E02010B50446581A824200DC22B955
:10876000D4F8E4200A44C4F8DC2094F8D020C4F8FB
:10877000D830012A05D0D4F8D4300133C4F8D4302D
:1087800010BD04F1E801201D0FF0FAFCD4F8D4303C
:108790000133C4F8D43010BD001000E010B5104B08
:1087A00004465868D4F8E410D4F8D83094F8D020AF
:1087B0000B44C4F8D800012AC4F8DC3005D0D4F842
:1087C000D4300133C4F8D43010BD04F1E801201DC9
:1087D0000FF0D6FCD4F8D4300133C4F8D43010BD37
:1087E000001000E070B586698AB0054696F8DC3066
:1087F000012B23D0023B012B2BD8D6F89C308C22A6
:10880000154CEC461A700FCCACE80F00D6F89C3033
:108810000093D6F8A03001930FCCACE80F0094E899
:108820000300AB698CE8030003F1100069460FF008
:10883000A7FCAB691A69136A002BFCD1D6F8A030EB
:10884000B3F90220EA81B3F904202A82B3F9063091
:108850006B8201200AB070BDA8FC040830B590F806
:1088600028208BB000230446012A08D0427F62B141
:1088700003F0010282F0010062770BB030BD456A5F
:108880002A68117B01BB637F13B901200BB030BD97
:1088900010490220002301220290081F8DF80C20AD
:1088A0008DF820200993CDE9001069462846CDE9CE
:1088B0000433CDE906330FF063FC2A68136A002BFA
:1088C000FCD1054B5B7CD3E7126A002ADBD018464B
:1088D000D3E700BF140000200000002030B590F85E
:1088E00028108BB00446427F01292DD000230ABBFB
:1088F00001200BB030BD1B6A3BBB002AF8D01649E3
:108900000220002301220290081F8DF80C208DF810
:1089100020200993CDE9001069462846CDE90433AB
:10892000CDE906330FF02CFC2A68136A002BFCD12A
:108930000A4B5B7C03F001031A466377002BD7D008
:1089400094F828100129F7D1656A2B68197B002952
:10895000D1D1002ACCD0D2E71400002000000020A2
:10896000244A002330B5044695B0101D224D0693CD
:10897000019002200B931093139311930290207F88
:10898000009200280495CDE90E334FF001038DF8D5
:108990000C3007938DF820308DF834308DF8483046
:1089A00002F10803A2F10802059314BF0523042372
:1089B0000A920C93114B0993636A1A68136A002B8D
:1089C000FCD1A0B10E480A0E00F11A0342760A0A41
:1089D0009970080C69465A701870606A0FF0D0FBE5
:1089E000636A1A68136A002BFCD115B030BD054BC1
:1089F000EDE700BF20000020D1850008AD8500080C
:108A0000000000201900002010B594B00446502248
:108A10000749684646F01EFF6946606A0FF0B0FBE2
:108A2000636A1A68136A002BFCD114B010BD00BF32
:108A3000D0FC0408F8B50546406A0068046A002CBA
:108A4000FCD1287F002839D0A8690527254E4FEA98
:108A5000106C254C2E3606F801CC6763B0704FEAD7
:108A6000104C000A012B86F800C070704FF0000017
:108A70000E6826641668A6642E63A06524D0022BB7
:108A80001BD15368012220651E444968E365174BDA
:108A900084F84C0061652E6384F860206366144B93
:108AA000697F03F11402686A002914BF1946114650
:108AB0000FF066FBEB6A73B1286BF8BD04200A4C1B
:108AC0000C4E6063A869C9E7084A84F84C306065B9
:108AD000E0652265E3E76B6A1A68136A002BFCD134
:108AE000EAE700BF0000002000000120B98500086F
:108AF000040001202D00002000B583B081610192A7
:108B000001A9049A00930123C2626A46FFF792FF0B
:108B100003B05DF804FB00BF70B51D46436A94B016
:108B200006461B681C6A002CFCD13A4B02204FF011
:108B3000010C0694029003F13C008DF80CC00090EB
:108B400003F1400001903448049003F13400059093
:108B5000307F00284BD00B920A0E36338DF8204020
:108B600003F8012C05220C958DF834C08DF848C00F
:108B700013940792CDE90944CDE90E44CDE91044A0
:108B80000A0C9970254C090A1A705970706AD4E958
:108B90003832B3EB920F4FEA92014FF0020206D245
:108BA000490852008B4292B201D2FF2AF8D9737F52
:108BB0008280D3B905A90FF0E3FA706A03681A6AD4
:108BC000002AFCD10222D4E93934B4EB930F4FEAE6
:108BD000930106D2490852008C4292B201D2FF2A78
:108BE000F8D98280284614B070BD6946E3E70B923D
:108BF000042235338DF820000C958DF834C08DF8A3
:108C000048C013900792CDE90900CDE90E00CDE9E7
:108C10001000B5E700000020D185000850180120A1
:108C200038B5044690F8210100B938BD10F07CF841
:108C30002146054698B126220C4BC28041F80C3FD4
:108C400041F08EFCAB884FF00042B3FA83F332FA66
:108C500003F3EAD006490A6813430B6038BD034B9F
:108C600041F80C3FBDE8384041F07ABC4987000824
:108C7000003C01400269C3682DE9F04712EA03098C
:108C80002AD005460E464FF000474FF00008B9FACB
:108C900089F327FA03F21B3BD24309EA02092A614E
:108CA000042B16D8DFE803F0352C231A0300B36A2F
:108CB000002B37D003F1FF3AC6F828801FFA8AFA52
:108CC000746A34B123682046514698476468002C82
:108CD000F8D1B9F1000FDAD1BDE8F0877068696B9F
:108CE000036889B29847B9F1000FD0D1F4E7B068B2
:108CF000A96B036889B29847B9F1000FC7D1EBE7B8
:108D0000F068E96B036889B29847B9F1000FBED1EA
:108D1000E2E73069296C036889B29847B9F1000F1E
:108D2000B5D1D9E7E96A1FFA81FAC9E710B5044657
:108D300082B0806906236A4690F84C1110300FF01B
:108D4000D1FB58B1BDF80010BDF80220BDF80430C9
:108D500049BA52BA5BBAE1812282638202B010BD85
:108D600010B582B0044690F84D1106236A461030C3
:108D70000FF0B8FB70B1BDF80010BDF80220BDF8CF
:108D8000043049BA52BA5BBAA4F8D010A4F8D22081
:108D9000A4F8D43002B010BD8369F0B593F8DC209C
:108DA0008BB00546012A27D0023A012A2FD893F822
:108DB0004C21EC46D3F89C1062F07F03154C0B70ED
:108DC0008669D6F8A0305F1C0FCCACE80F00D6F84F
:108DD0009C30CDE900370FCCACE80F0094E80300DD
:108DE0008CE80300694606F110000FF0C9F9AB6981
:108DF00019690A6A002AFCD1D3F8A0305A8852BAFD
:108E0000EA819A8852BA2A82DB885BBA6B82012097
:108E10000BB0F0BD20FD0408F0B590F8DC308BB04D
:108E20000446D0F8A060012B4BD015D8D0F89C3068
:108E30004FF0FF3205211A605A609A60DA60D0F86C
:108E4000E030C0F8F010B3F57A7F54D8032380F8EF
:108E5000DC3001200BB0F0BD023B012BF9D890F8BB
:108E60004D31EC46D0F89C2063F07F03384D1370F1
:108E7000D0F8A0305F1C0FCDACE80F00D4F89C30C8
:108E8000CDE900370FCDACE80F0095E803008CE882
:108E90000300694604F110000FF072F92269136AA9
:108EA000002BFCD1738801205BBAA4F8D030B388C2
:108EB0005BBAA4F8D230F3885BBAA4F8D4300BB014
:108EC000F0BD90F84C2190F84D319B1A5B100133A6
:108ED000DBB236F8132006EB430653BAA0F8D030C5
:108EE00073885BBAA0F8D230B3885BBAA0F8D430EC
:108EF00001200BB0F0BD03691A7B2AB35B691BB379
:108F000090F8983003B390F84C310122D0F89C00CF
:108F100063F07F03C4F8A4400E49037094F84D3108
:108F200094F84C0184F800211B1A84F8DC20D4F852
:108F3000A0200733C4F804110132D4F89C10C4E90E
:108F40003E23C4F8F41084E7022384F8DC3080E781
:108F500020FD040801800008836910B5074C04EB6C
:108F60008303D3F80C013CF0ADF80021B4F82C01D8
:108F700041F06AFB002384F82E3110BD5018012007
:108F800080699C303CF09EB810B5074C94F83031A5
:108F90000BB9002010BD10F043F9D4F83431C01AD9
:108FA000D0F5FA50F6D5F4E7501801202DE9F0413C
:108FB0002E4F07EB401898F824300BB9BDE8F0812C
:108FC00000EB80030E460021044607EB43134501E6
:108FD00093F8122183F8121188F80A2046F04CFE0B
:108FE00098BB3D4422482E8100EB441046F008FE19
:108FF0003B782A6A9BB1E9680124D2F8AC308C40F6
:1090000003F1C001420010F4004F90B202D15A683F
:1090100022435A600C339942F4D1BDE8F081E968EB
:109020000124D2F8AC3001F1100203F1C0019440E8
:10903000420010F4004F90B202D15A6822435A60A5
:109040000C339942F4D1BDE8F0810A4B93F8982192
:1090500002EB420203EBC203234493F84561002E66
:10906000BFD0012388F80A30BBE700BFE001002031
:10907000E80100205018012010B5044645F072FFA9
:109080000146204689B2BDE810408FE72DE9F04146
:1090900046F0EAFD98B31D4ED6F81056002D12DDAD
:1090A0000024377806F21C60A046013417B1037F14
:1090B000012B1FD04269AC4200F58670136843F063
:1090C00001031360F1D110F0ABF8D6F81846C6F8DA
:1090D0001406002C0CDD0E4B03EBC4041968083396
:1090E00033F8042CC868A34242EA0002CA60F5D1F2
:1090F000BDE8F08180F8FC80FFF760F8DAE740F027
:109100001BFC0028C7D1BDE8F08100BFE0010020B2
:109110002C0C00202DE9F04F4D4C83B02378F3B98F
:10912000D4F81036002B16DD00264A483146476930
:10913000D0F8AC303D6803F1C00225F001053D6078
:1091400059600C339342FBD10136D4F8103600F548
:109150008670B342EBDC012003B0BDE8F08F3E4BDC
:10916000DFF80091D3F88CB010F05AF859F8C42CFD
:10917000D4F814161432401AB0EB420F64DBA9F194
:10918000C00704F108060025DFF8DCA0019718E00D
:10919000B0F5606F48D0019B98814FF6FF712F4B5F
:1091A0005A46411A4FF05C0018BF012100FB053000
:1091B0000EF0B4FD019B013520361433082D0193C8
:1091C0002ED06368AB422BDDB3694FF6FF78244F96
:1091D000D3F814C07268D3E93D015FFA8CF32CF028
:1091E000FF0C103BA7FB03731B091AF803309C44C8
:1091F000DCF804309BB2C91A46F01EFD4FF6FE7330
:109200009842D7D059F8B83C404503F1010349F8DA
:10921000B83CBDD159F8BC3C013349F8BC3CBCE773
:10922000012289F846207BE70B4A92F8983103EB3C
:10923000430302EBC3032B4493F845310D2BAAD112
:109240008023019A9377A8E7002003B0BDE8F08F50
:10925000E0010020FC07002050180120201300200E
:10926000ABAAAAAAD8120020F8780508F0B590F8A1
:109270001E318DB00546032B55D090F8DC30D0F868
:10928000A060012B00F0938016D8D0F89C3000220B
:1092900005211A605A609A609A81D0F8E030C0F8CF
:1092A000F010B3F57A7F00F292800323012480F856
:1092B000DC3020460DB0F0BD023B012B2FD8D0F89A
:1092C0009C309222554F0DF1080C1A70D0F8A04036
:1092D0000FCFACE80F000FCFACE80F0097E803000A
:1092E000D5F89C308CE8030002A905F11000CDE907
:1092F00002340EF045FF2A69136A002BFCD1B6F93F
:1093000002300124A5F8D0302046B6F90430A5F883
:10931000D230B6F90630A5F8D4300DB0F0BD012436
:1093200020460DB0F0BD3E4900230122103001F16E
:109330000C040B938DF814208DF828200190CDE9B2
:109340000633CDE908330A23CDE9021402A90493B8
:109350000EF016FF2A690198146A002CFCD13149DD
:10936000B1F85220052A19DDB1F85430B1F9564050
:10937000B1F9586014F5004F08BFB3F5004F4F6DB9
:1093800014BF0123002316F5004418BF01241C4319
:1093900003D0C5F8D070A5F8D460063A002ABFD033
:1093A000B0227E210EF01EFF20460DB0F0BDB6F9B2
:1093B00008201C46A0F8D020B6F90A30A0F8D23018
:1093C000B6F90C30A0F8D43020460DB0F0BD0369DA
:1093D0001A7BF2B15B69E3B190F89840CCB1D0F858
:1093E0009C1001230E228C20C5F8A45008700E4951
:1093F000C5F8FC2085F80031D5F89C2085F8DC30D4
:10940000D5F8A030C5F80411C5F8F420C5F8F83037
:1094100086E70223012485F8DC3081E7A8FC0408F4
:10942000440000200000002025820008F0B500F173
:10943000100591B0B6227E21064690F81E7128468E
:109440000EF0D0FE642013F085F8B3691BB11A68E2
:109450009B881B049361012013F07CF8B36913B15E
:109460001A689B8893610A2013F074F800227C210B
:1094700028460EF0B7FE012013F06CF800225921A7
:1094800028460EF0AFFE012013F064F800230122FD
:109490005E218DF810302846059307930F938DF8C1
:1094A000031001A98DF824208DF83820CDE902326F
:1094B000CDE90A33CDE90C330DF103030193924B4F
:1094C00006934FF4A47308930EF05AFE33691C6A96
:1094D000002CFCD10A2013F03DF801222846592126
:1094E0000EF080FE012013F035F8032F00F082808B
:1094F0009B2240212846854C0EF074FE012013F07B
:1095000029F80322412128460EF06CFE012013F0B9
:1095100021F894F89D31013BDBB2022B5FD9CD22BB
:10952000422128460EF05EFE012013F013F80822B7
:10953000432128460EF056FE012013F00BF80422BA
:10954000582128460EF04EFE012013F003F80A229F
:10955000532128460EF046FE012012F0FBFF0222A6
:109560007C2128460EF03EFE012012F0F3FF284633
:109570000E227D210EF036FE012012F0EBFF96F850
:109580002101C8B10FF0D0FB0546002800F0B580DE
:1095900026233146C3805E4B41F80C3F40F0E0FF8C
:1095A000AB884FF00042B3FA83F332FA03F303D0EF
:1095B00058490A6813430B60D4F8E43056499A08B6
:1095C000B1EB930F4FF0020306D252085B008A42C0
:1095D0009BB201D9FF2BF8D9B38211B0F0BD4F4A2D
:1095E0004221134493F86822120162F0320202F021
:1095F000FD0296E72246482128460EF0F3FD0120A1
:1096000012F0A8FF8022492128460EF0EBFD012030
:1096100012F0A0FF2246452128460EF0E3FD01206E
:1096200012F098FF0622462128460EF0DBFD0120AD
:1096300012F090FF2246472128460EF0D3FD01206C
:1096400012F088FF40219B2228460EF0CBFD01201E
:1096500012F080FF2D4C3A46412128460EF0C2FD03
:10966000012012F077FF94F89D31013BDBB2022B11
:1096700040D82A4A4221134493F86822120162F02A
:10968000320202F0FD0228460EF0ACFD012012F07D
:1096900061FF0822432128460EF0A4FD012012F0AC
:1096A00059FF0222582128460EF09CFD012012F09D
:1096B00051FF0A22532128460EF094FD012012F09A
:1096C00049FF02227C2128460EF08CFD012012F079
:1096D00041FF0E227D2128460EF084FD012012F06C
:1096E00039FF2846B0227E210EF07CFD012012F0C9
:1096F00031FF44E7CD224221C5E73146044B41F812
:109700000C3F40F02DFF57E7C8FD0408501801201A
:109710009D870008003C014080969800A8FC040842
:1097200038B5152400224E2105460EF05BFD96202B
:1097300012F010FFF52128460FF060F9422807D0FB
:10974000472807D0013C14F0FF04F0D1204638BD73
:109750000C24FBE70D24F9E773B5054600F110046E
:109760004D480EF035FB44F23B33A8822846A5F85D
:109770004C31FFF755FA42F21F530F224E21A5F844
:109780004C3120460EF02EFD0F2012F0E3FE95F82E
:10979000DB30002B71D095F82031013343F0010309
:1097A000B3FA83F3C3F11F03032B66DC3B4AD25C9D
:1097B00002F00F024F21204601920EF013FD0F2000
:1097C00012F0C8FE019A502120460EF00BFD0F202A
:1097D00012F0C0FE324B93F89D31022B52D0032B76
:1097E00055D0012B15BF0A2508252426902614BF25
:1097F00006220C2220460C210EF0F4FC06F0FC029E
:1098000020460D210EF0EEFC20462A010E2142EAF0
:1098100016220EF0E7FC20460C2203210EF0E2FC9B
:109820002046242204210EF0DDFC2046A022052142
:109830000EF0D8FC2046EE2252210EF0D3FC20463A
:10984000032214210EF0CEFC2046002263210EF0EC
:10985000C9FC0822204665210EF0C4FCE421204604
:109860000FF0CCF800F0EF00642140F060022046D9
:1098700002B0BDE870400EF0B5BC0023062285F8AA
:10988000DB3095E706254FF4DC761522B2E7042598
:109890004FF4AC662522ADE700366E01E07805088E
:1098A00050180120F52108B50FF0A8F8702818D03D
:1098B00008D8422817D0472817D0122814BF0020F4
:1098C000082008BDAC2812D006D800F0FD00712891
:1098D00014BF00200620F4E7AF2814BF00200920A1
:1098E000EFE70520EDE70C20EBE70D20E9E7072087
:1098F000E7E738B5802204466B210EF073FC642044
:1099000012F028FEF52120460FF078F805460120D8
:1099100012F026FC682D1BD18C2120460FF06EF82A
:1099200018280DD8142834BF002503252046072207
:1099300068210EF057FC642012F00CFE284638BD5A
:10994000A0F15403DBB2072B34BF03250025EDE75C
:109950000025F3E7F8B544F23B33054600F1100467
:10996000A0F84C31FFF75CF995F8D830072B5BD1A4
:1099700095F81D310226002B58D1374680226B21E5
:1099800020460EF057FC642012F0E4FD0722682107
:1099900020460EF04FFC642012F0DCFD00226B210B
:1099A00020460EF047FC642012F0D4FD01226B210A
:1099B00020460EF03FFC0F2012F0CCFD1B21FA00D8
:1099C00020460EF037FC0F2012F0C4FD1C21F200DF
:1099D00020460EF02FFC0F2012F0BCFD2846FEF7AB
:1099E00023FB1A21024620460EF024FC0F2012F021
:1099F000B1FD95F82021192120460EF01BFC6420B2
:109A000012F0A8FD1022372120460EF013FC0F2083
:109A100012F0A0FD2046012238210EF00BFC0F2091
:109A2000BDE8F84012F096BD0326A6E70327A5E798
:109A300010B50446FFF78EFF10226A21A0180EF021
:109A4000D1FB642012F086FD04480EF0C1F9A0821B
:109A50000120BDE8104012F083BB00BF002D310192
:109A600010B500F10C04C06843F0C2F900222121B6
:109A700020460EF0DFFBFC22202120460EF0DAFB10
:109A80004022242120460EF0D5FB0C222321204623
:109A90000EF0D0FB0022222120460EF0CBFB6420EA
:109AA00012F058FD012010BD37B500F10C04054639
:109AB000C06843F09DF900220A2120460EF0BAFB4F
:109AC000142012F047FD0F220A2120460EF0B2FBAF
:109AD0000A2012F03FFD01AA0323102120460EF0B8
:109AE00001FD0A2012F036FD9DF8043000220A2103
:109AF00080332046A5F8F6309DF805308033A5F870
:109B0000F8309DF806308033A5F8FA300EF092FB5D
:109B10000A2012F01FFD0DF103020123022120464D
:109B20000EF0E0FC01230DF10302092120460EF0A6
:109B3000D9FC11220A2120460EF07CFB012003B043
:109B400030BD37B500F10C050446702200212846CF
:109B50000EF070FB2022012128460EF06BFB002244
:109B6000022128460EF066FB642012F0F3FC94F804
:109B7000F40088B10FF0D8F808B12823C38021463B
:109B8000074B019041F8083F40F0EAFC01980FF0C4
:109B900077F801980FF074F8012003B030BD00BFD2
:109BA000A985000810B500F10C04C06843F020F945
:109BB00001220B2120460EF03DFB20B11D22092180
:109BC00020460EF037FB00F0010010BD38B5054609
:109BD0000C46FFF7D9F92B685D6808B112F0C0FA9E
:109BE0002A680020064B126A83F830013AB92846E9
:109BF00093F831312246C9210EF04EFC012038BDC8
:109C000050180120836810B5044682B01BB19A88B1
:109C1000196812048A61012012F09CFCA36813B138
:109C20001A689B8893610A2012F094FC2368002034
:109C30001B6AADF804005BB92046022301AA80210B
:109C40000EF02AFC9DF80530242B14BF00200F20B5
:109C500002B010BD38B544F23B3300F110050446A4
:109C6000A0F84C31FEF7DCFF03226B2128460EF0F2
:109C7000B9FA0F2012F074FA10226A2128460EF069
:109C8000B1FA0F2012F06CFA00226C2128460EF077
:109C9000A9FA0F2012F064FA94F82021192128461D
:109CA0000EF0A0FA0F2012F05BFA18221B212846B2
:109CB0000EF098FA0F2012F053FA18221C212846B1
:109CC0000EF090FA0F2012F04BFA1022372128469E
:109CD0000EF088FA0F2012F043FA012238212846AC
:109CE0000EF080FA0F2012F03BFA2046FEF79CF9A6
:109CF0001A21024628460EF075FA012012F030FAB9
:109D00000A480EF065F8A0822046FFF729F894F97A
:109D1000D230013308D194F9D030013304D1062078
:109D2000BDE8384012F036BD38BD00BF002D31010E
:109D300008B503681A78012A06D006230C4A0021C8
:109D400043F06AF8012008BD93F90430084A03EB98
:109D5000430302EB431393F81522202A01D000207D
:109D600008BDD3F8D4319B691B04F8D4E5E700BFE4
:109D70005018012010B50446006840F0C9FC38B9FD
:109D800020460623034AF72143F046F8012010BD80
:109D90000020FCE7E802002010B5134C94F87C305A
:109DA0004BB10C300623114A282143F035F800202E
:109DB00084F87C0010BD0E4A0120B2F94033002B1C
:109DC000B8BF03339B100B80B2F94233002BB8BFEE
:109DD00003339B104B80B2F94433002BB8BF0333DD
:109DE0009B108B80E4E700BF00000120901B012046
:109DF0005018012010B50E4C94F87D304BB10C304A
:109E000006230C4A032143F007F8002084F87D0064
:109E100010BD094B0120B3F8462352BA0A80B3F8AB
:109E2000482352BA8A80B3F84A335BBA4B80EDE7D5
:109E300000000120961B01205018012010B5174C7E
:109E40000C3094F84C33012B0CD0022B17D001238B
:109E500004F24D32062142F0DFFF0123002084F896
:109E60004C3310BD94F84D3313F00403F6D00623A1
:109E700004F24E32002142F0CFFF0223EEE7B4F8A5
:109E80004E3301200B80B4F850334B80B4F852337A
:109E90008B80002384F84C33E3E700BF5018012087
:109EA0003122F42143F05AB838B52A4C02460D4607
:109EB0000C3094F85433013B032B03D8DFE803F054
:109EC0000C1B222F0123244A022142F0A5FF01236B
:109ED000002084F8543306E094F85533DB0703D4AC
:109EE000002084F8540338BD06231C4A032142F0A5
:109EF00093FF0223ECE70123174A092142F08CFF6C
:109F00000323E5E711220A2143F028F894F85503CA
:109F100010F00C00E4D1042384F85433E3E7B2F9E1
:109F2000F6100E48FEF728FB404228800C48B2F994
:109F3000F810FEF721FB404268800A48B2F9FA1097
:109F4000FEF71AFB0023404284F85433A880012016
:109F5000C9E700BF50180120A51B0120A61B012046
:109F6000A81B0120AA1B01202DE9F843DDF8208061
:109F70000F4616460021202204461D4645F0DEFC11
:109F8000B8F1000F0CD0D8F80030B8F80A20E381FF
:109F90001B0C2382D8F804306282E3821B0C2383DB
:109FA000384643F075FBF30619D4431EB8B107EBEE
:109FB000000C01E0013B12D31CF801EDBEF12E0FA5
:109FC000F8D1C01A03F10109421EB944032AA8BFFF
:109FD0000322082BA8BF082390461A4606E008284B
:109FE0000246B9464FF00008A8BF08224FF02033C0
:109FF000394620462360636045F02CFC04F10803D9
:10A000001748424649462081A072184645F022FC76
:10A0100004F1FF3C0346E21D1CF8011FA1F1610E93
:10A020002039BEF1190F98BF8CF800106245F3D1AA
:10A03000184604F10B0110F8013BA3F16102203B2B
:10A04000192A98BF00F8013C8842F4D1182365838F
:10A050002D0CE6722373099BA582E361BDE8F883AA
:10A06000202020002DE9F04FDFF88C9487B0D9F83C
:10A070008C00C9F89000002B00F0DA8013441546DC
:10A0800001F1200601F5FE77DFF870A403931FE0CD
:10A09000002D63D0D9F8BC20AA4200F0CD80D9F8B9
:10A0A000B820AA4200F00281D9E93021AA424CD856
:10A0B000A94200F2CF81691A18463FF009FB013529
:10A0C000039B06F5007607F500779D4200F0B0800F
:10A0D000D9F8C840A6F12003AC42D9D82C1BD9F836
:10A0E000D880E208D8F8301004F0070402328A421F
:10A0F00003D3D8F838108A420DD94146104605934B
:10A1000004923FF0B5FA8046DDE90423002800F010
:10A11000C181C9F8D80098F80410002940F03F81A7
:10A12000D8F828B0BBF1000F00F0AD811846D8F880
:10A1300030304FF40071D21AD8F80C3004EBC20260
:10A1400003EB42224346D847B9E7A942B3D91846A0
:10A150004FF40072002145F0F1FBB0E74FF40072BC
:10A160002946184645F0EAFB80220346D94886F87E
:10A170009E210C2286F8A221D9F8B810D9F8B02077
:10A180008142C3F8C611C3F8CA2100F36881D24BDB
:10A19000013AD24C83FB0103C81784FB01C40B4472
:10A1A000C0EB6313C0EB2430CD4C84FB03C4C3EB82
:10A1B000831C86F8A1018010A1EB0C011C4420F047
:10A1C0003F000131014386F8A011D917C1EBE4111A
:10A1D0000B4486F89F31BF4B9A4200F34C81BE4B33
:10A1E000BE4883FB0213D11780FB02401344C1EB2E
:10A1F0006313C1EB2031BA4880FB0340C3EB8314E7
:10A2000086F8A5118910121B184421F03F01013274
:10A210000A4386F8A421DA17C2EBE010034486F85B
:10A22000A331552386F8DE31AA2386F8DF3146E7CD
:10A23000002007B0BDE8F08F4FF0FF320024A6F1F8
:10A240001C00049383F8EC21214683F8ED2183F868
:10A25000EE2183F8EF2152221A705A7061229A700F
:10A2600083F8E7214122DA7083F8E621722283F82D
:10A27000E42183F8E521D9F8D020C3F8E8214FF490
:10A28000F07245F05BFB049B5522C6F8D041C6F83E
:10A29000D441C6F8D84183F8FE216FF0550283F807
:10A2A000FC4183F8FD4183F8FF2108E78D4C002134
:10A2B0004FF40072184645F041FB03464FF0000C86
:10A2C000022203CC46F8191CEB2146F81D0C08208D
:10A2D00006F8201C582106F81F1C902106F81E1CA9
:10A2E000F8211A7383F80BC006F8130C9A7383F8DD
:10A2F0000FC006F8102C06F80B1C83F82C20D9F898
:10A30000B810D9F8B02083F819C0521A83F81BC0CE
:10A3100083F81DC01A6283F81EC083F81FC083F83B
:10A320002DC083F82EC083F82FC0D9E93012521AFD
:10A3300080215A623F221A764FF0FF329A763E22EF
:10A340001A77012283F8302083F831C086F8201074
:10A350002921654B86F82210942186F8260086F87C
:10A3600023100E21614A86F824100D2186F825104D
:10A37000552186F8DE11AA2186F8DF1103CBC6F835
:10A380002B101988C6F827009B78A6F82F1086F89E
:10A39000313003CAC6F83200C6F836108FE64FF4E3
:10A3A00000721846002145F0C9FAD8F8402003464B
:10A3B000002C76D1002A00F0A380D8F8303011228A
:10A3C0004B49CDE90044FFF7CFFDD8F840301A6C77
:10A3D000002A00F0A1801B6BCDE900441122454901
:10A3E00030464FF4E07BFFF7BFFD06F12003D8F8BD
:10A3F0004480B8F1000F3FF462AE03F120049B44A7
:10A40000049523464446984610E05CF81C1B002542
:10A41000236BCDE900C5FFF7A7FDABEB0803A46CE8
:10A4200008F12008002C18BF1F2B51D92379A4460E
:10A4300004F11C0E1122A8F12000002BE5D1627955
:10A440002569236B42F021022168CDE900E5FFF781
:10A450008BFDE2E7A91A18463FF03AF92FE6FF23F1
:10A46000013A86F89F3186F8A13186F8A031194B60
:10A470009A427FF7B4AEFF2386F8A33186F8A53160
:10A4800086F8A431CDE6594618464FF4007245F0DF
:10A4900055FA14E6A6F1240343F804AF9F42FBD11A
:10A4A0000DE6002AD8F844800CBF01220222C2EB3C
:10A4B0000414B8F1000F3FF402AE4246013C926C26
:10A4C000002C01DD002AF9D190464FF4007B90E783
:10A4D000049DF4E5FF03FB00832008829755454166
:10A4E000818080803C780508487805085478050804
:10A4F000347805083878050850180120DEADBEEF25
:10A5000023460822D9F8B4104FF4F07BCDE900447B
:10A51000FFF72AFD33466AE72346CDE900445DE7AD
:10A52000BFF34F8F0549064BCA6802F4E06213433C
:10A53000CB60BFF34F8F00BFFDE700BF00ED00E031
:10A540000400FA05014B53F82000704750280040E2
:10A550002DE9F041CB781BB900263046BDE8F081EB
:10A5600000F110070C460546897838460DF050FC7E
:10A5700006460028F0D0E0780EF0D6FBA8612378DC
:10A580000133DBB210B1C371222383710D210EF0B0
:10A5900039FCA8690DF036FC104AD2F88C30632BD8
:10A5A000FBD90F480DF014FCDFF83C800D4BA8825E
:10A5B00002E058F8043B53B1384698470346002858
:10A5C000F7D0286985F8D83042F012FCC5E7E0786A
:10A5D0001E460EF0A9FB0EF035FCBEE75018012018
:10A5E00040420F00F398000818FF040830B490F8B8
:10A5F000443000F10801474A012BC2F85C136ED0C9
:10A6000083684549DC68454D24F46004AB42DC6056
:10A61000DC6844F46004DC609C6B24F440149C63AC
:10A620009C6B44F480149C639C6B24F4F8449C63FE
:10A630009C6B44F488449C639C6824F470249C6064
:10A640009C689C609C6824F440149C609C689C609E
:10A650005C6824F480645C605C6824F480545C6012
:10A660005C6901EA040159615969596145D0DC68A6
:10A67000294924F0E064DC60DC6844F0E064DC60DC
:10A680009C6B24F440149C639C6B44F480149C6386
:10A690009C6B24F478249C639C6B44F410249C638E
:10A6A0009C6824F470249C609C689C609C6824F4E2
:10A6B00040149C609C689C605C6824F480645C60CE
:10A6C0005C6824F480545C609C692140134C99615F
:10A6D000A3429969996116D0002380F8443010484C
:10A6E000104B848DC18D408D091B93FBF1F3C2E9A2
:10A6F000D804C2F8683330BC70470B4C616841F431
:10A7000000016160B3E708494B6843F400034B6004
:10A71000E2E700BF5018012000F0FFFF00200140D9
:10A72000007AF01F8038010000230140704700BF0D
:10A7300001483BF0ABBB00BF241A0120084810B40D
:10A74000D0F8D431D0F8084299691A682CB1234660
:10A7500000F5EA705DF8044B18475DF8044B70474C
:10A760005018012001483BF091BB00BF841A012022
:10A77000084810B4D0F83432D0F8684299691A68A1
:10A780002CB1234600F50D705DF8044B18475DF8B9
:10A79000044B70475018012001483BF077BB00BFC5
:10A7A000E41A0120084810B4D0F89432D0F8C84216
:10A7B00099691A682CB1234600F525705DF8044BA1
:10A7C00018475DF8044B7047501801202DE9F84FE9
:10A7D000D54F6023044603FB0073D3F8C051002D0E
:10A7E00000F0A081D3F8C8611EB1B379002B40F00E
:10A7F0009981602303FB0473D3F8CC91B9F1000F66
:10A8000004D099F80630002B40F08C81631CDBB239
:10A8100016B11522F371B271B9F1000F04D01622EE
:10A8200089F8073089F80620287C4FF009083FF0A6
:10A83000ABFB30460DF0E6FA48460DF0E3FA112185
:10A8400030460EF0DFFA112148460EF0DBFA4FF0E9
:10A85000330A02E00A2011F083FC26B13368B28883
:10A860001B691A4202D1BAF1010AF3D130460DF048
:10A87000C3FA052011F074FC30460DF0C3FA052030
:10A8800011F06EFCB8F10108E1D130464FF0600BD9
:10A890000DF0B2FA052011F063FC48460DF0ACFA59
:10A8A0000BFB04FB052011F05BFC30460DF0AAFA0F
:10A8B00007EB0B0A052011F053FC48460DF0A2FAF5
:10A8C0009AF8D03130460422002B984E14BF3E2116
:10A8D0001E210EF077FA9AF8D0315E444846002BDC
:10A8E0004FF00402C14614BF3E211E210EF06AFA49
:10A8F0004C224146304645F021F8DAF8C0319FED50
:10A900008C7AB0EE084A5B68F7EE003ABAF8D2B13A
:10A91000CAF8D431874B9FED885A9A68874BC2F3A7
:10A920008222134493F88022D7F8E430D34007EE14
:10A93000903AF8EE677AC7EE275A07EE90BA9FED85
:10A94000807AF8EEE77AC7EE274ADFED7E7AB0EE3E
:10A95000007AE5EE877AA5EE875A25EE844A37EE2F
:10A96000856A74EEE72ABBF5C87F40F2145309F1FB
:10A97000010ED7BF1946322364234FF49670C8BF27
:10A98000782007EE90EAD4BF4FF4167C4FF4827C17
:10A990000344B8EEE77AC8BF4FF4FA7107EE903A75
:10A9A00027EE257A01EB0C03F8EEE76A86EE873A8C
:10A9B00073EE636AFCEEE67A17EE902A07EE90CA11
:10A9C000B8EEE73A07EE903AF8EEE77A23EE243A4B
:10A9D000C3EE276A36EEC53A72EEE66AC3EE077A30
:10A9E00077EEE37AFCEEE77A17EE901AC6EE877AF6
:10A9F00077EEE37AFCEEE77A17EE903A03F1020C79
:10AA00000CEB010AF0EE466A07EE90AAF8EE677AC0
:10AA1000E7EE276AF4EEE64AF1EE10FA00F39880CA
:10AA20005FFA82FCBCF10F0F00F29480323807EE1F
:10AA3000900AF8EEE77A77EEC47AC7EE876AFCEE02
:10AA4000E67A17EE90CA5FFA8CF00F2800F2828047
:10AA500088B2FF287ED898B2FF287BD840EA0973D5
:10AA600010054FEA0C4200F07F6002F47F020343BE
:10AA70001343354A02EA012143EA01086020012319
:10AA800000FB047400273046C4F8D881C4E977730A
:10AA9000C4E97977C4E97C7740F03EFB94F815323D
:10AAA000202BD9B21AD194F81432012B16D02423BA
:10AAB00084F81532D4F8D4311A6822F001021A60F1
:10AAC0001A6822F480521A601A681A601A6842F0F2
:10AAD00001021A6084F8151284F81472002195F9A5
:10AAE00012003FF00DFD95F91230AA7C002B07DB18
:10AAF00002F01F0101225B098A40144941F823201A
:10AB0000002195F911003FF0FBFC95F911306A7CAA
:10AB1000002B07DB02F01F0101225B098A400B4971
:10AB200041F82320BDE8F88F50180120241A012095
:10AB3000286B6E4E0038024000001643A8FC040843
:10AB4000002474490000704200FFFF0000E100E0B3
:10AB5000013155E7BEF10F0F90D0F14603E700BF7A
:10AB60000348D0F890300BB180301847704700BFD1
:10AB7000000001200348D0F8B4300BB1A4301847CE
:10AB8000704700BF000001200348D0F8D8300BB157
:10AB9000C8301847704700BF000001200348D0F8B4
:10ABA000FC300BB1EC301847704700BF00000120AB
:10ABB0000348D0F8203113B100F58870184770476A
:10ABC000000001200348D0F8443113B100F59A7019
:10ABD00018477047000001200348D0F8683113B1CE
:10ABE00000F5AC7018477047000001200348D0F80A
:10ABF0008C3113B100F5BE7018477047000001207A
:10AC00000348D0F8B03113B100F5D0701847704741
:10AC1000000001200348D0F8D43113B100F5E270F0
:10AC200018477047000001200348D0F8F83113B1ED
:10AC300000F5F47018477047000001200348D0F871
:10AC40001C3213B100F50370184770470000012053
:10AC50000348D0F8403213B100F50C701847704724
:10AC6000000001200348D0F8643213B100F51570DC
:10AC700018477047000001200348D0F8883213B10C
:10AC800000F51E7018477047000001200348D0F8F7
:10AC9000AC3213B100F5277018477047000001204F
:10ACA0000138074B074A00EBC00003EB8000D0F8E7
:10ACB000800090420CBF952096203FF065B900BF00
:10ACC000000001200060024001382DE9E84100EB5E
:10ACD000C000134D1E46134B05EB800590460F46F2
:10ACE000D5F8800098420CBF952096203FF04CF993
:10ACF00095F995004FEA9811C5F89070C5F89860DD
:10AD00003FF0FEFB95F99530002B07DB03F01F00A9
:10AD100001225B090449824041F82320BDE8E88113
:10AD2000000001200060024000E100E0AB4B2DE993
:10AD3000F04F97B093F87E83A94B0025A94F00935D
:10AD4000A94BA3F5FA6ADFF8B892DFF8B8B24E461D
:10AD5000B30AA3F58013522B55D8534493F8883285
:10AD60000D2B50D8B8F1010FFC5640F01D81012C7D
:10AD70003FD14FF000094946204611F0B3FD11F0D4
:10AD800039FE90F800C0BCF1000F18BFBCF1540FA1
:10AD900014BF4FF0010C4FF0000C40F0018109F19D
:10ADA00004091FFA89F9B9F1100FE4D1002D00F060
:10ADB000B9808B4A00210DE0534493F888320D2B63
:10ADC0000FD8FB56A3420FD0013102F58672A9427B
:10ADD00080F2A480906803689B0AA3F58013522B2D
:10ADE000EAD90023A342EFD143799BF805009842AA
:10ADF000EAD17D4B5B4513D05BF8206FB30AA3F516
:10AE00008013522BA9D9B8F1010FF2D001230024ED
:10AE1000B8F1020FADD1002BABD0734B5B45EBD13A
:10AE2000009B013503F58673042D00938BD16F4B86
:10AE30004FF00108DFF8D0B1009303F57C73ABF15C
:10AE4000080A059308F1FF33DAF804209A4262DD1C
:10AE5000DBF80C60002E00F0DE833168B78801F16A
:10AE60003F41B7FA87F701F57E01C7F11F07890A4D
:10AE7000DAF81056002D40F3CB80594B002405E042
:10AE8000013403F58673AC4200F0C0801A688A4230
:10AE9000F6D14FF48673524ACBF8047003FB0424B6
:10AEA0005FFA88F3CBF8184016B1F3710323B3713E
:10AEB0007A000321012301FA02F0A16C03FA02F2E5
:10AEC0000143A164216D0A4322659AF80020002AFB
:10AED0006FD0626DBB401A43626516B13268B188AB
:10AEE000916199B20122D4F8AC00FDF7B1F8204687
:10AEF00008F10108FDF762F90123009AB8F1090F82
:10AF00008BF81C300BF1200B0BF8033C537402F14F
:10AF10001803009396D117B0BDE8F08FBCF1000F75
:10AF20007FF467AF58460DF06FFE9BF80540C3B243
:10AF3000022B00F27883431C2D4A5BB203EB4303E0
:10AF400098002C4B03F5727104E0994200F06B837A
:10AF500053F82C2FB242F8D11A79A242F5D11A58DF
:10AF6000002AF2D094460023234A516801336145F8
:10AF700013D0102B02F12402F7D14FF0FF3303EB73
:10AF8000C3031E4A02EB830393F89C30002B7FF42B
:10AF900030AF009BC3F808B042E7DBB2013BEEE7FD
:10AFA000002D7FF406AF24E7B4F1080318BF012396
:10AFB0002EE707F110029340626D134363651EB1E3
:10AFC000B38832681B04936101210022D4F8AC00DD
:10AFD000B94089B2FDF73CF889E700BF501801205D
:10AFE000FC070020E87805087804050840160020D2
:10AFF0000000014084FF04088000012000000120BF
:10B000000004014078030508E8010020032C6BDCF4
:10B010004FF4867303FB05A3D3F82406002800F041
:10B02000F082C3F81C160131CAB283F825270292B8
:10B03000542283F824276B1C0268CAF8103644791E
:10B0400001920DF0E1FDA94B864693F893330393EB
:10B050009BF810300493C3B2022B00F2E48200F19B
:10B06000010CA349A34800234FFA8CFC019A0CEB76
:10B070004C0C4FEA8C0C05E00133172B00F0D38207
:10B0800051F82C0F8242F7D10879A042F4D151F83F
:10B090000C000028F0D02C210EEB4E0EDFF8889229
:10B0A00001FB03F394494C4603EB8E030B44D3F8A6
:10B0B000EC124FF4867303FB05A3C3F8341600218A
:10B0C000C3F83006636898421DD00131243410293A
:10B0D000F8D18A4B93F8782052B90299542283F818
:10B0E000791083F8782003E00323804A82F89233B2
:10B0F000834B84488449854AC3E9D310C3F8582355
:10B1000017B0BDE8F08F4B1C7C49DBB2013B03EB71
:10B11000C30301EB830393F89C1006910029E7D148
:10B12000029983F89D104FF4867101FB05F08C2184
:10B130000446542083F89C002046A310744C0190D0
:10B14000504404FB03F33468C0F81417C0F82046D9
:10B1500003FB01F1059C03EB430304EB410103EB0B
:10B160000313C0F810176B4901EB8303C0F8C8360E
:10B170003323C0F8CC36684B01981C185B4BD3F8CE
:10B18000E410039B062B00F03782072BDFF89CC1ED
:10B19000624B634814BF4FF0710C1846614B04BFFB
:10B1A00063464FF01C0CB1FBF3F3B1FBF0F1013B34
:10B1B000104601399AB24FF4867303FB05A3A3F836
:10B1C000D016A3F888260293019B2266002203F181
:10B1D0005801514BA4F8582062661944E265484A68
:10B1E00042F8C4CC41F076FA029BD3F824261068CA
:10B1F0000292036843F08003036053790C2B08D854
:10B20000DFE803F06C070707640707075B0707071A
:10B2100052004FF4867303FB05A3D3F828164FF0B2
:10B22000600C026800234FF0020ECDF838C04FF4D6
:10B23000807C22F001021093CDF850C04FF0010C39
:10B240001393CDF83CC04FF00A0C1593CDE911CE05
:10B2500002600EAA41F0FCF84FF48672029B02FBDA
:10B2600005A2D2F828161A680023012900F08C8163
:10B27000042900F08981102900F0C881402900F0DC
:10B280008381B1F5807F53D0B1F5806F50D0B1F597
:10B29000805F00F0C481B1F5803F4FF03C030CBFEC
:10B2A00008214FF4006145E04FF486734FF480515C
:10B2B00003FB05A3C3F82816B1E74FF486734FF4D8
:10B2C000807103FB05A3C3F82816A8E74FF4867323
:10B2D000102103FB05A3C3F82816A0E74FF48673DB
:10B2E000012103FB05A3C3F8281698E75018012095
:10B2F00084FF040800000140A8FC040800000120AD
:10B30000D812002055650108516501085D650108E6
:10B310006B4CA40700170020FC07002010552200EA
:10B3200044950800D0DD06008000012040771B0016
:10B330000821042302F1180050F803C041EA0C016F
:10B34000C150029B1879002840F027814FF4867283
:10B35000002302FB05A2D2F82406D2F830160068BA
:10B36000026842F001020260D9F8042001339142E0
:10B3700000F00F81102B09F12409F5D14FF0FF33B4
:10B38000AC4A03EBC30302EB8303D3F88000AA4B60
:10B3900098420CBF952096203EF0F6FD4FF4867340
:10B3A00003FB05A3D3F8242653790C2B00F2EE807F
:10B3B000A24901EB4303B3F8F8C74FF48673106852
:10B3C0009F4903FB05A3A3F82CC6002306E0904287
:10B3D00000F01F810133042B00F0288151F8332045
:10B3E000002AF4D1DAF818260132CAF818260AEB36
:10B3F000C302DB00C2F84C0A194406982346902287
:10B40000B1F804E0DFF850924CEA0E0CA1F804C049
:10B410008C49FFF759FC60694FF486734FF4804CF8
:10B4200003FB05A5036843F010030360036843F0C2
:10B43000140303600023C4E91F33C4E92833C4F8AC
:10B44000A8300423D5F83426C4F89C304FF4806328
:10B45000C4F894204FF44032C4F88430C4F89820E3
:10B460004022A267D5F8CC26C4F89020C2B2D5F805
:10B47000201620F0FF00103A18312167A9FB023195
:10B48000019B4FF480520909C4F8882003F170022F
:10B490006D4B1A44D5F8C836C4F88CC063673FF0CA
:10B4A00089FED5F83006019B4FF40031D0F800E05A
:10B4B0004FF4006C03F1B802634BC4F820E0D0F8FD
:10B4C00014E01A440023C4F824E0D0F804E0C4F8DF
:10B4D00028E0D0F808E0C4F82CE0D0F80CE0C4F87C
:10B4E000C830C4F830E0C4F8F030C4E93033C4E9FF
:10B4F0003A33D5F8343601930423C4F8E4304FF4DA
:10B500008063C4F8CC30019BC4E93731D5F81437D7
:10B51000C4F8D830C3B220F0FF00103BA9FB0331C0
:10B52000D5F82036C4F8D0C010330909C4F8B830B3
:10B53000D5F8103701934FF48043C4F8D430019B01
:10B54000C4F8BC303FF036FED5F830265FFA88F3F9
:10B55000116861635169A1635168E1639168216475
:10B56000D1686164116841F010011160116841F007
:10B5700014011160049ACBF804708BF81020CBF8FA
:10B580000C60CBF8184090E40821D3E64FF0000C93
:10B5900013E7DBB20693013BF2E603920DF0C4FB26
:10B5A000039A20B30268254B02F13F42079002F54F
:10B5B0007E0203EB9222029B92F8F0071A7A039222
:10B5C0003EF0E2FC079B039A99880D9200221868CE
:10B5D0000C92089108A90393CDE90A22022209924C
:10B5E00040F032FD5422039BDA80029B1A68536CB0
:10B5F00043F400435364A9E614484FF0380C144B4D
:10B60000D1E50223134A82F8923371E54FF40061C9
:10B6100090E6DB00F0E64FF0FF37394628E44FF4C0
:10B620000061042386E600235B68FFDE00239B881D
:10B63000FFDE00BF0000012000600240A8FC0408FB
:10B640002C0C00209D800008FC070020882A110097
:10B65000A0BB0D0050180120ABAAAAAA2DE9F04109
:10B66000834DC0EB001605EBC606D6F89433002BCD
:10B6700000F0BC800446070196F804043EF084FC08
:10B6800096F80434012203F01F015B09013B8A4054
:10B69000032B0AD8DFE813F0E0000400E600DA002C
:10B6A00074494B6A23EA02024A623B1B04F1010817
:10B6B00005EBC3035FFA88F893F898030DF034FBA9
:10B6C00018B1122380F8078083713B1B05EBC3037D
:10B6D00093F899030DF028FB064618B1132380F860
:10B6E000078083713B1B05EBC30393F89A030DF0AE
:10B6F0001BFB18B1142380F8078083713C1B2E219B
:10B70000304605EBC40494F89C230DF05BFB94F8E1
:10B710009A030DF009FB94F89D230E210DF052FBC6
:10B7200094F898030DF000FB94F89B232E210DF064
:10B7300049FBD4F8943350491A688B4222F04002F6
:10B740001A6055D04D4A934269D002F58062934207
:10B7500058D1484A116A41F400411162116A21F43A
:10B76000004111625A6842F480525A601A685206C7
:10B7700034D443491E68D1F8D442D1F8E002D1E96B
:10B78000B025B0F5005F42EA0502D1F8CC5242EA9A
:10B790000502D1F8D05242EA0502D1F8D85242EA65
:10B7A000040242EA0502D1F8DC5242EA0502354DB4
:10B7B00042EA000205EA060542EA05021A60D1F8EB
:10B7C000C8225D6842EA14422F4C04EA050442EAAA
:10B7D00004025A6002D1B1F8E4221A61DA6922F453
:10B7E0000062DA611A6842F040021A60BDE8F08136
:10B7F000204A516A41F480515162516A21F48051CA
:10B800005162AFE7214A934213D11A4A516A41F477
:10B8100000515162516A21F400515162A2E7154A68
:10B82000116A41F480411162116A21F48041116270
:10B8300098E7174A934295D10E4A516A41F4801114
:10B840005162516A21F4801151628BE709490B69F9
:10B8500023EA02020A6128E706494B6923EA020249
:10B860004A6122E703490B6A23EA02020A621CE7E3
:10B8700050180120003802400030014000380040DC
:10B88000000001204000FFFFFBF0FFFF00340140FB
:10B890000050014030B40469002341684025E46849
:10B8A00082690C31546244699560536093631160FE
:10B8B000C2E90333C2E90533C2E90733C2E90A33F7
:10B8C000C2E90C3384B1C269E068936350621160CD
:10B8D000C2E90133C2E90333C2E90533C2E90733E0
:10B8E000C2E90A33C2E90C3330BC7047114A037A0B
:10B8F0000168D35C10B4CC58CA1824F00104CC50B1
:10B900001368DB07FCD4037D1F2B09D9203B2022C1
:10B910005DF8044B02FA03F343F01803CB60704761
:10B9200020225DF8044B02FA03F343F018038B6006
:10B93000704700BFF8780508F0B50668356A002939
:10B940005CD12F68AC68D6F818E0002F5FD0364B7A
:10B950003B40B3F1005F61D007F01F0104F11F030A
:10B9600027F01F02194421F01F01BFF34F8F002958
:10B970000BDD114402F12003DFF8B0C08B42CCF89C
:10B9800068221A4603F12003F8D1BFF34F8FBFF3AB
:10B990006F8F03684FF48062CEF80470CEF81420E5
:10B9A0005B69CEF8204043B36868F669002837D059
:10B9B0001D4B0340B3F1005F1AD000F01F0220F0CE
:10B9C0001F011F32224422F01F02BFF34F8F002AB3
:10B9D0000ADD0A4401F12003144D9A42C5F87012A1
:10B9E000194603F12003F8D1BFF34F8FBFF36F8FD8
:10B9F0004FF48063706073613462F0BDEC69002CB9
:10BA0000FBD06F691435D6F818E0002F9FD1084A93
:10BA10003346CEF81470CEF80420C1E73346B9E7B8
:10BA2000044B70617360E7E70000FFFF00ED00E08A
:10BA30005C00002060000020F8B507680646D7E9E2
:10BA40000454002C50D0A0612B7D1F2B39D820220C
:10BA5000286802FA03F343F018038360237D1F2B49
:10BA60003AD92022203B02FA03F3226843F018035C
:10BA7000D3606368002269680A601A601A6842F03D
:10BA800010021A60BA69297A3FF094FBFA69217AA8
:10BA900020683FF08FFB2A7A2A492F6833688D5C33
:10BAA0005A687B59206843F001037B51237AC95CB3
:10BAB000435843F001034350536843F0030353607A
:10BAC000F8BD203B2022286802FA03F343F0180354
:10BAD000C360237D1F2BC4D8202202FA03F32268FF
:10BAE00043F018039360C4E72A7D6B681F2AA8619E
:10BAF0001FD82021286801FA02F242F01802826061
:10BB00000021BA691960196841F010011960297A99
:10BB10003FF050FB2A7A0B4933682868895C5A68E1
:10BB2000435843F001034350536843F0020353600A
:10BB3000F8BD203A2021286801FA02F242F01802EA
:10BB4000C260DDE7F8780508014B43F82010704724
:10BB500050280040F0B5A24CA5B0E368022B00F0DD
:10BB60003A82A048A04AA149121A43F073FEA048A5
:10BB7000A04AA149121A43F06DFEA368012B00F2FE
:10BB8000C28003EB43039D4A9D4D02EB430032F814
:10BB9000132041888388C5E9BA21C5F8F032994C51
:10BBA000994E9A4BB2FBF1F2994901FB02F2002146
:10BBB000C6F8E420D4F8882042F47002C4F8882043
:10BBC0001A6842F001021A609960924A18680240AD
:10BBD00091481A60C0F30807904A5A601A6822F424
:10BBE00080221A60D96007B1FEE78D49A0604FF648
:10BBF000FF000A688B4B42F400720A60E268024060
:10BC00001343E3603EF000FDBFF34F8FBFF36F8F30
:10BC1000C4F85072BFF34F8FBFF36F8F636943F463
:10BC200000336361BFF34F8FBFF36F8FC4F884702D
:10BC3000BFF34F8FD4F8803043F6E07CC3F3C90ED6
:10BC4000C3F34E33580100EA0C01734641EA837294
:10BC5000013B5F1CC4F86022F8D1203810F1200F9E
:10BC6000F1D1BFF34F8F636943F480336361BFF356
:10BC70004F8FBFF36F8F6A49644B0A6842F480723A
:10BC80000A60196C684A41F080511964196C01F01E
:10BC9000805102910299116841F44041116012688B
:10BCA000D5F8E80202F44042D5F8EC42D5F8F0129B
:10BCB0000192019A9A6802F00C02042A00F08D8029
:10BCC0009A6802F00C02082A00F083804F4A136839
:10BCD00043F480331360D6F8747504E0D6F87435F5
:10BCE000DB1B642B74D813689B03F7D5474A936812
:10BCF00003F00C03082B6BD0136823F080731360E0
:10BD0000D6F8747508E03E4DD5E9BA2147E7D6F874
:10BD10007435DB1B022B5BD813689B01F7D40B0631
:10BD2000640843EA8013611E43EA01433F49194313
:10BD3000364B5160116841F080711160D6F874156E
:10BD400004E0D6F87425521A022A41D81A689201E2
:10BD5000F7D5196C344A41F0805119641B6C03F01B
:10BD600080530393039B136843F480331360D6F826
:10BD7000741506E0D6F874355B1AB3F57A7F00F2D5
:10BD8000CB805368DF03F5D51368274943F40033AC
:10BD90001360D6F8742506E0D6F874359B1AB3F50F
:10BDA0007A7F00F2B9804B689C03F5D54FF40012FE
:10BDB0004FF0006304A804924FF4C072219307234C
:10BDC000CDE9082303230A9339F0B2FC80B3FEE7E0
:10BDD000FEE75B685A027FF579AF0C4B1B6885E77D
:10BDE0005028004000000000A83700005C00060852
:10BDF00000000020E001002014520608BC040508E1
:10BE00000000012000ED00E0501801200038024041
:10BE100040420F00FFFFF6FE000000081030002433
:10BE2000003C02400003FA0500700040080040207A
:10BE30006C4A136803F00F03062B0AD8136823F02B
:10BE40000F0343F007031360136803F00F03072B7E
:10BE500063D1654B9A6842F4E0529A609A6842F462
:10BE600060429A609A6822F0F0029A601A68900123
:10BE700053D59A6841F2883122F0030242F002025F
:10BE80009A60D6F8740504E0D6F87425121A8A422E
:10BE900043D89A6802F00C02082AF5D1514A136877
:10BEA00019070AD5136823F00F0343F00703136043
:10BEB000136803F00F03072B2FD14B4C4B4FA36894
:10BEC00023F4E05343F4A053A360A36823F4604336
:10BED00043F40043A36039F0E5F9A368C3F3031307
:10BEE0003B4493F82038D840C6F8E4003EF08CFB81
:10BEF000002304A8CDE91333CDE91533CDE9173379
:10BF0000CDE91933CDE91B33CDE91D33384B04930B
:10BF100039F00EFC10B1FEE7FEE7FEE702234FF01A
:10BF2000007204A8CDE90633D823CDE90423012308
:10BF30000B9339F0FDFB00B1FEE7D4F88C3023F011
:10BF40008073C4F88C30D4F88C3043F08073C4F81C
:10BF50008C30A36803F00C03042B36D0082B18D0C8
:10BF6000244BC6F8E430204AD5E9BA31B3FBF1F3EB
:10BF70009168D6F8E420C1F303110F4497F8201814
:10BF8000CA401D4901FB03F3C6F8E420934220D0C8
:10BF9000FEE76368626813F4800F636802F03F0293
:10BFA00018BF1649C3F3881308BF1249B1FBF2F258
:10BFB00002FB03F30C4A5268C2F301420132520001
:10BFC000B3FBF2F3C6F8E430CDE70C4BC6F8E4302F
:10BFD000C9E725B0F0BD00210320FFF7B5FDFEF74E
:10BFE0009FFA00BF003C024000380240A8FC040851
:10BFF000C0FF03000024F40040420F0000127A004A
:10C000001D4B1E48196C1E4A41F0805130B4196412
:10C0100082B0196CFF2401F08051019101990168EF
:10C0200041F480710160CA20196C41F48061196487
:10C03000196C01F4806100915321009D546250629B
:10C0400051625B6FDB000DD40E4B00210E4A43F8AA
:10C05000041B9342FBD10D4B0D4AC3F8502802B08C
:10C0600030BC7047094A0A4BD2F850289A42EBD1AB
:10C0700002B030BC704700BF003802400070004082
:10C0800000280040542800406C2800400020004058
:10C0900031666542800AA0F58010522808D8054B09
:10C0A000184490F888320D2B02D8034AD0567047B6
:10C0B00000207047A8FC0408E8780508F0B504469D
:10C0C000D0F89400434B83B0A16804F1640204F1FA
:10C0D00018070E68C1B220F0FF0001921039A3FBCF
:10C0E000013109093FF0B0F8616D0023019A01297F
:10C0F00084F8583018D0042916D0102955D040297A
:10C1000012D0B1F5807F53D0B1F5806F50D0B1F52A
:10C11000805F55D0B1F5803F4FF03C030CBF6FF00E
:10C12000080C6FF4006C01E06FF0080C06F11805C4
:10C130003046E95801EA0C01E950616D40F088F998
:10C14000636D012B16D0042B14D0102B0FD0402B75
:10C1500010D0B3F5807F2FD0B3F5806F2CD0B3F51E
:10C16000805F31D0B3F5803F06F1540502D04FF423
:10C17000006100E008212B683A46D4F894000B4394
:10C1800040212B602162C1B2124B20F0FF00103918
:10C19000A3FB013109093FF00DF8D4F8942013688E
:10C1A00043F01003136003B0F0BD6FF4006CBDE703
:10C1B0006FF0080C0423B9E706F11C050821DAE743
:10C1C0006FF4006C0423B1E706F11C054FF4006125
:10C1D000D1E700BFABAAAAAA944B2DE9F04F1C7877
:10C1E0002DED028B85B034B90124204605B0BDEC9D
:10C1F000028BBDE8F08F8E4B8E4FD3F88C3008EE5B
:10C20000103A0DF00DF897F8E43B0190002B00F088
:10C210000681864B07F1480AA7F1C004002603F502
:10C22000887B5D46CDF80CB0D7F83033019AD31A2D
:10C2300003D4EA6D9A4200F3D5807C4A06EB86036C
:10C2400002EB431393F8683103F0FF020092002BD6
:10C2500000F08E80D5F89410AB6877481A68CBB29E
:10C2600021F0FF01103BA0FB030374481B09C35CD2
:10C2700019444B68A9891FFA83FED368CEF1160EC4
:10C2800023EA0103BEF1070FD36071D957F8B83C18
:10C2900000220121013390468B4647F8B83CD5F87F
:10C2A0009C309C4602935CF8049B48461DE0DCF8F9
:10C2B0000090B8F1140FA9EB000348461EDC13F1FF
:10C2C000080948BF03F117094FEA291308EB291899
:10C2D00003F1FF39013102FA03F30CF1040C0BFAFC
:10C2E00009F28E4542EA030208D38E45DFD8C8F131
:10C2F0001503DCF800004FF01508E9E7B8F1150F59
:10C3000067D14F49C2F38423C2F3441001EB830386
:10C3100001EB8000D3F83038D0F830081B0243EA34
:10C32000001302F01F00C2F3C43201EB800001EBE6
:10C330008202D0F83018D2F830280B4343EA023397
:10C3400083EA132282EA121202F00F020F2A40D16E
:10C35000C3F30F134FF6FF7293423AD0B3F5606FF9
:10C3600047D0A381009918EE102A50460BF0D6FC56
:10C3700028460136FFF7A2FE97F8E43B0AF15C0A73
:10C380001434B34205F1A0053FF74EAF012100225E
:10C39000DDF80CB087F84610C7F83023002B3FF4C7
:10C3A00023AF03EB83030BEB43139BF810200BF13C
:10C3B000A00B5BF84C0C12F0020F5BF8982C116884
:10C3C0000A6A14BF42EA800202435B450A62ECD16A
:10C3D0000AE757F8BC3C013347F8BC3CC6B1002320
:10C3E0000093BFE70024204605B0BDEC028BBDE8FA
:10C3F000F08F0F4991F8982102EB420201EBC20243
:10C40000324492F845210D2AABD18023A377A9E7C6
:10C41000029958220B4843F01DFA0096A2E7012228
:10C42000C7F8303387F84620DFE600BFE001002080
:10C4300050180120D8120020ABAAAAAAF878050843
:10C44000A8FC0408C4120020830AA3F58013522B11
:10C4500045D8F0B50446624885B0034493F8880295
:10C460000D283AD85F4D860105EB8013D3F8787517
:10C47000A74232D00139C3F8784589B2C3F8841590
:10C48000D5F8E410B1FBF2F2013AC3F87C2505F5CA
:10C49000AF6202EB80100022C3F88825C3F8802524
:10C4A000C3F88C2538F0FAFB4F4B9C4218D0B4F1FE
:10C4B000804F15D0A3F57C439C4272D003F5806376
:10C4C0009C426ED0494A03F57C439C4218BF94427B
:10C4D00046D003F570539C4242D005B0F0BD704782
:10C4E00000234FF48051AA19CDE9001392F8B41536
:10C4F0000129CDE90233F0D00221D2F878050124D8
:10C5000082F8B5153A4987683940816082F8B545A7
:10C5100082F8B4350023AA19CDE90033029392F8CA
:10C52000B435012BD9D0D2F8783502212E4882F8C3
:10C53000B51583425A6899684ED000F580608342F1
:10C540004AD022F0700221F08001354401205A6067
:10C550009960002385F8B50585F8B43505B0F0BDC0
:10C5600000214FF48053CDE90031AB1993F8B42585
:10C57000012ACDE90211B0D0D3F87805022283F860
:10C58000B5251B4A87683A4082601A4A83F8B41579
:10C590000121944283F8B515BCD0144B9C429CD128
:10C5A000B8E700224FF48051AB19CDE9001293F89F
:10C5B000B4150129CDE902228FD00221D3F87805E4
:10C5C000012483F8B5150A4987683940816083F8EA
:10C5D000B54583F8B4259DE722F47002B1E700BFAA
:10C5E000A8FC04085018012000000140000C004085
:10C5F0008800FEFF0004014003689B0AA3F5801336
:10C60000522B58D8F0B53D4C234493F888320D2B6B
:10C6100050D84479A608002952D003EB8300384D46
:10C620004FF0020CA40803EB40000CFA04F4304471
:10C6300005EB8316D6F8786505EB800CF768CCF827
:10C640003C193C43CCF84C29F4609C01EFF3118C6D
:10C65000502282F312882C2203FB02F2A818D0F891
:10C66000381949B30A1DC0F85C1926492C20264EFA
:10C6700003FB00F006EB000E1430014451F8040BEC
:10C6800018B1106051F8042C04328E45F6D1002107
:10C690005FFA8CFC11608CF311882C222C4402FB75
:10C6A0000353D4F87825D3F85C3913B3D36843F037
:10C6B0000103D360F0BD7047243212490A44D5E724
:10C6C00003EB83000E4D344603EB4000304405EB92
:10C6D0008316D6F878750226A640FC6824EA06047C
:10C6E000FC6005EB8004C4F83C19C4F84C299C019B
:10C6F000ACE7D36823F00103D360F0BDA8FC0408C5
:10C700005018012088210120AC2101200149024854
:10C71000FCF7B0BA882101200000014010B5064C9A
:10C72000064804F63811FCF7A5FA04F6C4210448BB
:10C73000BDE81040FCF79EBA5018012000000140EF
:10C740000044014002494FF08040FCF793BA00BF1B
:10C75000B421012001490248FCF78CBAE0210120F4
:10C760000004004001490248FCF784BA0C22012071
:10C770000008004001490248FCF77CBA3822012039
:10C78000000C00402DE9F843194E3569F3681D404F
:10C7900010D04FF00047DFF85C80B5FA85F227FA39
:10C7A00002F31F2A6FEA030305EA0305336103D08E
:10C7B000002DF2D1BDE8F883D8F83C3AA3B103F1DB
:10C7C000FF3900231FFA89F9C8F83C3AD8F8384AEB
:10C7D000002CEDD023682046494698476468002C19
:10C7E000F8D1002DD9D1E5E7F16A1FFA81F9EDE71B
:10C7F000001000405018012001490248FCF73ABAE5
:10C80000BC2201200004014010B5064C064804F685
:10C810006C21FCF72FFA04F648310448BDE81040BB
:10C82000FCF728BA5018012000040140001C004009
:10C8300001490248FCF71EBAE822012000400140ED
:10C8400001490248FCF716BA402301200048014084
:10C8500001490248FCF70EBA6C2301200018004081
:10C860002DE9F04F4FF4257295B00021804843F038
:10C8700065F8804B804F4FF080415A6C07F12004DF
:10C88000B94642F0010207F51E65A246DFF8F481C1
:10C890005A645A6C794E02F001020092009A1A6CA6
:10C8A00042F001021A641A6C02F001020192019A2C
:10C8B0001A6C42F002021A641A6C02F0020202922E
:10C8C000029A1A6C42F004021A641A6C02F0040212
:10C8D0000392039A1A6C42F008021A641A6C02F06E
:10C8E00008020492049A1A6C42F010021A641A6C3C
:10C8F00002F010020592059A1A6C42F020021A64A6
:10C900001A6C02F020020692069A5A6C42F0020259
:10C910005A645A6C02F002020792079A5A6C42F467
:10C9200080325A645A6C02F480320892089A5A6C27
:10C9300042F400325A645A6C02F400320992099AA5
:10C940005A6C42F480225A645A6C02F480220A9291
:10C950000A9A1A6C42F040021A641A6C02F0400201
:10C960000B920B9A1A6C42F080021A641A6C02F055
:10C9700080020C920C9A1A6C42F480721A641B6C3E
:10C9800003F480730D930D9B4246002301E056F89B
:10C9900033208A420CD001330E2BF8D10AF1200A41
:10C9A00000203DF0F1FA55450DD05AF8201CEBE778
:10C9B000334A0AF1200A02EBC30393F87C013DF0ED
:10C9C000E3FA5545F1D107F51C67DFF8BCB0DFF895
:10C9D000BCA009F120094F4526D099F80630002B5C
:10C9E000F7D099F804000CF09FF906460028F0D023
:10C9F000036809F1200919F8188C53440BEB9323B1
:10CA000093F8F0073DF0C0FAB288306800230E9228
:10CA100002220EA9CDF84C80CDE90F23CDE91133C8
:10CA20003FF012FB4F45D8D14FF08041154F134EC8
:10CA30003A46002301E056F833208A420BD00133F6
:10CA40000E2BF8D1203400203DF09EFAAC420CD0E1
:10CA500054F8201CECE70A4A203402EBC30393F895
:10CA60007C013DF091FAAC42F2D115B0BDE8F08FF7
:10CA7000882101200038024058050508180F0508D4
:10CA8000A00D050800000140A8FC04080000FEBF3E
:10CA900008B572B6FDF744FD30B5032083B0FDF74D
:10CAA00051FD01284BD0324C0025324A0523C4F8F1
:10CAB0009850C4F89C50C4F8A020C4F89430BFF338
:10CAC0004F8FBFF36F8F4FF6FF01E2682A4B0A408A
:10CAD00013432A4AE360536F38F0E4FB284B29499B
:10CAE000A3FB0023D4F8FC209B0C42F08072C4F816
:10CAF000FC20C1F8CC3BD1F8E4302349234AA1FB08
:10CB0000031323499B09C2F8B01F5560013B11680C
:10CB1000B3F1807F41F00101116008D24FF0E022B3
:10CB2000F0215361072384F82310956113614FF0BE
:10CB3000E022136943F00403136103B030BD022106
:10CB40000320FFF701F80D4B12485A6C124942F4CA
:10CB500080425A645B6C03F480430193019A02683B
:10CB60000B68026083F308884B689847FEE700BFB4
:10CB700000ED00E01B0000060005FA050038024049
:10CB800083DE1B4350180120D34D6210001000E0DB
:10CB900055CEACC5003801400000F01FD0F8201180
:10CBA000242200232DE9F041C0F8942104460A68AC
:10CBB000806804F5907522F001020A600B604B60FA
:10CBC0008B6094F805C0C4F89C314FEA8C22C4F8FD
:10CBD000943184F8903102F48052C4F89831C4F84A
:10CBE0003831C4F828214FEA0C32C4F8403102F43D
:10CBF0000052C4F834312379C4F82C214FEA0C22B6
:10CC0000C4F8240113F0010002F48062C4F830215A
:10CC100002D00422C4F8342113F0020305D0D4F862
:10CC2000342142F00802C4F834211CF0010F0DD069
:10CC300048B1D4F8442142F00202C4F844214FF430
:10CC40008032C4F84C21002B40F0FF80A64B03F14A
:10CC5000200053F8042F944200F0BD809842F8D190
:10CC60001CF0080F40F0CD80D4F89431002B00F078
:10CC7000128124232846C4F894310B6823F0010361
:10CC80000B6038F043FB012815D0D4F84431002B59
:10CC900040F01481D4F8203128465A6822F490429A
:10CCA0005A609A6822F02A029A601A6842F00102D9
:10CCB0001A603FF09DF92379DA0761D5D4F8FC209A
:10CCC000002A00F0D5800023D4F8041104F13C06BA
:10CCD000E263A3644FF480623046E264C4E9101357
:10CCE000C4E91433C4E91833C4E91A334FF4803368
:10CCF000E3654FF48073A3653FF070FD304638F074
:10CD0000FBF8D4F89881C4F88C61B8F1200F6567FE
:10CD100031D1E368626999B26AB3B1FA81F77F09E8
:10CD200049B394F89001012825D030460126C4F873
:10CD30009C710B4684F890612226A4F87811C4F8FF
:10CD400098616A4ED4F82011A667694E2431C4F860
:10CD50007421E667674EC4F88C70C4F8886038F0B8
:10CD600069F9002800F0AE80102384F89071C4F8AF
:10CD70009C31C4F89481E26B23795268C4F8142181
:10CD80009B0773D5D4F80021002A69D00023D4F87A
:10CD9000081104F19C06C4F89C20C4F8A830402275
:10CDA000C4F8B8303046C4E92C33C4E93033C4E9A0
:10CDB00032334FF48033C4F8BC304FF48063C4E99D
:10CDC0002812C4F8AC303FF009FD304638F094F832
:10CDD000002863D0FEE7002C3FF442AF94F8B8314E
:10CDE000002B3FF43DAFD4F844311CF0080F43F062
:10CDF0000803C4F844314FF40043C4F854313FF4FD
:10CE000033AFD4F89431002B51D024232846C4F8F2
:10CE100094310B6823F001030B6038F077FA012896
:10CE20003FF449AFD4F84431002B43D1D4F820313A
:10CE300028465A6822F490425A609A6822F02202E8
:10CE40009A609A6842F008022EE7D4F8443143F021
:10CE50000103C4F844314FF40033C4F84831F5E617
:10CE6000D4F8A021136843F080031360BDE8F0817B
:10CE7000D4F8A021116841F480711160916841F0EB
:10CE800001019160116841F020011160116841F0C9
:10CE90001001116074E784F89031EAE6D4F89C3010
:10CEA000C4F88861C4F8D4505860BDE8F08184F8B3
:10CEB0009031AAE7284638F0E3FBB7E7284638F078
:10CEC000DFFBE7E6D4F8203184F890011A6842F4D9
:10CED00080721A609A6842F001029A609A6842F081
:10CEE00040029A6047E700BFC41E002001250408E5
:10CEF0003125040835250408F8B5EFF311855023D2
:10CF000083F31288D0F800311B6813F0010303D0BB
:10CF1000EDB285F31188F8BDD0F894210446D0F81D
:10CF200098110A4302F02102212AF1D0D0E9090127
:10CF3000884253D043D822691846531A9BB2D4F87A
:10CF400094710022A062202F84F8A421E0D1A2696C
:10CF50005118DDD0B3FA83F67609002BD8D094F8B7
:10CF60009021012AD4D00122D4F88801A4F872318A
:10CF700084F890212122C4F89C61C4F86C11A4F8B3
:10CF80007031C4F89421E8B1DFF858C0D4F82021FA
:10CF9000C0F83CC0DFF850C028320665C0F840C079
:10CFA000DFF848C0C0F84CC038F044F850B1102346
:10CFB00084F89061C4F89C31C4F89471A8E7431ACE
:10CFC0009BB2BCE7D4F8203100224021196284F8DA
:10CFD00090219A6842F080029A6099E7012384F8D0
:10CFE000A43195E7D9240408FD2404083525040854
:10CFF000F8B5D0F820310446DA69910615D5586A9B
:10D00000E36AC0B2002B00F0D580216B9847D4F8BA
:10D0100020311A6822F480721A609A6822F00102A4
:10D020009A609A6942F008029A61DA69D20701D5DA
:10D0300001221A62DA69970701D502221A62DA69B7
:10D04000560701D504221A62DA69150701D50822AC
:10D050001A62D4F8002152B3D96949060AD4DA69B0
:10D06000D20606D5626B12B19047D4F82031102257
:10D070001A62F8BDD96904F590701E680F079D68A3
:10D080002DD18F0602D5B50600F1C8800F0602D556
:10D09000350600F1B380480602D5710600F1A38081
:10D0A00012B12046FFF728FFD4F82031D7E7D9691D
:10D0B0000806D1D5D4F894112129CDD0D4E909019D
:10D0C000814200F0A480A069405C0131C0B2986246
:10D0D0002069B1FBF0F500FB1511A162BCE705F07A
:10D0E000010506F4907C5CEA0507CFD0CF0709D58F
